{
  "contractName": "Survey",
  "abi": [
    {
      "inputs": [
        {
          "internalType": "address",
          "name": "_creator",
          "type": "address"
        },
        {
          "internalType": "string",
          "name": "_name",
          "type": "string"
        },
        {
          "internalType": "string",
          "name": "_description",
          "type": "string"
        },
        {
          "internalType": "uint256",
          "name": "_bonusAmount",
          "type": "uint256"
        }
      ],
      "stateMutability": "nonpayable",
      "type": "constructor"
    },
    {
      "anonymous": false,
      "inputs": [
        {
          "indexed": false,
          "internalType": "string",
          "name": "s",
          "type": "string"
        }
      ],
      "name": "Log",
      "type": "event"
    },
    {
      "anonymous": false,
      "inputs": [
        {
          "indexed": false,
          "internalType": "enum SurveyInterface.Status",
          "name": "_status",
          "type": "uint8"
        }
      ],
      "name": "SurveyStatusChanged",
      "type": "event"
    },
    {
      "inputs": [
        {
          "internalType": "uint256",
          "name": "",
          "type": "uint256"
        },
        {
          "internalType": "uint256",
          "name": "",
          "type": "uint256"
        }
      ],
      "name": "answers",
      "outputs": [
        {
          "internalType": "string",
          "name": "",
          "type": "string"
        }
      ],
      "stateMutability": "view",
      "type": "function"
    },
    {
      "inputs": [],
      "name": "build",
      "outputs": [
        {
          "components": [
            {
              "internalType": "string",
              "name": "name",
              "type": "string"
            },
            {
              "internalType": "string",
              "name": "description",
              "type": "string"
            },
            {
              "internalType": "uint256",
              "name": "bonusAmount",
              "type": "uint256"
            }
          ],
          "internalType": "struct SurveyInterface.SurveyBasic",
          "name": "info",
          "type": "tuple"
        },
        {
          "components": [
            {
              "internalType": "uint256",
              "name": "tokenAmount",
              "type": "uint256"
            },
            {
              "internalType": "uint256",
              "name": "gasAmount",
              "type": "uint256"
            },
            {
              "internalType": "uint256",
              "name": "totalGasSent",
              "type": "uint256"
            },
            {
              "internalType": "uint256",
              "name": "totalTokensSent",
              "type": "uint256"
            }
          ],
          "internalType": "struct SurveyInterface.LiquidityPool",
          "name": "pool",
          "type": "tuple"
        },
        {
          "internalType": "uint256",
          "name": "surveysTaken",
          "type": "uint256"
        },
        {
          "internalType": "enum SurveyInterface.Status",
          "name": "status",
          "type": "uint8"
        },
        {
          "internalType": "address",
          "name": "creator",
          "type": "address"
        }
      ],
      "stateMutability": "view",
      "type": "function"
    },
    {
      "inputs": [],
      "name": "questionCount",
      "outputs": [
        {
          "internalType": "uint256",
          "name": "",
          "type": "uint256"
        }
      ],
      "stateMutability": "view",
      "type": "function"
    },
    {
      "inputs": [
        {
          "internalType": "uint256",
          "name": "",
          "type": "uint256"
        }
      ],
      "name": "questions",
      "outputs": [
        {
          "internalType": "enum SurveyInterface.QuestionType",
          "name": "questionType",
          "type": "uint8"
        },
        {
          "internalType": "uint256",
          "name": "worth",
          "type": "uint256"
        },
        {
          "internalType": "bool",
          "name": "required",
          "type": "bool"
        },
        {
          "internalType": "string",
          "name": "title",
          "type": "string"
        },
        {
          "internalType": "string",
          "name": "description",
          "type": "string"
        }
      ],
      "stateMutability": "view",
      "type": "function"
    },
    {
      "inputs": [
        {
          "internalType": "enum SurveyInterface.Status",
          "name": "_status",
          "type": "uint8"
        }
      ],
      "name": "setSurveyStatus",
      "outputs": [],
      "stateMutability": "nonpayable",
      "type": "function"
    },
    {
      "inputs": [
        {
          "internalType": "uint256",
          "name": "_gas",
          "type": "uint256"
        },
        {
          "internalType": "contract Token",
          "name": "_token",
          "type": "address"
        },
        {
          "internalType": "string[]",
          "name": "_answers",
          "type": "string[]"
        }
      ],
      "name": "submitSurvey",
      "outputs": [
        {
          "internalType": "uint256",
          "name": "",
          "type": "uint256"
        }
      ],
      "stateMutability": "nonpayable",
      "type": "function"
    },
    {
      "inputs": [],
      "name": "name",
      "outputs": [
        {
          "internalType": "string",
          "name": "",
          "type": "string"
        }
      ],
      "stateMutability": "view",
      "type": "function"
    },
    {
      "inputs": [],
      "name": "bonusAmount",
      "outputs": [
        {
          "internalType": "uint256",
          "name": "",
          "type": "uint256"
        }
      ],
      "stateMutability": "view",
      "type": "function"
    },
    {
      "inputs": [],
      "name": "creator",
      "outputs": [
        {
          "internalType": "address",
          "name": "",
          "type": "address"
        }
      ],
      "stateMutability": "view",
      "type": "function"
    },
    {
      "inputs": [],
      "name": "status",
      "outputs": [
        {
          "internalType": "enum SurveyInterface.Status",
          "name": "",
          "type": "uint8"
        }
      ],
      "stateMutability": "view",
      "type": "function"
    },
    {
      "inputs": [],
      "name": "info",
      "outputs": [
        {
          "components": [
            {
              "internalType": "string",
              "name": "name",
              "type": "string"
            },
            {
              "internalType": "string",
              "name": "description",
              "type": "string"
            },
            {
              "internalType": "uint256",
              "name": "bonusAmount",
              "type": "uint256"
            }
          ],
          "internalType": "struct SurveyInterface.SurveyBasic",
          "name": "",
          "type": "tuple"
        }
      ],
      "stateMutability": "view",
      "type": "function"
    },
    {
      "inputs": [],
      "name": "pool",
      "outputs": [
        {
          "components": [
            {
              "internalType": "uint256",
              "name": "tokenAmount",
              "type": "uint256"
            },
            {
              "internalType": "uint256",
              "name": "gasAmount",
              "type": "uint256"
            },
            {
              "internalType": "uint256",
              "name": "totalGasSent",
              "type": "uint256"
            },
            {
              "internalType": "uint256",
              "name": "totalTokensSent",
              "type": "uint256"
            }
          ],
          "internalType": "struct SurveyInterface.LiquidityPool",
          "name": "",
          "type": "tuple"
        }
      ],
      "stateMutability": "view",
      "type": "function"
    },
    {
      "inputs": [],
      "name": "getBalance",
      "outputs": [
        {
          "internalType": "uint256",
          "name": "",
          "type": "uint256"
        }
      ],
      "stateMutability": "view",
      "type": "function"
    },
    {
      "inputs": [],
      "name": "getOverview",
      "outputs": [
        {
          "components": [
            {
              "internalType": "uint256",
              "name": "id",
              "type": "uint256"
            },
            {
              "internalType": "address",
              "name": "addr",
              "type": "address"
            },
            {
              "internalType": "uint256",
              "name": "worth",
              "type": "uint256"
            },
            {
              "internalType": "uint256",
              "name": "bonusAmount",
              "type": "uint256"
            },
            {
              "internalType": "string",
              "name": "name",
              "type": "string"
            },
            {
              "internalType": "string",
              "name": "description",
              "type": "string"
            },
            {
              "internalType": "enum SurveyInterface.Status",
              "name": "status",
              "type": "uint8"
            },
            {
              "internalType": "uint256",
              "name": "taken",
              "type": "uint256"
            },
            {
              "internalType": "uint256",
              "name": "gasLeft",
              "type": "uint256"
            },
            {
              "internalType": "uint256",
              "name": "tokensLeft",
              "type": "uint256"
            },
            {
              "internalType": "uint256",
              "name": "questionCount",
              "type": "uint256"
            }
          ],
          "internalType": "struct SurveyInterface.SurveyOverview",
          "name": "",
          "type": "tuple"
        }
      ],
      "stateMutability": "view",
      "type": "function"
    },
    {
      "inputs": [],
      "name": "worth",
      "outputs": [
        {
          "internalType": "uint256",
          "name": "",
          "type": "uint256"
        }
      ],
      "stateMutability": "view",
      "type": "function"
    },
    {
      "inputs": [],
      "name": "getQuestions",
      "outputs": [
        {
          "components": [
            {
              "internalType": "enum SurveyInterface.QuestionType",
              "name": "questionType",
              "type": "uint8"
            },
            {
              "internalType": "uint256",
              "name": "worth",
              "type": "uint256"
            },
            {
              "internalType": "bool",
              "name": "required",
              "type": "bool"
            },
            {
              "internalType": "string",
              "name": "title",
              "type": "string"
            },
            {
              "internalType": "string",
              "name": "description",
              "type": "string"
            },
            {
              "internalType": "string[]",
              "name": "choices",
              "type": "string[]"
            }
          ],
          "internalType": "struct SurveyInterface.Question[]",
          "name": "",
          "type": "tuple[]"
        }
      ],
      "stateMutability": "view",
      "type": "function"
    },
    {
      "inputs": [
        {
          "internalType": "uint256",
          "name": "qid",
          "type": "uint256"
        }
      ],
      "name": "getAnswers",
      "outputs": [
        {
          "internalType": "string[]",
          "name": "",
          "type": "string[]"
        }
      ],
      "stateMutability": "view",
      "type": "function"
    },
    {
      "inputs": [
        {
          "internalType": "string",
          "name": "_name",
          "type": "string"
        },
        {
          "internalType": "string",
          "name": "_description",
          "type": "string"
        },
        {
          "internalType": "uint256",
          "name": "_bonusAmount",
          "type": "uint256"
        }
      ],
      "name": "updateSurvey",
      "outputs": [],
      "stateMutability": "nonpayable",
      "type": "function"
    },
    {
      "inputs": [
        {
          "internalType": "enum SurveyInterface.QuestionType",
          "name": "_qtypes",
          "type": "uint8"
        },
        {
          "internalType": "uint256",
          "name": "_worth",
          "type": "uint256"
        },
        {
          "internalType": "bool",
          "name": "_required",
          "type": "bool"
        },
        {
          "internalType": "string",
          "name": "_title",
          "type": "string"
        },
        {
          "internalType": "string",
          "name": "_qdescription",
          "type": "string"
        },
        {
          "internalType": "string[]",
          "name": "_choices",
          "type": "string[]"
        }
      ],
      "name": "addQuestion",
      "outputs": [
        {
          "internalType": "uint256",
          "name": "",
          "type": "uint256"
        }
      ],
      "stateMutability": "nonpayable",
      "type": "function"
    },
    {
      "inputs": [
        {
          "internalType": "uint256",
          "name": "_id",
          "type": "uint256"
        },
        {
          "internalType": "enum SurveyInterface.QuestionType",
          "name": "_qtypes",
          "type": "uint8"
        },
        {
          "internalType": "uint256",
          "name": "_worth",
          "type": "uint256"
        },
        {
          "internalType": "bool",
          "name": "_required",
          "type": "bool"
        },
        {
          "internalType": "string",
          "name": "_title",
          "type": "string"
        },
        {
          "internalType": "string",
          "name": "_qdescription",
          "type": "string"
        },
        {
          "internalType": "string[]",
          "name": "_choices",
          "type": "string[]"
        }
      ],
      "name": "updateQuestion",
      "outputs": [],
      "stateMutability": "nonpayable",
      "type": "function"
    },
    {
      "inputs": [
        {
          "internalType": "contract Token",
          "name": "_token",
          "type": "address"
        },
        {
          "internalType": "uint256",
          "name": "_amount",
          "type": "uint256"
        }
      ],
      "name": "depositToSurveyTokenPool",
      "outputs": [],
      "stateMutability": "nonpayable",
      "type": "function"
    },
    {
      "inputs": [],
      "name": "depositToSurveyGasPool",
      "outputs": [],
      "stateMutability": "payable",
      "type": "function"
    },
    {
      "inputs": [
        {
          "internalType": "contract Token",
          "name": "_token",
          "type": "address"
        },
        {
          "internalType": "uint256",
          "name": "_amount",
          "type": "uint256"
        }
      ],
      "name": "withdrawFromTokenPool",
      "outputs": [],
      "stateMutability": "nonpayable",
      "type": "function"
    },
    {
      "inputs": [
        {
          "internalType": "uint256",
          "name": "_amount",
          "type": "uint256"
        }
      ],
      "name": "withdrawFromGasPool",
      "outputs": [],
      "stateMutability": "nonpayable",
      "type": "function"
    },
    {
      "inputs": [
        {
          "internalType": "address",
          "name": "_addr",
          "type": "address"
        }
      ],
      "name": "didUserTakeSurvey",
      "outputs": [
        {
          "internalType": "bool",
          "name": "",
          "type": "bool"
        }
      ],
      "stateMutability": "view",
      "type": "function"
    }
  ],
  "bytecode": "0x608060405260006001553480156200001657600080fd5b50604051620032a1380380620032a18339810160408190526200003991620001f3565b82516200004e90600490602086019062000096565b5081516200006490600590602085019062000096565b506006555050600c8054600160a060020a039092166101000261010060a860020a03199092169190911790556200030a565b828054620000a49062000285565b90600052602060002090601f016020900481019282620000c8576000855562000113565b82601f10620000e357805160ff191683800117855562000113565b8280016001018555821562000113579182015b8281111562000113578251825591602001919060010190620000f6565b506200012192915062000125565b5090565b5b8082111562000121576000815560010162000126565b600082601f8301126200014e57600080fd5b81516001604060020a03808211156200016b576200016b620002db565b604051601f8301601f19908116603f01168101908282118183101715620001965762000196620002db565b81604052838152602092508683858801011115620001b357600080fd5b600091505b83821015620001d75785820183015181830184015290820190620001b8565b83821115620001e95760008385830101525b9695505050505050565b600080600080608085870312156200020a57600080fd5b8451600160a060020a03811681146200022257600080fd5b60208601519094506001604060020a03808211156200024057600080fd5b6200024e888389016200013c565b945060408701519150808211156200026557600080fd5b5062000274878288016200013c565b606096909601519497939650505050565b6002810460018216806200029a57607f821691505b60208210811415620002d5577f4e487b7100000000000000000000000000000000000000000000000000000000600052602260045260246000fd5b50919050565b7f4e487b7100000000000000000000000000000000000000000000000000000000600052604160045260246000fd5b612f87806200031a6000396000f3fe60806040526004361061013a5760003560e060020a9004806331b1b978116100b557806331b1b978146102c4578063370158ea146102f557806338745a1c14610317578063482ff513146103375780634a4cd405146103575780638beeef2b146103775780638e1a55fc146103a75780638e6b582f146103cd57806397221ab7146103ed578063abadaf9a1461040f578063ad11c13114610424578063d6da669e14610439578063f93bbb871461045957600080fd5b806302d05d3f1461013f57806306fdde031461017357806312065fe0146101955780631275b3bb146101b35780631468aa2c146101d557806316f0115b146101eb5780631e59e02a1461020d5780631eea56a31461023a578063200d2ed21461025a57806320443e8d1461027a5780632401519c1461029c57806331767ffd146102bc575b600080fd5b34801561014b57600080fd5b50600c546101009004600160a060020a031660405161016a91906128f3565b60405180910390f35b34801561017f57600080fd5b50610188610479565b60405161016a9190612aee565b3480156101a157600080fd5b5030315b60405190815260200161016a565b3480156101bf57600080fd5b506101d36101ce366004612522565b61050d565b005b3480156101e157600080fd5b506101a560015481565b3480156101f757600080fd5b506102006106af565b60405161016a9190612c37565b34801561021957600080fd5b5061022d61022836600461268e565b610707565b60405161016a9190612920565b34801561024657600080fd5b506101d3610255366004612621565b610820565b34801561026657600080fd5b50600c5460ff1660405161016a9190612adb565b34801561028657600080fd5b5061028f6108ba565b60405161016a9190612cb0565b3480156102a857600080fd5b506101886102b736600461280c565b610a5b565b6101d3610b14565b3480156102d057600080fd5b506102e46102df36600461268e565b610b85565b60405161016a959493929190612a8d565b34801561030157600080fd5b5061030a610ccc565b60405161016a9190612c4b565b34801561032357600080fd5b506101d3610332366004612522565b610e2f565b34801561034357600080fd5b506101a561035236600461254e565b610f23565b34801561036357600080fd5b506101d361037236600461274b565b610fd0565b34801561038357600080fd5b506103976103923660046124e1565b61112f565b604051901515815260200161016a565b3480156103b357600080fd5b506103bc611160565b60405161016a959493929190612c5e565b3480156103d957600080fd5b506101d36103e836600461268e565b6112f6565b3480156103f957600080fd5b506104026113b4565b60405161016a9190612981565b34801561041b57600080fd5b506006546101a5565b34801561043057600080fd5b506101a56116e5565b34801561044557600080fd5b506101a56104543660046126c0565b611979565b34801561046557600080fd5b506101d3610474366004612604565b6121b5565b600480546060919061048a90612e23565b80601f01602080910402602001604051908101604052809291908181526020018280546104b690612e23565b80156105035780601f106104d857610100808354040283529160200191610503565b820191906000526020600020905b8154815290600101906020018083116104e657829003601f168201915b5050505050905090565b600c546101009004600160a060020a031632146105485760405160e560020a62461bcd02815260040161053f90612b38565b60405180910390fd5b6000811161056b5760405160e560020a62461bcd02815260040161053f90612bf2565b60405160e060020a6370a082310281528190600160a060020a038416906370a082319061059c9030906004016128f3565b60206040518083038186803b1580156105b457600080fd5b505afa1580156105c8573d6000803e3d6000fd5b505050506040513d601f19601f820116820180604052508101906105ec91906126a7565b101561060d5760405160e560020a62461bcd02815260040161053f90612b95565b60405160e060020a63a9059cbb028152600160a060020a0383169063a9059cbb9061063e9032908590600401612907565b602060405180830381600087803b15801561065857600080fd5b505af115801561066c573d6000803e3d6000fd5b505050506040513d601f19601f820116820180604052508101906106909190612505565b50600780548291906000906106a6908490612e0c565b90915550505050565b6106da6040518060800160405280600081526020016000815260200160008152602001600081525090565b50604080516080810182526007548152600854602082015260095491810191909152600a54606082015290565b600c546060906101009004600160a060020a0316321461073c5760405160e560020a62461bcd02815260040161053f90612b38565b600082815260026020908152604080832080548251818502810185019093528083529192909190849084015b8282101561081457838290600052602060002001805461078790612e23565b80601f01602080910402602001604051908101604052809291908181526020018280546107b390612e23565b80156108005780601f106107d557610100808354040283529160200191610800565b820191906000526020600020905b8154815290600101906020018083116107e357829003601f168201915b505050505081526020019060010190610768565b50929695505050505050565b600c546101009004600160a060020a031632146108525760405160e560020a62461bcd02815260040161053f90612b38565b6000600c5460ff16600281111561086b5761086b612eb1565b1461088b5760405160e560020a62461bcd02815260040161053f90612b01565b825161089e90600490602086019061220e565b5081516108b290600590602085019061220e565b506006555050565b6108c2612292565b6040805161016081018252600081523060208201529081016108e26116e5565b81526006546020820152600480546040909201916108ff90612e23565b80601f016020809104026020016040519081016040528092919081815260200182805461092b90612e23565b80156109785780601f1061094d57610100808354040283529160200191610978565b820191906000526020600020905b81548152906001019060200180831161095b57829003601f168201915b505050505081526020016004600001600101805461099590612e23565b80601f01602080910402602001604051908101604052809291908181526020018280546109c190612e23565b8015610a0e5780601f106109e357610100808354040283529160200191610a0e565b820191906000526020600020905b8154815290600101906020018083116109f157829003601f168201915b5050509183525050600c5460209091019060ff166002811115610a3357610a33612eb1565b8152600b54602082015260085460408201526007546060820152600154608090910152919050565b60026020528160005260406000208181548110610a7757600080fd5b90600052602060002001600091509150508054610a9390612e23565b80601f0160208091040260200160405190810160405280929190818152602001828054610abf90612e23565b8015610b0c5780601f10610ae157610100808354040283529160200191610b0c565b820191906000526020600020905b815481529060010190602001808311610aef57829003601f168201915b505050505081565b600c546101009004600160a060020a03163214610b465760405160e560020a62461bcd02815260040161053f90612b38565b60003411610b695760405160e560020a62461bcd02815260040161053f90612bf2565b60088054349190600090610b7e908490612df4565b9091555050565b600060208190529081526040902080546001820154600283015460038401805460ff9485169593949092169291610bbb90612e23565b80601f0160208091040260200160405190810160405280929190818152602001828054610be790612e23565b8015610c345780601f10610c0957610100808354040283529160200191610c34565b820191906000526020600020905b815481529060010190602001808311610c1757829003601f168201915b505050505090806004018054610c4990612e23565b80601f0160208091040260200160405190810160405280929190818152602001828054610c7590612e23565b8015610cc25780601f10610c9757610100808354040283529160200191610cc2565b820191906000526020600020905b815481529060010190602001808311610ca557829003601f168201915b5050505050905085565b610cf060405180606001604052806060815260200160608152602001600081525090565b60408051606081019091526004805482908290610d0c90612e23565b80601f0160208091040260200160405190810160405280929190818152602001828054610d3890612e23565b8015610d855780601f10610d5a57610100808354040283529160200191610d85565b820191906000526020600020905b815481529060010190602001808311610d6857829003601f168201915b50505050508152602001600182018054610d9e90612e23565b80601f0160208091040260200160405190810160405280929190818152602001828054610dca90612e23565b8015610e175780601f10610dec57610100808354040283529160200191610e17565b820191906000526020600020905b815481529060010190602001808311610dfa57829003601f168201915b50505050508152602001600282015481525050905090565b600c546101009004600160a060020a03163214610e615760405160e560020a62461bcd02815260040161053f90612b38565b60008111610e845760405160e560020a62461bcd02815260040161053f90612bf2565b60405160e060020a6323b872dd02815232600482015230602482015260448101829052600160a060020a038316906323b872dd90606401602060405180830381600087803b158015610ed557600080fd5b505af1158015610ee9573d6000803e3d6000fd5b505050506040513d601f19601f82011682018060405250810190610f0d9190612505565b50600780548291906000906106a6908490612df4565b600c546000906101009004600160a060020a03163214610f585760405160e560020a62461bcd02815260040161053f90612b38565b6000600c5460ff166002811115610f7157610f71612eb1565b14610f915760405160e560020a62461bcd02815260040161053f90612b01565b610fa2600154888888888888610fd0565b60018054906000610fb283612e5c565b919050555060018054610fc59190612e0c565b979650505050505050565b600c546101009004600160a060020a031632146110025760405160e560020a62461bcd02815260040161053f90612b38565b6000600c5460ff16600281111561101b5761101b612eb1565b1461103b5760405160e560020a62461bcd02815260040161053f90612b01565b6040518060c0016040528087600281111561105857611058612eb1565b81526020808201889052861515604080840191909152606083018790526080830186905260a090920184905260008a8152908190522081518154829060ff191660018360028111156110ac576110ac612eb1565b02179055506020828101516001830155604083015160028301805460ff1916911515919091179055606083015180516110eb926003850192019061220e565b506080820151805161110791600484019160209091019061220e565b5060a08201518051611123916005840191602090910190612306565b50505050505050505050565b600160a060020a03811660009081526003602052604081205480156111575750600192915050565b50600092915050565b60048060000160405180606001604052908160008201805461118190612e23565b80601f01602080910402602001604051908101604052809291908181526020018280546111ad90612e23565b80156111fa5780601f106111cf576101008083540402835291602001916111fa565b820191906000526020600020905b8154815290600101906020018083116111dd57829003601f168201915b5050505050815260200160018201805461121390612e23565b80601f016020809104026020016040519081016040528092919081815260200182805461123f90612e23565b801561128c5780601f106112615761010080835404028352916020019161128c565b820191906000526020600020905b81548152906001019060200180831161126f57829003601f168201915b50505091835250506002919091015460209182015260408051608081018252600385015481526004850154928101929092526005840154908201526006830154606082015260078301546008909301549192909160ff8116906101009004600160a060020a031685565b600c546101009004600160a060020a031632146113285760405160e560020a62461bcd02815260040161053f90612b38565b6000811161134b5760405160e560020a62461bcd02815260040161053f90612bf2565b303181111561136f5760405160e560020a62461bcd02815260040161053f90612b95565b6040513290819083156108fc029084906000818181858888f1935050505015801561139e573d6000803e3d6000fd5b50600880548391906000906106a6908490612e0c565b6060600060015467ffffffffffffffff8111156113d3576113d3612ee5565b60405190808252806020026020018201604052801561144057816020015b61142d6040805160c081019091528060008152602001600081526020016000151581526020016060815260200160608152602001606081525090565b8152602001906001900390816113f15790505b50905060005b6001548110156116df5760008181526020819052604090819020815160c081019092528054829060ff16600281111561148157611481612eb1565b600281111561149257611492612eb1565b815260018201546020820152600282015460ff16151560408201526003820180546060909201916114c290612e23565b80601f01602080910402602001604051908101604052809291908181526020018280546114ee90612e23565b801561153b5780601f106115105761010080835404028352916020019161153b565b820191906000526020600020905b81548152906001019060200180831161151e57829003601f168201915b5050505050815260200160048201805461155490612e23565b80601f016020809104026020016040519081016040528092919081815260200182805461158090612e23565b80156115cd5780601f106115a2576101008083540402835291602001916115cd565b820191906000526020600020905b8154815290600101906020018083116115b057829003601f168201915b5050505050815260200160058201805480602002602001604051908101604052809291908181526020016000905b828210156116a757838290600052602060002001805461161a90612e23565b80601f016020809104026020016040519081016040528092919081815260200182805461164690612e23565b80156116935780601f1061166857610100808354040283529160200191611693565b820191906000526020600020905b81548152906001019060200180831161167657829003601f168201915b5050505050815260200190600101906115fb565b50505050815250508282815181106116c1576116c1612ecb565b602002602001018190525080806116d790612e5c565b915050611446565b50919050565b600080805b6001548110156116df57600081815260208190526040808220815160c081019092528054829060ff16600281111561172457611724612eb1565b600281111561173557611735612eb1565b815260018201546020820152600282015460ff161515604082015260038201805460609092019161176590612e23565b80601f016020809104026020016040519081016040528092919081815260200182805461179190612e23565b80156117de5780601f106117b3576101008083540402835291602001916117de565b820191906000526020600020905b8154815290600101906020018083116117c157829003601f168201915b505050505081526020016004820180546117f790612e23565b80601f016020809104026020016040519081016040528092919081815260200182805461182390612e23565b80156118705780601f1061184557610100808354040283529160200191611870565b820191906000526020600020905b81548152906001019060200180831161185357829003601f168201915b5050505050815260200160058201805480602002602001604051908101604052809291908181526020016000905b8282101561194a5783829060005260206000200180546118bd90612e23565b80601f01602080910402602001604051908101604052809291908181526020018280546118e990612e23565b80156119365780601f1061190b57610100808354040283529160200191611936565b820191906000526020600020905b81548152906001019060200180831161191957829003601f168201915b50505050508152602001906001019061189e565b5050509152505060208101519091506119639084612df4565b925050808061197190612e5c565b9150506116ea565b60015460009082146119f65760405160e560020a62461bcd02815260206004820152603a60248201527f416e7377657220737472696e6720617272617920646f6573206e6f74206d617460448201527f636820746865206c656e677468206f66207175657374696f6e73000000000000606482015260840161053f565b6119ff3261112f565b15611a4f5760405160e560020a62461bcd02815260206004820152601760248201527f416c726561647920746f6f6b2074686520737572766579000000000000000000604482015260640161053f565b600c546101009004600160a060020a0316321415611ab25760405160e560020a62461bcd02815260206004820152601e60248201527f43726561746f722063616e6e6f742074616b6520746865207375727665790000604482015260640161053f565b6001600c5460ff166002811115611acb57611acb612eb1565b14611b1b5760405160e560020a62461bcd02815260206004820152601260248201527f537572766579206973206e6f74206f70656e0000000000000000000000000000604482015260640161053f565b60008060005b600154811015611e7e57600081815260208190526040808220815160c081019092528054829060ff166002811115611b5b57611b5b612eb1565b6002811115611b6c57611b6c612eb1565b815260018201546020820152600282015460ff1615156040820152600382018054606090920191611b9c90612e23565b80601f0160208091040260200160405190810160405280929190818152602001828054611bc890612e23565b8015611c155780601f10611bea57610100808354040283529160200191611c15565b820191906000526020600020905b815481529060010190602001808311611bf857829003601f168201915b50505050508152602001600482018054611c2e90612e23565b80601f0160208091040260200160405190810160405280929190818152602001828054611c5a90612e23565b8015611ca75780601f10611c7c57610100808354040283529160200191611ca7565b820191906000526020600020905b815481529060010190602001808311611c8a57829003601f168201915b5050505050815260200160058201805480602002602001604051908101604052809291908181526020016000905b82821015611d81578382906000526020600020018054611cf490612e23565b80601f0160208091040260200160405190810160405280929190818152602001828054611d2090612e23565b8015611d6d5780601f10611d4257610100808354040283529160200191611d6d565b820191906000526020600020905b815481529060010190602001808311611d5057829003601f168201915b505050505081526020019060010190611cd5565b505050508152505090506000878784818110611d9f57611d9f612ecb565b9050602002810190611db19190612d75565b8080601f0160208091040260200160405190810160405280939291908181526020018383808284376000920191909152505082519293505090159050611e14576020820151611e009086612df4565b945083611e0c81612e77565b945050611e69565b816040015115611e695760405160e560020a62461bcd02815260206004820181905260248201527f5265717569726564207175657374696f6e206e6f742066696c6c6564206f7574604482015260640161053f565b50508080611e7690612e5c565b915050611b21565b506001548160ff161415611e9c57600654611e999083612df4565b91505b600754821115611f175760405160e560020a62461bcd02815260206004820152603160248201527f4e6f7420656e6f7567682072657761726420746f20676976652c2063616e636560448201527f6c6c696e67207375626d697373696f6e2e000000000000000000000000000000606482015260840161053f565b600b54611f25906001612df4565b326000908152600360205260408120919091555b84811015611fee576000868683818110611f5557611f55612ecb565b9050602002810190611f679190612d75565b8080601f0160208091040260200160405190810160405280939291908181526020018383808284376000920191909152505082519293505090159050611fdb57600082815260026020908152604082208054600181018255908352918190208351611fd993919091019184019061220e565b505b5080611fe681612e5c565b915050611f39565b5060405160e060020a63a9059cbb028152600160a060020a0387169063a9059cbb906120209032908690600401612907565b602060405180830381600087803b15801561203a57600080fd5b505af115801561204e573d6000803e3d6000fd5b505050506040513d601f19601f820116820180604052508101906120729190612505565b5060078054839190600090612088908490612e0c565b9091555050600a80548391906000906120a2908490612df4565b90915550506008541561213e576008546000906120c0908990612e0c565b905087816120cd57506008545b3031811161213b576040513290819083156108fc029084906000818181858888f19350505050158015612104573d6000803e3d6000fd5b506008805483919060009061211a908490612e0c565b909155505060098054839190600090612134908490612df4565b9091555050505b50505b600b805490600061214e83612e5c565b919050555061215b6116e5565b60075410156121ab57600c805460ff191660029081179091556040517f0162568b2de8418ff706fde39b1c8a9fd0cb82ab9b14fdaa9c2e0860105e1fca916121a291612adb565b60405180910390a15b5095945050505050565b600c546101009004600160a060020a031632146121e75760405160e560020a62461bcd02815260040161053f90612b38565b600c805482919060ff1916600183600281111561220657612206612eb1565b021790555050565b82805461221a90612e23565b90600052602060002090601f01602090048101928261223c5760008555612282565b82601f1061225557805160ff1916838001178555612282565b82800160010185558215612282579182015b82811115612282578251825591602001919060010190612267565b5061228e92915061235f565b5090565b604051806101600160405280600081526020016000600160a060020a0316815260200160008152602001600081526020016060815260200160608152602001600060028111156122e4576122e4612eb1565b8152602001600081526020016000815260200160008152602001600081525090565b828054828255906000526020600020908101928215612353579160200282015b82811115612353578251805161234391849160209091019061220e565b5091602001919060010190612326565b5061228e929150612374565b5b8082111561228e5760008155600101612360565b8082111561228e5760006123888282612391565b50600101612374565b50805461239d90612e23565b6000825580601f106123ad575050565b601f0160209004906000526020600020908101906123cb919061235f565b50565b600082601f8301126123df57600080fd5b8135602067ffffffffffffffff808311156123fc576123fc612ee5565b81830261240a838201612dc3565b8481528381019087850183890186018a101561242557600080fd5b60009350835b8781101561246257813586811115612441578586fd5b61244f8c89838e0101612471565b855250928601929086019060010161242b565b50909998505050505050505050565b600082601f83011261248257600080fd5b813567ffffffffffffffff81111561249c5761249c612ee5565b6124af601f8201601f1916602001612dc3565b8181528460208386010111156124c457600080fd5b816020850160208301376000918101602001919091529392505050565b6000602082840312156124f357600080fd5b81356124fe81612f21565b9392505050565b60006020828403121561251757600080fd5b81516124fe81612f36565b6000806040838503121561253557600080fd5b823561254081612f21565b946020939093013593505050565b60008060008060008060c0878903121561256757600080fd5b863561257281612f44565b955060208701359450604087013561258981612f36565b9350606087013567ffffffffffffffff808211156125a657600080fd5b6125b28a838b01612471565b945060808901359150808211156125c857600080fd5b6125d48a838b01612471565b935060a08901359150808211156125ea57600080fd5b506125f789828a016123ce565b9150509295509295509295565b60006020828403121561261657600080fd5b81356124fe81612f44565b60008060006060848603121561263657600080fd5b833567ffffffffffffffff8082111561264e57600080fd5b61265a87838801612471565b9450602086013591508082111561267057600080fd5b5061267d86828701612471565b925050604084013590509250925092565b6000602082840312156126a057600080fd5b5035919050565b6000602082840312156126b957600080fd5b5051919050565b600080600080606085870312156126d657600080fd5b8435935060208501356126e881612f21565b9250604085013567ffffffffffffffff8082111561270557600080fd5b818701915087601f83011261271957600080fd5b81358181111561272857600080fd5b886020808302850101111561273c57600080fd5b95989497505060200194505050565b600080600080600080600060e0888a03121561276657600080fd5b87359650602088013561277881612f44565b955060408801359450606088013561278f81612f36565b9350608088013567ffffffffffffffff808211156127ac57600080fd5b6127b88b838c01612471565b945060a08a01359150808211156127ce57600080fd5b6127da8b838c01612471565b935060c08a01359150808211156127f057600080fd5b506127fd8a828b016123ce565b91505092959891949750929550565b6000806040838503121561281f57600080fd5b50508035926020909101359150565b61283781612eff565b9052565b6000815180845260005b8181101561286157602081850181015186830182015201612845565b81811115612873576000602083870101525b50601f01601f19169290920160200192915050565b805182526020810151602083015260408101516040830152606081015160608301525050565b60008151606084526128c3606085018261283b565b9050602083015184820360208601526128dc828261283b565b915050604083015160408501528091505092915050565b600160a060020a0391909116815260200190565b600160a060020a03929092168252602082015260400190565b600060208083018184528085518083526040860191506040848202870101925083870160005b8281101561297457603f1988860301845261296285835161283b565b94509285019290850190600101612946565b5092979650505050505050565b6020808252825182820181905260009190604090818501908084028601830187850186805b84811015612a7e57603f198a8503018652825160c081516129c681612eff565b8652818a01518a870152888201511515898701526060808301518188018390526129f28389018261283b565b9250505060808083015187830382890152612a0d838261283b565b60a094850151898203958a01959095528451808252948d01949093508c8401925090508b810283018c01865b82811015612a6757601f19858303018452612a5582875161283b565b958e0195938e01939150600101612a39565b50998c0199975050509389019350506001016129a6565b50919998505050505050505050565b612a9686612eff565b858152846020820152831515604082015260a060608201526000612abd60a083018561283b565b8281036080840152612acf818561283b565b98975050505050505050565b60208101612ae883612eff565b91905290565b6020815260006124fe602083018461283b565b6020808252601f908201527f537572766579206d75737420626520696e2065646974696e6720737461676500604082015260600190565b6020808252602b908201527f4d757374206265207468652063726561746f7220746f2061636365737320746860408201527f69732066756e6374696f6e000000000000000000000000000000000000000000606082015260800190565b60208082526030908201527f42616c616e63652068617320746f206265203e3d207468616e2074686520616d60408201527f6f756e7420746f20776974686472617700000000000000000000000000000000606082015260800190565b60208082526022908201527f616d6f756e742068617320746f2062652067726561746572207468616e207a65604082015260f060020a61726f02606082015260800190565b60808101612c458284612888565b92915050565b6020815260006124fe60208301846128ae565b6000610100808352612c72818401896128ae565b915050612c826020830187612888565b8460a0830152612c9184612eff565b8360c0830152600160a060020a03831660e08301529695505050505050565b602081528151602082015260006020830151612cd76040840182600160a060020a03169052565b50604083015160608301526060830151608083015260808301516101608060a0850152612d0861018085018361283b565b915060a0850151601f198584030160c0860152612d25838261283b565b92505060c0850151612d3a60e086018261282e565b5060e0850151610100858101919091528501516101208086019190915285015161014080860191909152909401519390920192909252919050565b6000808335601e19843603018112612d8c57600080fd5b83018035915067ffffffffffffffff821115612da757600080fd5b602001915036819003821315612dbc57600080fd5b9250929050565b604051601f8201601f1916810167ffffffffffffffff81118282101715612dec57612dec612ee5565b604052919050565b60008219821115612e0757612e07612e97565b500190565b600082821015612e1e57612e1e612e97565b500390565b600281046001821680612e3757607f821691505b602082108114156116df5760e060020a634e487b710260009081526022600452602490fd5b6000600019821415612e7057612e70612e97565b5060010190565b600060ff821660ff811415612e8e57612e8e612e97565b60010192915050565b60e060020a634e487b710260009081526011600452602490fd5b60e060020a634e487b710260009081526021600452602490fd5b60e060020a634e487b710260009081526032600452602490fd5b60e060020a634e487b710260009081526041600452602490fd5b600381106123cb5760e060020a634e487b710260009081526021600452602490fd5b600160a060020a03811681146123cb57600080fd5b80151581146123cb57600080fd5b600381106123cb57600080fdfea2646970667358221220f64318c9eb654583fcf5a82bd9e738c922bdb2121c882ad240adb7fa94bacc0164736f6c63430008070033",
  "immutableReferences": {},
  "source": "// SPDX-License-Identifier: MIT\r\npragma experimental ABIEncoderV2;\r\npragma solidity >=0.6.0;\r\n\r\nimport \"./SurveyInterface.sol\";\r\nimport \"./Token.sol\";\r\n\r\ncontract Survey is SurveyInterface {\r\n\r\n  //multichoice would store index, rating would be a number, and text is text\r\n  // Question[] public questions;\r\n  mapping(uint => Question) public questions;\r\n  uint public questionCount = 0;\r\n\r\n  mapping (uint => string[]) public answers;\r\n  mapping (address => uint) private userAnswers;\r\n\r\n  SurveyBuild public build;\r\n\r\n  event SurveyStatusChanged(\r\n    Status _status\r\n  );\r\n  \r\n  constructor(address _creator, string memory _name, string memory _description, uint _bonusAmount) {\r\n\r\n    build.info.name = _name;\r\n    build.info.description = _description;\r\n    build.info.bonusAmount = _bonusAmount;\r\n    build.creator = _creator;\r\n  }\r\n\r\n  modifier isCreator {\r\n    // require(build.creator == msg.sender);\r\n    //if either one is the creator continue on\r\n    require(build.creator == tx.origin, \"Must be the creator to access this function\"); \r\n    _;\r\n  }\r\n\r\n  function setSurveyStatus(Status _status) external isCreator {\r\n    build.status = _status;\r\n  }\r\n\r\n  event Log(string s);\r\n\r\n  function submitSurvey(\r\n    uint _gas,\r\n    Token _token,\r\n    string[] calldata _answers\r\n  ) external returns (uint) {\r\n    require(_answers.length == questionCount, \"Answer string array does not match the length of questions\");\r\n    //make sure we haven't done this survey before\r\n    require(!didUserTakeSurvey(tx.origin), \"Already took the survey\");\r\n\r\n    //make sure the creator didn't submit their own survey\r\n    require(build.creator != tx.origin, \"Creator cannot take the survey\");\r\n    //make sure it is still open\r\n    require(build.status == Status.OPEN, \"Survey is not open\");\r\n    //this calulates how much rewards they get\r\n    uint reward = 0;\r\n    uint8 filled = 0;\r\n    for (uint i = 0; i < questionCount; i++) {\r\n      Question memory q = questions[i];\r\n      string memory a = _answers[i];\r\n      if (bytes(a).length > 0) {\r\n        reward += q.worth;\r\n        filled++;\r\n      } else if (q.required) {\r\n        revert(\"Required question not filled out\");\r\n      }\r\n    }\r\n    if (filled == questionCount) {\r\n      reward += build.info.bonusAmount;\r\n    }\r\n    //liquidity pool must have enough funds to continue this function\r\n    require(reward <= build.pool.tokenAmount, \"Not enough reward to give, cancelling submission.\");\r\n\r\n    userAnswers[tx.origin] = build.surveysTaken + 1; //tells you which id you are in the string[] of questions\r\n    //push answers to mapping\r\n    for(uint i = 0; i < _answers.length; i++) {\r\n      string memory a = _answers[i];\r\n      if (bytes(a).length > 0) {\r\n        answers[i].push(a); \r\n      }\r\n    }\r\n\r\n    //this takes the money from the liquidity pool and sends them tokens\r\n    _token.transfer(tx.origin, reward);\r\n    build.pool.tokenAmount -= reward;\r\n    build.pool.totalTokensSent += reward;\r\n\r\n    //try to send them back the gas money\r\n    if (build.pool.gasAmount > 0) {\r\n      uint diff = build.pool.gasAmount - _gas;\r\n      uint send = _gas;\r\n      if (diff <= 0) {\r\n        send = build.pool.gasAmount;\r\n      }\r\n      if (address(this).balance >= send) {\r\n        address payable pa = payable(tx.origin);\r\n        pa.transfer(send);\r\n        build.pool.gasAmount -= send;\r\n        build.pool.totalGasSent += send;\r\n      }\r\n    }\r\n\r\n    //increment taken surveys\r\n    build.surveysTaken++;\r\n\r\n    //this checks to see if the survey needs to close\r\n    //to check this we see if they can fund another survey\r\n    if (build.pool.tokenAmount < worth()) {\r\n      build.status = Status.FINISHED;\r\n      emit SurveyStatusChanged(build.status);\r\n    }\r\n    return reward;\r\n  }\r\n\r\n  //find a way to eliminate these functions\r\n  ////////////////////////////////////////////////////////////////\r\n  function name() view external returns (string memory) {\r\n    return build.info.name;\r\n  }\r\n\r\n  // function description() view external returns (string memory) {\r\n  //   return build.info.description;\r\n  // }\r\n\r\n  function bonusAmount() view external returns (uint) {\r\n    return build.info.bonusAmount;\r\n  }\r\n\r\n  function creator() view external returns (address) {\r\n    return build.creator;\r\n  }\r\n\r\n  function status() view external returns (Status) {\r\n    return build.status;\r\n  }\r\n\r\n  function info() view external returns (SurveyBasic memory) {\r\n    return build.info;\r\n  }\r\n\r\n  function pool() view external returns (LiquidityPool memory) {\r\n    return build.pool;\r\n  }\r\n  ////////////////////////////////////////////////////////////////\r\n\r\n  function getBalance() view external returns (uint) {\r\n    return address(this).balance;\r\n  }\r\n\r\n  function getOverview() view external returns (SurveyOverview memory) {\r\n    return SurveyOverview({\r\n      id: 0,\r\n      addr: address(this),\r\n      worth: worth(),\r\n      bonusAmount: build.info.bonusAmount,\r\n      name: build.info.name,\r\n      description: build.info.description,\r\n      status: build.status,\r\n      taken: build.surveysTaken,\r\n      gasLeft: build.pool.gasAmount,\r\n      tokensLeft: build.pool.tokenAmount,\r\n      questionCount: questionCount\r\n    });\r\n  }\r\n\r\n  function worth() view public returns (uint) {\r\n    uint w = 0;\r\n    for (uint i = 0; i < questionCount; i++) {\r\n      Question memory q = questions[i];\r\n      w += q.worth;\r\n    }\r\n    return w;\r\n  }\r\n\r\n  function getQuestions() external view returns (Question[] memory) {\r\n    Question[] memory q = new Question[](questionCount);\r\n    for (uint256 index = 0; index < questionCount; index++) {\r\n      q[index] = questions[index];\r\n    }\r\n    return q;\r\n  }\r\n\r\n  function getAnswers(uint qid) external view isCreator returns (string[] memory) {\r\n    string[] memory ret = answers[qid];\r\n    return ret;\r\n  }\r\n\r\n  // function getUserAnswers() external view returns (string[] memory) {\r\n  //   uint index = userAnswers[tx.origin] - 1;\r\n  //   require(index >= 0, \"No answers found\");\r\n  //   string[] memory ret = new string[](questionCount);\r\n  //   for (uint256 i = 0; i < questionCount; i++) {\r\n  //     ret[i] = answers[i][index];\r\n  //   }\r\n  //   return ret;\r\n  // }\r\n\r\n  function updateSurvey(\r\n    string memory _name,\r\n    string memory _description,\r\n    uint _bonusAmount\r\n  ) public isCreator {\r\n    require(build.status == Status.NOT_OPENED, \"Survey must be in editing stage\");\r\n    build.info.name = _name;\r\n    build.info.description = _description;\r\n    build.info.bonusAmount = _bonusAmount;\r\n  }\r\n\r\n  function addQuestion(\r\n    QuestionType _qtypes,\r\n    uint _worth,\r\n    bool _required,\r\n    string memory _title,\r\n    string memory _qdescription,\r\n    string[] memory _choices\r\n  ) public  isCreator returns (uint) {\r\n    require(build.status == Status.NOT_OPENED, \"Survey must be in editing stage\");\r\n    updateQuestion(\r\n      questionCount,\r\n      _qtypes,\r\n      _worth,\r\n      _required,\r\n      _title,\r\n      _qdescription,\r\n      _choices\r\n    );\r\n    questionCount++;\r\n\r\n    return questionCount - 1;\r\n  }\r\n\r\n  function updateQuestion(\r\n    uint _id,\r\n    QuestionType _qtypes,\r\n    uint _worth,\r\n    bool _required,\r\n    string memory _title,\r\n    string memory _qdescription,\r\n    string[] memory _choices\r\n  ) public isCreator {\r\n    require(build.status == Status.NOT_OPENED, \"Survey must be in editing stage\");\r\n    questions[_id] = Question(\r\n      _qtypes,\r\n      _worth,\r\n      _required,\r\n      _title,\r\n      _qdescription,\r\n      _choices\r\n    );\r\n  }\r\n\r\n  function depositToSurveyTokenPool(Token _token, uint _amount) external isCreator {\r\n    require(_amount > 0, \"amount has to be greater than zero\");\r\n    _token.transferFrom(tx.origin, address(this), _amount);\r\n    build.pool.tokenAmount += _amount;\r\n  }\r\n\r\n  function depositToSurveyGasPool() external payable isCreator {\r\n    require(msg.value > 0, \"amount has to be greater than zero\");\r\n    build.pool.gasAmount += msg.value;\r\n  }\r\n\r\n  function withdrawFromTokenPool(Token _token, uint _amount) external isCreator {\r\n    require(_amount > 0, \"amount has to be greater than zero\");\r\n    require(_token.balanceOf(address(this)) >= _amount, \"Balance has to be >= than the amount to withdraw\");\r\n    _token.transfer(tx.origin, _amount);\r\n    build.pool.tokenAmount -= _amount;\r\n  }\r\n\r\n  function withdrawFromGasPool(uint _amount) external isCreator {\r\n    require(_amount > 0, \"amount has to be greater than zero\");\r\n    require(address(this).balance >= _amount, \"Balance has to be >= than the amount to withdraw\");\r\n    address payable _addr = payable(tx.origin);\r\n    _addr.transfer(_amount);\r\n    build.pool.gasAmount -= _amount;\r\n  }\r\n\r\n  function didUserTakeSurvey(address _addr) view public returns (bool) {\r\n    uint index = userAnswers[_addr];\r\n    if (index > 0) {\r\n      return true;\r\n    }\r\n    return false;\r\n  }\r\n}\r\n",
  "sourcePath": "C:\\Users\\surge\\Desktop\\dapp-projects\\survana\\contracts\\Survey.sol",
  "compiler": {
    "name": "solc",
    "version": "0.8.7+commit.e28d00a7.Emscripten.clang"
  },
  "schemaVersion": "3.4.3",
  "updatedAt": "2021-09-07T04:55:06.118Z",
  "devdoc": {
    "kind": "dev",
    "methods": {},
    "version": 1
  },
  "userdoc": {
    "kind": "user",
    "methods": {},
    "version": 1
  }
}