{
  "contractName": "Survana",
  "abi": [
    {
      "inputs": [
        {
          "internalType": "contract Token",
          "name": "_token",
          "type": "address"
        }
      ],
      "stateMutability": "nonpayable",
      "type": "constructor"
    },
    {
      "anonymous": false,
      "inputs": [
        {
          "indexed": true,
          "internalType": "address",
          "name": "_creator",
          "type": "address"
        }
      ],
      "name": "AddedCreator",
      "type": "event"
    },
    {
      "anonymous": false,
      "inputs": [
        {
          "indexed": false,
          "internalType": "address",
          "name": "_creator",
          "type": "address"
        },
        {
          "indexed": false,
          "internalType": "uint256",
          "name": "_surveyId",
          "type": "uint256"
        },
        {
          "indexed": false,
          "internalType": "uint256",
          "name": "_amount",
          "type": "uint256"
        }
      ],
      "name": "DepositedGasToPool",
      "type": "event"
    },
    {
      "anonymous": false,
      "inputs": [
        {
          "indexed": false,
          "internalType": "address",
          "name": "_creator",
          "type": "address"
        },
        {
          "indexed": false,
          "internalType": "uint256",
          "name": "_surveyId",
          "type": "uint256"
        },
        {
          "indexed": false,
          "internalType": "uint256",
          "name": "_amount",
          "type": "uint256"
        }
      ],
      "name": "DepositedTokensToPool",
      "type": "event"
    },
    {
      "anonymous": false,
      "inputs": [
        {
          "indexed": true,
          "internalType": "address",
          "name": "oldOwner",
          "type": "address"
        },
        {
          "indexed": true,
          "internalType": "address",
          "name": "newOwner",
          "type": "address"
        }
      ],
      "name": "OwnershipTransferred",
      "type": "event"
    },
    {
      "anonymous": false,
      "inputs": [
        {
          "indexed": true,
          "internalType": "address",
          "name": "_creator",
          "type": "address"
        },
        {
          "indexed": true,
          "internalType": "address",
          "name": "_contract",
          "type": "address"
        },
        {
          "indexed": false,
          "internalType": "uint256",
          "name": "_surveyId",
          "type": "uint256"
        },
        {
          "indexed": false,
          "internalType": "uint256",
          "name": "_questionId",
          "type": "uint256"
        }
      ],
      "name": "QuestionAdded",
      "type": "event"
    },
    {
      "anonymous": false,
      "inputs": [
        {
          "indexed": true,
          "internalType": "address",
          "name": "_creator",
          "type": "address"
        },
        {
          "indexed": true,
          "internalType": "address",
          "name": "_contract",
          "type": "address"
        },
        {
          "indexed": false,
          "internalType": "uint256",
          "name": "_surveyId",
          "type": "uint256"
        },
        {
          "indexed": false,
          "internalType": "uint256",
          "name": "_questionId",
          "type": "uint256"
        }
      ],
      "name": "QuestionUpdated",
      "type": "event"
    },
    {
      "anonymous": false,
      "inputs": [
        {
          "indexed": true,
          "internalType": "address",
          "name": "_creator",
          "type": "address"
        }
      ],
      "name": "RemovedCreator",
      "type": "event"
    },
    {
      "anonymous": false,
      "inputs": [
        {
          "indexed": true,
          "internalType": "address",
          "name": "_creator",
          "type": "address"
        },
        {
          "indexed": true,
          "internalType": "address",
          "name": "_newContract",
          "type": "address"
        },
        {
          "indexed": false,
          "internalType": "uint256",
          "name": "_surveyId",
          "type": "uint256"
        }
      ],
      "name": "SurveyCreated",
      "type": "event"
    },
    {
      "anonymous": false,
      "inputs": [
        {
          "indexed": false,
          "internalType": "enum SurveyInterface.Status",
          "name": "_status",
          "type": "uint8"
        },
        {
          "indexed": false,
          "internalType": "uint256",
          "name": "_id",
          "type": "uint256"
        }
      ],
      "name": "SurveyStatusChanged",
      "type": "event"
    },
    {
      "anonymous": false,
      "inputs": [
        {
          "indexed": true,
          "internalType": "address",
          "name": "_user",
          "type": "address"
        },
        {
          "indexed": false,
          "internalType": "uint256",
          "name": "_surveyId",
          "type": "uint256"
        },
        {
          "indexed": false,
          "internalType": "uint256",
          "name": "_tokensAwarded",
          "type": "uint256"
        }
      ],
      "name": "SurveySubmited",
      "type": "event"
    },
    {
      "anonymous": false,
      "inputs": [
        {
          "indexed": true,
          "internalType": "address",
          "name": "_creator",
          "type": "address"
        },
        {
          "indexed": true,
          "internalType": "address",
          "name": "_contract",
          "type": "address"
        },
        {
          "indexed": false,
          "internalType": "uint256",
          "name": "_surveyId",
          "type": "uint256"
        }
      ],
      "name": "SurveyUpdated",
      "type": "event"
    },
    {
      "anonymous": false,
      "inputs": [
        {
          "indexed": false,
          "internalType": "address",
          "name": "_creator",
          "type": "address"
        },
        {
          "indexed": false,
          "internalType": "uint256",
          "name": "_surveyId",
          "type": "uint256"
        },
        {
          "indexed": false,
          "internalType": "uint256",
          "name": "_amount",
          "type": "uint256"
        }
      ],
      "name": "WithdrawFromGasPool",
      "type": "event"
    },
    {
      "anonymous": false,
      "inputs": [
        {
          "indexed": false,
          "internalType": "address",
          "name": "_creator",
          "type": "address"
        },
        {
          "indexed": false,
          "internalType": "uint256",
          "name": "_surveyId",
          "type": "uint256"
        },
        {
          "indexed": false,
          "internalType": "uint256",
          "name": "_amount",
          "type": "uint256"
        }
      ],
      "name": "WithdrawFromTokenPool",
      "type": "event"
    },
    {
      "inputs": [
        {
          "internalType": "address",
          "name": "",
          "type": "address"
        }
      ],
      "name": "creatorSurveyCount",
      "outputs": [
        {
          "internalType": "uint256",
          "name": "",
          "type": "uint256"
        }
      ],
      "stateMutability": "view",
      "type": "function",
      "constant": true
    },
    {
      "inputs": [
        {
          "internalType": "address",
          "name": "",
          "type": "address"
        }
      ],
      "name": "creators",
      "outputs": [
        {
          "internalType": "bool",
          "name": "",
          "type": "bool"
        }
      ],
      "stateMutability": "view",
      "type": "function",
      "constant": true
    },
    {
      "inputs": [],
      "name": "isOwner",
      "outputs": [
        {
          "internalType": "bool",
          "name": "",
          "type": "bool"
        }
      ],
      "stateMutability": "view",
      "type": "function",
      "constant": true
    },
    {
      "inputs": [],
      "name": "name",
      "outputs": [
        {
          "internalType": "string",
          "name": "",
          "type": "string"
        }
      ],
      "stateMutability": "view",
      "type": "function",
      "constant": true
    },
    {
      "inputs": [],
      "name": "owner",
      "outputs": [
        {
          "internalType": "address",
          "name": "",
          "type": "address"
        }
      ],
      "stateMutability": "view",
      "type": "function",
      "constant": true
    },
    {
      "inputs": [],
      "name": "renounceOwnership",
      "outputs": [],
      "stateMutability": "nonpayable",
      "type": "function"
    },
    {
      "inputs": [
        {
          "internalType": "enum SurveyInterface.Status",
          "name": "",
          "type": "uint8"
        }
      ],
      "name": "statusCounts",
      "outputs": [
        {
          "internalType": "uint256",
          "name": "",
          "type": "uint256"
        }
      ],
      "stateMutability": "view",
      "type": "function",
      "constant": true
    },
    {
      "inputs": [],
      "name": "surveyCount",
      "outputs": [
        {
          "internalType": "uint256",
          "name": "",
          "type": "uint256"
        }
      ],
      "stateMutability": "view",
      "type": "function",
      "constant": true
    },
    {
      "inputs": [
        {
          "internalType": "uint256",
          "name": "",
          "type": "uint256"
        }
      ],
      "name": "surveys",
      "outputs": [
        {
          "internalType": "address",
          "name": "",
          "type": "address"
        }
      ],
      "stateMutability": "view",
      "type": "function",
      "constant": true
    },
    {
      "inputs": [],
      "name": "token",
      "outputs": [
        {
          "internalType": "contract Token",
          "name": "",
          "type": "address"
        }
      ],
      "stateMutability": "view",
      "type": "function",
      "constant": true
    },
    {
      "inputs": [
        {
          "internalType": "address",
          "name": "_newOwner",
          "type": "address"
        }
      ],
      "name": "transferOwnership",
      "outputs": [],
      "stateMutability": "nonpayable",
      "type": "function"
    },
    {
      "inputs": [
        {
          "internalType": "address",
          "name": "_addr",
          "type": "address"
        }
      ],
      "name": "addCreator",
      "outputs": [],
      "stateMutability": "nonpayable",
      "type": "function"
    },
    {
      "inputs": [
        {
          "internalType": "address",
          "name": "_addr",
          "type": "address"
        }
      ],
      "name": "removeCreator",
      "outputs": [],
      "stateMutability": "nonpayable",
      "type": "function"
    },
    {
      "inputs": [
        {
          "internalType": "uint256",
          "name": "_id",
          "type": "uint256"
        },
        {
          "internalType": "uint256",
          "name": "_amount",
          "type": "uint256"
        }
      ],
      "name": "depositToSurveyTokenPool",
      "outputs": [],
      "stateMutability": "nonpayable",
      "type": "function"
    },
    {
      "inputs": [
        {
          "internalType": "uint256",
          "name": "_id",
          "type": "uint256"
        }
      ],
      "name": "depositToSurveyGasPool",
      "outputs": [],
      "stateMutability": "payable",
      "type": "function",
      "payable": true
    },
    {
      "inputs": [
        {
          "internalType": "uint256",
          "name": "_id",
          "type": "uint256"
        },
        {
          "internalType": "uint256",
          "name": "_amount",
          "type": "uint256"
        }
      ],
      "name": "withdrawFromTokenPool",
      "outputs": [],
      "stateMutability": "nonpayable",
      "type": "function"
    },
    {
      "inputs": [
        {
          "internalType": "uint256",
          "name": "_id",
          "type": "uint256"
        },
        {
          "internalType": "uint256",
          "name": "_amount",
          "type": "uint256"
        }
      ],
      "name": "withdrawFromGasPool",
      "outputs": [],
      "stateMutability": "nonpayable",
      "type": "function"
    },
    {
      "inputs": [
        {
          "internalType": "string",
          "name": "_name",
          "type": "string"
        },
        {
          "internalType": "string",
          "name": "_description",
          "type": "string"
        },
        {
          "internalType": "uint256",
          "name": "_bonusAmount",
          "type": "uint256"
        }
      ],
      "name": "createSurvey",
      "outputs": [],
      "stateMutability": "nonpayable",
      "type": "function"
    },
    {
      "inputs": [
        {
          "internalType": "uint256",
          "name": "_id",
          "type": "uint256"
        },
        {
          "internalType": "string",
          "name": "_name",
          "type": "string"
        },
        {
          "internalType": "string",
          "name": "_description",
          "type": "string"
        },
        {
          "internalType": "uint256",
          "name": "_bonusAmount",
          "type": "uint256"
        }
      ],
      "name": "updateSurvey",
      "outputs": [],
      "stateMutability": "nonpayable",
      "type": "function"
    },
    {
      "inputs": [
        {
          "internalType": "uint256",
          "name": "_id",
          "type": "uint256"
        },
        {
          "internalType": "enum SurveyInterface.QuestionType",
          "name": "_qtypes",
          "type": "uint8"
        },
        {
          "internalType": "uint256",
          "name": "_worth",
          "type": "uint256"
        },
        {
          "internalType": "bool",
          "name": "_required",
          "type": "bool"
        },
        {
          "internalType": "string",
          "name": "_title",
          "type": "string"
        },
        {
          "internalType": "string",
          "name": "_qdescription",
          "type": "string"
        },
        {
          "internalType": "string[]",
          "name": "_choices",
          "type": "string[]"
        }
      ],
      "name": "addQuestion",
      "outputs": [],
      "stateMutability": "nonpayable",
      "type": "function"
    },
    {
      "inputs": [
        {
          "internalType": "uint256",
          "name": "_id",
          "type": "uint256"
        },
        {
          "internalType": "uint256",
          "name": "_qid",
          "type": "uint256"
        },
        {
          "internalType": "enum SurveyInterface.QuestionType",
          "name": "_qtypes",
          "type": "uint8"
        },
        {
          "internalType": "uint256",
          "name": "_worth",
          "type": "uint256"
        },
        {
          "internalType": "bool",
          "name": "_required",
          "type": "bool"
        },
        {
          "internalType": "string",
          "name": "_title",
          "type": "string"
        },
        {
          "internalType": "string",
          "name": "_qdescription",
          "type": "string"
        },
        {
          "internalType": "string[]",
          "name": "_choices",
          "type": "string[]"
        }
      ],
      "name": "updateQuestion",
      "outputs": [],
      "stateMutability": "nonpayable",
      "type": "function"
    },
    {
      "inputs": [
        {
          "internalType": "uint256",
          "name": "_id",
          "type": "uint256"
        },
        {
          "internalType": "enum SurveyInterface.Status",
          "name": "_status",
          "type": "uint8"
        }
      ],
      "name": "setSurveyStatus",
      "outputs": [],
      "stateMutability": "nonpayable",
      "type": "function"
    },
    {
      "inputs": [
        {
          "internalType": "uint256",
          "name": "_id",
          "type": "uint256"
        },
        {
          "internalType": "string[]",
          "name": "_answers",
          "type": "string[]"
        }
      ],
      "name": "submitSurvey",
      "outputs": [],
      "stateMutability": "nonpayable",
      "type": "function"
    },
    {
      "inputs": [],
      "name": "getCreatorSurveys",
      "outputs": [
        {
          "components": [
            {
              "internalType": "uint256",
              "name": "id",
              "type": "uint256"
            },
            {
              "internalType": "address",
              "name": "addr",
              "type": "address"
            },
            {
              "internalType": "uint256",
              "name": "worth",
              "type": "uint256"
            },
            {
              "internalType": "uint256",
              "name": "bonusAmount",
              "type": "uint256"
            },
            {
              "internalType": "string",
              "name": "name",
              "type": "string"
            },
            {
              "internalType": "string",
              "name": "description",
              "type": "string"
            },
            {
              "internalType": "enum SurveyInterface.Status",
              "name": "status",
              "type": "uint8"
            },
            {
              "internalType": "uint256",
              "name": "taken",
              "type": "uint256"
            },
            {
              "internalType": "uint256",
              "name": "gasLeft",
              "type": "uint256"
            },
            {
              "internalType": "uint256",
              "name": "tokensLeft",
              "type": "uint256"
            },
            {
              "internalType": "uint256",
              "name": "questionCount",
              "type": "uint256"
            }
          ],
          "internalType": "struct SurveyInterface.SurveyOverview[]",
          "name": "",
          "type": "tuple[]"
        }
      ],
      "stateMutability": "view",
      "type": "function",
      "constant": true
    },
    {
      "inputs": [],
      "name": "getOpenSurveys",
      "outputs": [
        {
          "components": [
            {
              "internalType": "uint256",
              "name": "id",
              "type": "uint256"
            },
            {
              "internalType": "address",
              "name": "addr",
              "type": "address"
            },
            {
              "internalType": "uint256",
              "name": "worth",
              "type": "uint256"
            },
            {
              "internalType": "uint256",
              "name": "bonusAmount",
              "type": "uint256"
            },
            {
              "internalType": "string",
              "name": "name",
              "type": "string"
            },
            {
              "internalType": "string",
              "name": "description",
              "type": "string"
            },
            {
              "internalType": "enum SurveyInterface.Status",
              "name": "status",
              "type": "uint8"
            },
            {
              "internalType": "uint256",
              "name": "taken",
              "type": "uint256"
            },
            {
              "internalType": "uint256",
              "name": "gasLeft",
              "type": "uint256"
            },
            {
              "internalType": "uint256",
              "name": "tokensLeft",
              "type": "uint256"
            },
            {
              "internalType": "uint256",
              "name": "questionCount",
              "type": "uint256"
            }
          ],
          "internalType": "struct SurveyInterface.SurveyOverview[]",
          "name": "",
          "type": "tuple[]"
        }
      ],
      "stateMutability": "view",
      "type": "function",
      "constant": true
    },
    {
      "inputs": [],
      "name": "getUserFinishedSurveys",
      "outputs": [
        {
          "components": [
            {
              "internalType": "uint256",
              "name": "id",
              "type": "uint256"
            },
            {
              "internalType": "address",
              "name": "addr",
              "type": "address"
            },
            {
              "internalType": "uint256",
              "name": "worth",
              "type": "uint256"
            },
            {
              "internalType": "uint256",
              "name": "bonusAmount",
              "type": "uint256"
            },
            {
              "internalType": "string",
              "name": "name",
              "type": "string"
            },
            {
              "internalType": "string",
              "name": "description",
              "type": "string"
            },
            {
              "internalType": "enum SurveyInterface.Status",
              "name": "status",
              "type": "uint8"
            },
            {
              "internalType": "uint256",
              "name": "taken",
              "type": "uint256"
            },
            {
              "internalType": "uint256",
              "name": "gasLeft",
              "type": "uint256"
            },
            {
              "internalType": "uint256",
              "name": "tokensLeft",
              "type": "uint256"
            },
            {
              "internalType": "uint256",
              "name": "questionCount",
              "type": "uint256"
            }
          ],
          "internalType": "struct SurveyInterface.SurveyOverview[]",
          "name": "",
          "type": "tuple[]"
        }
      ],
      "stateMutability": "view",
      "type": "function",
      "constant": true
    },
    {
      "inputs": [
        {
          "internalType": "contract Token",
          "name": "_token",
          "type": "address"
        }
      ],
      "name": "setToken",
      "outputs": [],
      "stateMutability": "nonpayable",
      "type": "function"
    }
  ],
  "bytecode": "0x60c0604052600760808190527f53757276616e610000000000000000000000000000000000000000000000000060a0908152620000409160019190620000aa565b5060006005553480156200005357600080fd5b506040516200608e3803806200608e833981016040819052620000769162000150565b6000805433600160a060020a03199182161790915560038054909116600160a060020a0392909216919091179055620001d8565b828054620000b89062000182565b90600052602060002090601f016020900481019282620000dc576000855562000127565b82601f10620000f757805160ff191683800117855562000127565b8280016001018555821562000127579182015b82811115620001275782518255916020019190600101906200010a565b506200013592915062000139565b5090565b5b808211156200013557600081556001016200013a565b6000602082840312156200016357600080fd5b8151600160a060020a03811681146200017b57600080fd5b9392505050565b6002810460018216806200019757607f821691505b60208210811415620001d2577f4e487b7100000000000000000000000000000000000000000000000000000000600052602260045260246000fd5b50919050565b615ea680620001e86000396000f3fe6080604052600436106200016d5760003560e060020a900480638960e26d11620000d05780638960e26d14620003855780638ba04e3d146200039d5780638da5cb5b14620003c25780638e896d4f14620003e45780638f32d59b1462000409578063933166e11462000432578063ae738a311462000466578063bc400429146200048b578063bd6018bb14620004b0578063cbb1817514620004d5578063d9ff498b14620004fa578063e804f4c0146200051f578063f2fde38b1462000537578063fc0c546a146200055c57600080fd5b806302bc7b22146200017257806306fdde03146200018b578063144fa6d714620001bb57806320c8641714620001e05780633577656614620002205780633b9dce05146200024757806356463fc7146200026c5780635b49efdf14620002915780636f9ef63914620002b65780636fcbd60f14620002e7578063715018a614620002ff57806371edf4d6146200031757806386e68b90146200033c575b600080fd5b6200018962000183366004620021ae565b6200057e565b005b3480156200019857600080fd5b50620001a3620006c7565b604051620001b2919062002819565b60405180910390f35b348015620001c857600080fd5b5062000189620001da36600462001f45565b6200075d565b348015620001ed57600080fd5b5062000211620001ff36600462001fac565b60066020526000908152604090205481565b604051908152602001620001b2565b3480156200022d57600080fd5b506200023862000793565b604051620001b2919062002629565b3480156200025457600080fd5b50620001896200026636600462001f45565b620007d5565b3480156200027957600080fd5b50620001896200028b36600462002413565b62000821565b3480156200029e57600080fd5b5062000189620002b036600462001fec565b62000931565b348015620002c357600080fd5b5062000211620002d536600462001f45565b60076020526000908152604090205481565b348015620002f457600080fd5b506200023862000a9f565b3480156200030c57600080fd5b506200018962000ac1565b3480156200032457600080fd5b506200018962000336366004620021e2565b62000ae3565b3480156200034957600080fd5b50620003766200035b366004620021ae565b600460205260009081526040902054600160a060020a031681565b604051620001b29190620025a6565b3480156200039257600080fd5b506200023862000e08565b348015620003aa57600080fd5b5062000189620003bc366004620023f0565b62000e1d565b348015620003cf57600080fd5b506000546200037690600160a060020a031681565b348015620003f157600080fd5b50620001896200040336600462002367565b62000f32565b3480156200041657600080fd5b506200042162001035565b6040519015158152602001620001b2565b3480156200043f57600080fd5b50620004216200045136600462001f45565b60026020526000908152604090205460ff1681565b3480156200047357600080fd5b50620001896200048536600462002265565b62001046565b3480156200049857600080fd5b5062000189620004aa36600462002334565b6200116b565b348015620004bd57600080fd5b5062000189620004cf36600462001f45565b62001383565b348015620004e257600080fd5b5062000189620004f4366004620023f0565b620013e0565b3480156200050757600080fd5b506200018962000519366004620023f0565b620014f3565b3480156200052c57600080fd5b506200021160055481565b3480156200054457600080fd5b50620001896200055636600462001f45565b62001700565b3480156200056957600080fd5b506003546200037690600160a060020a031681565b3360009081526002602052604090205460ff161515600114620005c15760405160e560020a62461bcd028152600401620005b8906200282e565b60405180910390fd5b60003411620006165760405160e560020a62461bcd02815260206004820152601560248201527f56616c7565206e6565647320746f206265203e203000000000000000000000006044820152606401620005b8565b600081815260046020819052604080832054815160e060020a6331767ffd0281529151600160a060020a039091169384936331767ffd9334938183019392909182900301818588803b1580156200066c57600080fd5b505af115801562000681573d6000803e3d6000fd5b50505050507f823696ac0f9b333e2316140757e4b02249983e6b5cfa8c752f738c7376a04b1c338334604051620006bb9392919062002608565b60405180910390a15050565b60018054620006d69062002ab2565b80601f0160208091040260200160405190810160405280929190818152602001828054620007049062002ab2565b8015620007555780601f10620007295761010080835404028352916020019162000755565b820191906000526020600020905b8154815290600101906020018083116200073757829003601f168201915b505050505081565b6200076762001035565b6200077157600080fd5b60038054600160a060020a031916600160a060020a0392909216919091179055565b6001600081815260066020527f3e5fec24aa4dc4e5aee2e025e51e1392c72a2500577559fae9665c6d52bd6a3154606092620007d0928062001736565b905090565b600160a060020a038116600081815260026020526040808220805460ff19166001179055517fde01ac6896c5b1bb768b9f622140a44faf53b6e47809bee039be206a1f88fce69190a250565b3360009081526002602052604090205460ff1615156001146200085b5760405160e560020a62461bcd028152600401620005b8906200282e565b60008881526004602081905260409182902054915160e060020a634a4cd405028152600160a060020a03909216918291634a4cd40591620008ab918c918c918c918c918c918c918c910162002967565b600060405180830381600087803b158015620008c657600080fd5b505af1158015620008db573d6000803e3d6000fd5b5050604080518c8152602081018c9052600160a060020a03851693503392507ffd73297d870e9cb2f853ac5534c549035a865c9694cd022fb8e4dc8cd8bb78ab91015b60405180910390a3505050505050505050565b3360009081526002602052604090205460ff1615156001146200096b5760405160e560020a62461bcd028152600401620005b8906200282e565b6000338686868686604051620009819062001ce4565b6200099296959493929190620025ba565b604051809103906000f080158015620009af573d6000803e3d6000fd5b50600554600090815260046020908152604082208054600160a060020a031916600160a060020a038516179055818052600690527f54cdd369e4e8a8515e52ca72ec816c2101831ad1f18bf44102ed171459c9b4f8805492935083929162000a178362002af3565b919050555080600160a060020a031633600160a060020a03167f814c0a58b6d977676546cfd22e430d3fa3e288403ba1eeb335bdd8973eec958460055460405162000a6491815260200190565b60405180910390a36005805490600062000a7e8362002af3565b90915550506005543360009081526007602052604090205550505050505050565b33600090815260076020526040812054606091620007d0919080600162001736565b62000acb62001035565b62000ad557600080fd5b62000ae1600062001c94565b565b6005548310801562000af3575060015b62000b445760405160e560020a62461bcd02815260206004820152600d60248201527f4944206d757374206578697374000000000000000000000000000000000000006044820152606401620005b8565b60005a600085815260046020818152604080842054815160e160020a63100697690281529151959650600160a060020a031694859363200d2ed2938382019390929190829003018186803b15801562000b9c57600080fd5b505afa15801562000bb1573d6000803e3d6000fd5b505050506040513d601f19601f8201168201806040525081019062000bd7919062001fcc565b60035460405160e160020a636b6d334f028152919250600091600160a060020a038086169263d6da669e9262000c1892899216908b908b90600401620028aa565b602060405180830381600087803b15801562000c3357600080fd5b505af115801562000c48573d6000803e3d6000fd5b505050506040513d601f19601f8201168201806040525081019062000c6e9190620021c8565b9050600083600160a060020a031663200d2ed26040518163ffffffff1660e060020a02815260040160206040518083038186803b15801562000caf57600080fd5b505afa15801562000cc4573d6000803e3d6000fd5b505050506040513d601f19601f8201168201806040525081019062000cea919062001fcc565b905082600281111562000d015762000d0162002b2b565b81600281111562000d165762000d1662002b2b565b1462000dc3576006600084600281111562000d355762000d3562002b2b565b600281111562000d495762000d4962002b2b565b8152602001908152602001600020600081548092919062000d6a9062002a98565b91905055506006600082600281111562000d885762000d8862002b2b565b600281111562000d9c5762000d9c62002b2b565b8152602001908152602001600020600081548092919062000dbd9062002af3565b91905055505b604080518981526020810184905233917f6d1baacba6a9e34b8f24ff8b6928204ae3b3b0897a5dcc6c3ee892f23702aa4c910160405180910390a25050505050505050565b6060620007d060055460006001600062001736565b3360009081526002602052604090205460ff16151560011462000e575760405160e560020a62461bcd028152600401620005b8906200282e565b6000811162000e7d5760405160e560020a62461bcd028152600401620005b89062002865565b60008281526004602081905260409182902054915160e060020a638e6b582f028152908101839052600160a060020a03909116908190638e6b582f90602401600060405180830381600087803b15801562000ed757600080fd5b505af115801562000eec573d6000803e3d6000fd5b505050507fd394af405f853a90ae990fcbd40afd423bf6057c6a694c2ffa9e5a19cf551ba633848460405162000f259392919062002608565b60405180910390a1505050565b3360009081526002602052604090205460ff16151560011462000f6c5760405160e560020a62461bcd028152600401620005b8906200282e565b60008681526004602081905260409182902054915160e060020a631eea56a3028152600160a060020a03909216918291631eea56a39162000fb8918a918a918a918a918a9101620027db565b600060405180830381600087803b15801562000fd357600080fd5b505af115801562000fe8573d6000803e3d6000fd5b5050604051898152600160a060020a03841692503391507f12c056ebad7c44ab7bced3a029dafd20eedf8789050c2030926b61229e2058ca9060200160405180910390a350505050505050565b600054600160a060020a0316331490565b3360009081526002602052604090205460ff161515600114620010805760405160e560020a62461bcd028152600401620005b8906200282e565b600087815260046020819052604080832054905160e060020a63482ff513028152600160a060020a039091169291839163482ff51391620010ce918c918c918c918c918c918c910162002742565b602060405180830381600087803b158015620010e957600080fd5b505af1158015620010fe573d6000803e3d6000fd5b505050506040513d601f19601f82011682018060405250810190620011249190620021c8565b604080518b815260208101839052919250600160a060020a0384169133917f5975fc3a6be87625dad6832daa4821eb33c5a675b313a78d11eb8de595ba1f4691016200091e565b3360009081526002602052604090205460ff161515600114620011a55760405160e560020a62461bcd028152600401620005b8906200282e565b600082815260046020818152604080842054815160e160020a63100697690281529151600160a060020a039091169493859363200d2ed29380830193919290829003018186803b158015620011f957600080fd5b505afa1580156200120e573d6000803e3d6000fd5b505050506040513d601f19601f8201168201806040525081019062001234919062001fcc565b60405160e060020a63f93bbb87028152909150600160a060020a0383169063f93bbb879062001268908690600401620027ad565b600060405180830381600087803b1580156200128357600080fd5b505af115801562001298573d6000803e3d6000fd5b5050505060066000826002811115620012b557620012b562002b2b565b6002811115620012c957620012c962002b2b565b81526020019081526020016000206000815480929190620012ea9062002a98565b91905055506006600084600281111562001308576200130862002b2b565b60028111156200131c576200131c62002b2b565b815260200190815260200160002060008154809291906200133d9062002af3565b91905055507fd2a617db2388e82e6e520aa417ab5d836a7aaa85ce1792b5dab75c4d8860edea838560405162001375929190620027c2565b60405180910390a150505050565b6200138d62001035565b6200139757600080fd5b600160a060020a038116600081815260026020526040808220805460ff19169055517fc9f999728340f25e1001a7e2414500afb6a11e8f53d5b86c14302417bd50892e9190a250565b3360009081526002602052604090205460ff1615156001146200141a5760405160e560020a62461bcd028152600401620005b8906200282e565b60008111620014405760405160e560020a62461bcd028152600401620005b89062002865565b60008281526004602081905260409182902054600354925160e060020a631275b3bb028152600160a060020a03918216938493631275b3bb936200148a9392169187910162002729565b600060405180830381600087803b158015620014a557600080fd5b505af1158015620014ba573d6000803e3d6000fd5b505050507fadab12bef87c4260212d908fba3f1627ba11a973ea59d67fbc8dfddaa742278733848460405162000f259392919062002608565b3360009081526002602052604090205460ff1615156001146200152d5760405160e560020a62461bcd028152600401620005b8906200282e565b60008111620015535760405160e560020a62461bcd028152600401620005b89062002865565b600082815260046020819052604080832054815160e060020a6306fdde030281529151600160a060020a03909116939284926306fdde0392818301928692829003018186803b158015620015a657600080fd5b505afa158015620015bb573d6000803e3d6000fd5b505050506040513d6000823e601f3d908101601f19168201604052620015e5919081019062002067565b51116200165e5760405160e560020a62461bcd02815260206004820152602e60248201527f4c656e677468206f6620737472696e67206e6565647320746f2062652067726560448201527f61746572207468616e207a65726f0000000000000000000000000000000000006064820152608401620005b8565b60035460405160e260020a630e1d1687028152600160a060020a03838116926338745a1c92620016979290911690869060040162002729565b600060405180830381600087803b158015620016b257600080fd5b505af1158015620016c7573d6000803e3d6000fd5b505050507f705860a96659ef551cbecddacb064424c42677dbc3af77aade6a65108257534133848460405162000f259392919062002608565b6200170a62001035565b6200171457600080fd5b600160a060020a0381166200172857600080fd5b620017338162001c94565b50565b606060008567ffffffffffffffff81111562001756576200175662002b5f565b6040519080825280602002602001820160405280156200179357816020015b6200177f62001cf2565b815260200190600190039081620017755790505b5090506000805b60055481101562001bb457600081815260046020526040812054600160a060020a031690881580620019855750888015620018605750600182600160a060020a031663200d2ed26040518163ffffffff1660e060020a02815260040160206040518083038186803b1580156200180f57600080fd5b505afa15801562001824573d6000803e3d6000fd5b505050506040513d601f19601f820116820180604052508101906200184a919062001fcc565b60028111156200185e576200185e62002b2b565b145b8015620018f6575033600160a060020a031682600160a060020a03166302d05d3f6040518163ffffffff1660e060020a02815260040160206040518083038186803b158015620018af57600080fd5b505afa158015620018c4573d6000803e3d6000fd5b505050506040513d601f19601f82011682018060405250810190620018ea919062001f6c565b600160a060020a031614155b801562001985575060405160e060020a638beeef2b028152600160a060020a03831690638beeef2b906200192f903390600401620025a6565b60206040518083038186803b1580156200194857600080fd5b505afa1580156200195d573d6000803e3d6000fd5b505050506040513d601f19601f8201168201806040525081019062001983919062001f8c565b155b9050600088158062001a20575088801562001a20575060405160e060020a638beeef2b028152600160a060020a03841690638beeef2b90620019cc903390600401620025a6565b60206040518083038186803b158015620019e557600080fd5b505afa158015620019fa573d6000803e3d6000fd5b505050506040513d601f19601f8201168201806040525081019062001a20919062001f8c565b9050600088158062001ac3575088801562001ac3575033600160a060020a031684600160a060020a03166302d05d3f6040518163ffffffff1660e060020a02815260040160206040518083038186803b15801562001a7d57600080fd5b505afa15801562001a92573d6000803e3d6000fd5b505050506040513d601f19601f8201168201806040525081019062001ab8919062001f6c565b600160a060020a0316145b905082801562001ad05750815b801562001ada5750805b1562001b9a57600084600160a060020a03166320443e8d6040518163ffffffff1660e060020a02815260040160006040518083038186803b15801562001b1f57600080fd5b505afa15801562001b34573d6000803e3d6000fd5b505050506040513d6000823e601f3d908101601f1916820160405262001b5e9190810190620020a0565b8681528851909150819089908990811062001b7d5762001b7d62002b45565b6020026020010181905250868062001b959062002af3565b975050505b50505050808062001bab9062002af3565b9150506200179a565b50808251111562001c885760008167ffffffffffffffff81111562001bdd5762001bdd62002b5f565b60405190808252806020026020018201604052801562001c1a57816020015b62001c0662001cf2565b81526020019060019003908162001bfc5790505b50905060005b8281101562001c7c5783818151811062001c3e5762001c3e62002b45565b602002602001015182828151811062001c5b5762001c5b62002b45565b6020026020010181905250808062001c739062002af3565b91505062001c20565b50925062001c8c915050565b5090505b949350505050565b60008054600160a060020a03838116600160a060020a0319831681178455604051919092169283917f8be0079c531659141344cd1fd0a4f28419497f9722a3daafe3b4186f6b6457e09190a35050565b6132a18062002bd083390190565b604051806101600160405280600081526020016000600160a060020a03168152602001600081526020016000815260200160608152602001606081526020016000600281111562001d475762001d4762002b2b565b8152602001600081526020016000815260200160008152602001600081525090565b805162001d768162002b9c565b919050565b600082601f83011262001d8d57600080fd5b8135602067ffffffffffffffff8083111562001dad5762001dad62002b5f565b81830262001dbd83820162002a06565b8481528381019087850183890186018a101562001dd957600080fd5b60009350835b8781101562001e1b5781358681111562001df7578586fd5b62001e078c89838e010162001e9d565b855250928601929086019060010162001ddf565b50909998505050505050505050565b803562001d768162002bb2565b803562001d768162002bc1565b805162001d768162002bc1565b60008083601f84011262001e6457600080fd5b50813567ffffffffffffffff81111562001e7d57600080fd5b60208301915083602082850101111562001e9657600080fd5b9250929050565b600082601f83011262001eaf57600080fd5b813562001ec662001ec08262002a3a565b62002a06565b81815284602083860101111562001edc57600080fd5b816020850160208301376000918101602001919091529392505050565b600082601f83011262001f0b57600080fd5b815162001f1c62001ec08262002a3a565b81815284602083860101111562001f3257600080fd5b62001c8c82602083016020870162002a65565b60006020828403121562001f5857600080fd5b813562001f658162002b9c565b9392505050565b60006020828403121562001f7f57600080fd5b815162001f658162002b9c565b60006020828403121562001f9f57600080fd5b815162001f658162002bb2565b60006020828403121562001fbf57600080fd5b813562001f658162002bc1565b60006020828403121562001fdf57600080fd5b815162001f658162002bc1565b6000806000806000606086880312156200200557600080fd5b853567ffffffffffffffff808211156200201e57600080fd5b6200202c89838a0162001e51565b909750955060208801359150808211156200204657600080fd5b50620020558882890162001e51565b96999598509660400135949350505050565b6000602082840312156200207a57600080fd5b815167ffffffffffffffff8111156200209257600080fd5b62001c8c8482850162001ef9565b600060208284031215620020b357600080fd5b815167ffffffffffffffff80821115620020cc57600080fd5b908301906101608286031215620020e257600080fd5b620020ec620029d9565b82518152620020fe6020840162001d69565b602082015260408301516040820152606083015160608201526080830151828111156200212a57600080fd5b620021388782860162001ef9565b60808301525060a0830151828111156200215157600080fd5b6200215f8782860162001ef9565b60a0830152506200217360c0840162001e44565b60c082015260e08381015190820152610100808401519082015261012080840151908201526101409283015192810192909252509392505050565b600060208284031215620021c157600080fd5b5035919050565b600060208284031215620021db57600080fd5b5051919050565b600080600060408486031215620021f857600080fd5b83359250602084013567ffffffffffffffff808211156200221857600080fd5b818601915086601f8301126200222d57600080fd5b8135818111156200223d57600080fd5b87602080830285010111156200225257600080fd5b6020830194508093505050509250925092565b600080600080600080600060e0888a0312156200228157600080fd5b873596506020880135620022958162002bc1565b9550604088013594506060880135620022ae8162002bb2565b9350608088013567ffffffffffffffff80821115620022cc57600080fd5b620022da8b838c0162001e9d565b945060a08a0135915080821115620022f157600080fd5b620022ff8b838c0162001e9d565b935060c08a01359150808211156200231657600080fd5b50620023258a828b0162001d7b565b91505092959891949750929550565b600080604083850312156200234857600080fd5b8235915060208301356200235c8162002bc1565b809150509250929050565b600080600080600080608087890312156200238157600080fd5b86359550602087013567ffffffffffffffff80821115620023a157600080fd5b620023af8a838b0162001e51565b90975095506040890135915080821115620023c957600080fd5b50620023d889828a0162001e51565b979a9699509497949695606090950135949350505050565b600080604083850312156200240457600080fd5b50508035926020909101359150565b600080600080600080600080610100898b0312156200243157600080fd5b88359750602089013596506200244a60408a0162001e37565b9550606089013594506200246160808a0162001e2a565b935060a089013567ffffffffffffffff808211156200247f57600080fd5b6200248d8c838d0162001e9d565b945060c08b0135915080821115620024a457600080fd5b620024b28c838d0162001e9d565b935060e08b0135915080821115620024c957600080fd5b50620024d88b828c0162001d7b565b9150509295985092959890939650565b600081518084526020808501808196508284028101915082860160005b85811015620025335782840389526200252084835162002578565b9885019893509084019060010162002505565b5091979650505050505050565b6200254b8162002b79565b9052565b81835281816020850137506000828201602090810191909152601f909101601f19169091010190565b600081518084526200259281602086016020860162002a65565b601f01601f19169290920160200192915050565b600160a060020a0391909116815260200190565b600160a060020a0387168152608060208201526000620025df6080830187896200254f565b8281036040840152620025f48186886200254f565b915050826060830152979650505050505050565b600160a060020a039390931683526020830191909152604082015260600190565b60208082528251828201819052600091906040908185019080840286018301878501865b838110156200271b57603f1989840301855281518051845287810151600160a060020a0316888501528681015187850152606080820151908501526080808201516101608287018190529190620026a78388018262002578565b9250505060a08083015186830382880152620026c4838262002578565b9250505060c080830151620026dc8288018262002540565b505060e082810151908601526101008083015190860152610120808301519086015261014091820151919094015293860193908601906001016200264d565b509098975050505050505050565b600160a060020a03929092168252602082015260400190565b6200274d8762002b79565b868152856020820152841515604082015260c0606082015260006200277660c083018662002578565b82810360808401526200278a818662002578565b905082810360a0840152620027a08185620024e8565b9998505050505050505050565b60208101620027bc8362002b79565b91905290565b60408101620027d18462002b79565b9281526020015290565b606081526000620027f16060830187896200254f565b8281036020840152620028068186886200254f565b9150508260408301529695505050505050565b60208152600062001f65602083018462002578565b6020808252600f908201527f4d7573742062652063726561746f720000000000000000000000000000000000604082015260600190565b60208082526022908201527f616d6f756e742068617320746f2062652067726561746572207468616e207a65604082015260f060020a61726f02606082015260800190565b6000606082018683526020600160a060020a038716818501526060604085015281858352608085019050608082870286010192508660005b878110156200295857868503607f190183528135368a9003601e190181126200290a57600080fd5b8901803567ffffffffffffffff8111156200292457600080fd5b8036038b13156200293457600080fd5b6200294387828885016200254f565b965050509183019190830190600101620028e2565b50929998505050505050505050565b878152620029758762002b79565b866020820152856040820152841515606082015260e060808201526000620029a160e083018662002578565b82810360a0840152620029b5818662002578565b905082810360c0840152620029cb8185620024e8565b9a9950505050505050505050565b604051610160810167ffffffffffffffff8111828210171562002a005762002a0062002b5f565b60405290565b604051601f8201601f1916810167ffffffffffffffff8111828210171562002a325762002a3262002b5f565b604052919050565b600067ffffffffffffffff82111562002a575762002a5762002b5f565b50601f01601f191660200190565b60005b8381101562002a8257818101518382015260200162002a68565b8381111562002a92576000848401525b50505050565b60008162002aaa5762002aaa62002b11565b506000190190565b60028104600182168062002ac757607f821691505b6020821081141562002aed5760e060020a634e487b710260009081526022600452602490fd5b50919050565b600060001982141562002b0a5762002b0a62002b11565b5060010190565b60e060020a634e487b710260009081526011600452602490fd5b60e060020a634e487b710260009081526021600452602490fd5b60e060020a634e487b710260009081526032600452602490fd5b60e060020a634e487b710260009081526041600452602490fd5b60038110620017335760e060020a634e487b710260009081526021600452602490fd5b600160a060020a03811681146200173357600080fd5b80151581146200173357600080fd5b600381106200173357600080fdfe608060405260006001553480156200001657600080fd5b50604051620032a1380380620032a18339810160408190526200003991620001f3565b82516200004e90600490602086019062000096565b5081516200006490600590602085019062000096565b506006555050600c8054600160a060020a039092166101000261010060a860020a03199092169190911790556200030a565b828054620000a49062000285565b90600052602060002090601f016020900481019282620000c8576000855562000113565b82601f10620000e357805160ff191683800117855562000113565b8280016001018555821562000113579182015b8281111562000113578251825591602001919060010190620000f6565b506200012192915062000125565b5090565b5b8082111562000121576000815560010162000126565b600082601f8301126200014e57600080fd5b81516001604060020a03808211156200016b576200016b620002db565b604051601f8301601f19908116603f01168101908282118183101715620001965762000196620002db565b81604052838152602092508683858801011115620001b357600080fd5b600091505b83821015620001d75785820183015181830184015290820190620001b8565b83821115620001e95760008385830101525b9695505050505050565b600080600080608085870312156200020a57600080fd5b8451600160a060020a03811681146200022257600080fd5b60208601519094506001604060020a03808211156200024057600080fd5b6200024e888389016200013c565b945060408701519150808211156200026557600080fd5b5062000274878288016200013c565b606096909601519497939650505050565b6002810460018216806200029a57607f821691505b60208210811415620002d5577f4e487b7100000000000000000000000000000000000000000000000000000000600052602260045260246000fd5b50919050565b7f4e487b7100000000000000000000000000000000000000000000000000000000600052604160045260246000fd5b612f87806200031a6000396000f3fe60806040526004361061013a5760003560e060020a9004806331b1b978116100b557806331b1b978146102c4578063370158ea146102f557806338745a1c14610317578063482ff513146103375780634a4cd405146103575780638beeef2b146103775780638e1a55fc146103a75780638e6b582f146103cd57806397221ab7146103ed578063abadaf9a1461040f578063ad11c13114610424578063d6da669e14610439578063f93bbb871461045957600080fd5b806302d05d3f1461013f57806306fdde031461017357806312065fe0146101955780631275b3bb146101b35780631468aa2c146101d557806316f0115b146101eb5780631e59e02a1461020d5780631eea56a31461023a578063200d2ed21461025a57806320443e8d1461027a5780632401519c1461029c57806331767ffd146102bc575b600080fd5b34801561014b57600080fd5b50600c546101009004600160a060020a031660405161016a91906128f3565b60405180910390f35b34801561017f57600080fd5b50610188610479565b60405161016a9190612aee565b3480156101a157600080fd5b5030315b60405190815260200161016a565b3480156101bf57600080fd5b506101d36101ce366004612522565b61050d565b005b3480156101e157600080fd5b506101a560015481565b3480156101f757600080fd5b506102006106af565b60405161016a9190612c37565b34801561021957600080fd5b5061022d61022836600461268e565b610707565b60405161016a9190612920565b34801561024657600080fd5b506101d3610255366004612621565b610820565b34801561026657600080fd5b50600c5460ff1660405161016a9190612adb565b34801561028657600080fd5b5061028f6108ba565b60405161016a9190612cb0565b3480156102a857600080fd5b506101886102b736600461280c565b610a5b565b6101d3610b14565b3480156102d057600080fd5b506102e46102df36600461268e565b610b85565b60405161016a959493929190612a8d565b34801561030157600080fd5b5061030a610ccc565b60405161016a9190612c4b565b34801561032357600080fd5b506101d3610332366004612522565b610e2f565b34801561034357600080fd5b506101a561035236600461254e565b610f23565b34801561036357600080fd5b506101d361037236600461274b565b610fd0565b34801561038357600080fd5b506103976103923660046124e1565b61112f565b604051901515815260200161016a565b3480156103b357600080fd5b506103bc611160565b60405161016a959493929190612c5e565b3480156103d957600080fd5b506101d36103e836600461268e565b6112f6565b3480156103f957600080fd5b506104026113b4565b60405161016a9190612981565b34801561041b57600080fd5b506006546101a5565b34801561043057600080fd5b506101a56116e5565b34801561044557600080fd5b506101a56104543660046126c0565b611979565b34801561046557600080fd5b506101d3610474366004612604565b6121b5565b600480546060919061048a90612e23565b80601f01602080910402602001604051908101604052809291908181526020018280546104b690612e23565b80156105035780601f106104d857610100808354040283529160200191610503565b820191906000526020600020905b8154815290600101906020018083116104e657829003601f168201915b5050505050905090565b600c546101009004600160a060020a031632146105485760405160e560020a62461bcd02815260040161053f90612b38565b60405180910390fd5b6000811161056b5760405160e560020a62461bcd02815260040161053f90612bf2565b60405160e060020a6370a082310281528190600160a060020a038416906370a082319061059c9030906004016128f3565b60206040518083038186803b1580156105b457600080fd5b505afa1580156105c8573d6000803e3d6000fd5b505050506040513d601f19601f820116820180604052508101906105ec91906126a7565b101561060d5760405160e560020a62461bcd02815260040161053f90612b95565b60405160e060020a63a9059cbb028152600160a060020a0383169063a9059cbb9061063e9032908590600401612907565b602060405180830381600087803b15801561065857600080fd5b505af115801561066c573d6000803e3d6000fd5b505050506040513d601f19601f820116820180604052508101906106909190612505565b50600780548291906000906106a6908490612e0c565b90915550505050565b6106da6040518060800160405280600081526020016000815260200160008152602001600081525090565b50604080516080810182526007548152600854602082015260095491810191909152600a54606082015290565b600c546060906101009004600160a060020a0316321461073c5760405160e560020a62461bcd02815260040161053f90612b38565b600082815260026020908152604080832080548251818502810185019093528083529192909190849084015b8282101561081457838290600052602060002001805461078790612e23565b80601f01602080910402602001604051908101604052809291908181526020018280546107b390612e23565b80156108005780601f106107d557610100808354040283529160200191610800565b820191906000526020600020905b8154815290600101906020018083116107e357829003601f168201915b505050505081526020019060010190610768565b50929695505050505050565b600c546101009004600160a060020a031632146108525760405160e560020a62461bcd02815260040161053f90612b38565b6000600c5460ff16600281111561086b5761086b612eb1565b1461088b5760405160e560020a62461bcd02815260040161053f90612b01565b825161089e90600490602086019061220e565b5081516108b290600590602085019061220e565b506006555050565b6108c2612292565b6040805161016081018252600081523060208201529081016108e26116e5565b81526006546020820152600480546040909201916108ff90612e23565b80601f016020809104026020016040519081016040528092919081815260200182805461092b90612e23565b80156109785780601f1061094d57610100808354040283529160200191610978565b820191906000526020600020905b81548152906001019060200180831161095b57829003601f168201915b505050505081526020016004600001600101805461099590612e23565b80601f01602080910402602001604051908101604052809291908181526020018280546109c190612e23565b8015610a0e5780601f106109e357610100808354040283529160200191610a0e565b820191906000526020600020905b8154815290600101906020018083116109f157829003601f168201915b5050509183525050600c5460209091019060ff166002811115610a3357610a33612eb1565b8152600b54602082015260085460408201526007546060820152600154608090910152919050565b60026020528160005260406000208181548110610a7757600080fd5b90600052602060002001600091509150508054610a9390612e23565b80601f0160208091040260200160405190810160405280929190818152602001828054610abf90612e23565b8015610b0c5780601f10610ae157610100808354040283529160200191610b0c565b820191906000526020600020905b815481529060010190602001808311610aef57829003601f168201915b505050505081565b600c546101009004600160a060020a03163214610b465760405160e560020a62461bcd02815260040161053f90612b38565b60003411610b695760405160e560020a62461bcd02815260040161053f90612bf2565b60088054349190600090610b7e908490612df4565b9091555050565b600060208190529081526040902080546001820154600283015460038401805460ff9485169593949092169291610bbb90612e23565b80601f0160208091040260200160405190810160405280929190818152602001828054610be790612e23565b8015610c345780601f10610c0957610100808354040283529160200191610c34565b820191906000526020600020905b815481529060010190602001808311610c1757829003601f168201915b505050505090806004018054610c4990612e23565b80601f0160208091040260200160405190810160405280929190818152602001828054610c7590612e23565b8015610cc25780601f10610c9757610100808354040283529160200191610cc2565b820191906000526020600020905b815481529060010190602001808311610ca557829003601f168201915b5050505050905085565b610cf060405180606001604052806060815260200160608152602001600081525090565b60408051606081019091526004805482908290610d0c90612e23565b80601f0160208091040260200160405190810160405280929190818152602001828054610d3890612e23565b8015610d855780601f10610d5a57610100808354040283529160200191610d85565b820191906000526020600020905b815481529060010190602001808311610d6857829003601f168201915b50505050508152602001600182018054610d9e90612e23565b80601f0160208091040260200160405190810160405280929190818152602001828054610dca90612e23565b8015610e175780601f10610dec57610100808354040283529160200191610e17565b820191906000526020600020905b815481529060010190602001808311610dfa57829003601f168201915b50505050508152602001600282015481525050905090565b600c546101009004600160a060020a03163214610e615760405160e560020a62461bcd02815260040161053f90612b38565b60008111610e845760405160e560020a62461bcd02815260040161053f90612bf2565b60405160e060020a6323b872dd02815232600482015230602482015260448101829052600160a060020a038316906323b872dd90606401602060405180830381600087803b158015610ed557600080fd5b505af1158015610ee9573d6000803e3d6000fd5b505050506040513d601f19601f82011682018060405250810190610f0d9190612505565b50600780548291906000906106a6908490612df4565b600c546000906101009004600160a060020a03163214610f585760405160e560020a62461bcd02815260040161053f90612b38565b6000600c5460ff166002811115610f7157610f71612eb1565b14610f915760405160e560020a62461bcd02815260040161053f90612b01565b610fa2600154888888888888610fd0565b60018054906000610fb283612e5c565b919050555060018054610fc59190612e0c565b979650505050505050565b600c546101009004600160a060020a031632146110025760405160e560020a62461bcd02815260040161053f90612b38565b6000600c5460ff16600281111561101b5761101b612eb1565b1461103b5760405160e560020a62461bcd02815260040161053f90612b01565b6040518060c0016040528087600281111561105857611058612eb1565b81526020808201889052861515604080840191909152606083018790526080830186905260a090920184905260008a8152908190522081518154829060ff191660018360028111156110ac576110ac612eb1565b02179055506020828101516001830155604083015160028301805460ff1916911515919091179055606083015180516110eb926003850192019061220e565b506080820151805161110791600484019160209091019061220e565b5060a08201518051611123916005840191602090910190612306565b50505050505050505050565b600160a060020a03811660009081526003602052604081205480156111575750600192915050565b50600092915050565b60048060000160405180606001604052908160008201805461118190612e23565b80601f01602080910402602001604051908101604052809291908181526020018280546111ad90612e23565b80156111fa5780601f106111cf576101008083540402835291602001916111fa565b820191906000526020600020905b8154815290600101906020018083116111dd57829003601f168201915b5050505050815260200160018201805461121390612e23565b80601f016020809104026020016040519081016040528092919081815260200182805461123f90612e23565b801561128c5780601f106112615761010080835404028352916020019161128c565b820191906000526020600020905b81548152906001019060200180831161126f57829003601f168201915b50505091835250506002919091015460209182015260408051608081018252600385015481526004850154928101929092526005840154908201526006830154606082015260078301546008909301549192909160ff8116906101009004600160a060020a031685565b600c546101009004600160a060020a031632146113285760405160e560020a62461bcd02815260040161053f90612b38565b6000811161134b5760405160e560020a62461bcd02815260040161053f90612bf2565b303181111561136f5760405160e560020a62461bcd02815260040161053f90612b95565b6040513290819083156108fc029084906000818181858888f1935050505015801561139e573d6000803e3d6000fd5b50600880548391906000906106a6908490612e0c565b6060600060015467ffffffffffffffff8111156113d3576113d3612ee5565b60405190808252806020026020018201604052801561144057816020015b61142d6040805160c081019091528060008152602001600081526020016000151581526020016060815260200160608152602001606081525090565b8152602001906001900390816113f15790505b50905060005b6001548110156116df5760008181526020819052604090819020815160c081019092528054829060ff16600281111561148157611481612eb1565b600281111561149257611492612eb1565b815260018201546020820152600282015460ff16151560408201526003820180546060909201916114c290612e23565b80601f01602080910402602001604051908101604052809291908181526020018280546114ee90612e23565b801561153b5780601f106115105761010080835404028352916020019161153b565b820191906000526020600020905b81548152906001019060200180831161151e57829003601f168201915b5050505050815260200160048201805461155490612e23565b80601f016020809104026020016040519081016040528092919081815260200182805461158090612e23565b80156115cd5780601f106115a2576101008083540402835291602001916115cd565b820191906000526020600020905b8154815290600101906020018083116115b057829003601f168201915b5050505050815260200160058201805480602002602001604051908101604052809291908181526020016000905b828210156116a757838290600052602060002001805461161a90612e23565b80601f016020809104026020016040519081016040528092919081815260200182805461164690612e23565b80156116935780601f1061166857610100808354040283529160200191611693565b820191906000526020600020905b81548152906001019060200180831161167657829003601f168201915b5050505050815260200190600101906115fb565b50505050815250508282815181106116c1576116c1612ecb565b602002602001018190525080806116d790612e5c565b915050611446565b50919050565b600080805b6001548110156116df57600081815260208190526040808220815160c081019092528054829060ff16600281111561172457611724612eb1565b600281111561173557611735612eb1565b815260018201546020820152600282015460ff161515604082015260038201805460609092019161176590612e23565b80601f016020809104026020016040519081016040528092919081815260200182805461179190612e23565b80156117de5780601f106117b3576101008083540402835291602001916117de565b820191906000526020600020905b8154815290600101906020018083116117c157829003601f168201915b505050505081526020016004820180546117f790612e23565b80601f016020809104026020016040519081016040528092919081815260200182805461182390612e23565b80156118705780601f1061184557610100808354040283529160200191611870565b820191906000526020600020905b81548152906001019060200180831161185357829003601f168201915b5050505050815260200160058201805480602002602001604051908101604052809291908181526020016000905b8282101561194a5783829060005260206000200180546118bd90612e23565b80601f01602080910402602001604051908101604052809291908181526020018280546118e990612e23565b80156119365780601f1061190b57610100808354040283529160200191611936565b820191906000526020600020905b81548152906001019060200180831161191957829003601f168201915b50505050508152602001906001019061189e565b5050509152505060208101519091506119639084612df4565b925050808061197190612e5c565b9150506116ea565b60015460009082146119f65760405160e560020a62461bcd02815260206004820152603a60248201527f416e7377657220737472696e6720617272617920646f6573206e6f74206d617460448201527f636820746865206c656e677468206f66207175657374696f6e73000000000000606482015260840161053f565b6119ff3261112f565b15611a4f5760405160e560020a62461bcd02815260206004820152601760248201527f416c726561647920746f6f6b2074686520737572766579000000000000000000604482015260640161053f565b600c546101009004600160a060020a0316321415611ab25760405160e560020a62461bcd02815260206004820152601e60248201527f43726561746f722063616e6e6f742074616b6520746865207375727665790000604482015260640161053f565b6001600c5460ff166002811115611acb57611acb612eb1565b14611b1b5760405160e560020a62461bcd02815260206004820152601260248201527f537572766579206973206e6f74206f70656e0000000000000000000000000000604482015260640161053f565b60008060005b600154811015611e7e57600081815260208190526040808220815160c081019092528054829060ff166002811115611b5b57611b5b612eb1565b6002811115611b6c57611b6c612eb1565b815260018201546020820152600282015460ff1615156040820152600382018054606090920191611b9c90612e23565b80601f0160208091040260200160405190810160405280929190818152602001828054611bc890612e23565b8015611c155780601f10611bea57610100808354040283529160200191611c15565b820191906000526020600020905b815481529060010190602001808311611bf857829003601f168201915b50505050508152602001600482018054611c2e90612e23565b80601f0160208091040260200160405190810160405280929190818152602001828054611c5a90612e23565b8015611ca75780601f10611c7c57610100808354040283529160200191611ca7565b820191906000526020600020905b815481529060010190602001808311611c8a57829003601f168201915b5050505050815260200160058201805480602002602001604051908101604052809291908181526020016000905b82821015611d81578382906000526020600020018054611cf490612e23565b80601f0160208091040260200160405190810160405280929190818152602001828054611d2090612e23565b8015611d6d5780601f10611d4257610100808354040283529160200191611d6d565b820191906000526020600020905b815481529060010190602001808311611d5057829003601f168201915b505050505081526020019060010190611cd5565b505050508152505090506000878784818110611d9f57611d9f612ecb565b9050602002810190611db19190612d75565b8080601f0160208091040260200160405190810160405280939291908181526020018383808284376000920191909152505082519293505090159050611e14576020820151611e009086612df4565b945083611e0c81612e77565b945050611e69565b816040015115611e695760405160e560020a62461bcd02815260206004820181905260248201527f5265717569726564207175657374696f6e206e6f742066696c6c6564206f7574604482015260640161053f565b50508080611e7690612e5c565b915050611b21565b506001548160ff161415611e9c57600654611e999083612df4565b91505b600754821115611f175760405160e560020a62461bcd02815260206004820152603160248201527f4e6f7420656e6f7567682072657761726420746f20676976652c2063616e636560448201527f6c6c696e67207375626d697373696f6e2e000000000000000000000000000000606482015260840161053f565b600b54611f25906001612df4565b326000908152600360205260408120919091555b84811015611fee576000868683818110611f5557611f55612ecb565b9050602002810190611f679190612d75565b8080601f0160208091040260200160405190810160405280939291908181526020018383808284376000920191909152505082519293505090159050611fdb57600082815260026020908152604082208054600181018255908352918190208351611fd993919091019184019061220e565b505b5080611fe681612e5c565b915050611f39565b5060405160e060020a63a9059cbb028152600160a060020a0387169063a9059cbb906120209032908690600401612907565b602060405180830381600087803b15801561203a57600080fd5b505af115801561204e573d6000803e3d6000fd5b505050506040513d601f19601f820116820180604052508101906120729190612505565b5060078054839190600090612088908490612e0c565b9091555050600a80548391906000906120a2908490612df4565b90915550506008541561213e576008546000906120c0908990612e0c565b905087816120cd57506008545b3031811161213b576040513290819083156108fc029084906000818181858888f19350505050158015612104573d6000803e3d6000fd5b506008805483919060009061211a908490612e0c565b909155505060098054839190600090612134908490612df4565b9091555050505b50505b600b805490600061214e83612e5c565b919050555061215b6116e5565b60075410156121ab57600c805460ff191660029081179091556040517f0162568b2de8418ff706fde39b1c8a9fd0cb82ab9b14fdaa9c2e0860105e1fca916121a291612adb565b60405180910390a15b5095945050505050565b600c546101009004600160a060020a031632146121e75760405160e560020a62461bcd02815260040161053f90612b38565b600c805482919060ff1916600183600281111561220657612206612eb1565b021790555050565b82805461221a90612e23565b90600052602060002090601f01602090048101928261223c5760008555612282565b82601f1061225557805160ff1916838001178555612282565b82800160010185558215612282579182015b82811115612282578251825591602001919060010190612267565b5061228e92915061235f565b5090565b604051806101600160405280600081526020016000600160a060020a0316815260200160008152602001600081526020016060815260200160608152602001600060028111156122e4576122e4612eb1565b8152602001600081526020016000815260200160008152602001600081525090565b828054828255906000526020600020908101928215612353579160200282015b82811115612353578251805161234391849160209091019061220e565b5091602001919060010190612326565b5061228e929150612374565b5b8082111561228e5760008155600101612360565b8082111561228e5760006123888282612391565b50600101612374565b50805461239d90612e23565b6000825580601f106123ad575050565b601f0160209004906000526020600020908101906123cb919061235f565b50565b600082601f8301126123df57600080fd5b8135602067ffffffffffffffff808311156123fc576123fc612ee5565b81830261240a838201612dc3565b8481528381019087850183890186018a101561242557600080fd5b60009350835b8781101561246257813586811115612441578586fd5b61244f8c89838e0101612471565b855250928601929086019060010161242b565b50909998505050505050505050565b600082601f83011261248257600080fd5b813567ffffffffffffffff81111561249c5761249c612ee5565b6124af601f8201601f1916602001612dc3565b8181528460208386010111156124c457600080fd5b816020850160208301376000918101602001919091529392505050565b6000602082840312156124f357600080fd5b81356124fe81612f21565b9392505050565b60006020828403121561251757600080fd5b81516124fe81612f36565b6000806040838503121561253557600080fd5b823561254081612f21565b946020939093013593505050565b60008060008060008060c0878903121561256757600080fd5b863561257281612f44565b955060208701359450604087013561258981612f36565b9350606087013567ffffffffffffffff808211156125a657600080fd5b6125b28a838b01612471565b945060808901359150808211156125c857600080fd5b6125d48a838b01612471565b935060a08901359150808211156125ea57600080fd5b506125f789828a016123ce565b9150509295509295509295565b60006020828403121561261657600080fd5b81356124fe81612f44565b60008060006060848603121561263657600080fd5b833567ffffffffffffffff8082111561264e57600080fd5b61265a87838801612471565b9450602086013591508082111561267057600080fd5b5061267d86828701612471565b925050604084013590509250925092565b6000602082840312156126a057600080fd5b5035919050565b6000602082840312156126b957600080fd5b5051919050565b600080600080606085870312156126d657600080fd5b8435935060208501356126e881612f21565b9250604085013567ffffffffffffffff8082111561270557600080fd5b818701915087601f83011261271957600080fd5b81358181111561272857600080fd5b886020808302850101111561273c57600080fd5b95989497505060200194505050565b600080600080600080600060e0888a03121561276657600080fd5b87359650602088013561277881612f44565b955060408801359450606088013561278f81612f36565b9350608088013567ffffffffffffffff808211156127ac57600080fd5b6127b88b838c01612471565b945060a08a01359150808211156127ce57600080fd5b6127da8b838c01612471565b935060c08a01359150808211156127f057600080fd5b506127fd8a828b016123ce565b91505092959891949750929550565b6000806040838503121561281f57600080fd5b50508035926020909101359150565b61283781612eff565b9052565b6000815180845260005b8181101561286157602081850181015186830182015201612845565b81811115612873576000602083870101525b50601f01601f19169290920160200192915050565b805182526020810151602083015260408101516040830152606081015160608301525050565b60008151606084526128c3606085018261283b565b9050602083015184820360208601526128dc828261283b565b915050604083015160408501528091505092915050565b600160a060020a0391909116815260200190565b600160a060020a03929092168252602082015260400190565b600060208083018184528085518083526040860191506040848202870101925083870160005b8281101561297457603f1988860301845261296285835161283b565b94509285019290850190600101612946565b5092979650505050505050565b6020808252825182820181905260009190604090818501908084028601830187850186805b84811015612a7e57603f198a8503018652825160c081516129c681612eff565b8652818a01518a870152888201511515898701526060808301518188018390526129f28389018261283b565b9250505060808083015187830382890152612a0d838261283b565b60a094850151898203958a01959095528451808252948d01949093508c8401925090508b810283018c01865b82811015612a6757601f19858303018452612a5582875161283b565b958e0195938e01939150600101612a39565b50998c0199975050509389019350506001016129a6565b50919998505050505050505050565b612a9686612eff565b858152846020820152831515604082015260a060608201526000612abd60a083018561283b565b8281036080840152612acf818561283b565b98975050505050505050565b60208101612ae883612eff565b91905290565b6020815260006124fe602083018461283b565b6020808252601f908201527f537572766579206d75737420626520696e2065646974696e6720737461676500604082015260600190565b6020808252602b908201527f4d757374206265207468652063726561746f7220746f2061636365737320746860408201527f69732066756e6374696f6e000000000000000000000000000000000000000000606082015260800190565b60208082526030908201527f42616c616e63652068617320746f206265203e3d207468616e2074686520616d60408201527f6f756e7420746f20776974686472617700000000000000000000000000000000606082015260800190565b60208082526022908201527f616d6f756e742068617320746f2062652067726561746572207468616e207a65604082015260f060020a61726f02606082015260800190565b60808101612c458284612888565b92915050565b6020815260006124fe60208301846128ae565b6000610100808352612c72818401896128ae565b915050612c826020830187612888565b8460a0830152612c9184612eff565b8360c0830152600160a060020a03831660e08301529695505050505050565b602081528151602082015260006020830151612cd76040840182600160a060020a03169052565b50604083015160608301526060830151608083015260808301516101608060a0850152612d0861018085018361283b565b915060a0850151601f198584030160c0860152612d25838261283b565b92505060c0850151612d3a60e086018261282e565b5060e0850151610100858101919091528501516101208086019190915285015161014080860191909152909401519390920192909252919050565b6000808335601e19843603018112612d8c57600080fd5b83018035915067ffffffffffffffff821115612da757600080fd5b602001915036819003821315612dbc57600080fd5b9250929050565b604051601f8201601f1916810167ffffffffffffffff81118282101715612dec57612dec612ee5565b604052919050565b60008219821115612e0757612e07612e97565b500190565b600082821015612e1e57612e1e612e97565b500390565b600281046001821680612e3757607f821691505b602082108114156116df5760e060020a634e487b710260009081526022600452602490fd5b6000600019821415612e7057612e70612e97565b5060010190565b600060ff821660ff811415612e8e57612e8e612e97565b60010192915050565b60e060020a634e487b710260009081526011600452602490fd5b60e060020a634e487b710260009081526021600452602490fd5b60e060020a634e487b710260009081526032600452602490fd5b60e060020a634e487b710260009081526041600452602490fd5b600381106123cb5760e060020a634e487b710260009081526021600452602490fd5b600160a060020a03811681146123cb57600080fd5b80151581146123cb57600080fd5b600381106123cb57600080fdfea2646970667358221220f64318c9eb654583fcf5a82bd9e738c922bdb2121c882ad240adb7fa94bacc0164736f6c63430008070033a26469706673582212203390e1b0b712ae9dc96e13a97b1f3be9dc6af2d7e57f6f5ce5ed5c97f887fec464736f6c63430008070033",
  "immutableReferences": {},
  "source": "// SPDX-License-Identifier: MIT\r\npragma experimental ABIEncoderV2;\r\npragma solidity >=0.6.0;\r\n\r\n/*\r\nSurvana\r\n----------------------\r\n1. A owner can add a creator to add survies\r\n2. A creator can create a survey that has unlimited questions.\r\n3. A question can be one of the following types of questions\r\n\t- A mulitple choice\r\n\t- Text\r\n\t- Rate\r\n4. Each question will be assigned an amount of tokens that can be earned for completed it\r\n5. They can mark a question as required or optional (defaulted)\r\n6. The creator has to fill the liquidity pool for that survey with tokens to be distrubted to people\r\n7. There can be an extra bonus for completing the whole survey (which the creator can define how much that is)\r\n8. The creator can stop the survey at anytime. (will stop clients who are on it currently).\r\n9. Once the contract determines the survey cannot fulfill another disbrusment of funds, it will auto close it. (will stop clients)\r\n10. A client can only do a survey once\r\n11. When survey has started, the questions cannot be changed.\r\n*/\r\n\r\nimport \"./Survey.sol\";\r\nimport \"./Ownable.sol\";\r\nimport \"./Token.sol\";\r\nimport \"./SurveyInterface.sol\";\r\n\r\ncontract Survana is Ownable, SurveyInterface {\r\n  string public name = \"Survana\";\r\n  mapping (address => bool) public creators;\r\n  Token public token;\r\n  mapping (uint => address) public surveys;\r\n  uint public surveyCount = 0;\r\n  mapping (Status => uint) public statusCounts;\r\n  mapping (address => uint) public creatorSurveyCount;\r\n\r\n  //TODO store totalTokensRewards by address sp we cam show it on the site\r\n  //Refactor contracts\r\n  //add selfdestruct to survey (a way to delete surveys they accidently made)\r\n  //more?\r\n\r\n  constructor(Token _token) {\r\n    token = _token;\r\n  }\r\n\r\n\r\n  modifier isCreator() {\r\n    require(creators[msg.sender] == true, \"Must be creator\");\r\n    _;\r\n  }\r\n\r\n  event AddedCreator(\r\n    address indexed _creator\r\n  );\r\n\r\n  event RemovedCreator(\r\n    address indexed _creator\r\n  );\r\n\r\n  event DepositedTokensToPool(\r\n    address _creator,\r\n    uint _surveyId,\r\n    uint _amount\r\n  );\r\n\r\n  event DepositedGasToPool(\r\n    address _creator,\r\n    uint _surveyId,\r\n    uint _amount\r\n  );\r\n\r\n  event WithdrawFromTokenPool(\r\n    address _creator,\r\n    uint _surveyId,\r\n    uint _amount\r\n  );\r\n\r\n  event WithdrawFromGasPool(\r\n    address _creator,\r\n    uint _surveyId,\r\n    uint _amount\r\n  );\r\n\r\n  event SurveyCreated(\r\n    address indexed _creator,\r\n    address indexed _newContract,\r\n    uint _surveyId\r\n  );\r\n\r\n  event SurveyUpdated(\r\n    address indexed _creator,\r\n    address indexed _contract,\r\n    uint _surveyId\r\n  );\r\n\r\n  event SurveySubmited(\r\n    address indexed _user,\r\n    uint _surveyId,\r\n    uint _tokensAwarded\r\n  );\r\n\r\n  event QuestionAdded(\r\n    address indexed _creator,\r\n    address indexed _contract,\r\n    uint _surveyId,\r\n    uint _questionId\r\n  );\r\n\r\n  event QuestionUpdated(\r\n    address indexed _creator,\r\n    address indexed _contract,\r\n    uint _surveyId,\r\n    uint _questionId\r\n  );\r\n\r\n  event SurveyStatusChanged(\r\n    Status _status,\r\n    uint _id\r\n  );\r\n\r\n  function addCreator(address _addr) external {\r\n    creators[_addr] = true;\r\n    emit AddedCreator(_addr);\r\n  }\r\n\r\n  function removeCreator(address _addr) external onlyOwner {\r\n    creators[_addr] = false;\r\n    emit RemovedCreator(_addr);\r\n  }\r\n\r\n  function depositToSurveyTokenPool(uint _id, uint _amount) external isCreator {\r\n    require(_amount > 0, \"amount has to be greater than zero\");\r\n    Survey s = Survey(surveys[_id]);\r\n    require(bytes(s.name()).length > 0, \"Length of string needs to be greater than zero\");\r\n    s.depositToSurveyTokenPool(token, _amount);\r\n    emit DepositedTokensToPool(msg.sender, _id, _amount);\r\n  }\r\n\r\n  function depositToSurveyGasPool(uint _id) external payable isCreator {\r\n    require(msg.value > 0, \"Value needs to be > 0\");\r\n    Survey s = Survey(surveys[_id]);\r\n    s.depositToSurveyGasPool{value: msg.value}();\r\n    emit DepositedGasToPool(msg.sender, _id, msg.value);\r\n  }\r\n\r\n  function withdrawFromTokenPool(uint _id, uint _amount) external isCreator {\r\n    require(_amount > 0, \"amount has to be greater than zero\");\r\n    Survey s = Survey(surveys[_id]);\r\n    s.withdrawFromTokenPool(token, _amount);\r\n    emit WithdrawFromTokenPool(msg.sender, _id, _amount);\r\n  }\r\n\r\n  function withdrawFromGasPool(uint _id, uint _amount) external isCreator {\r\n    require(_amount > 0, \"amount has to be greater than zero\");\r\n    Survey s = Survey(surveys[_id]);\r\n    s.withdrawFromGasPool(_amount);\r\n    emit WithdrawFromGasPool(msg.sender, _id, _amount);\r\n  }\r\n\r\n  function createSurvey(\r\n    string calldata _name,\r\n    string calldata _description,\r\n    uint _bonusAmount\r\n  ) external isCreator {\r\n    Survey s = new Survey(msg.sender, _name, _description, _bonusAmount);\r\n    address newContract = address(s);\r\n    surveys[surveyCount] = newContract;\r\n    statusCounts[Status.NOT_OPENED]++;\r\n    emit SurveyCreated(msg.sender, newContract, surveyCount);\r\n    surveyCount++;\r\n    creatorSurveyCount[msg.sender] = surveyCount;\r\n  }\r\n\r\n  function updateSurvey(\r\n    uint _id,\r\n    string calldata _name,\r\n    string calldata _description,\r\n    uint _bonusAmount\r\n  ) external isCreator {\r\n    Survey s = Survey(surveys[_id]);\r\n    s.updateSurvey(_name, _description, _bonusAmount);\r\n    emit SurveyUpdated(msg.sender, address(s), _id);\r\n  }\r\n\r\n  function addQuestion(\r\n    uint _id,\r\n    QuestionType _qtypes,\r\n    uint _worth,\r\n    bool _required,\r\n    string memory _title,\r\n    string memory _qdescription,\r\n    string[] memory _choices\r\n  ) public  isCreator {\r\n    Survey s = Survey(surveys[_id]);\r\n    uint qid = s.addQuestion(_qtypes, _worth, _required, _title, _qdescription, _choices);\r\n    emit QuestionAdded(msg.sender, address(s), _id, qid);\r\n  }\r\n\r\n  function updateQuestion(\r\n    uint _id,\r\n    uint _qid,\r\n    QuestionType _qtypes,\r\n    uint _worth,\r\n    bool _required,\r\n    string memory _title,\r\n    string memory _qdescription,\r\n    string[] memory _choices\r\n  ) public isCreator {\r\n    Survey s = Survey(surveys[_id]);\r\n    s.updateQuestion(_qid, _qtypes, _worth, _required, _title, _qdescription, _choices);\r\n    emit QuestionUpdated(msg.sender, address(s), _id, _qid);\r\n  }\r\n\r\n  function setSurveyStatus(uint _id, Status _status) external isCreator {\r\n    Survey s = Survey(surveys[_id]);\r\n    Status old = s.status();\r\n    s.setSurveyStatus(_status);\r\n    statusCounts[old]--;\r\n    statusCounts[_status]++;\r\n    emit SurveyStatusChanged(_status, _id);\r\n  }\r\n\r\n  function submitSurvey(\r\n    uint _id,\r\n    string[] calldata _answers\r\n  ) external {\r\n    require(_id < surveyCount && _id >= 0, \"ID must exist\");\r\n    uint gas = gasleft();\r\n    Survey s = Survey(surveys[_id]);\r\n    Status oldS = s.status();\r\n    uint reward = s.submitSurvey(gas, token, _answers);\r\n    Status newS = s.status();\r\n    if (newS != oldS) {\r\n      statusCounts[oldS]--;\r\n      statusCounts[newS]++;\r\n    }\r\n    emit SurveySubmited(msg.sender, _id, reward);\r\n  }\r\n\r\n  function _getSurveyOverviews(uint arrayCount, bool openAndNotCreator, bool userFinished, bool isCreators) private view returns (SurveyOverview[] memory) {\r\n    SurveyOverview[] memory _tmp = new SurveyOverview[](arrayCount);\r\n    // require(_tmp.length == 0, \"LENGTH IS MORE THAN 0\");\r\n    uint count = 0;\r\n    for (uint256 index = 0; index < surveyCount; index++) {\r\n      Survey s = Survey(surveys[index]);\r\n      bool check1 = !openAndNotCreator || (openAndNotCreator && s.status() == Status.OPEN && s.creator() != msg.sender && !s.didUserTakeSurvey(msg.sender));\r\n      bool check2 = !userFinished || (userFinished && s.didUserTakeSurvey(msg.sender));\r\n      bool check3 = !isCreators || (isCreators && s.creator() == msg.sender);\r\n      if (check1 && check2 && check3) {\r\n        SurveyOverview memory so = s.getOverview();\r\n        so.id = index;\r\n        _tmp[count] = so;\r\n        count++;\r\n      }\r\n    }\r\n    if (_tmp.length > count) {\r\n      //re-copy over everything to remove blank enties\r\n      SurveyOverview[] memory ret = new SurveyOverview[](count);\r\n      for (uint256 index = 0; index < count; index++) {\r\n        ret[index] = _tmp[index];\r\n      }\r\n      return ret;\r\n    }\r\n    return _tmp;\r\n  }\r\n\r\n  function getCreatorSurveys() external view returns (SurveyOverview[] memory) {\r\n    return _getSurveyOverviews(creatorSurveyCount[msg.sender], false, false, true);\r\n  }\r\n\r\n  function getOpenSurveys() external view returns (SurveyOverview[] memory) {\r\n    return _getSurveyOverviews(statusCounts[Status.OPEN], true, false, false);\r\n  }\r\n\r\n  function getUserFinishedSurveys() external view returns (SurveyOverview[] memory) {\r\n    return _getSurveyOverviews(surveyCount, false, true, false);\r\n  }\r\n\r\n  function setToken(Token _token) external onlyOwner {\r\n    token = _token;\r\n  }\r\n}\r\n",
  "sourcePath": "C:\\Users\\surge\\Desktop\\dapp-projects\\survana\\contracts\\Survana.sol",
  "compiler": {
    "name": "solc",
    "version": "0.8.7+commit.e28d00a7.Emscripten.clang"
  },
  "schemaVersion": "3.4.3",
  "updatedAt": "2021-09-06T23:31:12.513Z",
  "networkType": "ethereum",
  "devdoc": {
    "kind": "dev",
    "methods": {},
    "version": 1
  },
  "userdoc": {
    "kind": "user",
    "methods": {},
    "version": 1
  }
}