{
  "contractName": "Survana",
  "abi": [
    {
      "inputs": [
        {
          "internalType": "contract Token",
          "name": "_token",
          "type": "address"
        }
      ],
      "stateMutability": "nonpayable",
      "type": "constructor"
    },
    {
      "anonymous": false,
      "inputs": [
        {
          "indexed": true,
          "internalType": "address",
          "name": "_creator",
          "type": "address"
        }
      ],
      "name": "AddedCreator",
      "type": "event"
    },
    {
      "anonymous": false,
      "inputs": [
        {
          "indexed": false,
          "internalType": "address",
          "name": "_creator",
          "type": "address"
        },
        {
          "indexed": false,
          "internalType": "uint256",
          "name": "_surveyId",
          "type": "uint256"
        },
        {
          "indexed": false,
          "internalType": "uint256",
          "name": "_amount",
          "type": "uint256"
        }
      ],
      "name": "DepositedGasToPool",
      "type": "event"
    },
    {
      "anonymous": false,
      "inputs": [
        {
          "indexed": false,
          "internalType": "address",
          "name": "_creator",
          "type": "address"
        },
        {
          "indexed": false,
          "internalType": "uint256",
          "name": "_surveyId",
          "type": "uint256"
        },
        {
          "indexed": false,
          "internalType": "uint256",
          "name": "_amount",
          "type": "uint256"
        }
      ],
      "name": "DepositedTokensToPool",
      "type": "event"
    },
    {
      "anonymous": false,
      "inputs": [
        {
          "indexed": true,
          "internalType": "address",
          "name": "oldOwner",
          "type": "address"
        },
        {
          "indexed": true,
          "internalType": "address",
          "name": "newOwner",
          "type": "address"
        }
      ],
      "name": "OwnershipTransferred",
      "type": "event"
    },
    {
      "anonymous": false,
      "inputs": [
        {
          "indexed": true,
          "internalType": "address",
          "name": "_creator",
          "type": "address"
        },
        {
          "indexed": true,
          "internalType": "address",
          "name": "_contract",
          "type": "address"
        },
        {
          "indexed": false,
          "internalType": "uint256",
          "name": "_surveyId",
          "type": "uint256"
        },
        {
          "indexed": false,
          "internalType": "uint256",
          "name": "_questionId",
          "type": "uint256"
        }
      ],
      "name": "QuestionAdded",
      "type": "event"
    },
    {
      "anonymous": false,
      "inputs": [
        {
          "indexed": true,
          "internalType": "address",
          "name": "_creator",
          "type": "address"
        },
        {
          "indexed": true,
          "internalType": "address",
          "name": "_contract",
          "type": "address"
        },
        {
          "indexed": false,
          "internalType": "uint256",
          "name": "_surveyId",
          "type": "uint256"
        },
        {
          "indexed": false,
          "internalType": "uint256",
          "name": "_questionId",
          "type": "uint256"
        }
      ],
      "name": "QuestionUpdated",
      "type": "event"
    },
    {
      "anonymous": false,
      "inputs": [
        {
          "indexed": true,
          "internalType": "address",
          "name": "_creator",
          "type": "address"
        }
      ],
      "name": "RemovedCreator",
      "type": "event"
    },
    {
      "anonymous": false,
      "inputs": [
        {
          "indexed": true,
          "internalType": "address",
          "name": "_creator",
          "type": "address"
        },
        {
          "indexed": true,
          "internalType": "address",
          "name": "_newContract",
          "type": "address"
        },
        {
          "indexed": false,
          "internalType": "uint256",
          "name": "_surveyId",
          "type": "uint256"
        }
      ],
      "name": "SurveyCreated",
      "type": "event"
    },
    {
      "anonymous": false,
      "inputs": [
        {
          "indexed": false,
          "internalType": "enum SurveyInterface.Status",
          "name": "_status",
          "type": "uint8"
        },
        {
          "indexed": false,
          "internalType": "uint256",
          "name": "_id",
          "type": "uint256"
        }
      ],
      "name": "SurveyStatusChanged",
      "type": "event"
    },
    {
      "anonymous": false,
      "inputs": [
        {
          "indexed": true,
          "internalType": "address",
          "name": "_user",
          "type": "address"
        },
        {
          "indexed": false,
          "internalType": "uint256",
          "name": "_surveyId",
          "type": "uint256"
        },
        {
          "indexed": false,
          "internalType": "uint256",
          "name": "_tokensAwarded",
          "type": "uint256"
        }
      ],
      "name": "SurveySubmited",
      "type": "event"
    },
    {
      "anonymous": false,
      "inputs": [
        {
          "indexed": true,
          "internalType": "address",
          "name": "_creator",
          "type": "address"
        },
        {
          "indexed": true,
          "internalType": "address",
          "name": "_contract",
          "type": "address"
        },
        {
          "indexed": false,
          "internalType": "uint256",
          "name": "_surveyId",
          "type": "uint256"
        }
      ],
      "name": "SurveyUpdated",
      "type": "event"
    },
    {
      "anonymous": false,
      "inputs": [
        {
          "indexed": false,
          "internalType": "contract Token",
          "name": "_token",
          "type": "address"
        }
      ],
      "name": "TokenChanged",
      "type": "event"
    },
    {
      "anonymous": false,
      "inputs": [
        {
          "indexed": false,
          "internalType": "address",
          "name": "_creator",
          "type": "address"
        },
        {
          "indexed": false,
          "internalType": "uint256",
          "name": "_surveyId",
          "type": "uint256"
        },
        {
          "indexed": false,
          "internalType": "uint256",
          "name": "_amount",
          "type": "uint256"
        }
      ],
      "name": "WithdrawFromGasPool",
      "type": "event"
    },
    {
      "anonymous": false,
      "inputs": [
        {
          "indexed": false,
          "internalType": "address",
          "name": "_creator",
          "type": "address"
        },
        {
          "indexed": false,
          "internalType": "uint256",
          "name": "_surveyId",
          "type": "uint256"
        },
        {
          "indexed": false,
          "internalType": "uint256",
          "name": "_amount",
          "type": "uint256"
        }
      ],
      "name": "WithdrawFromTokenPool",
      "type": "event"
    },
    {
      "inputs": [
        {
          "internalType": "address",
          "name": "",
          "type": "address"
        }
      ],
      "name": "creatorSurveyCount",
      "outputs": [
        {
          "internalType": "uint256",
          "name": "",
          "type": "uint256"
        }
      ],
      "stateMutability": "view",
      "type": "function"
    },
    {
      "inputs": [
        {
          "internalType": "address",
          "name": "",
          "type": "address"
        }
      ],
      "name": "creators",
      "outputs": [
        {
          "internalType": "bool",
          "name": "",
          "type": "bool"
        }
      ],
      "stateMutability": "view",
      "type": "function"
    },
    {
      "inputs": [],
      "name": "isOwner",
      "outputs": [
        {
          "internalType": "bool",
          "name": "",
          "type": "bool"
        }
      ],
      "stateMutability": "view",
      "type": "function"
    },
    {
      "inputs": [],
      "name": "name",
      "outputs": [
        {
          "internalType": "string",
          "name": "",
          "type": "string"
        }
      ],
      "stateMutability": "view",
      "type": "function"
    },
    {
      "inputs": [],
      "name": "owner",
      "outputs": [
        {
          "internalType": "address",
          "name": "",
          "type": "address"
        }
      ],
      "stateMutability": "view",
      "type": "function"
    },
    {
      "inputs": [],
      "name": "renounceOwnership",
      "outputs": [],
      "stateMutability": "nonpayable",
      "type": "function"
    },
    {
      "inputs": [],
      "name": "surveyCount",
      "outputs": [
        {
          "internalType": "uint256",
          "name": "",
          "type": "uint256"
        }
      ],
      "stateMutability": "view",
      "type": "function"
    },
    {
      "inputs": [
        {
          "internalType": "uint256",
          "name": "",
          "type": "uint256"
        }
      ],
      "name": "surveys",
      "outputs": [
        {
          "internalType": "address",
          "name": "",
          "type": "address"
        }
      ],
      "stateMutability": "view",
      "type": "function"
    },
    {
      "inputs": [],
      "name": "token",
      "outputs": [
        {
          "internalType": "contract Token",
          "name": "",
          "type": "address"
        }
      ],
      "stateMutability": "view",
      "type": "function"
    },
    {
      "inputs": [
        {
          "internalType": "address",
          "name": "_newOwner",
          "type": "address"
        }
      ],
      "name": "transferOwnership",
      "outputs": [],
      "stateMutability": "nonpayable",
      "type": "function"
    },
    {
      "inputs": [
        {
          "internalType": "address",
          "name": "_addr",
          "type": "address"
        }
      ],
      "name": "addCreator",
      "outputs": [],
      "stateMutability": "nonpayable",
      "type": "function"
    },
    {
      "inputs": [
        {
          "internalType": "address",
          "name": "_addr",
          "type": "address"
        }
      ],
      "name": "removeCreator",
      "outputs": [],
      "stateMutability": "nonpayable",
      "type": "function"
    },
    {
      "inputs": [
        {
          "internalType": "uint256",
          "name": "_id",
          "type": "uint256"
        },
        {
          "internalType": "uint256",
          "name": "_amount",
          "type": "uint256"
        }
      ],
      "name": "depositToSurveyTokenPool",
      "outputs": [],
      "stateMutability": "nonpayable",
      "type": "function"
    },
    {
      "inputs": [
        {
          "internalType": "uint256",
          "name": "_id",
          "type": "uint256"
        }
      ],
      "name": "depositToSurveyGasPool",
      "outputs": [],
      "stateMutability": "payable",
      "type": "function"
    },
    {
      "inputs": [
        {
          "internalType": "uint256",
          "name": "_id",
          "type": "uint256"
        },
        {
          "internalType": "uint256",
          "name": "_amount",
          "type": "uint256"
        }
      ],
      "name": "withdrawFromTokenPool",
      "outputs": [],
      "stateMutability": "nonpayable",
      "type": "function"
    },
    {
      "inputs": [
        {
          "internalType": "uint256",
          "name": "_id",
          "type": "uint256"
        },
        {
          "internalType": "uint256",
          "name": "_amount",
          "type": "uint256"
        }
      ],
      "name": "withdrawFromGasPool",
      "outputs": [],
      "stateMutability": "nonpayable",
      "type": "function"
    },
    {
      "inputs": [
        {
          "internalType": "string",
          "name": "_name",
          "type": "string"
        },
        {
          "internalType": "string",
          "name": "_description",
          "type": "string"
        },
        {
          "internalType": "uint256",
          "name": "_bonusAmount",
          "type": "uint256"
        }
      ],
      "name": "createSurvey",
      "outputs": [],
      "stateMutability": "nonpayable",
      "type": "function"
    },
    {
      "inputs": [
        {
          "internalType": "uint256",
          "name": "_id",
          "type": "uint256"
        },
        {
          "internalType": "string",
          "name": "_name",
          "type": "string"
        },
        {
          "internalType": "string",
          "name": "_description",
          "type": "string"
        },
        {
          "internalType": "uint256",
          "name": "_bonusAmount",
          "type": "uint256"
        }
      ],
      "name": "updateSurvey",
      "outputs": [],
      "stateMutability": "nonpayable",
      "type": "function"
    },
    {
      "inputs": [
        {
          "internalType": "uint256",
          "name": "_id",
          "type": "uint256"
        },
        {
          "internalType": "enum SurveyInterface.QuestionType",
          "name": "_qtypes",
          "type": "uint8"
        },
        {
          "internalType": "uint256",
          "name": "_worth",
          "type": "uint256"
        },
        {
          "internalType": "bool",
          "name": "_required",
          "type": "bool"
        },
        {
          "internalType": "string",
          "name": "_title",
          "type": "string"
        },
        {
          "internalType": "string",
          "name": "_qdescription",
          "type": "string"
        },
        {
          "internalType": "string[]",
          "name": "_choices",
          "type": "string[]"
        }
      ],
      "name": "addQuestion",
      "outputs": [],
      "stateMutability": "nonpayable",
      "type": "function"
    },
    {
      "inputs": [
        {
          "internalType": "uint256",
          "name": "_id",
          "type": "uint256"
        },
        {
          "internalType": "uint256",
          "name": "_qid",
          "type": "uint256"
        },
        {
          "internalType": "enum SurveyInterface.QuestionType",
          "name": "_qtypes",
          "type": "uint8"
        },
        {
          "internalType": "uint256",
          "name": "_worth",
          "type": "uint256"
        },
        {
          "internalType": "bool",
          "name": "_required",
          "type": "bool"
        },
        {
          "internalType": "string",
          "name": "_title",
          "type": "string"
        },
        {
          "internalType": "string",
          "name": "_qdescription",
          "type": "string"
        },
        {
          "internalType": "string[]",
          "name": "_choices",
          "type": "string[]"
        }
      ],
      "name": "updateQuestion",
      "outputs": [],
      "stateMutability": "nonpayable",
      "type": "function"
    },
    {
      "inputs": [
        {
          "internalType": "uint256",
          "name": "_id",
          "type": "uint256"
        },
        {
          "internalType": "enum SurveyInterface.Status",
          "name": "_status",
          "type": "uint8"
        }
      ],
      "name": "setSurveyStatus",
      "outputs": [],
      "stateMutability": "nonpayable",
      "type": "function"
    },
    {
      "inputs": [
        {
          "internalType": "uint256",
          "name": "_id",
          "type": "uint256"
        },
        {
          "internalType": "string[]",
          "name": "_answers",
          "type": "string[]"
        }
      ],
      "name": "submitSurvey",
      "outputs": [],
      "stateMutability": "nonpayable",
      "type": "function"
    },
    {
      "inputs": [],
      "name": "getCreatorSurveys",
      "outputs": [
        {
          "components": [
            {
              "internalType": "string",
              "name": "name",
              "type": "string"
            },
            {
              "internalType": "string",
              "name": "description",
              "type": "string"
            },
            {
              "internalType": "uint256",
              "name": "bonusAmount",
              "type": "uint256"
            }
          ],
          "internalType": "struct SurveyInterface.SurveyBasic[]",
          "name": "",
          "type": "tuple[]"
        }
      ],
      "stateMutability": "view",
      "type": "function"
    },
    {
      "inputs": [],
      "name": "getOpenSurveys",
      "outputs": [
        {
          "components": [
            {
              "internalType": "string",
              "name": "name",
              "type": "string"
            },
            {
              "internalType": "string",
              "name": "description",
              "type": "string"
            },
            {
              "internalType": "uint256",
              "name": "bonusAmount",
              "type": "uint256"
            }
          ],
          "internalType": "struct SurveyInterface.SurveyBasic[]",
          "name": "",
          "type": "tuple[]"
        }
      ],
      "stateMutability": "view",
      "type": "function"
    },
    {
      "inputs": [],
      "name": "getUserFinishedSurveys",
      "outputs": [
        {
          "components": [
            {
              "internalType": "string",
              "name": "name",
              "type": "string"
            },
            {
              "internalType": "string",
              "name": "description",
              "type": "string"
            },
            {
              "internalType": "uint256",
              "name": "bonusAmount",
              "type": "uint256"
            }
          ],
          "internalType": "struct SurveyInterface.SurveyBasic[]",
          "name": "",
          "type": "tuple[]"
        }
      ],
      "stateMutability": "view",
      "type": "function"
    },
    {
      "inputs": [
        {
          "internalType": "contract Token",
          "name": "_token",
          "type": "address"
        }
      ],
      "name": "setToken",
      "outputs": [],
      "stateMutability": "nonpayable",
      "type": "function"
    }
  ],
  "bytecode": "0x60c0604052600760808190527f53757276616e610000000000000000000000000000000000000000000000000060a0908152620000409160019190620000aa565b5060006005553480156200005357600080fd5b506040516200537538038062005375833981016040819052620000769162000150565b6000805433600160a060020a03199182161790915560038054909116600160a060020a0392909216919091179055620001d8565b828054620000b89062000182565b90600052602060002090601f016020900481019282620000dc576000855562000127565b82601f10620000f757805160ff191683800117855562000127565b8280016001018555821562000127579182015b82811115620001275782518255916020019190600101906200010a565b506200013592915062000139565b5090565b5b808211156200013557600081556001016200013a565b6000602082840312156200016357600080fd5b8151600160a060020a03811681146200017b57600080fd5b9392505050565b6002810460018216806200019757607f821691505b60208210811415620001d2577f4e487b7100000000000000000000000000000000000000000000000000000000600052602260045260246000fd5b50919050565b61518d80620001e86000396000f3fe608060405260043610620001a55760003560e060020a900480638ba04e3d11620000e6578063bc4004291162000099578063d9ff498b1162000070578063d9ff498b1462000510578063e804f4c01462000535578063f2fde38b146200054d578063fc0c546a146200057257600080fd5b8063bc40042914620004a1578063bd6018bb14620004c6578063cbb1817514620004eb57600080fd5b80638ba04e3d14620003ae5780638da5cb5b14620003d35780638e896d4f14620003f55780638f32d59b146200041a578063933166e11462000448578063ae738a31146200047c57600080fd5b80635b49efdf116200015c578063715018a61162000133578063715018a6146200030657806371edf4d6146200031e57806386e68b9014620003435780638960e26d146200039657600080fd5b80635b49efdf14620002895780636f9ef63914620002ae5780636fcbd60f14620002ee57600080fd5b806302bc7b2214620001aa57806306fdde0314620001c3578063144fa6d714620001f35780633577656614620002185780633b9dce05146200023f57806356463fc71462000264575b600080fd5b620001c1620001bb36600462001e97565b62000594565b005b348015620001d057600080fd5b50620001db620006ec565b604051620001ea91906200245a565b60405180910390f35b3480156200020057600080fd5b50620001c16200021236600462001c9c565b62000782565b3480156200022557600080fd5b5062000230620007fb565b604051620001ea9190620022ef565b3480156200024c57600080fd5b50620001c16200025e36600462001c9c565b62000a95565b3480156200027157600080fd5b50620001c162000283366004620020fc565b62000af9565b3480156200029657600080fd5b50620001c1620002a836600462001d23565b62000c07565b348015620002bb57600080fd5b50620002df620002cd36600462001c9c565b60066020526000908152604090205481565b604051908152602001620001ea565b348015620002fb57600080fd5b506200023062000d19565b3480156200031357600080fd5b50620001c162000f4e565b3480156200032b57600080fd5b50620001c16200033d36600462001ecb565b62000f74565b3480156200035057600080fd5b506200037d6200036236600462001e97565b600460205260009081526040902054600160a060020a031681565b604051600160a060020a039091168152602001620001ea565b348015620003a357600080fd5b50620002306200109b565b348015620003bb57600080fd5b50620001c1620003cd366004620020d9565b62001333565b348015620003e057600080fd5b506000546200037d90600160a060020a031681565b3480156200040257600080fd5b50620001c16200041436600462002050565b6200142e565b3480156200042757600080fd5b50600054600160a060020a031633145b6040519015158152602001620001ea565b3480156200045557600080fd5b50620004376200046736600462001c9c565b60026020526000908152604090205460ff1681565b3480156200048957600080fd5b50620001c16200049b36600462001f4e565b6200152f565b348015620004ae57600080fd5b50620001c1620004c03660046200201d565b62001652565b348015620004d357600080fd5b50620001c1620004e536600462001c9c565b62001735565b348015620004f857600080fd5b50620001c16200050a366004620020d9565b62001796565b3480156200051d57600080fd5b50620001c16200052f366004620020d9565b62001893565b3480156200054257600080fd5b50620002df60055481565b3480156200055a57600080fd5b50620001c16200056c36600462001c9c565b62001a2d565b3480156200057f57600080fd5b506003546200037d90600160a060020a031681565b3360009081526002602052604090205460ff161515600114620005b657600080fd5b6000341162000625576040517f08c379a000000000000000000000000000000000000000000000000000000000815260206004820152601560248201527f56616c7565206e6565647320746f206265203e20300000000000000000000000604482015260640160405180910390fd5b60008181526004602081905260408083205481517f31767ffd0000000000000000000000000000000000000000000000000000000081529151600160a060020a039091169384936331767ffd9334938183019392909182900301818588803b1580156200069157600080fd5b505af1158015620006a6573d6000803e3d6000fd5b50505050507f823696ac0f9b333e2316140757e4b02249983e6b5cfa8c752f738c7376a04b1c338334604051620006e093929190620022ce565b60405180910390a15050565b60018054620006fb9062002630565b80601f0160208091040260200160405190810160405280929190818152602001828054620007299062002630565b80156200077a5780601f106200074e576101008083540402835291602001916200077a565b820191906000526020600020905b8154815290600101906020018083116200075c57829003601f168201915b505050505081565b600054600160a060020a031633146200079a57600080fd5b6003805473ffffffffffffffffffffffffffffffffffffffff1916600160a060020a0383169081179091556040519081527f5d108ca248943e98e1886bbc2c38beda701271994a14354258a11692b81b73cf9060200160405180910390a150565b6060600060055467ffffffffffffffff8111156200081d576200081d620026cf565b6040519080825280602002602001820160405280156200087557816020015b6200086160405180606001604052806060815260200160608152602001600081525090565b8152602001906001900390816200083c5790505b5090506000805b60055481101562000a8d57600081815260046020526040902054600160a060020a0316600181600160a060020a031663200d2ed26040518163ffffffff1660e060020a02815260040160206040518083038186803b158015620008de57600080fd5b505afa158015620008f3573d6000803e3d6000fd5b505050506040513d601f19601f8201168201806040525081019062000919919062001d03565b60028111156200092d576200092d6200269d565b148015620009c4575033600160a060020a031681600160a060020a03166302d05d3f6040518163ffffffff1660e060020a02815260040160206040518083038186803b1580156200097d57600080fd5b505afa15801562000992573d6000803e3d6000fd5b505050506040513d601f19601f82011682018060405250810190620009b8919062001cc3565b600160a060020a031614155b1562000a775780600160a060020a031663370158ea6040518163ffffffff1660e060020a02815260040160006040518083038186803b15801562000a0757600080fd5b505afa15801562000a1c573d6000803e3d6000fd5b505050506040513d6000823e601f3d908101601f1916820160405262000a46919081019062001dd7565b84848151811062000a5b5762000a5b620026b6565b6020026020010181905250828062000a739062002670565b9350505b508062000a848162002670565b9150506200087c565b509092915050565b600054600160a060020a0316331462000aad57600080fd5b600160a060020a038116600081815260026020526040808220805460ff19166001179055517fde01ac6896c5b1bb768b9f622140a44faf53b6e47809bee039be206a1f88fce69190a250565b3360009081526002602052604090205460ff16151560011462000b1b57600080fd5b6000888152600460208190526040918290205491517f4a4cd405000000000000000000000000000000000000000000000000000000008152600160a060020a03909216918291634a4cd4059162000b81918c918c918c918c918c918c918c91016200252c565b600060405180830381600087803b15801562000b9c57600080fd5b505af115801562000bb1573d6000803e3d6000fd5b5050604080518c8152602081018c9052600160a060020a03851693503392507ffd73297d870e9cb2f853ac5534c549035a865c9694cd022fb8e4dc8cd8bb78ab91015b60405180910390a3505050505050505050565b3360009081526002602052604090205460ff16151560011462000c2957600080fd5b600033868686868660405162000c3f9062001ac4565b62000c509695949392919062002280565b604051809103906000f08015801562000c6d573d6000803e3d6000fd5b5060058054600090815260046020908152604091829020805473ffffffffffffffffffffffffffffffffffffffff1916600160a060020a03861690811790915592549151918252929350839233917f814c0a58b6d977676546cfd22e430d3fa3e288403ba1eeb335bdd8973eec9584910160405180910390a36005805490600062000cf88362002670565b90915550506005543360009081526006602052604090205550505050505050565b3360009081526002602052604090205460609060ff16151560011462000d3e57600080fd5b3360009081526006602052604081205467ffffffffffffffff81111562000d695762000d69620026cf565b60405190808252806020026020018201604052801562000dc157816020015b62000dad60405180606001604052806060815260200160608152602001600081525090565b81526020019060019003908162000d885790505b5090506000805b60055481101562000a8d576000818152600460208181526040928390205483517f02d05d3f0000000000000000000000000000000000000000000000000000000081529351600160a060020a0390911693339385936302d05d3f938383019391929091829003018186803b15801562000e4057600080fd5b505afa15801562000e55573d6000803e3d6000fd5b505050506040513d601f19601f8201168201806040525081019062000e7b919062001cc3565b600160a060020a0316141562000f385780600160a060020a031663370158ea6040518163ffffffff1660e060020a02815260040160006040518083038186803b15801562000ec857600080fd5b505afa15801562000edd573d6000803e3d6000fd5b505050506040513d6000823e601f3d908101601f1916820160405262000f07919081019062001dd7565b84848151811062000f1c5762000f1c620026b6565b6020026020010181905250828062000f349062002670565b9350505b508062000f458162002670565b91505062000dc8565b600054600160a060020a0316331462000f6657600080fd5b62000f72600062001a67565b565b3360009081526002602052604090205460ff16151560011462000f9657600080fd5b60005a60008581526004602081905260408083205460035491517fd6da669e000000000000000000000000000000000000000000000000000000008152949550600160a060020a0390811694859363d6da669e9362000fff9389939116918b918b91016200246f565b602060405180830381600087803b1580156200101a57600080fd5b505af11580156200102f573d6000803e3d6000fd5b505050506040513d601f19601f8201168201806040525081019062001055919062001eb1565b604080518881526020810183905291925033917f6d1baacba6a9e34b8f24ff8b6928204ae3b3b0897a5dcc6c3ee892f23702aa4c910160405180910390a2505050505050565b6060600060055467ffffffffffffffff811115620010bd57620010bd620026cf565b6040519080825280602002602001820160405280156200111557816020015b6200110160405180606001604052806060815260200160608152602001600081525090565b815260200190600190039081620010dc5790505b5090506000805b60055481101562000a8d57600081815260046020526040902054600160a060020a0316600281600160a060020a031663200d2ed26040518163ffffffff1660e060020a02815260040160206040518083038186803b1580156200117e57600080fd5b505afa15801562001193573d6000803e3d6000fd5b505050506040513d601f19601f82011682018060405250810190620011b9919062001d03565b6002811115620011cd57620011cd6200269d565b1480156200126a57506040517f8beeef2b000000000000000000000000000000000000000000000000000000008152336004820152600160a060020a03821690638beeef2b9060240160206040518083038186803b1580156200122f57600080fd5b505afa15801562001244573d6000803e3d6000fd5b505050506040513d601f19601f820116820180604052508101906200126a919062001ce3565b156200131d5780600160a060020a031663370158ea6040518163ffffffff1660e060020a02815260040160006040518083038186803b158015620012ad57600080fd5b505afa158015620012c2573d6000803e3d6000fd5b505050506040513d6000823e601f3d908101601f19168201604052620012ec919081019062001dd7565b848481518110620013015762001301620026b6565b60200260200101819052508280620013199062002670565b9350505b50806200132a8162002670565b9150506200111c565b3360009081526002602052604090205460ff1615156001146200135557600080fd5b600081116200136357600080fd5b6000828152600460208190526040918290205491517f8e6b582f000000000000000000000000000000000000000000000000000000008152908101839052600160a060020a03909116908190638e6b582f90602401600060405180830381600087803b158015620013d357600080fd5b505af1158015620013e8573d6000803e3d6000fd5b505050507fd394af405f853a90ae990fcbd40afd423bf6057c6a694c2ffa9e5a19cf551ba63384846040516200142193929190620022ce565b60405180910390a1505050565b3360009081526002602052604090205460ff1615156001146200145057600080fd5b6000868152600460208190526040918290205491517f1eea56a3000000000000000000000000000000000000000000000000000000008152600160a060020a03909216918291631eea56a391620014b2918a918a918a918a918a91016200241c565b600060405180830381600087803b158015620014cd57600080fd5b505af1158015620014e2573d6000803e3d6000fd5b5050604051898152600160a060020a03841692503391507f12c056ebad7c44ab7bced3a029dafd20eedf8789050c2030926b61229e2058ca9060200160405180910390a350505050505050565b3360009081526002602052604090205460ff1615156001146200155157600080fd5b60008781526004602081905260408083205490517f482ff513000000000000000000000000000000000000000000000000000000008152600160a060020a039091169291839163482ff51391620015b5918c918c918c918c918c918c910162002383565b602060405180830381600087803b158015620015d057600080fd5b505af1158015620015e5573d6000803e3d6000fd5b505050506040513d601f19601f820116820180604052508101906200160b919062001eb1565b604080518b815260208101839052919250600160a060020a0384169133917f5975fc3a6be87625dad6832daa4821eb33c5a675b313a78d11eb8de595ba1f46910162000bf4565b3360009081526002602052604090205460ff1615156001146200167457600080fd5b6000828152600460208190526040918290205491517ff93bbb87000000000000000000000000000000000000000000000000000000008152600160a060020a0390921691829163f93bbb8791620016ce91869101620023ee565b600060405180830381600087803b158015620016e957600080fd5b505af1158015620016fe573d6000803e3d6000fd5b505050507fd2a617db2388e82e6e520aa417ab5d836a7aaa85ce1792b5dab75c4d8860edea82846040516200142192919062002403565b600054600160a060020a031633146200174d57600080fd5b600160a060020a038116600081815260026020526040808220805460ff19169055517fc9f999728340f25e1001a7e2414500afb6a11e8f53d5b86c14302417bd50892e9190a250565b3360009081526002602052604090205460ff161515600114620017b857600080fd5b60008111620017c657600080fd5b6000828152600460208190526040918290205460035492517f1275b3bb000000000000000000000000000000000000000000000000000000008152600160a060020a03938416928101929092526024820184905291909116908190631275b3bb90604401600060405180830381600087803b1580156200184557600080fd5b505af11580156200185a573d6000803e3d6000fd5b505050507fadab12bef87c4260212d908fba3f1627ba11a973ea59d67fbc8dfddaa74227873384846040516200142193929190620022ce565b3360009081526002602052604090205460ff161515600114620018b557600080fd5b60008111620018c357600080fd5b60008281526004602081905260408083205481517f06fdde030000000000000000000000000000000000000000000000000000000081529151600160a060020a03909116939284926306fdde0392818301928692829003018186803b1580156200192c57600080fd5b505afa15801562001941573d6000803e3d6000fd5b505050506040513d6000823e601f3d908101601f191682016040526200196b919081019062001d9e565b51116200197757600080fd5b6003546040517f38745a1c000000000000000000000000000000000000000000000000000000008152600160a060020a03918216600482015260248101849052908216906338745a1c90604401600060405180830381600087803b158015620019df57600080fd5b505af1158015620019f4573d6000803e3d6000fd5b505050507f705860a96659ef551cbecddacb064424c42677dbc3af77aade6a6510825753413384846040516200142193929190620022ce565b600054600160a060020a0316331462001a4557600080fd5b600160a060020a03811662001a5957600080fd5b62001a648162001a67565b50565b60008054600160a060020a0383811673ffffffffffffffffffffffffffffffffffffffff19831681178455604051919092169283917f8be0079c531659141344cd1fd0a4f28419497f9722a3daafe3b4186f6b6457e09190a35050565b612a1a806200273e83390190565b600082601f83011262001ae457600080fd5b8135602067ffffffffffffffff8083111562001b045762001b04620026cf565b81830262001b148382016200259e565b8481528381019087850183890186018a101562001b3057600080fd5b60009350835b8781101562001b725781358681111562001b4e578586fd5b62001b5e8c89838e010162001bec565b855250928601929086019060010162001b36565b50909998505050505050505050565b803562001b8e8162002720565b919050565b803562001b8e816200272f565b60008083601f84011262001bb357600080fd5b50813567ffffffffffffffff81111562001bcc57600080fd5b60208301915083602082850101111562001be557600080fd5b9250929050565b600082601f83011262001bfe57600080fd5b813562001c1562001c0f82620025d2565b6200259e565b81815284602083860101111562001c2b57600080fd5b816020850160208301376000918101602001919091529392505050565b600082601f83011262001c5a57600080fd5b815162001c6b62001c0f82620025d2565b81815284602083860101111562001c8157600080fd5b62001c94826020830160208701620025fd565b949350505050565b60006020828403121562001caf57600080fd5b813562001cbc816200270a565b9392505050565b60006020828403121562001cd657600080fd5b815162001cbc816200270a565b60006020828403121562001cf657600080fd5b815162001cbc8162002720565b60006020828403121562001d1657600080fd5b815162001cbc816200272f565b60008060008060006060868803121562001d3c57600080fd5b853567ffffffffffffffff8082111562001d5557600080fd5b62001d6389838a0162001ba0565b9097509550602088013591508082111562001d7d57600080fd5b5062001d8c8882890162001ba0565b96999598509660400135949350505050565b60006020828403121562001db157600080fd5b815167ffffffffffffffff81111562001dc957600080fd5b62001c948482850162001c48565b60006020828403121562001dea57600080fd5b815167ffffffffffffffff8082111562001e0357600080fd5b908301906060828603121562001e1857600080fd5b60405160608101818110838211171562001e365762001e36620026cf565b60405282518281111562001e4957600080fd5b62001e578782860162001c48565b82525060208301518281111562001e6d57600080fd5b62001e7b8782860162001c48565b6020830152506040830151604082015280935050505092915050565b60006020828403121562001eaa57600080fd5b5035919050565b60006020828403121562001ec457600080fd5b5051919050565b60008060006040848603121562001ee157600080fd5b83359250602084013567ffffffffffffffff8082111562001f0157600080fd5b818601915086601f83011262001f1657600080fd5b81358181111562001f2657600080fd5b876020808302850101111562001f3b57600080fd5b6020830194508093505050509250925092565b600080600080600080600060e0888a03121562001f6a57600080fd5b87359650602088013562001f7e816200272f565b955060408801359450606088013562001f978162002720565b9350608088013567ffffffffffffffff8082111562001fb557600080fd5b62001fc38b838c0162001bec565b945060a08a013591508082111562001fda57600080fd5b62001fe88b838c0162001bec565b935060c08a013591508082111562001fff57600080fd5b506200200e8a828b0162001ad2565b91505092959891949750929550565b600080604083850312156200203157600080fd5b82359150602083013562002045816200272f565b809150509250929050565b600080600080600080608087890312156200206a57600080fd5b86359550602087013567ffffffffffffffff808211156200208a57600080fd5b620020988a838b0162001ba0565b90975095506040890135915080821115620020b257600080fd5b50620020c189828a0162001ba0565b979a9699509497949695606090950135949350505050565b60008060408385031215620020ed57600080fd5b50508035926020909101359150565b600080600080600080600080610100898b0312156200211a57600080fd5b88359750602089013596506200213360408a0162001b93565b9550606089013594506200214a60808a0162001b81565b935060a089013567ffffffffffffffff808211156200216857600080fd5b620021768c838d0162001bec565b945060c08b01359150808211156200218d57600080fd5b6200219b8c838d0162001bec565b935060e08b0135915080821115620021b257600080fd5b50620021c18b828c0162001ad2565b9150509295985092959890939650565b600081518084526020808501808196508284028101915082860160005b858110156200221c5782840389526200220984835162002252565b98850198935090840190600101620021ee565b5091979650505050505050565b81835281816020850137506000828201602090810191909152601f909101601f19169091010190565b600081518084526200226c816020860160208601620025fd565b601f01601f19169290920160200192915050565b600160a060020a0387168152608060208201526000620022a560808301878962002229565b8281036040840152620022ba81868862002229565b915050826060830152979650505050505050565b600160a060020a039390931683526020830191909152604082015260600190565b60208082528251828201819052600091906040908185019080840286018301878501865b838110156200237557603f198984030185528151606081518186526200233c8287018262002252565b915050888201518582038a87015262002356828262002252565b9289015195890195909552509487019492509086019060010162002313565b509098975050505050505050565b6200238e87620026e8565b868152856020820152841515604082015260c060608201526000620023b760c083018662002252565b8281036080840152620023cb818662002252565b905082810360a0840152620023e18185620021d1565b9998505050505050505050565b60208101620023fd83620026e8565b91905290565b604081016200241284620026e8565b9281526020015290565b6060815260006200243260608301878962002229565b82810360208401526200244781868862002229565b9150508260408301529695505050505050565b60208152600062001cbc602083018462002252565b6000606082018683526020600160a060020a038716818501526060604085015281858352608085019050608082870286010192508660005b878110156200251d57868503607f190183528135368a9003601e19018112620024cf57600080fd5b8901803567ffffffffffffffff811115620024e957600080fd5b8036038b1315620024f957600080fd5b62002508878288850162002229565b965050509183019190830190600101620024a7565b50929998505050505050505050565b8781526200253a87620026e8565b866020820152856040820152841515606082015260e0608082015260006200256660e083018662002252565b82810360a08401526200257a818662002252565b905082810360c0840152620025908185620021d1565b9a9950505050505050505050565b604051601f8201601f1916810167ffffffffffffffff81118282101715620025ca57620025ca620026cf565b604052919050565b600067ffffffffffffffff821115620025ef57620025ef620026cf565b50601f01601f191660200190565b60005b838110156200261a57818101518382015260200162002600565b838111156200262a576000848401525b50505050565b6002810460018216806200264557607f821691505b602082108114156200266a5760e060020a634e487b7102600052602260045260246000fd5b50919050565b6000600019821415620026965760e060020a634e487b7102600052601160045260246000fd5b5060010190565b60e060020a634e487b7102600052602160045260246000fd5b60e060020a634e487b7102600052603260045260246000fd5b60e060020a634e487b7102600052604160045260246000fd5b6003811062001a645760e060020a634e487b7102600052602160045260246000fd5b600160a060020a038116811462001a6457600080fd5b801515811462001a6457600080fd5b6003811062001a6457600080fdfe608060405260006001553480156200001657600080fd5b5060405162002a1a38038062002a1a8339810160408190526200003991620001f3565b82516200004e90600490602086019062000096565b5081516200006490600590602085019062000096565b506006555050600c8054600160a060020a039092166101000261010060a860020a03199092169190911790556200030a565b828054620000a49062000285565b90600052602060002090601f016020900481019282620000c8576000855562000113565b82601f10620000e357805160ff191683800117855562000113565b8280016001018555821562000113579182015b8281111562000113578251825591602001919060010190620000f6565b506200012192915062000125565b5090565b5b8082111562000121576000815560010162000126565b600082601f8301126200014e57600080fd5b81516001604060020a03808211156200016b576200016b620002db565b604051601f8301601f19908116603f01168101908282118183101715620001965762000196620002db565b81604052838152602092508683858801011115620001b357600080fd5b600091505b83821015620001d75785820183015181830184015290820190620001b8565b83821115620001e95760008385830101525b9695505050505050565b600080600080608085870312156200020a57600080fd5b8451600160a060020a03811681146200022257600080fd5b60208601519094506001604060020a03808211156200024057600080fd5b6200024e888389016200013c565b945060408701519150808211156200026557600080fd5b5062000274878288016200013c565b606096909601519497939650505050565b6002810460018216806200029a57607f821691505b60208210811415620002d5577f4e487b7100000000000000000000000000000000000000000000000000000000600052602260045260246000fd5b50919050565b7f4e487b7100000000000000000000000000000000000000000000000000000000600052604160045260246000fd5b612700806200031a6000396000f3fe608060405260043610610168576000357c01000000000000000000000000000000000000000000000000000000009004806338745a1c116100d35780638e6b582f1161008c5780638e6b582f146103ee57806397221ab71461040e578063abadaf9a14610430578063ad11c13114610445578063d6da669e1461045a578063f93bbb871461047a57600080fd5b806338745a1c14610323578063482ff513146103435780634a4cd405146103635780637284e416146103835780638beeef2b146103985780638e1a55fc146103c857600080fd5b80631eea56a3116101255780631eea56a314610268578063200d2ed2146102885780632401519c146102a857806331767ffd146102c857806331b1b978146102d0578063370158ea1461030157600080fd5b806302d05d3f1461016d57806306fdde03146101a857806312065fe0146101ca5780631275b3bb146101e85780631468aa2c1461020a57806316f0115b14610220575b600080fd5b34801561017957600080fd5b50600c546101009004600160a060020a0316604051600160a060020a0390911681526020015b60405180910390f35b3480156101b457600080fd5b506101bd61049a565b60405161019f919061245b565b3480156101d657600080fd5b5030315b60405190815260200161019f565b3480156101f457600080fd5b50610208610203366004611f50565b61052e565b005b34801561021657600080fd5b506101da60015481565b34801561022c57600080fd5b506102356106ac565b60405161019f91908151815260208083015190820152604080830151908201526060918201519181019190915260800190565b34801561027457600080fd5b5061020861028336600461204f565b610704565b34801561029457600080fd5b50600c5460ff1660405161019f9190612448565b3480156102b457600080fd5b506101bd6102c336600461223a565b61074f565b610208610808565b3480156102dc57600080fd5b506102f06102eb3660046120bc565b61084d565b60405161019f9594939291906123fa565b34801561030d57600080fd5b50610316610994565b60405161019f919061246e565b34801561032f57600080fd5b5061020861033e366004611f50565b610af7565b34801561034f57600080fd5b506101da61035e366004611f7c565b610bd5565b34801561036f57600080fd5b5061020861037e366004612179565b610c33565b34801561038f57600080fd5b506101bd610d43565b3480156103a457600080fd5b506103b86103b3366004611f0f565b610d54565b604051901515815260200161019f565b3480156103d457600080fd5b506103dd610e60565b60405161019f959493929190612481565b3480156103fa57600080fd5b506102086104093660046120bc565b610ff6565b34801561041a57600080fd5b50610423611072565b60405161019f91906122ee565b34801561043c57600080fd5b506006546101da565b34801561045157600080fd5b506101da6113a3565b34801561046657600080fd5b506101da6104753660046120ee565b611637565b34801561048657600080fd5b50610208610495366004612032565b611c6d565b60048054606091906104ab906125a2565b80601f01602080910402602001604051908101604052809291908181526020018280546104d7906125a2565b80156105245780601f106104f957610100808354040283529160200191610524565b820191906000526020600020905b81548152906001019060200180831161050757829003601f168201915b5050505050905090565b600c546101009004600160a060020a0316321461054a57600080fd5b6000811161055757600080fd5b6040517f70a082310000000000000000000000000000000000000000000000000000000081523060048201528190600160a060020a038416906370a082319060240160206040518083038186803b1580156105b157600080fd5b505afa1580156105c5573d6000803e3d6000fd5b505050506040513d601f19601f820116820180604052508101906105e991906120d5565b10156105f457600080fd5b6040517fa9059cbb00000000000000000000000000000000000000000000000000000000815232600482015260248101829052600160a060020a0383169063a9059cbb90604401602060405180830381600087803b15801561065557600080fd5b505af1158015610669573d6000803e3d6000fd5b505050506040513d601f19601f8201168201806040525081019061068d9190611f33565b50600780548291906000906106a390849061258b565b90915550505050565b6106d76040518060800160405280600081526020016000815260200160008152602001600081525090565b50604080516080810182526007548152600854602082015260095491810191909152600a54606082015290565b600c546101009004600160a060020a0316321461072057600080fd5b8251610733906004906020860190611cb0565b508151610747906005906020850190611cb0565b506006555050565b6002602052816000526040600020818154811061076b57600080fd5b90600052602060002001600091509150508054610787906125a2565b80601f01602080910402602001604051908101604052809291908181526020018280546107b3906125a2565b80156108005780601f106107d557610100808354040283529160200191610800565b820191906000526020600020905b8154815290600101906020018083116107e357829003601f168201915b505050505081565b600c546101009004600160a060020a0316321461082457600080fd5b6000341161083157600080fd5b60088054349190600090610846908490612573565b9091555050565b600060208190529081526040902080546001820154600283015460038401805460ff9485169593949092169291610883906125a2565b80601f01602080910402602001604051908101604052809291908181526020018280546108af906125a2565b80156108fc5780601f106108d1576101008083540402835291602001916108fc565b820191906000526020600020905b8154815290600101906020018083116108df57829003601f168201915b505050505090806004018054610911906125a2565b80601f016020809104026020016040519081016040528092919081815260200182805461093d906125a2565b801561098a5780601f1061095f5761010080835404028352916020019161098a565b820191906000526020600020905b81548152906001019060200180831161096d57829003601f168201915b5050505050905085565b6109b860405180606001604052806060815260200160608152602001600081525090565b604080516060810190915260048054829082906109d4906125a2565b80601f0160208091040260200160405190810160405280929190818152602001828054610a00906125a2565b8015610a4d5780601f10610a2257610100808354040283529160200191610a4d565b820191906000526020600020905b815481529060010190602001808311610a3057829003601f168201915b50505050508152602001600182018054610a66906125a2565b80601f0160208091040260200160405190810160405280929190818152602001828054610a92906125a2565b8015610adf5780601f10610ab457610100808354040283529160200191610adf565b820191906000526020600020905b815481529060010190602001808311610ac257829003601f168201915b50505050508152602001600282015481525050905090565b600c546101009004600160a060020a03163214610b1357600080fd5b60008111610b2057600080fd5b6040517f23b872dd00000000000000000000000000000000000000000000000000000000815232600482015230602482015260448101829052600160a060020a038316906323b872dd90606401602060405180830381600087803b158015610b8757600080fd5b505af1158015610b9b573d6000803e3d6000fd5b505050506040513d601f19601f82011682018060405250810190610bbf9190611f33565b50600780548291906000906106a3908490612573565b600c546000906101009004600160a060020a03163214610bf457600080fd5b610c05600154888888888888610c33565b60018054906000610c15836125da565b919050555060018054610c28919061258b565b979650505050505050565b600c546101009004600160a060020a03163214610c4f57600080fd5b6040518060c00160405280876002811115610c6c57610c6c61262e565b81526020808201889052861515604080840191909152606083018790526080830186905260a090920184905260008a8152908190522081518154829060ff19166001836002811115610cc057610cc061262e565b02179055506020828101516001830155604083015160028301805460ff191691151591909117905560608301518051610cff9260038501920190611cb0565b5060808201518051610d1b916004840191602090910190611cb0565b5060a08201518051610d37916005840191602090910190611d34565b50505050505050505050565b60058054606091906104ab906125a2565b600160a060020a038116600090815260036020526040812054815b600154811015610e56576000818152600260205260408120805484908110610d9957610d99612647565b906000526020600020018054610dae906125a2565b80601f0160208091040260200160405190810160405280929190818152602001828054610dda906125a2565b8015610e275780601f10610dfc57610100808354040283529160200191610e27565b820191906000526020600020905b815481529060010190602001808311610e0a57829003601f168201915b50505050509050600081511115610e4357506001949350505050565b5080610e4e816125da565b915050610d6f565b5060009392505050565b600480600001604051806060016040529081600082018054610e81906125a2565b80601f0160208091040260200160405190810160405280929190818152602001828054610ead906125a2565b8015610efa5780601f10610ecf57610100808354040283529160200191610efa565b820191906000526020600020905b815481529060010190602001808311610edd57829003601f168201915b50505050508152602001600182018054610f13906125a2565b80601f0160208091040260200160405190810160405280929190818152602001828054610f3f906125a2565b8015610f8c5780601f10610f6157610100808354040283529160200191610f8c565b820191906000526020600020905b815481529060010190602001808311610f6f57829003601f168201915b50505091835250506002919091015460209182015260408051608081018252600385015481526004850154928101929092526005840154908201526006830154606082015260078301546008909301549192909160ff8116906101009004600160a060020a031685565b600c546101009004600160a060020a0316321461101257600080fd5b6000811161101f57600080fd5b303181111561102d57600080fd5b6040513290819083156108fc029084906000818181858888f1935050505015801561105c573d6000803e3d6000fd5b50600880548391906000906106a390849061258b565b6060600060015467ffffffffffffffff81111561109157611091612660565b6040519080825280602002602001820160405280156110fe57816020015b6110eb6040805160c081019091528060008152602001600081526020016000151581526020016060815260200160608152602001606081525090565b8152602001906001900390816110af5790505b50905060005b60015481101561139d5760008181526020819052604090819020815160c081019092528054829060ff16600281111561113f5761113f61262e565b60028111156111505761115061262e565b815260018201546020820152600282015460ff1615156040820152600382018054606090920191611180906125a2565b80601f01602080910402602001604051908101604052809291908181526020018280546111ac906125a2565b80156111f95780601f106111ce576101008083540402835291602001916111f9565b820191906000526020600020905b8154815290600101906020018083116111dc57829003601f168201915b50505050508152602001600482018054611212906125a2565b80601f016020809104026020016040519081016040528092919081815260200182805461123e906125a2565b801561128b5780601f106112605761010080835404028352916020019161128b565b820191906000526020600020905b81548152906001019060200180831161126e57829003601f168201915b5050505050815260200160058201805480602002602001604051908101604052809291908181526020016000905b828210156113655783829060005260206000200180546112d8906125a2565b80601f0160208091040260200160405190810160405280929190818152602001828054611304906125a2565b80156113515780601f1061132657610100808354040283529160200191611351565b820191906000526020600020905b81548152906001019060200180831161133457829003601f168201915b5050505050815260200190600101906112b9565b505050508152505082828151811061137f5761137f612647565b60200260200101819052508080611395906125da565b915050611104565b50919050565b600080805b60015481101561139d57600081815260208190526040808220815160c081019092528054829060ff1660028111156113e2576113e261262e565b60028111156113f3576113f361262e565b815260018201546020820152600282015460ff1615156040820152600382018054606090920191611423906125a2565b80601f016020809104026020016040519081016040528092919081815260200182805461144f906125a2565b801561149c5780601f106114715761010080835404028352916020019161149c565b820191906000526020600020905b81548152906001019060200180831161147f57829003601f168201915b505050505081526020016004820180546114b5906125a2565b80601f01602080910402602001604051908101604052809291908181526020018280546114e1906125a2565b801561152e5780601f106115035761010080835404028352916020019161152e565b820191906000526020600020905b81548152906001019060200180831161151157829003601f168201915b5050505050815260200160058201805480602002602001604051908101604052809291908181526020016000905b8282101561160857838290600052602060002001805461157b906125a2565b80601f01602080910402602001604051908101604052809291908181526020018280546115a7906125a2565b80156115f45780601f106115c9576101008083540402835291602001916115f4565b820191906000526020600020905b8154815290600101906020018083116115d757829003601f168201915b50505050508152602001906001019061155c565b5050509152505060208101519091506116219084612573565b925050808061162f906125da565b9150506113a8565b600c546000906101009004600160a060020a031632141561165757600080fd5b6001600c5460ff1660028111156116705761167061262e565b1461167a57600080fd5b60008060005b60015481101561198457600081815260208190526040808220815160c081019092528054829060ff1660028111156116ba576116ba61262e565b60028111156116cb576116cb61262e565b815260018201546020820152600282015460ff16151560408201526003820180546060909201916116fb906125a2565b80601f0160208091040260200160405190810160405280929190818152602001828054611727906125a2565b80156117745780601f1061174957610100808354040283529160200191611774565b820191906000526020600020905b81548152906001019060200180831161175757829003601f168201915b5050505050815260200160048201805461178d906125a2565b80601f01602080910402602001604051908101604052809291908181526020018280546117b9906125a2565b80156118065780601f106117db57610100808354040283529160200191611806565b820191906000526020600020905b8154815290600101906020018083116117e957829003601f168201915b5050505050815260200160058201805480602002602001604051908101604052809291908181526020016000905b828210156118e0578382906000526020600020018054611853906125a2565b80601f016020809104026020016040519081016040528092919081815260200182805461187f906125a2565b80156118cc5780601f106118a1576101008083540402835291602001916118cc565b820191906000526020600020905b8154815290600101906020018083116118af57829003601f168201915b505050505081526020019060010190611834565b5050505081525050905060008787848181106118fe576118fe612647565b905060200281019061191091906124f4565b8080601f016020809104026020016040519081016040528093929190818152602001838380828437600092019190915250508251929350509015905061196f57602082015161195f9086612573565b94508361196b816125f5565b9450505b5050808061197c906125da565b915050611680565b506001548160ff1614156119a25760065461199f9083612573565b91505b6007548211156119b157600080fd5b6119ba32610d54565b156119c457600080fd5b600b54326000908152600360205260408120919091555b84811015611a905760008686838181106119f7576119f7612647565b9050602002810190611a0991906124f4565b8080601f0160208091040260200160405190810160405280939291908181526020018383808284376000920191909152505082519293505090159050611a7d57600082815260026020908152604082208054600181018255908352918190208351611a7b939190910191840190611cb0565b505b5080611a88816125da565b9150506119db565b506040517fa9059cbb00000000000000000000000000000000000000000000000000000000815232600482015260248101839052600160a060020a0387169063a9059cbb90604401602060405180830381600087803b158015611af257600080fd5b505af1158015611b06573d6000803e3d6000fd5b505050506040513d601f19601f82011682018060405250810190611b2a9190611f33565b5060078054839190600090611b4090849061258b565b9091555050600a8054839190600090611b5a908490612573565b909155505060085415611bf657600854600090611b7890899061258b565b90508781611b8557506008545b30318111611bf3576040513290819083156108fc029084906000818181858888f19350505050158015611bbc573d6000803e3d6000fd5b5060088054839190600090611bd290849061258b565b909155505060098054839190600090611bec908490612573565b9091555050505b50505b600b8054906000611c06836125da565b9190505550611c136113a3565b6007541015611c6357600c805460ff191660029081179091556040517f0162568b2de8418ff706fde39b1c8a9fd0cb82ab9b14fdaa9c2e0860105e1fca91611c5a91612448565b60405180910390a15b5095945050505050565b600c546101009004600160a060020a03163214611c8957600080fd5b600c805482919060ff19166001836002811115611ca857611ca861262e565b021790555050565b828054611cbc906125a2565b90600052602060002090601f016020900481019282611cde5760008555611d24565b82601f10611cf757805160ff1916838001178555611d24565b82800160010185558215611d24579182015b82811115611d24578251825591602001919060010190611d09565b50611d30929150611d8d565b5090565b828054828255906000526020600020908101928215611d81579160200282015b82811115611d815782518051611d71918491602090910190611cb0565b5091602001919060010190611d54565b50611d30929150611da2565b5b80821115611d305760008155600101611d8e565b80821115611d30576000611db68282611dbf565b50600101611da2565b508054611dcb906125a2565b6000825580601f10611ddb575050565b601f016020900490600052602060002090810190611df99190611d8d565b50565b600082601f830112611e0d57600080fd5b8135602067ffffffffffffffff80831115611e2a57611e2a612660565b818302611e38838201612542565b8481528381019087850183890186018a1015611e5357600080fd5b60009350835b87811015611e9057813586811115611e6f578586fd5b611e7d8c89838e0101611e9f565b8552509286019290860190600101611e59565b50909998505050505050505050565b600082601f830112611eb057600080fd5b813567ffffffffffffffff811115611eca57611eca612660565b611edd601f8201601f1916602001612542565b818152846020838601011115611ef257600080fd5b816020850160208301376000918101602001919091529392505050565b600060208284031215611f2157600080fd5b8135611f2c8161269a565b9392505050565b600060208284031215611f4557600080fd5b8151611f2c816126af565b60008060408385031215611f6357600080fd5b8235611f6e8161269a565b946020939093013593505050565b60008060008060008060c08789031215611f9557600080fd5b8635611fa0816126bd565b9550602087013594506040870135611fb7816126af565b9350606087013567ffffffffffffffff80821115611fd457600080fd5b611fe08a838b01611e9f565b94506080890135915080821115611ff657600080fd5b6120028a838b01611e9f565b935060a089013591508082111561201857600080fd5b5061202589828a01611dfc565b9150509295509295509295565b60006020828403121561204457600080fd5b8135611f2c816126bd565b60008060006060848603121561206457600080fd5b833567ffffffffffffffff8082111561207c57600080fd5b61208887838801611e9f565b9450602086013591508082111561209e57600080fd5b506120ab86828701611e9f565b925050604084013590509250925092565b6000602082840312156120ce57600080fd5b5035919050565b6000602082840312156120e757600080fd5b5051919050565b6000806000806060858703121561210457600080fd5b8435935060208501356121168161269a565b9250604085013567ffffffffffffffff8082111561213357600080fd5b818701915087601f83011261214757600080fd5b81358181111561215657600080fd5b886020808302850101111561216a57600080fd5b95989497505060200194505050565b600080600080600080600060e0888a03121561219457600080fd5b8735965060208801356121a6816126bd565b95506040880135945060608801356121bd816126af565b9350608088013567ffffffffffffffff808211156121da57600080fd5b6121e68b838c01611e9f565b945060a08a01359150808211156121fc57600080fd5b6122088b838c01611e9f565b935060c08a013591508082111561221e57600080fd5b5061222b8a828b01611dfc565b91505092959891949750929550565b6000806040838503121561224d57600080fd5b50508035926020909101359150565b6000815180845260005b8181101561228257602081850181015186830182015201612266565b81811115612294576000602083870101525b50601f01601f19169290920160200192915050565b60008151606084526122be606085018261225c565b9050602083015184820360208601526122d7828261225c565b915050604083015160408501528091505092915050565b6020808252825182820181905260009190604090818501908084028601830187850186805b848110156123eb57603f198a8503018652825160c0815161233381612679565b8652818a01518a8701528882015115158987015260608083015181880183905261235f8389018261225c565b925050506080808301518783038289015261237a838261225c565b60a094850151898203958a01959095528451808252948d01949093508c8401925090508b810283018c01865b828110156123d457601f198583030184526123c282875161225c565b958e0195938e019391506001016123a6565b50998c019997505050938901935050600101612313565b50919998505050505050505050565b61240386612679565b858152846020820152831515604082015260a06060820152600061242a60a083018561225c565b828103608084015261243c818561225c565b98975050505050505050565b6020810161245583612679565b91905290565b602081526000611f2c602083018461225c565b602081526000611f2c60208301846122a9565b6000610100808352612495818401896122a9565b9150506124c66020830187805182526020810151602083015260408101516040830152606081015160608301525050565b8460a08301526124d584612679565b8360c0830152600160a060020a03831660e08301529695505050505050565b6000808335601e1984360301811261250b57600080fd5b83018035915067ffffffffffffffff82111561252657600080fd5b60200191503681900382131561253b57600080fd5b9250929050565b604051601f8201601f1916810167ffffffffffffffff8111828210171561256b5761256b612660565b604052919050565b6000821982111561258657612586612615565b500190565b60008282101561259d5761259d612615565b500390565b6002810460018216806125b657607f821691505b6020821081141561139d5760e060020a634e487b7102600052602260045260246000fd5b60006000198214156125ee576125ee612615565b5060010190565b600060ff821660ff81141561260c5761260c612615565b60010192915050565b60e060020a634e487b7102600052601160045260246000fd5b60e060020a634e487b7102600052602160045260246000fd5b60e060020a634e487b7102600052603260045260246000fd5b60e060020a634e487b7102600052604160045260246000fd5b60038110611df95760e060020a634e487b7102600052602160045260246000fd5b600160a060020a0381168114611df957600080fd5b8015158114611df957600080fd5b60038110611df957600080fdfea2646970667358221220411eed53254dc0444fa20d497378ed2095b24e6b4b720a504f2800aacb58d1e164736f6c63430008070033a2646970667358221220384208ea0addc8f8c02e2a462c37a7a06f812bbf234a86d9223d63aa576fff7764736f6c63430008070033",
  "immutableReferences": {},
  "source": "// SPDX-License-Identifier: MIT\r\npragma experimental ABIEncoderV2;\r\npragma solidity >=0.6.0;\r\n\r\n/*\r\nSurvana\r\n----------------------\r\n1. A owner can add a creator to add survies\r\n2. A creator can create a survey that has unlimited questions.\r\n3. A question can be one of the following types of questions\r\n\t- A mulitple choice\r\n\t- Text\r\n\t- Rate\r\n4. Each question will be assigned an amount of tokens that can be earned for completed it\r\n5. They can mark a question as required or optional (defaulted)\r\n6. The creator has to fill the liquidity pool for that survey with tokens to be distrubted to people\r\n7. There can be an extra bonus for completing the whole survey (which the creator can define how much that is)\r\n8. The creator can stop the survey at anytime. (will stop clients who are on it currently).\r\n9. Once the contract determines the survey cannot fulfill another disbrusment of funds, it will auto close it. (will stop clients)\r\n10. A client can only do a survey once\r\n11. When survey has started, the questions cannot be changed.\r\n*/\r\n\r\nimport \"./Survey.sol\";\r\nimport \"./Ownable.sol\";\r\nimport \"./Token.sol\";\r\nimport \"./SurveyInterface.sol\";\r\n\r\ncontract Survana is Ownable, SurveyInterface {\r\n  string public name = \"Survana\";\r\n  mapping (address => bool) public creators;\r\n  Token public token;\r\n  mapping (uint => address) public surveys;\r\n  uint public surveyCount = 0;\r\n\r\n  mapping (address => uint) public creatorSurveyCount;\r\n\r\n  constructor(Token _token) {\r\n    token = _token;\r\n  }\r\n\r\n\r\n  modifier isCreator() {\r\n    require(creators[msg.sender] == true);\r\n    _;\r\n  }\r\n\r\n  event AddedCreator(\r\n    address indexed _creator\r\n  );\r\n\r\n  event RemovedCreator(\r\n    address indexed _creator\r\n  );\r\n\r\n  event DepositedTokensToPool(\r\n    address _creator,\r\n    uint _surveyId,\r\n    uint _amount\r\n  );\r\n\r\n  event DepositedGasToPool(\r\n    address _creator,\r\n    uint _surveyId,\r\n    uint _amount\r\n  );\r\n\r\n  event WithdrawFromTokenPool(\r\n    address _creator,\r\n    uint _surveyId,\r\n    uint _amount\r\n  );\r\n\r\n  event WithdrawFromGasPool(\r\n    address _creator,\r\n    uint _surveyId,\r\n    uint _amount\r\n  );\r\n\r\n  event SurveyCreated(\r\n    address indexed _creator,\r\n    address indexed _newContract,\r\n    uint _surveyId\r\n  );\r\n\r\n  event SurveyUpdated(\r\n    address indexed _creator,\r\n    address indexed _contract,\r\n    uint _surveyId\r\n  );\r\n\r\n  event SurveySubmited(\r\n    address indexed _user,\r\n    uint _surveyId,\r\n    uint _tokensAwarded\r\n  );\r\n\r\n  event QuestionAdded(\r\n    address indexed _creator,\r\n    address indexed _contract,\r\n    uint _surveyId,\r\n    uint _questionId\r\n  );\r\n\r\n  event QuestionUpdated(\r\n    address indexed _creator,\r\n    address indexed _contract,\r\n    uint _surveyId,\r\n    uint _questionId\r\n  );\r\n\r\n  event SurveyStatusChanged(\r\n    Status _status,\r\n    uint _id\r\n  );\r\n\r\n  event TokenChanged(\r\n    Token _token\r\n  );\r\n\r\n  function addCreator(address _addr) external onlyOwner {\r\n    creators[_addr] = true;\r\n    emit AddedCreator(_addr);\r\n  }\r\n\r\n  function removeCreator(address _addr) external onlyOwner {\r\n    creators[_addr] = false;\r\n    emit RemovedCreator(_addr);\r\n  }\r\n\r\n  function depositToSurveyTokenPool(uint _id, uint _amount) external isCreator {\r\n    require(_amount > 0);\r\n    Survey s = Survey(surveys[_id]);\r\n    require(bytes(s.name()).length > 0);\r\n    s.depositToSurveyTokenPool(token, _amount);\r\n    emit DepositedTokensToPool(msg.sender, _id, _amount);\r\n  }\r\n\r\n  function depositToSurveyGasPool(uint _id) external payable isCreator {\r\n    require(msg.value > 0, \"Value needs to be > 0\");\r\n    Survey s = Survey(surveys[_id]);\r\n    // address payable _addr = payable(address(s));\r\n    // _addr.transfer(msg.value);\r\n    // (bool sent, bytes memory data) = _addr.call{value: msg.value}(\"\");\r\n    // bool sent = _addr.send(msg.value);\r\n    s.depositToSurveyGasPool{value: msg.value}();\r\n    // require(sent, \"Failed to send Ether\");\r\n    emit DepositedGasToPool(msg.sender, _id, msg.value);\r\n  }\r\n\r\n  function withdrawFromTokenPool(uint _id, uint _amount) external isCreator {\r\n    require(_amount > 0);\r\n    Survey s = Survey(surveys[_id]);\r\n    s.withdrawFromTokenPool(token, _amount);\r\n    emit WithdrawFromTokenPool(msg.sender, _id, _amount);\r\n  }\r\n\r\n  function withdrawFromGasPool(uint _id, uint _amount) external isCreator {\r\n    require(_amount > 0);\r\n    Survey s = Survey(surveys[_id]);\r\n    s.withdrawFromGasPool(_amount);\r\n    emit WithdrawFromGasPool(msg.sender, _id, _amount);\r\n  }\r\n\r\n  function createSurvey(\r\n    string calldata _name,\r\n    string calldata _description,\r\n    uint _bonusAmount\r\n  ) external isCreator {\r\n    Survey s = new Survey(msg.sender, _name, _description, _bonusAmount);\r\n    address newContract = address(s);\r\n    surveys[surveyCount] = newContract;\r\n    emit SurveyCreated(msg.sender, newContract, surveyCount);\r\n    surveyCount++;\r\n    creatorSurveyCount[msg.sender] = surveyCount;\r\n  }\r\n\r\n  function updateSurvey(\r\n    uint _id,\r\n    string calldata _name,\r\n    string calldata _description,\r\n    uint _bonusAmount\r\n  ) external isCreator {\r\n    Survey s = Survey(surveys[_id]);\r\n    s.updateSurvey(_name, _description, _bonusAmount);\r\n    emit SurveyUpdated(msg.sender, address(s), _id);\r\n  }\r\n\r\n  function addQuestion(\r\n    uint _id,\r\n    QuestionType _qtypes,\r\n    uint _worth,\r\n    bool _required,\r\n    string memory _title,\r\n    string memory _qdescription,\r\n    string[] memory _choices\r\n  ) public  isCreator {\r\n    Survey s = Survey(surveys[_id]);\r\n    uint qid = s.addQuestion(_qtypes, _worth, _required, _title, _qdescription, _choices);\r\n    emit QuestionAdded(msg.sender, address(s), _id, qid);\r\n  }\r\n\r\n  function updateQuestion(\r\n    uint _id,\r\n    uint _qid,\r\n    QuestionType _qtypes,\r\n    uint _worth,\r\n    bool _required,\r\n    string memory _title,\r\n    string memory _qdescription,\r\n    string[] memory _choices\r\n  ) public isCreator {\r\n    Survey s = Survey(surveys[_id]);\r\n    s.updateQuestion(_qid, _qtypes, _worth, _required, _title, _qdescription, _choices);\r\n    emit QuestionUpdated(msg.sender, address(s), _id, _qid);\r\n  }\r\n\r\n  function setSurveyStatus(uint _id, Status _status) external isCreator {\r\n    Survey s = Survey(surveys[_id]);\r\n    s.setSurveyStatus(_status);\r\n    emit SurveyStatusChanged(_status, _id);\r\n  }\r\n\r\n\r\n  function submitSurvey(\r\n    uint _id,\r\n    string[] calldata _answers\r\n  ) external isCreator {\r\n    uint gas = gasleft();\r\n    Survey s = Survey(surveys[_id]);\r\n    uint reward = s.submitSurvey(gas, token, _answers);\r\n    emit SurveySubmited(msg.sender, _id, reward);\r\n  }\r\n\r\n  function getCreatorSurveys() external view returns (SurveyBasic[] memory) {\r\n    require(creators[msg.sender] == true);\r\n    SurveyBasic[] memory _tmp = new SurveyBasic[](creatorSurveyCount[msg.sender]);\r\n    uint count = 0;\r\n    for (uint256 index = 0; index < surveyCount; index++) {\r\n      Survey s = Survey(surveys[index]);\r\n      if (s.creator() == msg.sender) {\r\n        _tmp[count] = s.info();\r\n        count++;\r\n      }\r\n    }\r\n    return _tmp;\r\n  }\r\n\r\n  function getOpenSurveys() external view returns (SurveyBasic[] memory) {\r\n    SurveyBasic[] memory _tmp = new SurveyBasic[](surveyCount);\r\n    uint count = 0;\r\n    for (uint256 index = 0; index < surveyCount; index++) {\r\n      Survey s = Survey(surveys[index]);\r\n      if (s.status() == Status.OPEN && s.creator() != msg.sender) {\r\n        _tmp[count] = s.info();\r\n        count++;\r\n      }\r\n    }\r\n    return _tmp;\r\n  }\r\n\r\n  function getUserFinishedSurveys() external view returns (SurveyBasic[] memory) {\r\n    SurveyBasic[] memory _tmp = new SurveyBasic[](surveyCount);\r\n    uint count = 0;\r\n    for (uint256 index = 0; index < surveyCount; index++) {\r\n      Survey s = Survey(surveys[index]);\r\n      if (s.status() == Status.FINISHED && s.didUserTakeSurvey(msg.sender)) {\r\n        _tmp[count] = s.info();\r\n        count++;\r\n      }\r\n    }\r\n    return _tmp;\r\n  }\r\n\r\n  function setToken(Token _token) external onlyOwner {\r\n    token = _token;\r\n    emit TokenChanged(_token);\r\n  }\r\n}\r\n",
  "sourcePath": "C:\\Users\\surge\\Desktop\\dapp-projects\\survana\\contracts\\Survana.sol",
  "compiler": {
    "name": "solc",
    "version": "0.8.7+commit.e28d00a7.Emscripten.clang"
  },
  "schemaVersion": "3.4.3",
  "updatedAt": "2021-09-04T07:26:41.440Z",
  "devdoc": {
    "kind": "dev",
    "methods": {},
    "version": 1
  },
  "userdoc": {
    "kind": "user",
    "methods": {},
    "version": 1
  }
}