{
  "contractName": "Survey",
  "abi": [
    {
      "inputs": [
        {
          "internalType": "address",
          "name": "_creator",
          "type": "address"
        },
        {
          "internalType": "string",
          "name": "_name",
          "type": "string"
        },
        {
          "internalType": "string",
          "name": "_description",
          "type": "string"
        },
        {
          "internalType": "uint256",
          "name": "_bonusAmount",
          "type": "uint256"
        }
      ],
      "stateMutability": "nonpayable",
      "type": "constructor"
    },
    {
      "anonymous": false,
      "inputs": [
        {
          "indexed": false,
          "internalType": "enum SurveyInterface.Status",
          "name": "_status",
          "type": "uint8"
        }
      ],
      "name": "SurveyStatusChanged",
      "type": "event"
    },
    {
      "inputs": [],
      "name": "build",
      "outputs": [
        {
          "components": [
            {
              "internalType": "string",
              "name": "name",
              "type": "string"
            },
            {
              "internalType": "string",
              "name": "description",
              "type": "string"
            },
            {
              "internalType": "uint256",
              "name": "bonusAmount",
              "type": "uint256"
            }
          ],
          "internalType": "struct SurveyInterface.SurveyBasic",
          "name": "info",
          "type": "tuple"
        },
        {
          "components": [
            {
              "internalType": "uint256",
              "name": "tokenAmount",
              "type": "uint256"
            },
            {
              "internalType": "uint256",
              "name": "gasAmount",
              "type": "uint256"
            },
            {
              "internalType": "uint256",
              "name": "totalGasSent",
              "type": "uint256"
            },
            {
              "internalType": "uint256",
              "name": "totalTokensSent",
              "type": "uint256"
            }
          ],
          "internalType": "struct SurveyInterface.LiquidityPool",
          "name": "pool",
          "type": "tuple"
        },
        {
          "internalType": "uint256",
          "name": "surveysTaken",
          "type": "uint256"
        },
        {
          "internalType": "enum SurveyInterface.Status",
          "name": "status",
          "type": "uint8"
        },
        {
          "internalType": "address",
          "name": "creator",
          "type": "address"
        }
      ],
      "stateMutability": "view",
      "type": "function"
    },
    {
      "inputs": [
        {
          "internalType": "uint256",
          "name": "",
          "type": "uint256"
        }
      ],
      "name": "questions",
      "outputs": [
        {
          "internalType": "enum SurveyInterface.QuestionType",
          "name": "questionType",
          "type": "uint8"
        },
        {
          "internalType": "uint256",
          "name": "worth",
          "type": "uint256"
        },
        {
          "internalType": "bool",
          "name": "required",
          "type": "bool"
        },
        {
          "internalType": "string",
          "name": "title",
          "type": "string"
        },
        {
          "internalType": "string",
          "name": "description",
          "type": "string"
        }
      ],
      "stateMutability": "view",
      "type": "function"
    },
    {
      "inputs": [
        {
          "internalType": "enum SurveyInterface.Status",
          "name": "_status",
          "type": "uint8"
        }
      ],
      "name": "setSurveyStatus",
      "outputs": [],
      "stateMutability": "nonpayable",
      "type": "function"
    },
    {
      "inputs": [
        {
          "internalType": "uint256",
          "name": "_gas",
          "type": "uint256"
        },
        {
          "internalType": "contract Token",
          "name": "_token",
          "type": "address"
        },
        {
          "internalType": "string[]",
          "name": "_answers",
          "type": "string[]"
        }
      ],
      "name": "submitSurvey",
      "outputs": [
        {
          "internalType": "uint256",
          "name": "",
          "type": "uint256"
        }
      ],
      "stateMutability": "nonpayable",
      "type": "function"
    },
    {
      "inputs": [],
      "name": "name",
      "outputs": [
        {
          "internalType": "string",
          "name": "",
          "type": "string"
        }
      ],
      "stateMutability": "view",
      "type": "function"
    },
    {
      "inputs": [],
      "name": "creator",
      "outputs": [
        {
          "internalType": "address",
          "name": "",
          "type": "address"
        }
      ],
      "stateMutability": "view",
      "type": "function"
    },
    {
      "inputs": [],
      "name": "status",
      "outputs": [
        {
          "internalType": "enum SurveyInterface.Status",
          "name": "",
          "type": "uint8"
        }
      ],
      "stateMutability": "view",
      "type": "function"
    },
    {
      "inputs": [],
      "name": "worth",
      "outputs": [
        {
          "internalType": "uint256",
          "name": "",
          "type": "uint256"
        }
      ],
      "stateMutability": "view",
      "type": "function"
    },
    {
      "inputs": [
        {
          "internalType": "string",
          "name": "_name",
          "type": "string"
        },
        {
          "internalType": "string",
          "name": "_description",
          "type": "string"
        },
        {
          "internalType": "uint256",
          "name": "_bonusAmount",
          "type": "uint256"
        }
      ],
      "name": "updateSurvey",
      "outputs": [],
      "stateMutability": "nonpayable",
      "type": "function"
    },
    {
      "inputs": [
        {
          "internalType": "enum SurveyInterface.QuestionType",
          "name": "_qtypes",
          "type": "uint8"
        },
        {
          "internalType": "uint256",
          "name": "_worth",
          "type": "uint256"
        },
        {
          "internalType": "bool",
          "name": "_required",
          "type": "bool"
        },
        {
          "internalType": "string",
          "name": "_title",
          "type": "string"
        },
        {
          "internalType": "string",
          "name": "_qdescription",
          "type": "string"
        },
        {
          "internalType": "string[]",
          "name": "_choices",
          "type": "string[]"
        }
      ],
      "name": "addQuestion",
      "outputs": [
        {
          "internalType": "uint256",
          "name": "",
          "type": "uint256"
        }
      ],
      "stateMutability": "nonpayable",
      "type": "function"
    },
    {
      "inputs": [
        {
          "internalType": "uint256",
          "name": "_id",
          "type": "uint256"
        },
        {
          "internalType": "enum SurveyInterface.QuestionType",
          "name": "_qtypes",
          "type": "uint8"
        },
        {
          "internalType": "uint256",
          "name": "_worth",
          "type": "uint256"
        },
        {
          "internalType": "bool",
          "name": "_required",
          "type": "bool"
        },
        {
          "internalType": "string",
          "name": "_title",
          "type": "string"
        },
        {
          "internalType": "string",
          "name": "_qdescription",
          "type": "string"
        },
        {
          "internalType": "string[]",
          "name": "_choices",
          "type": "string[]"
        }
      ],
      "name": "updateQuestion",
      "outputs": [],
      "stateMutability": "nonpayable",
      "type": "function"
    },
    {
      "inputs": [
        {
          "internalType": "contract Token",
          "name": "_token",
          "type": "address"
        },
        {
          "internalType": "uint256",
          "name": "_amount",
          "type": "uint256"
        }
      ],
      "name": "depositToSurveyTokenPool",
      "outputs": [],
      "stateMutability": "nonpayable",
      "type": "function"
    },
    {
      "inputs": [
        {
          "internalType": "uint256",
          "name": "_value",
          "type": "uint256"
        }
      ],
      "name": "depositToSurveyGasPool",
      "outputs": [],
      "stateMutability": "nonpayable",
      "type": "function"
    },
    {
      "inputs": [
        {
          "internalType": "contract Token",
          "name": "_token",
          "type": "address"
        },
        {
          "internalType": "uint256",
          "name": "_amount",
          "type": "uint256"
        }
      ],
      "name": "withdrawFromTokenPool",
      "outputs": [],
      "stateMutability": "nonpayable",
      "type": "function"
    },
    {
      "inputs": [
        {
          "internalType": "uint256",
          "name": "_amount",
          "type": "uint256"
        }
      ],
      "name": "withdrawFromGasPool",
      "outputs": [],
      "stateMutability": "nonpayable",
      "type": "function"
    },
    {
      "inputs": [
        {
          "internalType": "address",
          "name": "_addr",
          "type": "address"
        }
      ],
      "name": "didUserTakeSurvey",
      "outputs": [
        {
          "internalType": "bool",
          "name": "",
          "type": "bool"
        }
      ],
      "stateMutability": "view",
      "type": "function"
    }
  ],
  "bytecode": "0x608060405260006001553480156200001657600080fd5b506040516200211d3803806200211d8339810160408190526200003991620001f3565b82516200004e90600490602086019062000096565b5081516200006490600590602085019062000096565b506006555050600c8054600160a060020a039092166101000261010060a860020a03199092169190911790556200030a565b828054620000a49062000285565b90600052602060002090601f016020900481019282620000c8576000855562000113565b82601f10620000e357805160ff191683800117855562000113565b8280016001018555821562000113579182015b8281111562000113578251825591602001919060010190620000f6565b506200012192915062000125565b5090565b5b8082111562000121576000815560010162000126565b600082601f8301126200014e57600080fd5b81516001604060020a03808211156200016b576200016b620002db565b604051601f8301601f19908116603f01168101908282118183101715620001965762000196620002db565b81604052838152602092508683858801011115620001b357600080fd5b600091505b83821015620001d75785820183015181830184015290820190620001b8565b83821115620001e95760008385830101525b9695505050505050565b600080600080608085870312156200020a57600080fd5b8451600160a060020a03811681146200022257600080fd5b60208601519094506001604060020a03808211156200024057600080fd5b6200024e888389016200013c565b945060408701519150808211156200026557600080fd5b5062000274878288016200013c565b606096909601519497939650505050565b6002810460018216806200029a57607f821691505b60208210811415620002d5577f4e487b7100000000000000000000000000000000000000000000000000000000600052602260045260246000fd5b50919050565b7f4e487b7100000000000000000000000000000000000000000000000000000000600052604160045260246000fd5b611e03806200031a6000396000f3fe608060405234801561001057600080fd5b506004361061011d576000357c010000000000000000000000000000000000000000000000000000000090048063482ff513116100b45780638e6b582f116100835780638e6b582f1461025a578063ad11c1311461026d578063d6da669e14610275578063f93bbb871461028857600080fd5b8063482ff513146101ea5780634a4cd4051461020b5780638beeef2b1461021e5780638e1a55fc1461024157600080fd5b80631eea56a3116100f05780631eea56a31461018d578063200d2ed2146101a057806331b1b978146101b357806338745a1c146101d757600080fd5b806302bc7b221461012257806302d05d3f1461013757806306fdde03146101655780631275b3bb1461017a575b600080fd5b610135610130366004611910565b61029b565b005b600c546101009004600160a060020a0316604051600160a060020a0390911681526020015b60405180910390f35b61016d6102e1565b60405161015c9190611b49565b6101356101883660046117a4565b610375565b61013561019b3660046118a3565b6104f3565b600c5460ff1660405161015c9190611b36565b6101c66101c1366004611910565b61053e565b60405161015c959493929190611ae8565b6101356101e53660046117a4565b610685565b6101fd6101f83660046117d0565b610763565b60405190815260200161015c565b6101356102193660046119cd565b6107c3565b61023161022c366004611763565b6108d3565b604051901515815260200161015c565b6102496109df565b60405161015c959493929190611b5c565b610135610268366004611910565b610b75565b6101fd610bf1565b6101fd610283366004611942565b610e8b565b610135610296366004611886565b6114c1565b600c546101009004600160a060020a031633146102b757600080fd5b600081116102c457600080fd5b600880548291906000906102d9908490611c76565b909155505050565b60048054606091906102f290611ca5565b80601f016020809104026020016040519081016040528092919081815260200182805461031e90611ca5565b801561036b5780601f106103405761010080835404028352916020019161036b565b820191906000526020600020905b81548152906001019060200180831161034e57829003601f168201915b5050505050905090565b600c546101009004600160a060020a0316331461039157600080fd5b6000811161039e57600080fd5b6040517f70a082310000000000000000000000000000000000000000000000000000000081523060048201528190600160a060020a038416906370a082319060240160206040518083038186803b1580156103f857600080fd5b505afa15801561040c573d6000803e3d6000fd5b505050506040513d601f19601f820116820180604052508101906104309190611929565b101561043b57600080fd5b6040517fa9059cbb00000000000000000000000000000000000000000000000000000000815233600482015260248101829052600160a060020a0383169063a9059cbb90604401602060405180830381600087803b15801561049c57600080fd5b505af11580156104b0573d6000803e3d6000fd5b505050506040513d601f19601f820116820180604052508101906104d49190611787565b50600780548291906000906104ea908490611c8e565b90915550505050565b600c546101009004600160a060020a0316331461050f57600080fd5b8251610522906004906020860190611504565b508151610536906005906020850190611504565b506006555050565b600060208190529081526040902080546001820154600283015460038401805460ff948516959394909216929161057490611ca5565b80601f01602080910402602001604051908101604052809291908181526020018280546105a090611ca5565b80156105ed5780601f106105c2576101008083540402835291602001916105ed565b820191906000526020600020905b8154815290600101906020018083116105d057829003601f168201915b50505050509080600401805461060290611ca5565b80601f016020809104026020016040519081016040528092919081815260200182805461062e90611ca5565b801561067b5780601f106106505761010080835404028352916020019161067b565b820191906000526020600020905b81548152906001019060200180831161065e57829003601f168201915b5050505050905085565b600c546101009004600160a060020a031633146106a157600080fd5b600081116106ae57600080fd5b6040517f23b872dd00000000000000000000000000000000000000000000000000000000815233600482015230602482015260448101829052600160a060020a038316906323b872dd90606401602060405180830381600087803b15801561071557600080fd5b505af1158015610729573d6000803e3d6000fd5b505050506040513d601f19601f8201168201806040525081019061074d9190611787565b50600780548291906000906104ea908490611c76565b600c546000906101009004600160a060020a0316331461078257600080fd5b6107936001548888888888886107c3565b600180549060006107a383611cdd565b9190505550600180546107b69190611c8e565b90505b9695505050505050565b600c546101009004600160a060020a031633146107df57600080fd5b6040518060c001604052808760028111156107fc576107fc611d31565b81526020808201889052861515604080840191909152606083018790526080830186905260a090920184905260008a8152908190522081518154829060ff1916600183600281111561085057610850611d31565b02179055506020828101516001830155604083015160028301805460ff19169115159190911790556060830151805161088f9260038501920190611504565b50608082015180516108ab916004840191602090910190611504565b5060a082015180516108c7916005840191602090910190611588565b50505050505050505050565b600160a060020a038116600090815260036020526040812054815b6001548110156109d557600081815260026020526040812080548490811061091857610918611d4a565b90600052602060002001805461092d90611ca5565b80601f016020809104026020016040519081016040528092919081815260200182805461095990611ca5565b80156109a65780601f1061097b576101008083540402835291602001916109a6565b820191906000526020600020905b81548152906001019060200180831161098957829003601f168201915b505050505090506000815111156109c257506001949350505050565b50806109cd81611cdd565b9150506108ee565b5060009392505050565b600480600001604051806060016040529081600082018054610a0090611ca5565b80601f0160208091040260200160405190810160405280929190818152602001828054610a2c90611ca5565b8015610a795780601f10610a4e57610100808354040283529160200191610a79565b820191906000526020600020905b815481529060010190602001808311610a5c57829003601f168201915b50505050508152602001600182018054610a9290611ca5565b80601f0160208091040260200160405190810160405280929190818152602001828054610abe90611ca5565b8015610b0b5780601f10610ae057610100808354040283529160200191610b0b565b820191906000526020600020905b815481529060010190602001808311610aee57829003601f168201915b50505091835250506002919091015460209182015260408051608081018252600385015481526004850154928101929092526005840154908201526006830154606082015260078301546008909301549192909160ff8116906101009004600160a060020a031685565b600c546101009004600160a060020a03163314610b9157600080fd5b60008111610b9e57600080fd5b3031811115610bac57600080fd5b6040513390819083156108fc029084906000818181858888f19350505050158015610bdb573d6000803e3d6000fd5b50600880548391906000906104ea908490611c8e565b600080805b600154811015610e8557600081815260208190526040808220815160c081019092528054829060ff166002811115610c3057610c30611d31565b6002811115610c4157610c41611d31565b815260018201546020820152600282015460ff1615156040820152600382018054606090920191610c7190611ca5565b80601f0160208091040260200160405190810160405280929190818152602001828054610c9d90611ca5565b8015610cea5780601f10610cbf57610100808354040283529160200191610cea565b820191906000526020600020905b815481529060010190602001808311610ccd57829003601f168201915b50505050508152602001600482018054610d0390611ca5565b80601f0160208091040260200160405190810160405280929190818152602001828054610d2f90611ca5565b8015610d7c5780601f10610d5157610100808354040283529160200191610d7c565b820191906000526020600020905b815481529060010190602001808311610d5f57829003601f168201915b5050505050815260200160058201805480602002602001604051908101604052809291908181526020016000905b82821015610e56578382906000526020600020018054610dc990611ca5565b80601f0160208091040260200160405190810160405280929190818152602001828054610df590611ca5565b8015610e425780601f10610e1757610100808354040283529160200191610e42565b820191906000526020600020905b815481529060010190602001808311610e2557829003601f168201915b505050505081526020019060010190610daa565b505050915250506020810151909150610e6f9084611c76565b9250508080610e7d90611cdd565b915050610bf6565b50919050565b600c546000906101009004600160a060020a0316331415610eab57600080fd5b6001600c5460ff166002811115610ec457610ec4611d31565b14610ece57600080fd5b60008060005b6001548110156111d857600081815260208190526040808220815160c081019092528054829060ff166002811115610f0e57610f0e611d31565b6002811115610f1f57610f1f611d31565b815260018201546020820152600282015460ff1615156040820152600382018054606090920191610f4f90611ca5565b80601f0160208091040260200160405190810160405280929190818152602001828054610f7b90611ca5565b8015610fc85780601f10610f9d57610100808354040283529160200191610fc8565b820191906000526020600020905b815481529060010190602001808311610fab57829003601f168201915b50505050508152602001600482018054610fe190611ca5565b80601f016020809104026020016040519081016040528092919081815260200182805461100d90611ca5565b801561105a5780601f1061102f5761010080835404028352916020019161105a565b820191906000526020600020905b81548152906001019060200180831161103d57829003601f168201915b5050505050815260200160058201805480602002602001604051908101604052809291908181526020016000905b828210156111345783829060005260206000200180546110a790611ca5565b80601f01602080910402602001604051908101604052809291908181526020018280546110d390611ca5565b80156111205780601f106110f557610100808354040283529160200191611120565b820191906000526020600020905b81548152906001019060200180831161110357829003601f168201915b505050505081526020019060010190611088565b50505050815250509050600087878481811061115257611152611d4a565b90506020028101906111649190611bf7565b8080601f01602080910402602001604051908101604052809392919081815260200183838082843760009201919091525050825192935050901590506111c35760208201516111b39086611c76565b9450836111bf81611cf8565b9450505b505080806111d090611cdd565b915050610ed4565b506001548160ff1614156111f6576006546111f39083611c76565b91505b60075482111561120557600080fd5b61120e336108d3565b1561121857600080fd5b600b54336000908152600360205260408120919091555b848110156112e457600086868381811061124b5761124b611d4a565b905060200281019061125d9190611bf7565b8080601f01602080910402602001604051908101604052809392919081815260200183838082843760009201919091525050825192935050901590506112d1576000828152600260209081526040822080546001810182559083529181902083516112cf939190910191840190611504565b505b50806112dc81611cdd565b91505061122f565b506040517fa9059cbb00000000000000000000000000000000000000000000000000000000815233600482015260248101839052600160a060020a0387169063a9059cbb90604401602060405180830381600087803b15801561134657600080fd5b505af115801561135a573d6000803e3d6000fd5b505050506040513d601f19601f8201168201806040525081019061137e9190611787565b5060078054839190600090611394908490611c8e565b9091555050600a80548391906000906113ae908490611c76565b90915550506008541561144a576008546000906113cc908990611c8e565b905087816113d957506008545b30318111611447576040513390819083156108fc029084906000818181858888f19350505050158015611410573d6000803e3d6000fd5b5060088054839190600090611426908490611c8e565b909155505060098054839190600090611440908490611c76565b9091555050505b50505b600b805490600061145a83611cdd565b9190505550611467610bf1565b60075410156114b757600c805460ff191660029081179091556040517f0162568b2de8418ff706fde39b1c8a9fd0cb82ab9b14fdaa9c2e0860105e1fca916114ae91611b36565b60405180910390a15b5095945050505050565b600c546101009004600160a060020a031633146114dd57600080fd5b600c805482919060ff191660018360028111156114fc576114fc611d31565b021790555050565b82805461151090611ca5565b90600052602060002090601f0160209004810192826115325760008555611578565b82601f1061154b57805160ff1916838001178555611578565b82800160010185558215611578579182015b8281111561157857825182559160200191906001019061155d565b506115849291506115e1565b5090565b8280548282559060005260206000209081019282156115d5579160200282015b828111156115d557825180516115c5918491602090910190611504565b50916020019190600101906115a8565b506115849291506115f6565b5b8082111561158457600081556001016115e2565b8082111561158457600061160a8282611613565b506001016115f6565b50805461161f90611ca5565b6000825580601f1061162f575050565b601f01602090049060005260206000209081019061164d91906115e1565b50565b600082601f83011261166157600080fd5b8135602067ffffffffffffffff8083111561167e5761167e611d63565b81830261168c838201611c45565b8481528381019087850183890186018a10156116a757600080fd5b60009350835b878110156116e4578135868111156116c3578586fd5b6116d18c89838e01016116f3565b85525092860192908601906001016116ad565b50909998505050505050505050565b600082601f83011261170457600080fd5b813567ffffffffffffffff81111561171e5761171e611d63565b611731601f8201601f1916602001611c45565b81815284602083860101111561174657600080fd5b816020850160208301376000918101602001919091529392505050565b60006020828403121561177557600080fd5b813561178081611d9d565b9392505050565b60006020828403121561179957600080fd5b815161178081611db2565b600080604083850312156117b757600080fd5b82356117c281611d9d565b946020939093013593505050565b60008060008060008060c087890312156117e957600080fd5b86356117f481611dc0565b955060208701359450604087013561180b81611db2565b9350606087013567ffffffffffffffff8082111561182857600080fd5b6118348a838b016116f3565b9450608089013591508082111561184a57600080fd5b6118568a838b016116f3565b935060a089013591508082111561186c57600080fd5b5061187989828a01611650565b9150509295509295509295565b60006020828403121561189857600080fd5b813561178081611dc0565b6000806000606084860312156118b857600080fd5b833567ffffffffffffffff808211156118d057600080fd5b6118dc878388016116f3565b945060208601359150808211156118f257600080fd5b506118ff868287016116f3565b925050604084013590509250925092565b60006020828403121561192257600080fd5b5035919050565b60006020828403121561193b57600080fd5b5051919050565b6000806000806060858703121561195857600080fd5b84359350602085013561196a81611d9d565b9250604085013567ffffffffffffffff8082111561198757600080fd5b818701915087601f83011261199b57600080fd5b8135818111156119aa57600080fd5b88602080830285010111156119be57600080fd5b95989497505060200194505050565b600080600080600080600060e0888a0312156119e857600080fd5b8735965060208801356119fa81611dc0565b9550604088013594506060880135611a1181611db2565b9350608088013567ffffffffffffffff80821115611a2e57600080fd5b611a3a8b838c016116f3565b945060a08a0135915080821115611a5057600080fd5b611a5c8b838c016116f3565b935060c08a0135915080821115611a7257600080fd5b50611a7f8a828b01611650565b91505092959891949750929550565b611a9781611d7c565b9052565b6000815180845260005b81811015611ac157602081850181015186830182015201611aa5565b81811115611ad3576000602083870101525b50601f01601f19169290920160200192915050565b611af186611d7c565b858152846020820152831515604082015260a060608201526000611b1860a0830185611a9b565b8281036080840152611b2a8185611a9b565b98975050505050505050565b60208101611b4383611d7c565b91905290565b6020815260006117806020830184611a9b565b60006101008083528751606082850152611b7a610160850182611a9b565b915050602088015160ff1984830301610120850152611b998282611a9b565b915050604088015161014084015280915050855160208301526020860151604083015260408601516060830152606086015160808301528460a0830152611be360c0830185611a8e565b600160a060020a03831660e08301526107b9565b6000808335601e19843603018112611c0e57600080fd5b83018035915067ffffffffffffffff821115611c2957600080fd5b602001915036819003821315611c3e57600080fd5b9250929050565b604051601f8201601f1916810167ffffffffffffffff81118282101715611c6e57611c6e611d63565b604052919050565b60008219821115611c8957611c89611d18565b500190565b600082821015611ca057611ca0611d18565b500390565b600281046001821680611cb957607f821691505b60208210811415610e855760e060020a634e487b7102600052602260045260246000fd5b6000600019821415611cf157611cf1611d18565b5060010190565b600060ff821660ff811415611d0f57611d0f611d18565b60010192915050565b60e060020a634e487b7102600052601160045260246000fd5b60e060020a634e487b7102600052602160045260246000fd5b60e060020a634e487b7102600052603260045260246000fd5b60e060020a634e487b7102600052604160045260246000fd5b6003811061164d5760e060020a634e487b7102600052602160045260246000fd5b600160a060020a038116811461164d57600080fd5b801515811461164d57600080fd5b6003811061164d57600080fdfea2646970667358221220bd54a7af6e30527e060a9a3763b8de7932f3032b60eb307c95f30bf2db1d7b3f64736f6c63430008070033",
  "immutableReferences": {},
  "source": "// SPDX-License-Identifier: MIT\npragma experimental ABIEncoderV2;\npragma solidity >=0.8.0;\n\nimport \"./Ownable.sol\";\nimport \"./SurveyInterface.sol\";\nimport \"./Token.sol\";\n\ncontract Survey is SurveyInterface {\n\n  //multichoice would store index, rating would be a number, and text is text\n  // Question[] public questions;\n  mapping(uint => Question) public questions;\n  uint questionCount = 0;\n\n  mapping (uint => string[]) internal answers;\n  mapping (address => uint) internal userAnswers;\n\n  SurveyBuild public build;\n\n  event SurveyStatusChanged(\n    Status _status\n  );\n\n  // constructor(SurveyBuild memory _b, Question[] memory _q) public {\n  //   build = _b;\n  //   for (uint i = 0; i < _q.length; i++) {\n  //     questions[i] = _q[i];\n  //   }\n  // }\n\n  constructor(address _creator, string memory _name, string memory _description, uint _bonusAmount) public {\n    // build = _b;\n    // for (uint i = 0; i < _q.length; i++) {\n    //   questions[i] = _q[i];\n    // }\n    build.info.name = _name;\n    build.info.description = _description;\n    build.info.bonusAmount = _bonusAmount;\n    build.creator = _creator;\n  }\n\n  modifier isCreator {\n    require(build.creator == msg.sender);\n    _;\n  }\n\n  function setSurveyStatus(Status _status) external isCreator {\n    build.status = _status;\n  }\n\n  function submitSurvey(\n    uint _gas,\n    Token _token,\n    string[] calldata _answers\n  ) external returns (uint) {\n    //make sure the creator didn't submit their own survey\n    require(build.creator != msg.sender);\n    //make sure it is still open\n    require(build.status == Status.OPEN);\n    //this calulates how much rewards they get\n    uint reward = 0;\n    uint8 filled = 0;\n    for (uint i = 0; i < questionCount; i++) {\n      Question memory q = questions[i];\n      string memory a = _answers[i];\n      if (bytes(a).length > 0) {\n        reward += q.worth;\n        filled++;\n      }\n    }\n    if (filled == questionCount) {\n      reward += build.info.bonusAmount;\n    }\n    //liquidity pool must have enough funds to continue this function\n    require(reward <= build.pool.tokenAmount);\n\n    //make sure we haven't done this survey before\n    // require(userAnswers[msg.sender][_id].answers.length == 0);\n    require(!didUserTakeSurvey(msg.sender));\n    //user submits their answers\n    // userAnswers[msg.sender][_id] = SurveyAnswers(_answers);\n    // string[] memory copyAnswers;\n    // for (uint i = 0; i < _answers.length; i++) {\n    //   copyAnswers[i] = _answers[i];\n    // }\n    userAnswers[msg.sender] = build.surveysTaken;\n    //push answers to mapping\n    for(uint i = 0; i < _answers.length; i++) {\n      string memory a = _answers[i];\n      if (bytes(a).length > 0) {\n        answers[i].push(a); \n      }\n    }\n    //this takes the money from the liquidity pool and sends them tokens\n    _token.transfer(msg.sender, reward);\n    build.pool.tokenAmount -= reward;\n    build.pool.totalTokensSent += reward;\n\n    //try to send them back the gas money\n    if (build.pool.gasAmount > 0) {\n      uint diff = build.pool.gasAmount - _gas;\n      uint send = _gas;\n      if (diff <= 0) {\n        send = build.pool.gasAmount;\n      }\n      if (address(this).balance >= send) {\n        address payable pa = payable(msg.sender);\n        pa.transfer(send);\n        build.pool.gasAmount -= send;\n        build.pool.totalGasSent += send;\n      }\n    }\n\n    //increment taken surveys\n    build.surveysTaken++;\n\n    //this checks to see if the survey needs to close\n    //to check this we see if they can fund another survey\n    if (build.pool.tokenAmount < worth()) {\n      build.status = Status.FINISHED;\n      emit SurveyStatusChanged(build.status);\n    }\n\n    return reward;\n  }\n\n  function name() view external returns (string memory) {\n    return build.info.name;\n  }\n\n  function creator() view external returns (address) {\n    return build.creator;\n  }\n\n  function status() view external returns (Status) {\n    return build.status;\n  }\n\n  function worth() view public returns (uint) {\n    uint w = 0;\n    for (uint i = 0; i < questionCount; i++) {\n      Question memory q = questions[i];\n      w += q.worth;\n    }\n    return w;\n  }\n\n  function updateSurvey(\n    string memory _name,\n    string memory _description,\n    uint _bonusAmount\n  ) public isCreator {\n    build.info.name = _name;\n    build.info.description = _description;\n    build.info.bonusAmount = _bonusAmount;\n  }\n\n  function addQuestion(\n    QuestionType _qtypes,\n    uint _worth,\n    bool _required,\n    string memory _title,\n    string memory _qdescription,\n    string[] memory _choices\n  ) public  isCreator returns (uint) {\n    updateQuestion(\n      questionCount,\n      _qtypes,\n      _worth,\n      _required,\n      _title,\n      _qdescription,\n      _choices\n    );\n    questionCount++;\n\n    return questionCount - 1;\n  }\n\n  function updateQuestion(\n    uint _id,\n    QuestionType _qtypes,\n    uint _worth,\n    bool _required,\n    string memory _title,\n    string memory _qdescription,\n    string[] memory _choices\n  ) public isCreator {\n    questions[_id] = Question(\n      _qtypes,\n      _worth,\n      _required,\n      _title,\n      _qdescription,\n      _choices\n    );\n  }\n\n  function depositToSurveyTokenPool(Token _token, uint _amount) external isCreator {\n    require(_amount > 0);\n    _token.transferFrom(msg.sender, address(this), _amount);\n    build.pool.tokenAmount += _amount;\n  }\n\n  function depositToSurveyGasPool(uint _value) external isCreator {\n    require(_value > 0);\n    build.pool.gasAmount += _value;\n  }\n\n  function withdrawFromTokenPool(Token _token, uint _amount) external isCreator {\n    require(_amount > 0);\n    require(_token.balanceOf(address(this)) >= _amount);\n    _token.transfer(msg.sender, _amount);\n    build.pool.tokenAmount -= _amount;\n  }\n\n  function withdrawFromGasPool(uint _amount) external isCreator {\n    require(_amount > 0);\n    require(address(this).balance >= _amount);\n    address payable _addr = payable(msg.sender);\n    _addr.transfer(_amount);\n    build.pool.gasAmount -= _amount;\n  }\n\n  function didUserTakeSurvey(address _addr) view public returns (bool) {\n    uint index = userAnswers[_addr];\n    for (uint i = 0; i < questionCount; i++) {\n      string memory a = answers[i][index];\n      if (bytes(a).length > 0) {\n        return true;\n      }\n    }\n    return false;\n  }\n}\n",
  "sourcePath": "/home/scott/projects/survana/contracts/Survey.sol",
  "compiler": {
    "name": "solc",
    "version": "0.8.7+commit.e28d00a7.Emscripten.clang"
  },
  "schemaVersion": "3.4.3",
  "updatedAt": "2021-09-03T04:55:31.519Z",
  "devdoc": {
    "kind": "dev",
    "methods": {},
    "version": 1
  },
  "userdoc": {
    "kind": "user",
    "methods": {},
    "version": 1
  }
}