{
  "contractName": "Survey",
  "abi": [
    {
      "inputs": [
        {
          "internalType": "address",
          "name": "_creator",
          "type": "address"
        },
        {
          "internalType": "string",
          "name": "_name",
          "type": "string"
        },
        {
          "internalType": "string",
          "name": "_description",
          "type": "string"
        },
        {
          "internalType": "uint256",
          "name": "_bonusAmount",
          "type": "uint256"
        }
      ],
      "payable": false,
      "stateMutability": "nonpayable",
      "type": "constructor"
    },
    {
      "anonymous": false,
      "inputs": [
        {
          "indexed": false,
          "internalType": "enum SurveyInterface.Status",
          "name": "_status",
          "type": "uint8"
        }
      ],
      "name": "SurveyStatusChanged",
      "type": "event"
    },
    {
      "constant": true,
      "inputs": [],
      "name": "build",
      "outputs": [
        {
          "components": [
            {
              "internalType": "string",
              "name": "name",
              "type": "string"
            },
            {
              "internalType": "string",
              "name": "description",
              "type": "string"
            },
            {
              "internalType": "uint256",
              "name": "bonusAmount",
              "type": "uint256"
            }
          ],
          "internalType": "struct SurveyInterface.SurveyBasic",
          "name": "info",
          "type": "tuple"
        },
        {
          "components": [
            {
              "internalType": "uint256",
              "name": "tokenAmount",
              "type": "uint256"
            },
            {
              "internalType": "uint256",
              "name": "gasAmount",
              "type": "uint256"
            },
            {
              "internalType": "uint256",
              "name": "totalGasSent",
              "type": "uint256"
            },
            {
              "internalType": "uint256",
              "name": "totalTokensSent",
              "type": "uint256"
            }
          ],
          "internalType": "struct SurveyInterface.LiquidityPool",
          "name": "pool",
          "type": "tuple"
        },
        {
          "internalType": "uint256",
          "name": "surveysTaken",
          "type": "uint256"
        },
        {
          "internalType": "enum SurveyInterface.Status",
          "name": "status",
          "type": "uint8"
        },
        {
          "internalType": "address",
          "name": "creator",
          "type": "address"
        }
      ],
      "payable": false,
      "stateMutability": "view",
      "type": "function"
    },
    {
      "constant": true,
      "inputs": [
        {
          "internalType": "uint256",
          "name": "",
          "type": "uint256"
        }
      ],
      "name": "questions",
      "outputs": [
        {
          "internalType": "enum SurveyInterface.QuestionType",
          "name": "questionType",
          "type": "uint8"
        },
        {
          "internalType": "uint256",
          "name": "worth",
          "type": "uint256"
        },
        {
          "internalType": "bool",
          "name": "required",
          "type": "bool"
        },
        {
          "internalType": "string",
          "name": "title",
          "type": "string"
        },
        {
          "internalType": "string",
          "name": "description",
          "type": "string"
        }
      ],
      "payable": false,
      "stateMutability": "view",
      "type": "function"
    },
    {
      "constant": false,
      "inputs": [
        {
          "internalType": "enum SurveyInterface.Status",
          "name": "_status",
          "type": "uint8"
        }
      ],
      "name": "setSurveyStatus",
      "outputs": [],
      "payable": false,
      "stateMutability": "nonpayable",
      "type": "function"
    },
    {
      "constant": false,
      "inputs": [
        {
          "internalType": "uint256",
          "name": "_gas",
          "type": "uint256"
        },
        {
          "internalType": "contract Token",
          "name": "_token",
          "type": "address"
        },
        {
          "internalType": "string[]",
          "name": "_answers",
          "type": "string[]"
        }
      ],
      "name": "submitSurvey",
      "outputs": [
        {
          "internalType": "uint256",
          "name": "",
          "type": "uint256"
        }
      ],
      "payable": false,
      "stateMutability": "nonpayable",
      "type": "function"
    },
    {
      "constant": true,
      "inputs": [],
      "name": "name",
      "outputs": [
        {
          "internalType": "string",
          "name": "",
          "type": "string"
        }
      ],
      "payable": false,
      "stateMutability": "view",
      "type": "function"
    },
    {
      "constant": true,
      "inputs": [],
      "name": "creator",
      "outputs": [
        {
          "internalType": "address",
          "name": "",
          "type": "address"
        }
      ],
      "payable": false,
      "stateMutability": "view",
      "type": "function"
    },
    {
      "constant": true,
      "inputs": [],
      "name": "status",
      "outputs": [
        {
          "internalType": "enum SurveyInterface.Status",
          "name": "",
          "type": "uint8"
        }
      ],
      "payable": false,
      "stateMutability": "view",
      "type": "function"
    },
    {
      "constant": true,
      "inputs": [],
      "name": "worth",
      "outputs": [
        {
          "internalType": "uint256",
          "name": "",
          "type": "uint256"
        }
      ],
      "payable": false,
      "stateMutability": "view",
      "type": "function"
    },
    {
      "constant": false,
      "inputs": [
        {
          "internalType": "string",
          "name": "_name",
          "type": "string"
        },
        {
          "internalType": "string",
          "name": "_description",
          "type": "string"
        },
        {
          "internalType": "uint256",
          "name": "_bonusAmount",
          "type": "uint256"
        }
      ],
      "name": "updateSurvey",
      "outputs": [],
      "payable": false,
      "stateMutability": "nonpayable",
      "type": "function"
    },
    {
      "constant": false,
      "inputs": [
        {
          "internalType": "enum SurveyInterface.QuestionType",
          "name": "_qtypes",
          "type": "uint8"
        },
        {
          "internalType": "uint256",
          "name": "_worth",
          "type": "uint256"
        },
        {
          "internalType": "bool",
          "name": "_required",
          "type": "bool"
        },
        {
          "internalType": "string",
          "name": "_title",
          "type": "string"
        },
        {
          "internalType": "string",
          "name": "_qdescription",
          "type": "string"
        },
        {
          "internalType": "string[]",
          "name": "_choices",
          "type": "string[]"
        }
      ],
      "name": "addQuestion",
      "outputs": [
        {
          "internalType": "uint256",
          "name": "",
          "type": "uint256"
        }
      ],
      "payable": false,
      "stateMutability": "nonpayable",
      "type": "function"
    },
    {
      "constant": false,
      "inputs": [
        {
          "internalType": "uint256",
          "name": "_id",
          "type": "uint256"
        },
        {
          "internalType": "enum SurveyInterface.QuestionType",
          "name": "_qtypes",
          "type": "uint8"
        },
        {
          "internalType": "uint256",
          "name": "_worth",
          "type": "uint256"
        },
        {
          "internalType": "bool",
          "name": "_required",
          "type": "bool"
        },
        {
          "internalType": "string",
          "name": "_title",
          "type": "string"
        },
        {
          "internalType": "string",
          "name": "_qdescription",
          "type": "string"
        },
        {
          "internalType": "string[]",
          "name": "_choices",
          "type": "string[]"
        }
      ],
      "name": "updateQuestion",
      "outputs": [],
      "payable": false,
      "stateMutability": "nonpayable",
      "type": "function"
    },
    {
      "constant": false,
      "inputs": [
        {
          "internalType": "contract Token",
          "name": "_token",
          "type": "address"
        },
        {
          "internalType": "uint256",
          "name": "_amount",
          "type": "uint256"
        }
      ],
      "name": "depositToSurveyTokenPool",
      "outputs": [],
      "payable": false,
      "stateMutability": "nonpayable",
      "type": "function"
    },
    {
      "constant": false,
      "inputs": [
        {
          "internalType": "uint256",
          "name": "_value",
          "type": "uint256"
        }
      ],
      "name": "depositToSurveyGasPool",
      "outputs": [],
      "payable": false,
      "stateMutability": "nonpayable",
      "type": "function"
    },
    {
      "constant": false,
      "inputs": [
        {
          "internalType": "contract Token",
          "name": "_token",
          "type": "address"
        },
        {
          "internalType": "uint256",
          "name": "_amount",
          "type": "uint256"
        }
      ],
      "name": "withdrawFromTokenPool",
      "outputs": [],
      "payable": false,
      "stateMutability": "nonpayable",
      "type": "function"
    },
    {
      "constant": false,
      "inputs": [
        {
          "internalType": "uint256",
          "name": "_amount",
          "type": "uint256"
        }
      ],
      "name": "withdrawFromGasPool",
      "outputs": [],
      "payable": false,
      "stateMutability": "nonpayable",
      "type": "function"
    },
    {
      "constant": true,
      "inputs": [
        {
          "internalType": "address",
          "name": "_addr",
          "type": "address"
        }
      ],
      "name": "didUserTakeSurvey",
      "outputs": [
        {
          "internalType": "bool",
          "name": "",
          "type": "bool"
        }
      ],
      "payable": false,
      "stateMutability": "view",
      "type": "function"
    }
  ],
  "bytecode": "0x608060405260006001553480156200001657600080fd5b5060405162002d3d38038062002d3d83398181016040526200003c919081019062000284565b6200004f8383836200009d60201b60201c565b83600460080160016101000a81548173ffffffffffffffffffffffffffffffffffffffff021916908373ffffffffffffffffffffffffffffffffffffffff1602179055505050505062000425565b3373ffffffffffffffffffffffffffffffffffffffff16600460080160019054906101000a900473ffffffffffffffffffffffffffffffffffffffff1673ffffffffffffffffffffffffffffffffffffffff1614620000fb57600080fd5b8260046000016000019080519060200190620001199291906200014b565b508160046000016001019080519060200190620001389291906200014b565b5080600460000160020181905550505050565b828054600181600116156101000203166002900490600052602060002090601f016020900481019282601f106200018e57805160ff1916838001178555620001bf565b82800160010185558215620001bf579182015b82811115620001be578251825591602001919060010190620001a1565b5b509050620001ce9190620001d2565b5090565b620001f791905b80821115620001f3576000816000905550600101620001d9565b5090565b90565b6000815190506200020b81620003f1565b92915050565b600082601f8301126200022357600080fd5b81516200023a620002348262000350565b62000322565b915080825260208301602083018583830111156200025757600080fd5b62000264838284620003bb565b50505092915050565b6000815190506200027e816200040b565b92915050565b600080600080608085870312156200029b57600080fd5b6000620002ab87828801620001fa565b945050602085015167ffffffffffffffff811115620002c957600080fd5b620002d78782880162000211565b935050604085015167ffffffffffffffff811115620002f557600080fd5b620003038782880162000211565b925050606062000316878288016200026d565b91505092959194509250565b6000604051905081810181811067ffffffffffffffff821117156200034657600080fd5b8060405250919050565b600067ffffffffffffffff8211156200036857600080fd5b601f19601f8301169050602081019050919050565b60006200038a8262000391565b9050919050565b600073ffffffffffffffffffffffffffffffffffffffff82169050919050565b6000819050919050565b60005b83811015620003db578082015181840152602081019050620003be565b83811115620003eb576000848401525b50505050565b620003fc816200037d565b81146200040857600080fd5b50565b6200041681620003b1565b81146200042257600080fd5b50565b61290880620004356000396000f3fe608060405234801561001057600080fd5b50600436106101005760003560e01c8063482ff513116100975780638e6b582f116100665780638e6b582f146102a1578063ad11c131146102bd578063d6da669e146102db578063f93bbb871461030b57610100565b8063482ff513146102035780634a4cd405146102335780638beeef2b1461024f5780638e1a55fc1461027f57610100565b80631eea56a3116100d35780631eea56a314610179578063200d2ed21461019557806331b1b978146101b357806338745a1c146101e757610100565b806302bc7b221461010557806302d05d3f1461012157806306fdde031461013f5780631275b3bb1461015d575b600080fd5b61011f600480360361011a919081019061210f565b610327565b005b6101296103aa565b6040516101369190612473565b60405180910390f35b6101476103d7565b6040516101549190612585565b60405180910390f35b61017760048036036101729190810190611f5a565b61047f565b005b610193600480360361018e9190810190612090565b610626565b005b61019d6106cf565b6040516101aa919061256a565b60405180910390f35b6101cd60048036036101c8919081019061210f565b6106e9565b6040516101de959493929190612509565b60405180910390f35b61020160048036036101fc9190810190611f5a565b610869565b005b61021d60048036036102189190810190611f96565b61097d565b60405161022a9190612602565b60405180910390f35b61024d600480360361024891908101906121cd565b610a10565b005b61026960048036036102649190810190611f08565b610b6f565b60405161027691906124ee565b60405180910390f35b610287610cb9565b6040516102989594939291906125a7565b60405180910390f35b6102bb60048036036102b6919081019061210f565b610e94565b005b6102c5610f6b565b6040516102d29190612602565b60405180910390f35b6102f560048036036102f09190810190612161565b611247565b6040516103029190612602565b60405180910390f35b61032560048036036103209190810190612067565b611a38565b005b3373ffffffffffffffffffffffffffffffffffffffff16600460080160019054906101000a900473ffffffffffffffffffffffffffffffffffffffff1673ffffffffffffffffffffffffffffffffffffffff161461038457600080fd5b6000811161039157600080fd5b8060046003016001016000828254019250508190555050565b6000600460080160019054906101000a900473ffffffffffffffffffffffffffffffffffffffff16905090565b606060046000016000018054600181600116156101000203166002900480601f0160208091040260200160405190810160405280929190818152602001828054600181600116156101000203166002900480156104755780601f1061044a57610100808354040283529160200191610475565b820191906000526020600020905b81548152906001019060200180831161045857829003601f168201915b5050505050905090565b3373ffffffffffffffffffffffffffffffffffffffff16600460080160019054906101000a900473ffffffffffffffffffffffffffffffffffffffff1673ffffffffffffffffffffffffffffffffffffffff16146104dc57600080fd5b600081116104e957600080fd5b808273ffffffffffffffffffffffffffffffffffffffff166370a08231306040518263ffffffff1660e01b81526004016105239190612473565b60206040518083038186803b15801561053b57600080fd5b505afa15801561054f573d6000803e3d6000fd5b505050506040513d601f19601f820116820180604052506105739190810190612138565b101561057e57600080fd5b8173ffffffffffffffffffffffffffffffffffffffff1663a9059cbb33836040518363ffffffff1660e01b81526004016105b99291906124c5565b602060405180830381600087803b1580156105d357600080fd5b505af11580156105e7573d6000803e3d6000fd5b505050506040513d601f19601f8201168201806040525061060b9190810190611f31565b50806004600301600001600082825403925050819055505050565b3373ffffffffffffffffffffffffffffffffffffffff16600460080160019054906101000a900473ffffffffffffffffffffffffffffffffffffffff1673ffffffffffffffffffffffffffffffffffffffff161461068357600080fd5b826004600001600001908051906020019061069f929190611abe565b5081600460000160010190805190602001906106bc929190611abe565b5080600460000160020181905550505050565b6000600460080160009054906101000a900460ff16905090565b60006020528060005260406000206000915090508060000160009054906101000a900460ff16908060010154908060020160009054906101000a900460ff1690806003018054600181600116156101000203166002900480601f0160208091040260200160405190810160405280929190818152602001828054600181600116156101000203166002900480156107c15780601f10610796576101008083540402835291602001916107c1565b820191906000526020600020905b8154815290600101906020018083116107a457829003601f168201915b505050505090806004018054600181600116156101000203166002900480601f01602080910402602001604051908101604052809291908181526020018280546001816001161561010002031660029004801561085f5780601f106108345761010080835404028352916020019161085f565b820191906000526020600020905b81548152906001019060200180831161084257829003601f168201915b5050505050905085565b3373ffffffffffffffffffffffffffffffffffffffff16600460080160019054906101000a900473ffffffffffffffffffffffffffffffffffffffff1673ffffffffffffffffffffffffffffffffffffffff16146108c657600080fd5b600081116108d357600080fd5b8173ffffffffffffffffffffffffffffffffffffffff166323b872dd3330846040518463ffffffff1660e01b81526004016109109392919061248e565b602060405180830381600087803b15801561092a57600080fd5b505af115801561093e573d6000803e3d6000fd5b505050506040513d601f19601f820116820180604052506109629190810190611f31565b50806004600301600001600082825401925050819055505050565b60003373ffffffffffffffffffffffffffffffffffffffff16600460080160019054906101000a900473ffffffffffffffffffffffffffffffffffffffff1673ffffffffffffffffffffffffffffffffffffffff16146109dc57600080fd5b6109ed600154888888888888610a10565b600160008154809291906001019190505550600180540390509695505050505050565b3373ffffffffffffffffffffffffffffffffffffffff16600460080160019054906101000a900473ffffffffffffffffffffffffffffffffffffffff1673ffffffffffffffffffffffffffffffffffffffff1614610a6d57600080fd5b6040518060c00160405280876002811115610a8457fe5b815260200186815260200185151581526020018481526020018381526020018281525060008089815260200190815260200160002060008201518160000160006101000a81548160ff02191690836002811115610add57fe5b02179055506020820151816001015560408201518160020160006101000a81548160ff0219169083151502179055506060820151816003019080519060200190610b28929190611b3e565b506080820151816004019080519060200190610b45929190611b3e565b5060a0820151816005019080519060200190610b62929190611bbe565b5090505050505050505050565b600080600360008473ffffffffffffffffffffffffffffffffffffffff1673ffffffffffffffffffffffffffffffffffffffff16815260200190815260200160002054905060008090505b600154811015610cad576060600260008381526020019081526020016000208381548110610be457fe5b906000526020600020018054600181600116156101000203166002900480601f016020809104026020016040519081016040528092919081815260200182805460018160011615610100020316600290048015610c825780601f10610c5757610100808354040283529160200191610c82565b820191906000526020600020905b815481529060010190602001808311610c6557829003601f168201915b50505050509050600081511115610c9f5760019350505050610cb4565b508080600101915050610bba565b5060009150505b919050565b600480600001604051806060016040529081600082018054600181600116156101000203166002900480601f016020809104026020016040519081016040528092919081815260200182805460018160011615610100020316600290048015610d635780601f10610d3857610100808354040283529160200191610d63565b820191906000526020600020905b815481529060010190602001808311610d4657829003601f168201915b50505050508152602001600182018054600181600116156101000203166002900480601f016020809104026020016040519081016040528092919081815260200182805460018160011615610100020316600290048015610e055780601f10610dda57610100808354040283529160200191610e05565b820191906000526020600020905b815481529060010190602001808311610de857829003601f168201915b505050505081526020016002820154815250509080600301604051806080016040529081600082015481526020016001820154815260200160028201548152602001600382015481525050908060070154908060080160009054906101000a900460ff16908060080160019054906101000a900473ffffffffffffffffffffffffffffffffffffffff16905085565b3373ffffffffffffffffffffffffffffffffffffffff16600460080160019054906101000a900473ffffffffffffffffffffffffffffffffffffffff1673ffffffffffffffffffffffffffffffffffffffff1614610ef157600080fd5b60008111610efe57600080fd5b80471015610f0b57600080fd5b3373ffffffffffffffffffffffffffffffffffffffff166108fc829081150290604051600060405180830381858888f19350505050158015610f51573d6000803e3d6000fd5b508060046003016001016000828254039250508190555050565b6000806000905060008090505b60015481101561123f57610f8a611c1e565b6000808381526020019081526020016000206040518060c00160405290816000820160009054906101000a900460ff166002811115610fc557fe5b6002811115610fd057fe5b8152602001600182015481526020016002820160009054906101000a900460ff16151515158152602001600382018054600181600116156101000203166002900480601f0160208091040260200160405190810160405280929190818152602001828054600181600116156101000203166002900480156110925780601f1061106757610100808354040283529160200191611092565b820191906000526020600020905b81548152906001019060200180831161107557829003601f168201915b50505050508152602001600482018054600181600116156101000203166002900480601f0160208091040260200160405190810160405280929190818152602001828054600181600116156101000203166002900480156111345780601f1061110957610100808354040283529160200191611134565b820191906000526020600020905b81548152906001019060200180831161111757829003601f168201915b5050505050815260200160058201805480602002602001604051908101604052809291908181526020016000905b8282101561121e578382906000526020600020018054600181600116156101000203166002900480601f01602080910402602001604051908101604052809291908181526020018280546001816001161561010002031660029004801561120a5780601f106111df5761010080835404028352916020019161120a565b820191906000526020600020905b8154815290600101906020018083116111ed57829003601f168201915b505050505081526020019060010190611162565b50505050815250509050806020015183019250508080600101915050610f78565b508091505090565b60003373ffffffffffffffffffffffffffffffffffffffff16600460080160019054906101000a900473ffffffffffffffffffffffffffffffffffffffff1673ffffffffffffffffffffffffffffffffffffffff1614156112a757600080fd5b600160028111156112b457fe5b600460080160009054906101000a900460ff1660028111156112d257fe5b146112dc57600080fd5b6000809050600080905060008090505b60015481101561166e576112fe611c1e565b6000808381526020019081526020016000206040518060c00160405290816000820160009054906101000a900460ff16600281111561133957fe5b600281111561134457fe5b8152602001600182015481526020016002820160009054906101000a900460ff16151515158152602001600382018054600181600116156101000203166002900480601f0160208091040260200160405190810160405280929190818152602001828054600181600116156101000203166002900480156114065780601f106113db57610100808354040283529160200191611406565b820191906000526020600020905b8154815290600101906020018083116113e957829003601f168201915b50505050508152602001600482018054600181600116156101000203166002900480601f0160208091040260200160405190810160405280929190818152602001828054600181600116156101000203166002900480156114a85780601f1061147d576101008083540402835291602001916114a8565b820191906000526020600020905b81548152906001019060200180831161148b57829003601f168201915b5050505050815260200160058201805480602002602001604051908101604052809291908181526020016000905b82821015611592578382906000526020600020018054600181600116156101000203166002900480601f01602080910402602001604051908101604052809291908181526020018280546001816001161561010002031660029004801561157e5780601f106115535761010080835404028352916020019161157e565b820191906000526020600020905b81548152906001019060200180831161156157829003601f168201915b5050505050815260200190600101906114d6565b5050505081525050905060608787848181106115aa57fe5b90506020028101803560016020038336030381126115c757600080fd5b8083019250508135905060208201915067ffffffffffffffff8111156115ec57600080fd5b6001810236038213156115fe57600080fd5b8080601f016020809104026020016040519081016040528093929190818152602001838380828437600081840152601f19601f82011690508083019250505050505050905060008151111561165f5781602001518501945083806001019450505b505080806001019150506112ec565b506001548160ff16141561168a57600460000160020154820191505b60046003016000015482111561169f57600080fd5b6116a833610b6f565b156116b257600080fd5b600460070154600360003373ffffffffffffffffffffffffffffffffffffffff1673ffffffffffffffffffffffffffffffffffffffff1681526020019081526020016000208190555060008090505b8585905081101561181c57606086868381811061171a57fe5b905060200281018035600160200383360303811261173757600080fd5b8083019250508135905060208201915067ffffffffffffffff81111561175c57600080fd5b60018102360382131561176e57600080fd5b8080601f016020809104026020016040519081016040528093929190818152602001838380828437600081840152601f19601f82011690508083019250505050505050905060008151111561180e576002600083815260200190815260200160002081908060018154018082558091505090600182039060005260206000200160009091929091909150908051906020019061180b929190611abe565b50505b508080600101915050611701565b508573ffffffffffffffffffffffffffffffffffffffff1663a9059cbb33846040518363ffffffff1660e01b81526004016118589291906124c5565b602060405180830381600087803b15801561187257600080fd5b505af1158015611886573d6000803e3d6000fd5b505050506040513d601f19601f820116820180604052506118aa9190810190611f31565b5081600460030160000160008282540392505081905550816004600301600301600082825401925050819055506000600460030160010154111561198e576000876004600301600101540390506000889050600082116119105760046003016001015490505b80471061198b573373ffffffffffffffffffffffffffffffffffffffff166108fc829081150290604051600060405180830381858888f1935050505015801561195d573d6000803e3d6000fd5b5080600460030160010160008282540392505081905550806004600301600201600082825401925050819055505b50505b6004600701600081548092919060010191905055506119ab610f6b565b6004600301600001541015611a2b576002600460080160006101000a81548160ff021916908360028111156119dc57fe5b02179055507f0162568b2de8418ff706fde39b1c8a9fd0cb82ab9b14fdaa9c2e0860105e1fca600460080160009054906101000a900460ff16604051611a22919061256a565b60405180910390a15b8192505050949350505050565b3373ffffffffffffffffffffffffffffffffffffffff16600460080160019054906101000a900473ffffffffffffffffffffffffffffffffffffffff1673ffffffffffffffffffffffffffffffffffffffff1614611a9557600080fd5b80600460080160006101000a81548160ff02191690836002811115611ab657fe5b021790555050565b828054600181600116156101000203166002900490600052602060002090601f016020900481019282601f10611aff57805160ff1916838001178555611b2d565b82800160010185558215611b2d579182015b82811115611b2c578251825591602001919060010190611b11565b5b509050611b3a9190611c61565b5090565b828054600181600116156101000203166002900490600052602060002090601f016020900481019282601f10611b7f57805160ff1916838001178555611bad565b82800160010185558215611bad579182015b82811115611bac578251825591602001919060010190611b91565b5b509050611bba9190611c61565b5090565b828054828255906000526020600020908101928215611c0d579160200282015b82811115611c0c578251829080519060200190611bfc929190611b3e565b5091602001919060010190611bde565b5b509050611c1a9190611c86565b5090565b6040518060c0016040528060006002811115611c3657fe5b8152602001600081526020016000151581526020016060815260200160608152602001606081525090565b611c8391905b80821115611c7f576000816000905550600101611c67565b5090565b90565b611caf91905b80821115611cab5760008181611ca29190611cb2565b50600101611c8c565b5090565b90565b50805460018160011615610100020316600290046000825580601f10611cd85750611cf7565b601f016020900490600052602060002090810190611cf69190611c61565b5b50565b600081359050611d0981612849565b92915050565b60008083601f840112611d2157600080fd5b8235905067ffffffffffffffff811115611d3a57600080fd5b602083019150836020820283011115611d5257600080fd5b9250929050565b600082601f830112611d6a57600080fd5b8135611d7d611d788261264a565b61261d565b9150818183526020840193506020810190508360005b83811015611dc35781358601611da98882611e36565b845260208401935060208301925050600181019050611d93565b5050505092915050565b600081359050611ddc81612860565b92915050565b600081519050611df181612860565b92915050565b600081359050611e0681612877565b92915050565b600081359050611e1b8161288e565b92915050565b600081359050611e308161289e565b92915050565b600082601f830112611e4757600080fd5b8135611e5a611e5582612672565b61261d565b91508082526020830160208301858383011115611e7657600080fd5b611e818382846127dc565b50505092915050565b600082601f830112611e9b57600080fd5b8135611eae611ea98261269e565b61261d565b91508082526020830160208301858383011115611eca57600080fd5b611ed58382846127dc565b50505092915050565b600081359050611eed816128ae565b92915050565b600081519050611f02816128ae565b92915050565b600060208284031215611f1a57600080fd5b6000611f2884828501611cfa565b91505092915050565b600060208284031215611f4357600080fd5b6000611f5184828501611de2565b91505092915050565b60008060408385031215611f6d57600080fd5b6000611f7b85828601611df7565b9250506020611f8c85828601611ede565b9150509250929050565b60008060008060008060c08789031215611faf57600080fd5b6000611fbd89828a01611e0c565b9650506020611fce89828a01611ede565b9550506040611fdf89828a01611dcd565b945050606087013567ffffffffffffffff811115611ffc57600080fd5b61200889828a01611e8a565b935050608087013567ffffffffffffffff81111561202557600080fd5b61203189828a01611e8a565b92505060a087013567ffffffffffffffff81111561204e57600080fd5b61205a89828a01611d59565b9150509295509295509295565b60006020828403121561207957600080fd5b600061208784828501611e21565b91505092915050565b6000806000606084860312156120a557600080fd5b600084013567ffffffffffffffff8111156120bf57600080fd5b6120cb86828701611e8a565b935050602084013567ffffffffffffffff8111156120e857600080fd5b6120f486828701611e8a565b925050604061210586828701611ede565b9150509250925092565b60006020828403121561212157600080fd5b600061212f84828501611ede565b91505092915050565b60006020828403121561214a57600080fd5b600061215884828501611ef3565b91505092915050565b6000806000806060858703121561217757600080fd5b600061218587828801611ede565b945050602061219687828801611df7565b935050604085013567ffffffffffffffff8111156121b357600080fd5b6121bf87828801611d0f565b925092505092959194509250565b600080600080600080600060e0888a0312156121e857600080fd5b60006121f68a828b01611ede565b97505060206122078a828b01611e0c565b96505060406122188a828b01611ede565b95505060606122298a828b01611dcd565b945050608088013567ffffffffffffffff81111561224657600080fd5b6122528a828b01611e8a565b93505060a088013567ffffffffffffffff81111561226f57600080fd5b61227b8a828b01611e8a565b92505060c088013567ffffffffffffffff81111561229857600080fd5b6122a48a828b01611d59565b91505092959891949750929550565b6122bc81612782565b82525050565b6122cb81612702565b82525050565b6122da81612714565b82525050565b6122e981612794565b82525050565b6122f8816127a6565b82525050565b6000612309826126d5565b61231381856126f1565b93506123238185602086016127eb565b61232c8161281e565b840191505092915050565b6000612342826126ca565b61234c81856126e0565b935061235c8185602086016127eb565b6123658161281e565b840191505092915050565b600061237b826126ca565b61238581856126f1565b93506123958185602086016127eb565b61239e8161281e565b840191505092915050565b6080820160008201516123bf6000850182612455565b5060208201516123d26020850182612455565b5060408201516123e56040850182612455565b5060608201516123f86060850182612455565b50505050565b6000606083016000830151848203600086015261241b8282612337565b915050602083015184820360208601526124358282612337565b915050604083015161244a6040860182612455565b508091505092915050565b61245e81612778565b82525050565b61246d81612778565b82525050565b600060208201905061248860008301846122c2565b92915050565b60006060820190506124a360008301866122b3565b6124b060208301856122c2565b6124bd6040830184612464565b949350505050565b60006040820190506124da60008301856122b3565b6124e76020830184612464565b9392505050565b600060208201905061250360008301846122d1565b92915050565b600060a08201905061251e60008301886122e0565b61252b6020830187612464565b61253860408301866122d1565b818103606083015261254a8185612370565b9050818103608083015261255e8184612370565b90509695505050505050565b600060208201905061257f60008301846122ef565b92915050565b6000602082019050818103600083015261259f81846122fe565b905092915050565b60006101008201905081810360008301526125c281886123fe565b90506125d160208301876123a9565b6125de60a0830186612464565b6125eb60c08301856122ef565b6125f860e08301846122c2565b9695505050505050565b60006020820190506126176000830184612464565b92915050565b6000604051905081810181811067ffffffffffffffff8211171561264057600080fd5b8060405250919050565b600067ffffffffffffffff82111561266157600080fd5b602082029050602081019050919050565b600067ffffffffffffffff82111561268957600080fd5b601f19601f8301169050602081019050919050565b600067ffffffffffffffff8211156126b557600080fd5b601f19601f8301169050602081019050919050565b600081519050919050565b600081519050919050565b600082825260208201905092915050565b600082825260208201905092915050565b600061270d82612758565b9050919050565b60008115159050919050565b600061272b82612702565b9050919050565b60008190506127408261282f565b919050565b60008190506127538261283c565b919050565b600073ffffffffffffffffffffffffffffffffffffffff82169050919050565b6000819050919050565b600061278d826127b8565b9050919050565b600061279f82612732565b9050919050565b60006127b182612745565b9050919050565b60006127c3826127ca565b9050919050565b60006127d582612758565b9050919050565b82818337600083830152505050565b60005b838110156128095780820151818401526020810190506127ee565b83811115612818576000848401525b50505050565b6000601f19601f8301169050919050565b6003811061283957fe5b50565b6003811061284657fe5b50565b61285281612702565b811461285d57600080fd5b50565b61286981612714565b811461287457600080fd5b50565b61288081612720565b811461288b57600080fd5b50565b6003811061289b57600080fd5b50565b600381106128ab57600080fd5b50565b6128b781612778565b81146128c257600080fd5b5056fea365627a7a72315820e7e8f07fbfdf74eb6dc8e1aca03a997e48e343588bc021377a76e0f4152b68ee6c6578706572696d656e74616cf564736f6c63430005100040",
  "source": "// SPDX-License-Identifier: MIT\npragma experimental ABIEncoderV2;\npragma solidity >=0.4.22 <0.9.0;\n\nimport \"./Ownable.sol\";\nimport \"./SurveyInterface.sol\";\nimport \"./Token.sol\";\n\ncontract Survey is SurveyInterface {\n\n  //multichoice would store index, rating would be a number, and text is text\n  // Question[] public questions;\n  mapping(uint => Question) public questions;\n  uint questionCount = 0;\n\n  mapping (uint => string[]) internal answers;\n  mapping (address => uint) internal userAnswers;\n\n  SurveyBuild public build;\n\n  event SurveyStatusChanged(\n    Status _status\n  );\n\n  // constructor(SurveyBuild memory _b, Question[] memory _q) public {\n  //   build = _b;\n  //   for (uint i = 0; i < _q.length; i++) {\n  //     questions[i] = _q[i];\n  //   }\n  // }\n\n  constructor(address _creator, string memory _name, string memory _description, uint _bonusAmount) public {\n    // build = _b;\n    // for (uint i = 0; i < _q.length; i++) {\n    //   questions[i] = _q[i];\n    // }\n    updateSurvey(_name, _description, _bonusAmount);\n    build.creator = _creator;\n  }\n\n  modifier isCreator {\n    require(build.creator == msg.sender);\n    _;\n  }\n\n  function setSurveyStatus(Status _status) external isCreator {\n    build.status = _status;\n  }\n\n  function submitSurvey(\n    uint _gas,\n    Token _token,\n    string[] calldata _answers\n  ) external returns (uint) {\n    //make sure the creator didn't submit their own survey\n    require(build.creator != msg.sender);\n    //make sure it is still open\n    require(build.status == Status.OPEN);\n    //this calulates how much rewards they get\n    uint reward = 0;\n    uint8 filled = 0;\n    for (uint i = 0; i < questionCount; i++) {\n      Question memory q = questions[i];\n      string memory a = _answers[i];\n      if (bytes(a).length > 0) {\n        reward += q.worth;\n        filled++;\n      }\n    }\n    if (filled == questionCount) {\n      reward += build.info.bonusAmount;\n    }\n    //liquidity pool must have enough funds to continue this function\n    require(reward <= build.pool.tokenAmount);\n\n    //make sure we haven't done this survey before\n    // require(userAnswers[msg.sender][_id].answers.length == 0);\n    require(!didUserTakeSurvey(msg.sender));\n    //user submits their answers\n    // userAnswers[msg.sender][_id] = SurveyAnswers(_answers);\n    // string[] memory copyAnswers;\n    // for (uint i = 0; i < _answers.length; i++) {\n    //   copyAnswers[i] = _answers[i];\n    // }\n    userAnswers[msg.sender] = build.surveysTaken;\n    //push answers to mapping\n    for(uint i = 0; i < _answers.length; i++) {\n      string memory a = _answers[i];\n      if (bytes(a).length > 0) {\n        answers[i].push(a); \n      }\n    }\n    //this takes the money from the liquidity pool and sends them tokens\n    _token.transfer(msg.sender, reward);\n    build.pool.tokenAmount -= reward;\n    build.pool.totalTokensSent += reward;\n\n    //try to send them back the gas money\n    if (build.pool.gasAmount > 0) {\n      uint diff = build.pool.gasAmount - _gas;\n      uint send = _gas;\n      if (diff <= 0) {\n        send = build.pool.gasAmount;\n      }\n      if (address(this).balance >= send) {\n        msg.sender.transfer(send);\n        build.pool.gasAmount -= send;\n        build.pool.totalGasSent += send;\n      }\n    }\n\n    //increment taken surveys\n    build.surveysTaken++;\n\n    //this checks to see if the survey needs to close\n    //to check this we see if they can fund another survey\n    if (build.pool.tokenAmount < worth()) {\n      build.status = Status.FINISHED;\n      emit SurveyStatusChanged(build.status);\n    }\n\n    return reward;\n  }\n\n  function name() view external returns (string memory) {\n    return build.info.name;\n  }\n\n  function creator() view external returns (address) {\n    return build.creator;\n  }\n\n  function status() view external returns (Status) {\n    return build.status;\n  }\n\n  function worth() view public returns (uint) {\n    uint w = 0;\n    for (uint i = 0; i < questionCount; i++) {\n      Question memory q = questions[i];\n      w += q.worth;\n    }\n    return w;\n  }\n\n  function updateSurvey(\n    string memory _name,\n    string memory _description,\n    uint _bonusAmount\n  ) public isCreator {\n    build.info.name = _name;\n    build.info.description = _description;\n    build.info.bonusAmount = _bonusAmount;\n  }\n\n  function addQuestion(\n    QuestionType _qtypes,\n    uint _worth,\n    bool _required,\n    string memory _title,\n    string memory _qdescription,\n    string[] memory _choices\n  ) public  isCreator returns (uint) {\n    updateQuestion(\n      questionCount,\n      _qtypes,\n      _worth,\n      _required,\n      _title,\n      _qdescription,\n      _choices\n    );\n    questionCount++;\n\n    return questionCount - 1;\n  }\n\n  function updateQuestion(\n    uint _id,\n    QuestionType _qtypes,\n    uint _worth,\n    bool _required,\n    string memory _title,\n    string memory _qdescription,\n    string[] memory _choices\n  ) public isCreator {\n    questions[_id] = Question(\n      _qtypes,\n      _worth,\n      _required,\n      _title,\n      _qdescription,\n      _choices\n    );\n  }\n\n  function depositToSurveyTokenPool(Token _token, uint _amount) external isCreator {\n    require(_amount > 0);\n    _token.transferFrom(msg.sender, address(this), _amount);\n    build.pool.tokenAmount += _amount;\n  }\n\n  function depositToSurveyGasPool(uint _value) external isCreator {\n    require(_value > 0);\n    build.pool.gasAmount += _value;\n  }\n\n  function withdrawFromTokenPool(Token _token, uint _amount) external isCreator {\n    require(_amount > 0);\n    require(_token.balanceOf(address(this)) >= _amount);\n    _token.transfer(msg.sender, _amount);\n    build.pool.tokenAmount -= _amount;\n  }\n\n  function withdrawFromGasPool(uint _amount) external isCreator {\n    require(_amount > 0);\n    require(address(this).balance >= _amount);\n    msg.sender.transfer(_amount);\n    build.pool.gasAmount -= _amount;\n  }\n\n  function didUserTakeSurvey(address _addr) view public returns (bool) {\n    uint index = userAnswers[_addr];\n    for (uint i = 0; i < questionCount; i++) {\n      string memory a = answers[i][index];\n      if (bytes(a).length > 0) {\n        return true;\n      }\n    }\n    return false;\n  }\n}\n",
  "sourcePath": "/home/scott/projects/survana/contracts/Survey.sol",
  "compiler": {
    "name": "solc",
    "version": "0.5.16+commit.9c3226ce.Emscripten.clang"
  },
  "schemaVersion": "3.4.3",
  "updatedAt": "2021-09-02T23:35:52.828Z",
  "devdoc": {
    "methods": {}
  },
  "userdoc": {
    "methods": {}
  }
}