{
  "contractName": "Survana",
  "abi": [
    {
      "inputs": [
        {
          "internalType": "contract Token",
          "name": "_token",
          "type": "address"
        }
      ],
      "stateMutability": "nonpayable",
      "type": "constructor"
    },
    {
      "anonymous": false,
      "inputs": [
        {
          "indexed": true,
          "internalType": "address",
          "name": "_creator",
          "type": "address"
        }
      ],
      "name": "AddedCreator",
      "type": "event"
    },
    {
      "anonymous": false,
      "inputs": [
        {
          "indexed": false,
          "internalType": "address",
          "name": "_creator",
          "type": "address"
        },
        {
          "indexed": false,
          "internalType": "uint256",
          "name": "_surveyId",
          "type": "uint256"
        },
        {
          "indexed": false,
          "internalType": "uint256",
          "name": "_amount",
          "type": "uint256"
        }
      ],
      "name": "DepositedGasToPool",
      "type": "event"
    },
    {
      "anonymous": false,
      "inputs": [
        {
          "indexed": false,
          "internalType": "address",
          "name": "_creator",
          "type": "address"
        },
        {
          "indexed": false,
          "internalType": "uint256",
          "name": "_surveyId",
          "type": "uint256"
        },
        {
          "indexed": false,
          "internalType": "uint256",
          "name": "_amount",
          "type": "uint256"
        }
      ],
      "name": "DepositedTokensToPool",
      "type": "event"
    },
    {
      "anonymous": false,
      "inputs": [
        {
          "indexed": true,
          "internalType": "address",
          "name": "oldOwner",
          "type": "address"
        },
        {
          "indexed": true,
          "internalType": "address",
          "name": "newOwner",
          "type": "address"
        }
      ],
      "name": "OwnershipTransferred",
      "type": "event"
    },
    {
      "anonymous": false,
      "inputs": [
        {
          "indexed": true,
          "internalType": "address",
          "name": "_creator",
          "type": "address"
        },
        {
          "indexed": true,
          "internalType": "address",
          "name": "_contract",
          "type": "address"
        },
        {
          "indexed": false,
          "internalType": "uint256",
          "name": "_surveyId",
          "type": "uint256"
        },
        {
          "indexed": false,
          "internalType": "uint256",
          "name": "_questionId",
          "type": "uint256"
        }
      ],
      "name": "QuestionAdded",
      "type": "event"
    },
    {
      "anonymous": false,
      "inputs": [
        {
          "indexed": true,
          "internalType": "address",
          "name": "_creator",
          "type": "address"
        },
        {
          "indexed": true,
          "internalType": "address",
          "name": "_contract",
          "type": "address"
        },
        {
          "indexed": false,
          "internalType": "uint256",
          "name": "_surveyId",
          "type": "uint256"
        },
        {
          "indexed": false,
          "internalType": "uint256",
          "name": "_questionId",
          "type": "uint256"
        }
      ],
      "name": "QuestionUpdated",
      "type": "event"
    },
    {
      "anonymous": false,
      "inputs": [
        {
          "indexed": true,
          "internalType": "address",
          "name": "_creator",
          "type": "address"
        }
      ],
      "name": "RemovedCreator",
      "type": "event"
    },
    {
      "anonymous": false,
      "inputs": [
        {
          "indexed": true,
          "internalType": "address",
          "name": "_creator",
          "type": "address"
        },
        {
          "indexed": true,
          "internalType": "address",
          "name": "_newContract",
          "type": "address"
        },
        {
          "indexed": false,
          "internalType": "uint256",
          "name": "_surveyId",
          "type": "uint256"
        }
      ],
      "name": "SurveyCreated",
      "type": "event"
    },
    {
      "anonymous": false,
      "inputs": [
        {
          "indexed": false,
          "internalType": "enum SurveyInterface.Status",
          "name": "_status",
          "type": "uint8"
        },
        {
          "indexed": false,
          "internalType": "uint256",
          "name": "_id",
          "type": "uint256"
        }
      ],
      "name": "SurveyStatusChanged",
      "type": "event"
    },
    {
      "anonymous": false,
      "inputs": [
        {
          "indexed": true,
          "internalType": "address",
          "name": "_user",
          "type": "address"
        },
        {
          "indexed": false,
          "internalType": "uint256",
          "name": "_surveyId",
          "type": "uint256"
        },
        {
          "indexed": false,
          "internalType": "uint256",
          "name": "_tokensAwarded",
          "type": "uint256"
        }
      ],
      "name": "SurveySubmited",
      "type": "event"
    },
    {
      "anonymous": false,
      "inputs": [
        {
          "indexed": true,
          "internalType": "address",
          "name": "_creator",
          "type": "address"
        },
        {
          "indexed": true,
          "internalType": "address",
          "name": "_contract",
          "type": "address"
        },
        {
          "indexed": false,
          "internalType": "uint256",
          "name": "_surveyId",
          "type": "uint256"
        }
      ],
      "name": "SurveyUpdated",
      "type": "event"
    },
    {
      "anonymous": false,
      "inputs": [
        {
          "indexed": false,
          "internalType": "contract Token",
          "name": "_token",
          "type": "address"
        }
      ],
      "name": "TokenChanged",
      "type": "event"
    },
    {
      "anonymous": false,
      "inputs": [
        {
          "indexed": false,
          "internalType": "address",
          "name": "_creator",
          "type": "address"
        },
        {
          "indexed": false,
          "internalType": "uint256",
          "name": "_surveyId",
          "type": "uint256"
        },
        {
          "indexed": false,
          "internalType": "uint256",
          "name": "_amount",
          "type": "uint256"
        }
      ],
      "name": "WithdrawFromGasPool",
      "type": "event"
    },
    {
      "anonymous": false,
      "inputs": [
        {
          "indexed": false,
          "internalType": "address",
          "name": "_creator",
          "type": "address"
        },
        {
          "indexed": false,
          "internalType": "uint256",
          "name": "_surveyId",
          "type": "uint256"
        },
        {
          "indexed": false,
          "internalType": "uint256",
          "name": "_amount",
          "type": "uint256"
        }
      ],
      "name": "WithdrawFromTokenPool",
      "type": "event"
    },
    {
      "inputs": [],
      "name": "isOwner",
      "outputs": [
        {
          "internalType": "bool",
          "name": "",
          "type": "bool"
        }
      ],
      "stateMutability": "view",
      "type": "function",
      "constant": true
    },
    {
      "inputs": [],
      "name": "name",
      "outputs": [
        {
          "internalType": "string",
          "name": "",
          "type": "string"
        }
      ],
      "stateMutability": "view",
      "type": "function",
      "constant": true
    },
    {
      "inputs": [],
      "name": "owner",
      "outputs": [
        {
          "internalType": "address",
          "name": "",
          "type": "address"
        }
      ],
      "stateMutability": "view",
      "type": "function",
      "constant": true
    },
    {
      "inputs": [],
      "name": "renounceOwnership",
      "outputs": [],
      "stateMutability": "nonpayable",
      "type": "function"
    },
    {
      "inputs": [
        {
          "internalType": "uint256",
          "name": "",
          "type": "uint256"
        }
      ],
      "name": "surveys",
      "outputs": [
        {
          "internalType": "address",
          "name": "",
          "type": "address"
        }
      ],
      "stateMutability": "view",
      "type": "function",
      "constant": true
    },
    {
      "inputs": [],
      "name": "token",
      "outputs": [
        {
          "internalType": "contract Token",
          "name": "",
          "type": "address"
        }
      ],
      "stateMutability": "view",
      "type": "function",
      "constant": true
    },
    {
      "inputs": [
        {
          "internalType": "address",
          "name": "_newOwner",
          "type": "address"
        }
      ],
      "name": "transferOwnership",
      "outputs": [],
      "stateMutability": "nonpayable",
      "type": "function"
    },
    {
      "inputs": [
        {
          "internalType": "address",
          "name": "_addr",
          "type": "address"
        }
      ],
      "name": "addCreator",
      "outputs": [],
      "stateMutability": "nonpayable",
      "type": "function"
    },
    {
      "inputs": [
        {
          "internalType": "address",
          "name": "_addr",
          "type": "address"
        }
      ],
      "name": "removeCreator",
      "outputs": [],
      "stateMutability": "nonpayable",
      "type": "function"
    },
    {
      "inputs": [
        {
          "internalType": "uint256",
          "name": "_id",
          "type": "uint256"
        },
        {
          "internalType": "uint256",
          "name": "_amount",
          "type": "uint256"
        }
      ],
      "name": "depositToSurveyTokenPool",
      "outputs": [],
      "stateMutability": "nonpayable",
      "type": "function"
    },
    {
      "inputs": [
        {
          "internalType": "uint256",
          "name": "_id",
          "type": "uint256"
        }
      ],
      "name": "depositToSurveyGasPool",
      "outputs": [],
      "stateMutability": "payable",
      "type": "function",
      "payable": true
    },
    {
      "inputs": [
        {
          "internalType": "uint256",
          "name": "_id",
          "type": "uint256"
        },
        {
          "internalType": "uint256",
          "name": "_amount",
          "type": "uint256"
        }
      ],
      "name": "withdrawFromTokenPool",
      "outputs": [],
      "stateMutability": "nonpayable",
      "type": "function"
    },
    {
      "inputs": [
        {
          "internalType": "uint256",
          "name": "_id",
          "type": "uint256"
        },
        {
          "internalType": "uint256",
          "name": "_amount",
          "type": "uint256"
        }
      ],
      "name": "withdrawFromGasPool",
      "outputs": [],
      "stateMutability": "nonpayable",
      "type": "function"
    },
    {
      "inputs": [
        {
          "internalType": "string",
          "name": "_name",
          "type": "string"
        },
        {
          "internalType": "string",
          "name": "_description",
          "type": "string"
        },
        {
          "internalType": "uint256",
          "name": "_bonusAmount",
          "type": "uint256"
        }
      ],
      "name": "createSurvey",
      "outputs": [],
      "stateMutability": "nonpayable",
      "type": "function"
    },
    {
      "inputs": [
        {
          "internalType": "uint256",
          "name": "_id",
          "type": "uint256"
        },
        {
          "internalType": "string",
          "name": "_name",
          "type": "string"
        },
        {
          "internalType": "string",
          "name": "_description",
          "type": "string"
        },
        {
          "internalType": "uint256",
          "name": "_bonusAmount",
          "type": "uint256"
        }
      ],
      "name": "updateSurvey",
      "outputs": [],
      "stateMutability": "nonpayable",
      "type": "function"
    },
    {
      "inputs": [
        {
          "internalType": "uint256",
          "name": "_id",
          "type": "uint256"
        },
        {
          "internalType": "enum SurveyInterface.QuestionType",
          "name": "_qtypes",
          "type": "uint8"
        },
        {
          "internalType": "uint256",
          "name": "_worth",
          "type": "uint256"
        },
        {
          "internalType": "bool",
          "name": "_required",
          "type": "bool"
        },
        {
          "internalType": "string",
          "name": "_title",
          "type": "string"
        },
        {
          "internalType": "string",
          "name": "_qdescription",
          "type": "string"
        },
        {
          "internalType": "string[]",
          "name": "_choices",
          "type": "string[]"
        }
      ],
      "name": "addQuestion",
      "outputs": [],
      "stateMutability": "nonpayable",
      "type": "function"
    },
    {
      "inputs": [
        {
          "internalType": "uint256",
          "name": "_id",
          "type": "uint256"
        },
        {
          "internalType": "uint256",
          "name": "_qid",
          "type": "uint256"
        },
        {
          "internalType": "enum SurveyInterface.QuestionType",
          "name": "_qtypes",
          "type": "uint8"
        },
        {
          "internalType": "uint256",
          "name": "_worth",
          "type": "uint256"
        },
        {
          "internalType": "bool",
          "name": "_required",
          "type": "bool"
        },
        {
          "internalType": "string",
          "name": "_title",
          "type": "string"
        },
        {
          "internalType": "string",
          "name": "_qdescription",
          "type": "string"
        },
        {
          "internalType": "string[]",
          "name": "_choices",
          "type": "string[]"
        }
      ],
      "name": "updateQuestion",
      "outputs": [],
      "stateMutability": "nonpayable",
      "type": "function"
    },
    {
      "inputs": [
        {
          "internalType": "uint256",
          "name": "_id",
          "type": "uint256"
        },
        {
          "internalType": "enum SurveyInterface.Status",
          "name": "_status",
          "type": "uint8"
        }
      ],
      "name": "setSurveyStatus",
      "outputs": [],
      "stateMutability": "nonpayable",
      "type": "function"
    },
    {
      "inputs": [
        {
          "internalType": "uint256",
          "name": "_id",
          "type": "uint256"
        },
        {
          "internalType": "string[]",
          "name": "_answers",
          "type": "string[]"
        }
      ],
      "name": "submitSurvey",
      "outputs": [],
      "stateMutability": "nonpayable",
      "type": "function"
    },
    {
      "inputs": [],
      "name": "getCreatorSurveys",
      "outputs": [
        {
          "internalType": "contract Survey[]",
          "name": "",
          "type": "address[]"
        }
      ],
      "stateMutability": "view",
      "type": "function",
      "constant": true
    },
    {
      "inputs": [],
      "name": "getOpenSurveys",
      "outputs": [
        {
          "internalType": "contract Survey[]",
          "name": "",
          "type": "address[]"
        }
      ],
      "stateMutability": "view",
      "type": "function",
      "constant": true
    },
    {
      "inputs": [],
      "name": "getUserFinishedSurveys",
      "outputs": [
        {
          "internalType": "contract Survey[]",
          "name": "",
          "type": "address[]"
        }
      ],
      "stateMutability": "view",
      "type": "function",
      "constant": true
    },
    {
      "inputs": [
        {
          "internalType": "contract Token",
          "name": "_token",
          "type": "address"
        }
      ],
      "name": "setToken",
      "outputs": [],
      "stateMutability": "nonpayable",
      "type": "function"
    }
  ],
  "bytecode": "0x60c0604052600760808190527f53757276616e610000000000000000000000000000000000000000000000000060a0908152620000409160019190620000aa565b5060006005553480156200005357600080fd5b506040516200456538038062004565833981016040819052620000769162000150565b6000805433600160a060020a03199182161790915560038054909116600160a060020a0392909216919091179055620001d8565b828054620000b89062000182565b90600052602060002090601f016020900481019282620000dc576000855562000127565b82601f10620000f757805160ff191683800117855562000127565b8280016001018555821562000127579182015b82811115620001275782518255916020019190600101906200010a565b506200013592915062000139565b5090565b5b808211156200013557600081556001016200013a565b6000602082840312156200016357600080fd5b8151600160a060020a03811681146200017b57600080fd5b9392505050565b6002810460018216806200019757607f821691505b60208210811415620001d2577f4e487b7100000000000000000000000000000000000000000000000000000000600052602260045260246000fd5b50919050565b61437d80620001e86000396000f3fe6080604052600436106200015f5760003560e060020a900480638960e26d11620000c9578063bc400429116200007c578063bc40042914620003e6578063bd6018bb146200040b578063cbb181751462000430578063d9ff498b1462000455578063f2fde38b146200047a578063fc0c546a146200049f57600080fd5b80638960e26d14620003105780638ba04e3d14620003285780638da5cb5b146200034d5780638e896d4f146200036f5780638f32d59b1462000394578063ae738a3114620003c157600080fd5b806356463fc7116200012257806356463fc7146200021e5780635b49efdf14620002435780636fcbd60f1462000268578063715018a6146200028057806371edf4d6146200029857806386e68b9014620002bd57600080fd5b806302bc7b22146200016457806306fdde03146200017d578063144fa6d714620001ad5780633577656614620001d25780633b9dce0514620001f9575b600080fd5b6200017b62000175366004620019c9565b620004c1565b005b3480156200018a57600080fd5b5062000195620005f2565b604051620001a4919062001f47565b60405180910390f35b348015620001ba57600080fd5b506200017b620001cc36600462001847565b62000688565b348015620001df57600080fd5b50620001ea62000701565b604051620001a4919062001e21565b3480156200020657600080fd5b506200017b6200021836600462001847565b620008b2565b3480156200022b57600080fd5b506200017b6200023d36600462001c2e565b62000916565b3480156200025057600080fd5b506200017b62000262366004620018ce565b62000a24565b3480156200027557600080fd5b50620001ea62000b23565b3480156200028d57600080fd5b506200017b62000c65565b348015620002a557600080fd5b506200017b620002b7366004620019fd565b62000c8b565b348015620002ca57600080fd5b50620002f7620002dc366004620019c9565b600460205260009081526040902054600160a060020a031681565b604051600160a060020a039091168152602001620001a4565b3480156200031d57600080fd5b50620001ea62000d90565b3480156200033557600080fd5b506200017b6200034736600462001c0b565b62000f3f565b3480156200035a57600080fd5b50600054620002f790600160a060020a031681565b3480156200037c57600080fd5b506200017b6200038e36600462001b82565b6200102d565b348015620003a157600080fd5b50600054600160a060020a031633146040519015158152602001620001a4565b348015620003ce57600080fd5b506200017b620003e036600462001a80565b6200112e565b348015620003f357600080fd5b506200017b6200040536600462001b4f565b62001251565b3480156200041857600080fd5b506200017b6200042a36600462001847565b62001334565b3480156200043d57600080fd5b506200017b6200044f36600462001c0b565b62001395565b3480156200046257600080fd5b506200017b6200047436600462001c0b565b62001492565b3480156200048757600080fd5b506200017b6200049936600462001847565b6200162c565b348015620004ac57600080fd5b50600354620002f790600160a060020a031681565b3360009081526002602052604090205460ff161515600114620004e357600080fd5b60003411620004f157600080fd5b600081815260046020526040808220549051600160a060020a0390911691829182913480156108fc02929091818181858888f193505050501580156200053b573d6000803e3d6000fd5b506040517f02bc7b22000000000000000000000000000000000000000000000000000000008152346004820152600160a060020a038316906302bc7b2290602401600060405180830381600087803b1580156200059757600080fd5b505af1158015620005ac573d6000803e3d6000fd5b505050507f823696ac0f9b333e2316140757e4b02249983e6b5cfa8c752f738c7376a04b1c338434604051620005e59392919062001e00565b60405180910390a1505050565b6001805462000601906200211d565b80601f01602080910402602001604051908101604052809291908181526020018280546200062f906200211d565b8015620006805780601f10620006545761010080835404028352916020019162000680565b820191906000526020600020905b8154815290600101906020018083116200066257829003601f168201915b505050505081565b600054600160a060020a03163314620006a057600080fd5b6003805473ffffffffffffffffffffffffffffffffffffffff1916600160a060020a0383169081179091556040519081527f5d108ca248943e98e1886bbc2c38beda701271994a14354258a11692b81b73cf9060200160405180910390a150565b6060806000805b600554811015620008aa57600081815260046020526040902054600160a060020a0316600181600160a060020a031663200d2ed26040518163ffffffff1660e060020a02815260040160206040518083038186803b1580156200076a57600080fd5b505afa1580156200077f573d6000803e3d6000fd5b505050506040513d601f19601f82011682018060405250810190620007a59190620018ae565b6002811115620007b957620007b96200218a565b14801562000850575033600160a060020a031681600160a060020a03166302d05d3f6040518163ffffffff1660e060020a02815260040160206040518083038186803b1580156200080957600080fd5b505afa1580156200081e573d6000803e3d6000fd5b505050506040513d601f19601f820116820180604052508101906200084491906200186e565b600160a060020a031614155b156200089457808484815181106200086c576200086c620021a3565b600160a060020a03909216602092830291909101909101528262000890816200215d565b9350505b5080620008a1816200215d565b91505062000708565b509092915050565b600054600160a060020a03163314620008ca57600080fd5b600160a060020a038116600081815260026020526040808220805460ff19166001179055517fde01ac6896c5b1bb768b9f622140a44faf53b6e47809bee039be206a1f88fce69190a250565b3360009081526002602052604090205460ff1615156001146200093857600080fd5b6000888152600460208190526040918290205491517f4a4cd405000000000000000000000000000000000000000000000000000000008152600160a060020a03909216918291634a4cd405916200099e918c918c918c918c918c918c918c910162002019565b600060405180830381600087803b158015620009b957600080fd5b505af1158015620009ce573d6000803e3d6000fd5b5050604080518c8152602081018c9052600160a060020a03851693503392507ffd73297d870e9cb2f853ac5534c549035a865c9694cd022fb8e4dc8cd8bb78ab91015b60405180910390a3505050505050505050565b3360009081526002602052604090205460ff16151560011462000a4657600080fd5b600033868686868660405162000a5c90620016c3565b62000a6d9695949392919062001db2565b604051809103906000f08015801562000a8a573d6000803e3d6000fd5b5060058054600090815260046020908152604091829020805473ffffffffffffffffffffffffffffffffffffffff1916600160a060020a03861690811790915592549151918252929350839233917f814c0a58b6d977676546cfd22e430d3fa3e288403ba1eeb335bdd8973eec9584910160405180910390a36005805490600062000b15836200215d565b919050555050505050505050565b3360009081526002602052604090205460609060ff16151560011462000b4857600080fd5b60606000805b600554811015620008aa576000818152600460208181526040928390205483517f02d05d3f0000000000000000000000000000000000000000000000000000000081529351600160a060020a0390911693339385936302d05d3f938383019391929091829003018186803b15801562000bc657600080fd5b505afa15801562000bdb573d6000803e3d6000fd5b505050506040513d601f19601f8201168201806040525081019062000c0191906200186e565b600160a060020a0316141562000c4f578084848151811062000c275762000c27620021a3565b600160a060020a03909216602092830291909101909101528262000c4b816200215d565b9350505b508062000c5c816200215d565b91505062000b4e565b600054600160a060020a0316331462000c7d57600080fd5b62000c89600062001666565b565b60005a60008581526004602081905260408083205460035491517fd6da669e000000000000000000000000000000000000000000000000000000008152949550600160a060020a0390811694859363d6da669e9362000cf49389939116918b918b910162001f5c565b602060405180830381600087803b15801562000d0f57600080fd5b505af115801562000d24573d6000803e3d6000fd5b505050506040513d601f19601f8201168201806040525081019062000d4a9190620019e3565b604080518881526020810183905291925033917f6d1baacba6a9e34b8f24ff8b6928204ae3b3b0897a5dcc6c3ee892f23702aa4c910160405180910390a2505050505050565b6060806000805b600554811015620008aa57600081815260046020526040902054600160a060020a0316600281600160a060020a031663200d2ed26040518163ffffffff1660e060020a02815260040160206040518083038186803b15801562000df957600080fd5b505afa15801562000e0e573d6000803e3d6000fd5b505050506040513d601f19601f8201168201806040525081019062000e349190620018ae565b600281111562000e485762000e486200218a565b14801562000ee557506040517f8beeef2b000000000000000000000000000000000000000000000000000000008152336004820152600160a060020a03821690638beeef2b9060240160206040518083038186803b15801562000eaa57600080fd5b505afa15801562000ebf573d6000803e3d6000fd5b505050506040513d601f19601f8201168201806040525081019062000ee591906200188e565b1562000f29578084848151811062000f015762000f01620021a3565b600160a060020a03909216602092830291909101909101528262000f25816200215d565b9350505b508062000f36816200215d565b91505062000d97565b3360009081526002602052604090205460ff16151560011462000f6157600080fd5b6000811162000f6f57600080fd5b6000828152600460208190526040918290205491517f8e6b582f000000000000000000000000000000000000000000000000000000008152908101839052600160a060020a03909116908190638e6b582f90602401600060405180830381600087803b15801562000fdf57600080fd5b505af115801562000ff4573d6000803e3d6000fd5b505050507fd394af405f853a90ae990fcbd40afd423bf6057c6a694c2ffa9e5a19cf551ba6338484604051620005e59392919062001e00565b3360009081526002602052604090205460ff1615156001146200104f57600080fd5b6000868152600460208190526040918290205491517f1eea56a3000000000000000000000000000000000000000000000000000000008152600160a060020a03909216918291631eea56a391620010b1918a918a918a918a918a910162001f09565b600060405180830381600087803b158015620010cc57600080fd5b505af1158015620010e1573d6000803e3d6000fd5b5050604051898152600160a060020a03841692503391507f12c056ebad7c44ab7bced3a029dafd20eedf8789050c2030926b61229e2058ca9060200160405180910390a350505050505050565b3360009081526002602052604090205460ff1615156001146200115057600080fd5b60008781526004602081905260408083205490517f482ff513000000000000000000000000000000000000000000000000000000008152600160a060020a039091169291839163482ff51391620011b4918c918c918c918c918c918c910162001e70565b602060405180830381600087803b158015620011cf57600080fd5b505af1158015620011e4573d6000803e3d6000fd5b505050506040513d601f19601f820116820180604052508101906200120a9190620019e3565b604080518b815260208101839052919250600160a060020a0384169133917f5975fc3a6be87625dad6832daa4821eb33c5a675b313a78d11eb8de595ba1f46910162000a11565b3360009081526002602052604090205460ff1615156001146200127357600080fd5b6000828152600460208190526040918290205491517ff93bbb87000000000000000000000000000000000000000000000000000000008152600160a060020a0390921691829163f93bbb8791620012cd9186910162001edb565b600060405180830381600087803b158015620012e857600080fd5b505af1158015620012fd573d6000803e3d6000fd5b505050507fd2a617db2388e82e6e520aa417ab5d836a7aaa85ce1792b5dab75c4d8860edea8284604051620005e592919062001ef0565b600054600160a060020a031633146200134c57600080fd5b600160a060020a038116600081815260026020526040808220805460ff19169055517fc9f999728340f25e1001a7e2414500afb6a11e8f53d5b86c14302417bd50892e9190a250565b3360009081526002602052604090205460ff161515600114620013b757600080fd5b60008111620013c557600080fd5b6000828152600460208190526040918290205460035492517f1275b3bb000000000000000000000000000000000000000000000000000000008152600160a060020a03938416928101929092526024820184905291909116908190631275b3bb90604401600060405180830381600087803b1580156200144457600080fd5b505af115801562001459573d6000803e3d6000fd5b505050507fadab12bef87c4260212d908fba3f1627ba11a973ea59d67fbc8dfddaa7422787338484604051620005e59392919062001e00565b3360009081526002602052604090205460ff161515600114620014b457600080fd5b60008111620014c257600080fd5b60008281526004602081905260408083205481517f06fdde030000000000000000000000000000000000000000000000000000000081529151600160a060020a03909116939284926306fdde0392818301928692829003018186803b1580156200152b57600080fd5b505afa15801562001540573d6000803e3d6000fd5b505050506040513d6000823e601f3d908101601f191682016040526200156a919081019062001949565b51116200157657600080fd5b6003546040517f38745a1c000000000000000000000000000000000000000000000000000000008152600160a060020a03918216600482015260248101849052908216906338745a1c90604401600060405180830381600087803b158015620015de57600080fd5b505af1158015620015f3573d6000803e3d6000fd5b505050507f705860a96659ef551cbecddacb064424c42677dbc3af77aade6a651082575341338484604051620005e59392919062001e00565b600054600160a060020a031633146200164457600080fd5b600160a060020a0381166200165857600080fd5b620016638162001666565b50565b60008054600160a060020a0383811673ffffffffffffffffffffffffffffffffffffffff19831681178455604051919092169283917f8be0079c531659141344cd1fd0a4f28419497f9722a3daafe3b4186f6b6457e09190a35050565b61211d806200222b83390190565b600082601f830112620016e357600080fd5b8135602067ffffffffffffffff80831115620017035762001703620021bc565b818302620017138382016200208b565b8481528381019087850183890186018a10156200172f57600080fd5b60009350835b8781101562001771578135868111156200174d578586fd5b6200175d8c89838e0101620017eb565b855250928601929086019060010162001735565b50909998505050505050505050565b80356200178d816200220d565b919050565b80356200178d816200221c565b60008083601f840112620017b257600080fd5b50813567ffffffffffffffff811115620017cb57600080fd5b602083019150836020828501011115620017e457600080fd5b9250929050565b600082601f830112620017fd57600080fd5b8135620018146200180e82620020bf565b6200208b565b8181528460208386010111156200182a57600080fd5b816020850160208301376000918101602001919091529392505050565b6000602082840312156200185a57600080fd5b81356200186781620021f7565b9392505050565b6000602082840312156200188157600080fd5b81516200186781620021f7565b600060208284031215620018a157600080fd5b815162001867816200220d565b600060208284031215620018c157600080fd5b815162001867816200221c565b600080600080600060608688031215620018e757600080fd5b853567ffffffffffffffff808211156200190057600080fd5b6200190e89838a016200179f565b909750955060208801359150808211156200192857600080fd5b5062001937888289016200179f565b96999598509660400135949350505050565b6000602082840312156200195c57600080fd5b815167ffffffffffffffff8111156200197457600080fd5b8201601f810184136200198657600080fd5b8051620019976200180e82620020bf565b818152856020838501011115620019ad57600080fd5b620019c0826020830160208601620020ea565b95945050505050565b600060208284031215620019dc57600080fd5b5035919050565b600060208284031215620019f657600080fd5b5051919050565b60008060006040848603121562001a1357600080fd5b83359250602084013567ffffffffffffffff8082111562001a3357600080fd5b818601915086601f83011262001a4857600080fd5b81358181111562001a5857600080fd5b876020808302850101111562001a6d57600080fd5b6020830194508093505050509250925092565b600080600080600080600060e0888a03121562001a9c57600080fd5b87359650602088013562001ab0816200221c565b955060408801359450606088013562001ac9816200220d565b9350608088013567ffffffffffffffff8082111562001ae757600080fd5b62001af58b838c01620017eb565b945060a08a013591508082111562001b0c57600080fd5b62001b1a8b838c01620017eb565b935060c08a013591508082111562001b3157600080fd5b5062001b408a828b01620016d1565b91505092959891949750929550565b6000806040838503121562001b6357600080fd5b82359150602083013562001b77816200221c565b809150509250929050565b6000806000806000806080878903121562001b9c57600080fd5b86359550602087013567ffffffffffffffff8082111562001bbc57600080fd5b62001bca8a838b016200179f565b9097509550604089013591508082111562001be457600080fd5b5062001bf389828a016200179f565b979a9699509497949695606090950135949350505050565b6000806040838503121562001c1f57600080fd5b50508035926020909101359150565b600080600080600080600080610100898b03121562001c4c57600080fd5b883597506020890135965062001c6560408a0162001792565b95506060890135945062001c7c60808a0162001780565b935060a089013567ffffffffffffffff8082111562001c9a57600080fd5b62001ca88c838d01620017eb565b945060c08b013591508082111562001cbf57600080fd5b62001ccd8c838d01620017eb565b935060e08b013591508082111562001ce457600080fd5b5062001cf38b828c01620016d1565b9150509295985092959890939650565b600081518084526020808501808196508284028101915082860160005b8581101562001d4e57828403895262001d3b84835162001d84565b9885019893509084019060010162001d20565b5091979650505050505050565b81835281816020850137506000828201602090810191909152601f909101601f19169091010190565b6000815180845262001d9e816020860160208601620020ea565b601f01601f19169290920160200192915050565b600160a060020a038716815260806020820152600062001dd760808301878962001d5b565b828103604084015262001dec81868862001d5b565b915050826060830152979650505050505050565b600160a060020a039390931683526020830191909152604082015260600190565b6020808252825182820181905260009190848201906040850190845b8181101562001e64578351600160a060020a03168352928401929184019160010162001e3d565b50909695505050505050565b62001e7b87620021d5565b868152856020820152841515604082015260c06060820152600062001ea460c083018662001d84565b828103608084015262001eb8818662001d84565b905082810360a084015262001ece818562001d03565b9998505050505050505050565b6020810162001eea83620021d5565b91905290565b6040810162001eff84620021d5565b9281526020015290565b60608152600062001f1f60608301878962001d5b565b828103602084015262001f3481868862001d5b565b9150508260408301529695505050505050565b60208152600062001867602083018462001d84565b6000606082018683526020600160a060020a038716818501526060604085015281858352608085019050608082870286010192508660005b878110156200200a57868503607f190183528135368a9003601e1901811262001fbc57600080fd5b8901803567ffffffffffffffff81111562001fd657600080fd5b8036038b131562001fe657600080fd5b62001ff5878288850162001d5b565b96505050918301919083019060010162001f94565b50929998505050505050505050565b8781526200202787620021d5565b866020820152856040820152841515606082015260e0608082015260006200205360e083018662001d84565b82810360a084015262002067818662001d84565b905082810360c08401526200207d818562001d03565b9a9950505050505050505050565b604051601f8201601f1916810167ffffffffffffffff81118282101715620020b757620020b7620021bc565b604052919050565b600067ffffffffffffffff821115620020dc57620020dc620021bc565b50601f01601f191660200190565b60005b8381101562002107578181015183820152602001620020ed565b8381111562002117576000848401525b50505050565b6002810460018216806200213257607f821691505b60208210811415620021575760e060020a634e487b7102600052602260045260246000fd5b50919050565b6000600019821415620021835760e060020a634e487b7102600052601160045260246000fd5b5060010190565b60e060020a634e487b7102600052602160045260246000fd5b60e060020a634e487b7102600052603260045260246000fd5b60e060020a634e487b7102600052604160045260246000fd5b60038110620016635760e060020a634e487b7102600052602160045260246000fd5b600160a060020a03811681146200166357600080fd5b80151581146200166357600080fd5b600381106200166357600080fdfe608060405260006001553480156200001657600080fd5b506040516200211d3803806200211d8339810160408190526200003991620001f3565b82516200004e90600490602086019062000096565b5081516200006490600590602085019062000096565b506006555050600c8054600160a060020a039092166101000261010060a860020a03199092169190911790556200030a565b828054620000a49062000285565b90600052602060002090601f016020900481019282620000c8576000855562000113565b82601f10620000e357805160ff191683800117855562000113565b8280016001018555821562000113579182015b8281111562000113578251825591602001919060010190620000f6565b506200012192915062000125565b5090565b5b8082111562000121576000815560010162000126565b600082601f8301126200014e57600080fd5b81516001604060020a03808211156200016b576200016b620002db565b604051601f8301601f19908116603f01168101908282118183101715620001965762000196620002db565b81604052838152602092508683858801011115620001b357600080fd5b600091505b83821015620001d75785820183015181830184015290820190620001b8565b83821115620001e95760008385830101525b9695505050505050565b600080600080608085870312156200020a57600080fd5b8451600160a060020a03811681146200022257600080fd5b60208601519094506001604060020a03808211156200024057600080fd5b6200024e888389016200013c565b945060408701519150808211156200026557600080fd5b5062000274878288016200013c565b606096909601519497939650505050565b6002810460018216806200029a57607f821691505b60208210811415620002d5577f4e487b7100000000000000000000000000000000000000000000000000000000600052602260045260246000fd5b50919050565b7f4e487b7100000000000000000000000000000000000000000000000000000000600052604160045260246000fd5b611e03806200031a6000396000f3fe608060405234801561001057600080fd5b506004361061011d576000357c010000000000000000000000000000000000000000000000000000000090048063482ff513116100b45780638e6b582f116100835780638e6b582f1461025a578063ad11c1311461026d578063d6da669e14610275578063f93bbb871461028857600080fd5b8063482ff513146101ea5780634a4cd4051461020b5780638beeef2b1461021e5780638e1a55fc1461024157600080fd5b80631eea56a3116100f05780631eea56a31461018d578063200d2ed2146101a057806331b1b978146101b357806338745a1c146101d757600080fd5b806302bc7b221461012257806302d05d3f1461013757806306fdde03146101655780631275b3bb1461017a575b600080fd5b610135610130366004611910565b61029b565b005b600c546101009004600160a060020a0316604051600160a060020a0390911681526020015b60405180910390f35b61016d6102e1565b60405161015c9190611b49565b6101356101883660046117a4565b610375565b61013561019b3660046118a3565b6104f3565b600c5460ff1660405161015c9190611b36565b6101c66101c1366004611910565b61053e565b60405161015c959493929190611ae8565b6101356101e53660046117a4565b610685565b6101fd6101f83660046117d0565b610763565b60405190815260200161015c565b6101356102193660046119cd565b6107c3565b61023161022c366004611763565b6108d3565b604051901515815260200161015c565b6102496109df565b60405161015c959493929190611b5c565b610135610268366004611910565b610b75565b6101fd610bf1565b6101fd610283366004611942565b610e8b565b610135610296366004611886565b6114c1565b600c546101009004600160a060020a031633146102b757600080fd5b600081116102c457600080fd5b600880548291906000906102d9908490611c76565b909155505050565b60048054606091906102f290611ca5565b80601f016020809104026020016040519081016040528092919081815260200182805461031e90611ca5565b801561036b5780601f106103405761010080835404028352916020019161036b565b820191906000526020600020905b81548152906001019060200180831161034e57829003601f168201915b5050505050905090565b600c546101009004600160a060020a0316331461039157600080fd5b6000811161039e57600080fd5b6040517f70a082310000000000000000000000000000000000000000000000000000000081523060048201528190600160a060020a038416906370a082319060240160206040518083038186803b1580156103f857600080fd5b505afa15801561040c573d6000803e3d6000fd5b505050506040513d601f19601f820116820180604052508101906104309190611929565b101561043b57600080fd5b6040517fa9059cbb00000000000000000000000000000000000000000000000000000000815233600482015260248101829052600160a060020a0383169063a9059cbb90604401602060405180830381600087803b15801561049c57600080fd5b505af11580156104b0573d6000803e3d6000fd5b505050506040513d601f19601f820116820180604052508101906104d49190611787565b50600780548291906000906104ea908490611c8e565b90915550505050565b600c546101009004600160a060020a0316331461050f57600080fd5b8251610522906004906020860190611504565b508151610536906005906020850190611504565b506006555050565b600060208190529081526040902080546001820154600283015460038401805460ff948516959394909216929161057490611ca5565b80601f01602080910402602001604051908101604052809291908181526020018280546105a090611ca5565b80156105ed5780601f106105c2576101008083540402835291602001916105ed565b820191906000526020600020905b8154815290600101906020018083116105d057829003601f168201915b50505050509080600401805461060290611ca5565b80601f016020809104026020016040519081016040528092919081815260200182805461062e90611ca5565b801561067b5780601f106106505761010080835404028352916020019161067b565b820191906000526020600020905b81548152906001019060200180831161065e57829003601f168201915b5050505050905085565b600c546101009004600160a060020a031633146106a157600080fd5b600081116106ae57600080fd5b6040517f23b872dd00000000000000000000000000000000000000000000000000000000815233600482015230602482015260448101829052600160a060020a038316906323b872dd90606401602060405180830381600087803b15801561071557600080fd5b505af1158015610729573d6000803e3d6000fd5b505050506040513d601f19601f8201168201806040525081019061074d9190611787565b50600780548291906000906104ea908490611c76565b600c546000906101009004600160a060020a0316331461078257600080fd5b6107936001548888888888886107c3565b600180549060006107a383611cdd565b9190505550600180546107b69190611c8e565b90505b9695505050505050565b600c546101009004600160a060020a031633146107df57600080fd5b6040518060c001604052808760028111156107fc576107fc611d31565b81526020808201889052861515604080840191909152606083018790526080830186905260a090920184905260008a8152908190522081518154829060ff1916600183600281111561085057610850611d31565b02179055506020828101516001830155604083015160028301805460ff19169115159190911790556060830151805161088f9260038501920190611504565b50608082015180516108ab916004840191602090910190611504565b5060a082015180516108c7916005840191602090910190611588565b50505050505050505050565b600160a060020a038116600090815260036020526040812054815b6001548110156109d557600081815260026020526040812080548490811061091857610918611d4a565b90600052602060002001805461092d90611ca5565b80601f016020809104026020016040519081016040528092919081815260200182805461095990611ca5565b80156109a65780601f1061097b576101008083540402835291602001916109a6565b820191906000526020600020905b81548152906001019060200180831161098957829003601f168201915b505050505090506000815111156109c257506001949350505050565b50806109cd81611cdd565b9150506108ee565b5060009392505050565b600480600001604051806060016040529081600082018054610a0090611ca5565b80601f0160208091040260200160405190810160405280929190818152602001828054610a2c90611ca5565b8015610a795780601f10610a4e57610100808354040283529160200191610a79565b820191906000526020600020905b815481529060010190602001808311610a5c57829003601f168201915b50505050508152602001600182018054610a9290611ca5565b80601f0160208091040260200160405190810160405280929190818152602001828054610abe90611ca5565b8015610b0b5780601f10610ae057610100808354040283529160200191610b0b565b820191906000526020600020905b815481529060010190602001808311610aee57829003601f168201915b50505091835250506002919091015460209182015260408051608081018252600385015481526004850154928101929092526005840154908201526006830154606082015260078301546008909301549192909160ff8116906101009004600160a060020a031685565b600c546101009004600160a060020a03163314610b9157600080fd5b60008111610b9e57600080fd5b3031811115610bac57600080fd5b6040513390819083156108fc029084906000818181858888f19350505050158015610bdb573d6000803e3d6000fd5b50600880548391906000906104ea908490611c8e565b600080805b600154811015610e8557600081815260208190526040808220815160c081019092528054829060ff166002811115610c3057610c30611d31565b6002811115610c4157610c41611d31565b815260018201546020820152600282015460ff1615156040820152600382018054606090920191610c7190611ca5565b80601f0160208091040260200160405190810160405280929190818152602001828054610c9d90611ca5565b8015610cea5780601f10610cbf57610100808354040283529160200191610cea565b820191906000526020600020905b815481529060010190602001808311610ccd57829003601f168201915b50505050508152602001600482018054610d0390611ca5565b80601f0160208091040260200160405190810160405280929190818152602001828054610d2f90611ca5565b8015610d7c5780601f10610d5157610100808354040283529160200191610d7c565b820191906000526020600020905b815481529060010190602001808311610d5f57829003601f168201915b5050505050815260200160058201805480602002602001604051908101604052809291908181526020016000905b82821015610e56578382906000526020600020018054610dc990611ca5565b80601f0160208091040260200160405190810160405280929190818152602001828054610df590611ca5565b8015610e425780601f10610e1757610100808354040283529160200191610e42565b820191906000526020600020905b815481529060010190602001808311610e2557829003601f168201915b505050505081526020019060010190610daa565b505050915250506020810151909150610e6f9084611c76565b9250508080610e7d90611cdd565b915050610bf6565b50919050565b600c546000906101009004600160a060020a0316331415610eab57600080fd5b6001600c5460ff166002811115610ec457610ec4611d31565b14610ece57600080fd5b60008060005b6001548110156111d857600081815260208190526040808220815160c081019092528054829060ff166002811115610f0e57610f0e611d31565b6002811115610f1f57610f1f611d31565b815260018201546020820152600282015460ff1615156040820152600382018054606090920191610f4f90611ca5565b80601f0160208091040260200160405190810160405280929190818152602001828054610f7b90611ca5565b8015610fc85780601f10610f9d57610100808354040283529160200191610fc8565b820191906000526020600020905b815481529060010190602001808311610fab57829003601f168201915b50505050508152602001600482018054610fe190611ca5565b80601f016020809104026020016040519081016040528092919081815260200182805461100d90611ca5565b801561105a5780601f1061102f5761010080835404028352916020019161105a565b820191906000526020600020905b81548152906001019060200180831161103d57829003601f168201915b5050505050815260200160058201805480602002602001604051908101604052809291908181526020016000905b828210156111345783829060005260206000200180546110a790611ca5565b80601f01602080910402602001604051908101604052809291908181526020018280546110d390611ca5565b80156111205780601f106110f557610100808354040283529160200191611120565b820191906000526020600020905b81548152906001019060200180831161110357829003601f168201915b505050505081526020019060010190611088565b50505050815250509050600087878481811061115257611152611d4a565b90506020028101906111649190611bf7565b8080601f01602080910402602001604051908101604052809392919081815260200183838082843760009201919091525050825192935050901590506111c35760208201516111b39086611c76565b9450836111bf81611cf8565b9450505b505080806111d090611cdd565b915050610ed4565b506001548160ff1614156111f6576006546111f39083611c76565b91505b60075482111561120557600080fd5b61120e336108d3565b1561121857600080fd5b600b54336000908152600360205260408120919091555b848110156112e457600086868381811061124b5761124b611d4a565b905060200281019061125d9190611bf7565b8080601f01602080910402602001604051908101604052809392919081815260200183838082843760009201919091525050825192935050901590506112d1576000828152600260209081526040822080546001810182559083529181902083516112cf939190910191840190611504565b505b50806112dc81611cdd565b91505061122f565b506040517fa9059cbb00000000000000000000000000000000000000000000000000000000815233600482015260248101839052600160a060020a0387169063a9059cbb90604401602060405180830381600087803b15801561134657600080fd5b505af115801561135a573d6000803e3d6000fd5b505050506040513d601f19601f8201168201806040525081019061137e9190611787565b5060078054839190600090611394908490611c8e565b9091555050600a80548391906000906113ae908490611c76565b90915550506008541561144a576008546000906113cc908990611c8e565b905087816113d957506008545b30318111611447576040513390819083156108fc029084906000818181858888f19350505050158015611410573d6000803e3d6000fd5b5060088054839190600090611426908490611c8e565b909155505060098054839190600090611440908490611c76565b9091555050505b50505b600b805490600061145a83611cdd565b9190505550611467610bf1565b60075410156114b757600c805460ff191660029081179091556040517f0162568b2de8418ff706fde39b1c8a9fd0cb82ab9b14fdaa9c2e0860105e1fca916114ae91611b36565b60405180910390a15b5095945050505050565b600c546101009004600160a060020a031633146114dd57600080fd5b600c805482919060ff191660018360028111156114fc576114fc611d31565b021790555050565b82805461151090611ca5565b90600052602060002090601f0160209004810192826115325760008555611578565b82601f1061154b57805160ff1916838001178555611578565b82800160010185558215611578579182015b8281111561157857825182559160200191906001019061155d565b506115849291506115e1565b5090565b8280548282559060005260206000209081019282156115d5579160200282015b828111156115d557825180516115c5918491602090910190611504565b50916020019190600101906115a8565b506115849291506115f6565b5b8082111561158457600081556001016115e2565b8082111561158457600061160a8282611613565b506001016115f6565b50805461161f90611ca5565b6000825580601f1061162f575050565b601f01602090049060005260206000209081019061164d91906115e1565b50565b600082601f83011261166157600080fd5b8135602067ffffffffffffffff8083111561167e5761167e611d63565b81830261168c838201611c45565b8481528381019087850183890186018a10156116a757600080fd5b60009350835b878110156116e4578135868111156116c3578586fd5b6116d18c89838e01016116f3565b85525092860192908601906001016116ad565b50909998505050505050505050565b600082601f83011261170457600080fd5b813567ffffffffffffffff81111561171e5761171e611d63565b611731601f8201601f1916602001611c45565b81815284602083860101111561174657600080fd5b816020850160208301376000918101602001919091529392505050565b60006020828403121561177557600080fd5b813561178081611d9d565b9392505050565b60006020828403121561179957600080fd5b815161178081611db2565b600080604083850312156117b757600080fd5b82356117c281611d9d565b946020939093013593505050565b60008060008060008060c087890312156117e957600080fd5b86356117f481611dc0565b955060208701359450604087013561180b81611db2565b9350606087013567ffffffffffffffff8082111561182857600080fd5b6118348a838b016116f3565b9450608089013591508082111561184a57600080fd5b6118568a838b016116f3565b935060a089013591508082111561186c57600080fd5b5061187989828a01611650565b9150509295509295509295565b60006020828403121561189857600080fd5b813561178081611dc0565b6000806000606084860312156118b857600080fd5b833567ffffffffffffffff808211156118d057600080fd5b6118dc878388016116f3565b945060208601359150808211156118f257600080fd5b506118ff868287016116f3565b925050604084013590509250925092565b60006020828403121561192257600080fd5b5035919050565b60006020828403121561193b57600080fd5b5051919050565b6000806000806060858703121561195857600080fd5b84359350602085013561196a81611d9d565b9250604085013567ffffffffffffffff8082111561198757600080fd5b818701915087601f83011261199b57600080fd5b8135818111156119aa57600080fd5b88602080830285010111156119be57600080fd5b95989497505060200194505050565b600080600080600080600060e0888a0312156119e857600080fd5b8735965060208801356119fa81611dc0565b9550604088013594506060880135611a1181611db2565b9350608088013567ffffffffffffffff80821115611a2e57600080fd5b611a3a8b838c016116f3565b945060a08a0135915080821115611a5057600080fd5b611a5c8b838c016116f3565b935060c08a0135915080821115611a7257600080fd5b50611a7f8a828b01611650565b91505092959891949750929550565b611a9781611d7c565b9052565b6000815180845260005b81811015611ac157602081850181015186830182015201611aa5565b81811115611ad3576000602083870101525b50601f01601f19169290920160200192915050565b611af186611d7c565b858152846020820152831515604082015260a060608201526000611b1860a0830185611a9b565b8281036080840152611b2a8185611a9b565b98975050505050505050565b60208101611b4383611d7c565b91905290565b6020815260006117806020830184611a9b565b60006101008083528751606082850152611b7a610160850182611a9b565b915050602088015160ff1984830301610120850152611b998282611a9b565b915050604088015161014084015280915050855160208301526020860151604083015260408601516060830152606086015160808301528460a0830152611be360c0830185611a8e565b600160a060020a03831660e08301526107b9565b6000808335601e19843603018112611c0e57600080fd5b83018035915067ffffffffffffffff821115611c2957600080fd5b602001915036819003821315611c3e57600080fd5b9250929050565b604051601f8201601f1916810167ffffffffffffffff81118282101715611c6e57611c6e611d63565b604052919050565b60008219821115611c8957611c89611d18565b500190565b600082821015611ca057611ca0611d18565b500390565b600281046001821680611cb957607f821691505b60208210811415610e855760e060020a634e487b7102600052602260045260246000fd5b6000600019821415611cf157611cf1611d18565b5060010190565b600060ff821660ff811415611d0f57611d0f611d18565b60010192915050565b60e060020a634e487b7102600052601160045260246000fd5b60e060020a634e487b7102600052602160045260246000fd5b60e060020a634e487b7102600052603260045260246000fd5b60e060020a634e487b7102600052604160045260246000fd5b6003811061164d5760e060020a634e487b7102600052602160045260246000fd5b600160a060020a038116811461164d57600080fd5b801515811461164d57600080fd5b6003811061164d57600080fdfea2646970667358221220bd54a7af6e30527e060a9a3763b8de7932f3032b60eb307c95f30bf2db1d7b3f64736f6c63430008070033a2646970667358221220278886dba4eaf6ce526dd0bb9fdfb54f80106496b10fcf2975ed9e5a627ce1a664736f6c63430008070033",
  "immutableReferences": {},
  "source": "// SPDX-License-Identifier: MIT\npragma experimental ABIEncoderV2;\npragma solidity >=0.8.0;\n\n/*\nSurvana\n----------------------\n1. A owner can add a creator to add survies\n2. A creator can create a survey that has unlimited questions.\n3. A question can be one of the following types of questions\n\t- A mulitple choice\n\t- Text\n\t- Rate\n4. Each question will be assigned an amount of tokens that can be earned for completed it\n5. They can mark a question as required or optional (defaulted)\n6. The creator has to fill the liquidity pool for that survey with tokens to be distrubted to people\n7. There can be an extra bonus for completing the whole survey (which the creator can define how much that is)\n8. The creator can stop the survey at anytime. (will stop clients who are on it currently).\n9. Once the contract determines the survey cannot fulfill another disbrusment of funds, it will auto close it. (will stop clients)\n10. A client can only do a survey once\n11. When survey has started, the questions cannot be changed.\n*/\n\nimport \"./Survey.sol\";\nimport \"./Ownable.sol\";\nimport \"./Token.sol\";\nimport \"./SurveyInterface.sol\";\n\ncontract Survana is Ownable, SurveyInterface {\n  string public name = \"Survana\";\n  mapping (address => bool) creators;\n  Token public token;\n  mapping (uint => address) public surveys;\n  uint surveyCount = 0;\n\n  //TODO\n  //UNIT TESTS\n\n  constructor(Token _token) public {\n    token = _token;\n  }\n  \n  modifier isCreator() {\n    require(creators[msg.sender] == true);\n    _;\n  }\n\n  event AddedCreator(\n    address indexed _creator\n  );\n\n  event RemovedCreator(\n    address indexed _creator\n  );\n\n  event DepositedTokensToPool(\n    address _creator,\n    uint _surveyId,\n    uint _amount\n  );\n\n  event DepositedGasToPool(\n    address _creator,\n    uint _surveyId,\n    uint _amount\n  );\n\n  event WithdrawFromTokenPool(\n    address _creator,\n    uint _surveyId,\n    uint _amount\n  );\n\n  event WithdrawFromGasPool(\n    address _creator,\n    uint _surveyId,\n    uint _amount\n  );\n\n  event SurveyCreated(\n    address indexed _creator,\n    address indexed _newContract,\n    uint _surveyId\n  );\n\n  event SurveyUpdated(\n    address indexed _creator,\n    address indexed _contract,\n    uint _surveyId\n  );\n\n  event SurveySubmited(\n    address indexed _user,\n    uint _surveyId,\n    uint _tokensAwarded\n  );\n\n  event QuestionAdded(\n    address indexed _creator,\n    address indexed _contract,\n    uint _surveyId,\n    uint _questionId\n  );\n\n  event QuestionUpdated(\n    address indexed _creator,\n    address indexed _contract,\n    uint _surveyId,\n    uint _questionId\n  );\n\n  event SurveyStatusChanged(\n    Status _status,\n    uint _id\n  );\n\n  event TokenChanged(\n    Token _token\n  );\n\n  function addCreator(address _addr) external onlyOwner {\n    creators[_addr] = true;\n    emit AddedCreator(_addr);\n  }\n\n  function removeCreator(address _addr) external onlyOwner {\n    creators[_addr] = false;\n    emit RemovedCreator(_addr);\n  }\n\n  function depositToSurveyTokenPool(uint _id, uint _amount) external isCreator {\n    require(_amount > 0);\n    Survey s = Survey(surveys[_id]);\n    require(bytes(s.name()).length > 0);\n    s.depositToSurveyTokenPool(token, _amount);\n    emit DepositedTokensToPool(msg.sender, _id, _amount);\n  }\n\n  function depositToSurveyGasPool(uint _id) external isCreator payable {\n    require(msg.value > 0);\n    Survey s = Survey(surveys[_id]);\n    address payable _addr = payable(surveys[_id]);\n    _addr.transfer(msg.value);\n    s.depositToSurveyGasPool(msg.value);\n    emit DepositedGasToPool(msg.sender, _id, msg.value);\n  }\n\n  function withdrawFromTokenPool(uint _id, uint _amount) external isCreator {\n    require(_amount > 0);\n    Survey s = Survey(surveys[_id]);\n    s.withdrawFromTokenPool(token, _amount);\n    emit WithdrawFromTokenPool(msg.sender, _id, _amount);\n  }\n\n  function withdrawFromGasPool(uint _id, uint _amount) external isCreator {\n    require(_amount > 0);\n    Survey s = Survey(surveys[_id]);\n    s.withdrawFromGasPool(_amount);\n    emit WithdrawFromGasPool(msg.sender, _id, _amount);\n  }\n\n  function createSurvey(\n    string calldata _name,\n    string calldata _description,\n    uint _bonusAmount\n  ) external isCreator {\n    Survey s = new Survey(msg.sender, _name, _description, _bonusAmount);\n    address newContract = address(s);\n    surveys[surveyCount] = newContract;\n    emit SurveyCreated(msg.sender, newContract, surveyCount);\n    surveyCount++;\n  }\n\n  function updateSurvey(\n    uint _id,\n    string calldata _name,\n    string calldata _description,\n    uint _bonusAmount\n  ) external isCreator {\n    Survey s = Survey(surveys[_id]);\n    s.updateSurvey(_name, _description, _bonusAmount);\n    emit SurveyUpdated(msg.sender, address(s), _id);\n  }\n\n  function addQuestion(\n    uint _id,\n    QuestionType _qtypes,\n    uint _worth,\n    bool _required,\n    string memory _title,\n    string memory _qdescription,\n    string[] memory _choices\n  ) public  isCreator {\n    Survey s = Survey(surveys[_id]);\n    uint qid = s.addQuestion(_qtypes, _worth, _required, _title, _qdescription, _choices);\n    emit QuestionAdded(msg.sender, address(s), _id, qid);\n  }\n\n  function updateQuestion(\n    uint _id,\n    uint _qid,\n    QuestionType _qtypes,\n    uint _worth,\n    bool _required,\n    string memory _title,\n    string memory _qdescription,\n    string[] memory _choices\n  ) public isCreator {\n    Survey s = Survey(surveys[_id]);\n    s.updateQuestion(_qid, _qtypes, _worth, _required, _title, _qdescription, _choices);\n    emit QuestionUpdated(msg.sender, address(s), _id, _qid);\n  }\n\n  function setSurveyStatus(uint _id, Status _status) external isCreator {\n    Survey s = Survey(surveys[_id]);\n    s.setSurveyStatus(_status);\n    emit SurveyStatusChanged(_status, _id);\n  }\n\n\n  function submitSurvey(\n    uint _id,\n    string[] calldata _answers\n  ) external {\n    uint gas = gasleft();\n    Survey s = Survey(surveys[_id]);\n    uint reward = s.submitSurvey(gas, token, _answers);\n    emit SurveySubmited(msg.sender, _id, reward);\n  }\n\n  function getCreatorSurveys() external view returns (Survey[] memory) {\n    require(creators[msg.sender] == true);\n    Survey[] memory _tmp;\n    uint count = 0;\n    for (uint256 index = 0; index < surveyCount; index++) {\n      Survey s = Survey(surveys[index]);\n      if (s.creator() == msg.sender) {\n        _tmp[count] = s;\n        count++;\n      }\n    }\n    return _tmp;\n  }\n\n  function getOpenSurveys() external view returns (Survey[] memory) {\n    Survey[] memory _tmp;\n    uint count = 0;\n    for (uint256 index = 0; index < surveyCount; index++) {\n      Survey s = Survey(surveys[index]);\n      if (s.status() == Status.OPEN && s.creator() != msg.sender) {\n        _tmp[count] = s;\n        count++;\n      }\n    }\n    return _tmp;\n  }\n\n  function getUserFinishedSurveys() external view returns (Survey[] memory) {\n    Survey[] memory _tmp;\n    uint count = 0;\n    for (uint256 index = 0; index < surveyCount; index++) {\n      Survey s = Survey(surveys[index]);\n      if (s.status() == Status.FINISHED && s.didUserTakeSurvey(msg.sender)) {\n        _tmp[count] = s;\n        count++;\n      }\n    }\n    return _tmp;\n  }\n\n  function setToken(Token _token) external onlyOwner {\n    token = _token;\n    emit TokenChanged(_token);\n  }\n}\n",
  "sourcePath": "/home/scott/projects/survana/contracts/Survana.sol",
  "compiler": {
    "name": "solc",
    "version": "0.8.7+commit.e28d00a7.Emscripten.clang"
  },
  "schemaVersion": "3.4.3",
  "updatedAt": "2021-09-03T04:56:16.080Z",
  "networkType": "ethereum",
  "devdoc": {
    "kind": "dev",
    "methods": {},
    "version": 1
  },
  "userdoc": {
    "kind": "user",
    "methods": {},
    "version": 1
  }
}