{
  "contractName": "Survana",
  "abi": [
    {
      "inputs": [
        {
          "internalType": "contract Token",
          "name": "_token",
          "type": "address"
        }
      ],
      "stateMutability": "nonpayable",
      "type": "constructor"
    },
    {
      "anonymous": false,
      "inputs": [
        {
          "indexed": true,
          "internalType": "address",
          "name": "_creator",
          "type": "address"
        }
      ],
      "name": "AddedCreator",
      "type": "event"
    },
    {
      "anonymous": false,
      "inputs": [
        {
          "indexed": false,
          "internalType": "address",
          "name": "_creator",
          "type": "address"
        },
        {
          "indexed": false,
          "internalType": "uint256",
          "name": "_surveyId",
          "type": "uint256"
        },
        {
          "indexed": false,
          "internalType": "uint256",
          "name": "_amount",
          "type": "uint256"
        }
      ],
      "name": "DepositedGasToPool",
      "type": "event"
    },
    {
      "anonymous": false,
      "inputs": [
        {
          "indexed": false,
          "internalType": "address",
          "name": "_creator",
          "type": "address"
        },
        {
          "indexed": false,
          "internalType": "uint256",
          "name": "_surveyId",
          "type": "uint256"
        },
        {
          "indexed": false,
          "internalType": "uint256",
          "name": "_amount",
          "type": "uint256"
        }
      ],
      "name": "DepositedTokensToPool",
      "type": "event"
    },
    {
      "anonymous": false,
      "inputs": [
        {
          "indexed": true,
          "internalType": "address",
          "name": "oldOwner",
          "type": "address"
        },
        {
          "indexed": true,
          "internalType": "address",
          "name": "newOwner",
          "type": "address"
        }
      ],
      "name": "OwnershipTransferred",
      "type": "event"
    },
    {
      "anonymous": false,
      "inputs": [
        {
          "indexed": true,
          "internalType": "address",
          "name": "_creator",
          "type": "address"
        },
        {
          "indexed": true,
          "internalType": "address",
          "name": "_contract",
          "type": "address"
        },
        {
          "indexed": false,
          "internalType": "uint256",
          "name": "_surveyId",
          "type": "uint256"
        },
        {
          "indexed": false,
          "internalType": "uint256",
          "name": "_questionId",
          "type": "uint256"
        }
      ],
      "name": "QuestionAdded",
      "type": "event"
    },
    {
      "anonymous": false,
      "inputs": [
        {
          "indexed": true,
          "internalType": "address",
          "name": "_creator",
          "type": "address"
        },
        {
          "indexed": true,
          "internalType": "address",
          "name": "_contract",
          "type": "address"
        },
        {
          "indexed": false,
          "internalType": "uint256",
          "name": "_surveyId",
          "type": "uint256"
        },
        {
          "indexed": false,
          "internalType": "uint256",
          "name": "_questionId",
          "type": "uint256"
        }
      ],
      "name": "QuestionUpdated",
      "type": "event"
    },
    {
      "anonymous": false,
      "inputs": [
        {
          "indexed": true,
          "internalType": "address",
          "name": "_creator",
          "type": "address"
        }
      ],
      "name": "RemovedCreator",
      "type": "event"
    },
    {
      "anonymous": false,
      "inputs": [
        {
          "indexed": true,
          "internalType": "address",
          "name": "_creator",
          "type": "address"
        },
        {
          "indexed": true,
          "internalType": "address",
          "name": "_newContract",
          "type": "address"
        },
        {
          "indexed": false,
          "internalType": "uint256",
          "name": "_surveyId",
          "type": "uint256"
        }
      ],
      "name": "SurveyCreated",
      "type": "event"
    },
    {
      "anonymous": false,
      "inputs": [
        {
          "indexed": false,
          "internalType": "enum SurveyInterface.Status",
          "name": "_status",
          "type": "uint8"
        },
        {
          "indexed": false,
          "internalType": "uint256",
          "name": "_id",
          "type": "uint256"
        }
      ],
      "name": "SurveyStatusChanged",
      "type": "event"
    },
    {
      "anonymous": false,
      "inputs": [
        {
          "indexed": true,
          "internalType": "address",
          "name": "_user",
          "type": "address"
        },
        {
          "indexed": false,
          "internalType": "uint256",
          "name": "_surveyId",
          "type": "uint256"
        },
        {
          "indexed": false,
          "internalType": "uint256",
          "name": "_tokensAwarded",
          "type": "uint256"
        }
      ],
      "name": "SurveySubmited",
      "type": "event"
    },
    {
      "anonymous": false,
      "inputs": [
        {
          "indexed": true,
          "internalType": "address",
          "name": "_creator",
          "type": "address"
        },
        {
          "indexed": true,
          "internalType": "address",
          "name": "_contract",
          "type": "address"
        },
        {
          "indexed": false,
          "internalType": "uint256",
          "name": "_surveyId",
          "type": "uint256"
        }
      ],
      "name": "SurveyUpdated",
      "type": "event"
    },
    {
      "anonymous": false,
      "inputs": [
        {
          "indexed": false,
          "internalType": "address",
          "name": "_creator",
          "type": "address"
        },
        {
          "indexed": false,
          "internalType": "uint256",
          "name": "_surveyId",
          "type": "uint256"
        },
        {
          "indexed": false,
          "internalType": "uint256",
          "name": "_amount",
          "type": "uint256"
        }
      ],
      "name": "WithdrawFromGasPool",
      "type": "event"
    },
    {
      "anonymous": false,
      "inputs": [
        {
          "indexed": false,
          "internalType": "address",
          "name": "_creator",
          "type": "address"
        },
        {
          "indexed": false,
          "internalType": "uint256",
          "name": "_surveyId",
          "type": "uint256"
        },
        {
          "indexed": false,
          "internalType": "uint256",
          "name": "_amount",
          "type": "uint256"
        }
      ],
      "name": "WithdrawFromTokenPool",
      "type": "event"
    },
    {
      "inputs": [
        {
          "internalType": "address",
          "name": "",
          "type": "address"
        }
      ],
      "name": "creatorSurveyCount",
      "outputs": [
        {
          "internalType": "uint256",
          "name": "",
          "type": "uint256"
        }
      ],
      "stateMutability": "view",
      "type": "function",
      "constant": true
    },
    {
      "inputs": [
        {
          "internalType": "address",
          "name": "",
          "type": "address"
        }
      ],
      "name": "creators",
      "outputs": [
        {
          "internalType": "bool",
          "name": "",
          "type": "bool"
        }
      ],
      "stateMutability": "view",
      "type": "function",
      "constant": true
    },
    {
      "inputs": [],
      "name": "isOwner",
      "outputs": [
        {
          "internalType": "bool",
          "name": "",
          "type": "bool"
        }
      ],
      "stateMutability": "view",
      "type": "function",
      "constant": true
    },
    {
      "inputs": [],
      "name": "name",
      "outputs": [
        {
          "internalType": "string",
          "name": "",
          "type": "string"
        }
      ],
      "stateMutability": "view",
      "type": "function",
      "constant": true
    },
    {
      "inputs": [],
      "name": "owner",
      "outputs": [
        {
          "internalType": "address",
          "name": "",
          "type": "address"
        }
      ],
      "stateMutability": "view",
      "type": "function",
      "constant": true
    },
    {
      "inputs": [],
      "name": "renounceOwnership",
      "outputs": [],
      "stateMutability": "nonpayable",
      "type": "function"
    },
    {
      "inputs": [
        {
          "internalType": "enum SurveyInterface.Status",
          "name": "",
          "type": "uint8"
        }
      ],
      "name": "statusCounts",
      "outputs": [
        {
          "internalType": "uint256",
          "name": "",
          "type": "uint256"
        }
      ],
      "stateMutability": "view",
      "type": "function",
      "constant": true
    },
    {
      "inputs": [],
      "name": "surveyCount",
      "outputs": [
        {
          "internalType": "uint256",
          "name": "",
          "type": "uint256"
        }
      ],
      "stateMutability": "view",
      "type": "function",
      "constant": true
    },
    {
      "inputs": [
        {
          "internalType": "uint256",
          "name": "",
          "type": "uint256"
        }
      ],
      "name": "surveys",
      "outputs": [
        {
          "internalType": "address",
          "name": "",
          "type": "address"
        }
      ],
      "stateMutability": "view",
      "type": "function",
      "constant": true
    },
    {
      "inputs": [],
      "name": "token",
      "outputs": [
        {
          "internalType": "contract Token",
          "name": "",
          "type": "address"
        }
      ],
      "stateMutability": "view",
      "type": "function",
      "constant": true
    },
    {
      "inputs": [
        {
          "internalType": "address",
          "name": "_newOwner",
          "type": "address"
        }
      ],
      "name": "transferOwnership",
      "outputs": [],
      "stateMutability": "nonpayable",
      "type": "function"
    },
    {
      "inputs": [
        {
          "internalType": "address",
          "name": "_addr",
          "type": "address"
        }
      ],
      "name": "addCreator",
      "outputs": [],
      "stateMutability": "nonpayable",
      "type": "function"
    },
    {
      "inputs": [
        {
          "internalType": "address",
          "name": "_addr",
          "type": "address"
        }
      ],
      "name": "removeCreator",
      "outputs": [],
      "stateMutability": "nonpayable",
      "type": "function"
    },
    {
      "inputs": [
        {
          "internalType": "uint256",
          "name": "_id",
          "type": "uint256"
        },
        {
          "internalType": "uint256",
          "name": "_amount",
          "type": "uint256"
        }
      ],
      "name": "depositToSurveyTokenPool",
      "outputs": [],
      "stateMutability": "nonpayable",
      "type": "function"
    },
    {
      "inputs": [
        {
          "internalType": "uint256",
          "name": "_id",
          "type": "uint256"
        }
      ],
      "name": "depositToSurveyGasPool",
      "outputs": [],
      "stateMutability": "payable",
      "type": "function",
      "payable": true
    },
    {
      "inputs": [
        {
          "internalType": "uint256",
          "name": "_id",
          "type": "uint256"
        },
        {
          "internalType": "uint256",
          "name": "_amount",
          "type": "uint256"
        }
      ],
      "name": "withdrawFromTokenPool",
      "outputs": [],
      "stateMutability": "nonpayable",
      "type": "function"
    },
    {
      "inputs": [
        {
          "internalType": "uint256",
          "name": "_id",
          "type": "uint256"
        },
        {
          "internalType": "uint256",
          "name": "_amount",
          "type": "uint256"
        }
      ],
      "name": "withdrawFromGasPool",
      "outputs": [],
      "stateMutability": "nonpayable",
      "type": "function"
    },
    {
      "inputs": [
        {
          "internalType": "string",
          "name": "_name",
          "type": "string"
        },
        {
          "internalType": "string",
          "name": "_description",
          "type": "string"
        },
        {
          "internalType": "uint256",
          "name": "_bonusAmount",
          "type": "uint256"
        }
      ],
      "name": "createSurvey",
      "outputs": [],
      "stateMutability": "nonpayable",
      "type": "function"
    },
    {
      "inputs": [
        {
          "internalType": "uint256",
          "name": "_id",
          "type": "uint256"
        },
        {
          "internalType": "string",
          "name": "_name",
          "type": "string"
        },
        {
          "internalType": "string",
          "name": "_description",
          "type": "string"
        },
        {
          "internalType": "uint256",
          "name": "_bonusAmount",
          "type": "uint256"
        }
      ],
      "name": "updateSurvey",
      "outputs": [],
      "stateMutability": "nonpayable",
      "type": "function"
    },
    {
      "inputs": [
        {
          "internalType": "uint256",
          "name": "_id",
          "type": "uint256"
        },
        {
          "internalType": "enum SurveyInterface.QuestionType",
          "name": "_qtypes",
          "type": "uint8"
        },
        {
          "internalType": "uint256",
          "name": "_worth",
          "type": "uint256"
        },
        {
          "internalType": "bool",
          "name": "_required",
          "type": "bool"
        },
        {
          "internalType": "string",
          "name": "_title",
          "type": "string"
        },
        {
          "internalType": "string",
          "name": "_qdescription",
          "type": "string"
        },
        {
          "internalType": "string[]",
          "name": "_choices",
          "type": "string[]"
        }
      ],
      "name": "addQuestion",
      "outputs": [],
      "stateMutability": "nonpayable",
      "type": "function"
    },
    {
      "inputs": [
        {
          "internalType": "uint256",
          "name": "_id",
          "type": "uint256"
        },
        {
          "internalType": "uint256",
          "name": "_qid",
          "type": "uint256"
        },
        {
          "internalType": "enum SurveyInterface.QuestionType",
          "name": "_qtypes",
          "type": "uint8"
        },
        {
          "internalType": "uint256",
          "name": "_worth",
          "type": "uint256"
        },
        {
          "internalType": "bool",
          "name": "_required",
          "type": "bool"
        },
        {
          "internalType": "string",
          "name": "_title",
          "type": "string"
        },
        {
          "internalType": "string",
          "name": "_qdescription",
          "type": "string"
        },
        {
          "internalType": "string[]",
          "name": "_choices",
          "type": "string[]"
        }
      ],
      "name": "updateQuestion",
      "outputs": [],
      "stateMutability": "nonpayable",
      "type": "function"
    },
    {
      "inputs": [
        {
          "internalType": "uint256",
          "name": "_id",
          "type": "uint256"
        },
        {
          "internalType": "enum SurveyInterface.Status",
          "name": "_status",
          "type": "uint8"
        }
      ],
      "name": "setSurveyStatus",
      "outputs": [],
      "stateMutability": "nonpayable",
      "type": "function"
    },
    {
      "inputs": [
        {
          "internalType": "uint256",
          "name": "_id",
          "type": "uint256"
        },
        {
          "internalType": "string[]",
          "name": "_answers",
          "type": "string[]"
        }
      ],
      "name": "submitSurvey",
      "outputs": [],
      "stateMutability": "nonpayable",
      "type": "function"
    },
    {
      "inputs": [],
      "name": "getCreatorSurveys",
      "outputs": [
        {
          "components": [
            {
              "internalType": "uint256",
              "name": "id",
              "type": "uint256"
            },
            {
              "internalType": "address",
              "name": "addr",
              "type": "address"
            },
            {
              "internalType": "uint256",
              "name": "worth",
              "type": "uint256"
            },
            {
              "internalType": "uint256",
              "name": "bonusAmount",
              "type": "uint256"
            },
            {
              "internalType": "string",
              "name": "name",
              "type": "string"
            },
            {
              "internalType": "string",
              "name": "description",
              "type": "string"
            },
            {
              "internalType": "enum SurveyInterface.Status",
              "name": "status",
              "type": "uint8"
            },
            {
              "internalType": "uint256",
              "name": "taken",
              "type": "uint256"
            },
            {
              "internalType": "uint256",
              "name": "gasLeft",
              "type": "uint256"
            },
            {
              "internalType": "uint256",
              "name": "tokensLeft",
              "type": "uint256"
            },
            {
              "internalType": "uint256",
              "name": "questionCount",
              "type": "uint256"
            }
          ],
          "internalType": "struct SurveyInterface.SurveyOverview[]",
          "name": "",
          "type": "tuple[]"
        }
      ],
      "stateMutability": "view",
      "type": "function",
      "constant": true
    },
    {
      "inputs": [],
      "name": "getOpenSurveys",
      "outputs": [
        {
          "components": [
            {
              "internalType": "uint256",
              "name": "id",
              "type": "uint256"
            },
            {
              "internalType": "address",
              "name": "addr",
              "type": "address"
            },
            {
              "internalType": "uint256",
              "name": "worth",
              "type": "uint256"
            },
            {
              "internalType": "uint256",
              "name": "bonusAmount",
              "type": "uint256"
            },
            {
              "internalType": "string",
              "name": "name",
              "type": "string"
            },
            {
              "internalType": "string",
              "name": "description",
              "type": "string"
            },
            {
              "internalType": "enum SurveyInterface.Status",
              "name": "status",
              "type": "uint8"
            },
            {
              "internalType": "uint256",
              "name": "taken",
              "type": "uint256"
            },
            {
              "internalType": "uint256",
              "name": "gasLeft",
              "type": "uint256"
            },
            {
              "internalType": "uint256",
              "name": "tokensLeft",
              "type": "uint256"
            },
            {
              "internalType": "uint256",
              "name": "questionCount",
              "type": "uint256"
            }
          ],
          "internalType": "struct SurveyInterface.SurveyOverview[]",
          "name": "",
          "type": "tuple[]"
        }
      ],
      "stateMutability": "view",
      "type": "function",
      "constant": true
    },
    {
      "inputs": [],
      "name": "getUserFinishedSurveys",
      "outputs": [
        {
          "components": [
            {
              "internalType": "uint256",
              "name": "id",
              "type": "uint256"
            },
            {
              "internalType": "address",
              "name": "addr",
              "type": "address"
            },
            {
              "internalType": "uint256",
              "name": "worth",
              "type": "uint256"
            },
            {
              "internalType": "uint256",
              "name": "bonusAmount",
              "type": "uint256"
            },
            {
              "internalType": "string",
              "name": "name",
              "type": "string"
            },
            {
              "internalType": "string",
              "name": "description",
              "type": "string"
            },
            {
              "internalType": "enum SurveyInterface.Status",
              "name": "status",
              "type": "uint8"
            },
            {
              "internalType": "uint256",
              "name": "taken",
              "type": "uint256"
            },
            {
              "internalType": "uint256",
              "name": "gasLeft",
              "type": "uint256"
            },
            {
              "internalType": "uint256",
              "name": "tokensLeft",
              "type": "uint256"
            },
            {
              "internalType": "uint256",
              "name": "questionCount",
              "type": "uint256"
            }
          ],
          "internalType": "struct SurveyInterface.SurveyOverview[]",
          "name": "",
          "type": "tuple[]"
        }
      ],
      "stateMutability": "view",
      "type": "function",
      "constant": true
    },
    {
      "inputs": [
        {
          "internalType": "contract Token",
          "name": "_token",
          "type": "address"
        }
      ],
      "name": "setToken",
      "outputs": [],
      "stateMutability": "nonpayable",
      "type": "function"
    }
  ],
  "bytecode": "0x60c0604052600760808190527f53757276616e610000000000000000000000000000000000000000000000000060a0908152620000409160019190620000aa565b5060006005553480156200005357600080fd5b506040516200605a3803806200605a833981016040819052620000769162000150565b6000805433600160a060020a03199182161790915560038054909116600160a060020a0392909216919091179055620001d8565b828054620000b89062000182565b90600052602060002090601f016020900481019282620000dc576000855562000127565b82601f10620000f757805160ff191683800117855562000127565b8280016001018555821562000127579182015b82811115620001275782518255916020019190600101906200010a565b506200013592915062000139565b5090565b5b808211156200013557600081556001016200013a565b6000602082840312156200016357600080fd5b8151600160a060020a03811681146200017b57600080fd5b9392505050565b6002810460018216806200019757607f821691505b60208210811415620001d2577f4e487b7100000000000000000000000000000000000000000000000000000000600052602260045260246000fd5b50919050565b615e7280620001e86000396000f3fe608060405260043610620001c25760003560e060020a900480638960e26d1162000103578063bc4004291162000099578063d9ff498b1162000070578063d9ff498b146200055e578063e804f4c01462000583578063f2fde38b146200059b578063fc0c546a14620005c057600080fd5b8063bc40042914620004ef578063bd6018bb1462000514578063cbb18175146200053957600080fd5b80638e896d4f11620000da5780638e896d4f14620004435780638f32d59b1462000468578063933166e11462000496578063ae738a3114620004ca57600080fd5b80638960e26d14620003e45780638ba04e3d14620003fc5780638da5cb5b146200042157600080fd5b806356463fc711620001795780636fcbd60f11620001505780636fcbd60f146200033c578063715018a6146200035457806371edf4d6146200036c57806386e68b90146200039157600080fd5b806356463fc714620002c15780635b49efdf14620002e65780636f9ef639146200030b57600080fd5b806302bc7b2214620001c757806306fdde0314620001e0578063144fa6d7146200021057806320c8641714620002355780633577656614620002755780633b9dce05146200029c575b600080fd5b620001de620001d8366004620022c2565b620005e2565b005b348015620001ed57600080fd5b50620001f862000741565b60405162000207919062002900565b60405180910390f35b3480156200021d57600080fd5b50620001de6200022f36600462002059565b620007d7565b3480156200024257600080fd5b506200026662000254366004620020c0565b60066020526000908152604090205481565b60405190815260200162000207565b3480156200028257600080fd5b506200028d6200081e565b60405162000207919062002729565b348015620002a957600080fd5b50620001de620002bb36600462002059565b62000860565b348015620002ce57600080fd5b50620001de620002e036600462002527565b620008ac565b348015620002f357600080fd5b50620001de6200030536600462002100565b620009d2565b3480156200031857600080fd5b50620002666200032a36600462002059565b60076020526000908152604090205481565b3480156200034957600080fd5b506200028d62000b4d565b3480156200036157600080fd5b50620001de62000b6f565b3480156200037957600080fd5b50620001de6200038b366004620022f6565b62000b95565b3480156200039e57600080fd5b50620003cb620003b0366004620022c2565b600460205260009081526040902054600160a060020a031681565b604051600160a060020a03909116815260200162000207565b348015620003f157600080fd5b506200028d62000ee6565b3480156200040957600080fd5b50620001de6200041b36600462002504565b62000efb565b3480156200042e57600080fd5b50600054620003cb90600160a060020a031681565b3480156200045057600080fd5b50620001de620004623660046200247b565b62001026565b3480156200047557600080fd5b50600054600160a060020a031633145b604051901515815260200162000207565b348015620004a357600080fd5b5062000485620004b536600462002059565b60026020526000908152604090205460ff1681565b348015620004d757600080fd5b50620001de620004e936600462002379565b6200113f565b348015620004fc57600080fd5b50620001de6200050e36600462002448565b6200127a565b3480156200052157600080fd5b50620001de6200053336600462002059565b620014be565b3480156200054657600080fd5b50620001de6200055836600462002504565b6200151f565b3480156200056b57600080fd5b50620001de6200057d36600462002504565b6200164c565b3480156200059057600080fd5b506200026660055481565b348015620005a857600080fd5b50620001de620005ba36600462002059565b62001883565b348015620005cd57600080fd5b50600354620003cb90600160a060020a031681565b3360009081526002602052604090205460ff161515600114620006255760405160e560020a62461bcd0281526004016200061c9062002915565b60405180910390fd5b600034116200067a5760405160e560020a62461bcd02815260206004820152601560248201527f56616c7565206e6565647320746f206265203e2030000000000000000000000060448201526064016200061c565b60008181526004602081905260408083205481517f31767ffd0000000000000000000000000000000000000000000000000000000081529151600160a060020a039091169384936331767ffd9334938183019392909182900301818588803b158015620006e657600080fd5b505af1158015620006fb573d6000803e3d6000fd5b50505050507f823696ac0f9b333e2316140757e4b02249983e6b5cfa8c752f738c7376a04b1c338334604051620007359392919062002708565b60405180910390a15050565b60018054620007509062002bb1565b80601f01602080910402602001604051908101604052809291908181526020018280546200077e9062002bb1565b8015620007cf5780601f10620007a357610100808354040283529160200191620007cf565b820191906000526020600020905b815481529060010190602001808311620007b157829003601f168201915b505050505081565b600054600160a060020a03163314620007ef57600080fd5b6003805473ffffffffffffffffffffffffffffffffffffffff1916600160a060020a0392909216919091179055565b6001600081815260066020527f3e5fec24aa4dc4e5aee2e025e51e1392c72a2500577559fae9665c6d52bd6a31546060926200085b9280620018bd565b905090565b600160a060020a038116600081815260026020526040808220805460ff19166001179055517fde01ac6896c5b1bb768b9f622140a44faf53b6e47809bee039be206a1f88fce69190a250565b3360009081526002602052604090205460ff161515600114620008e65760405160e560020a62461bcd0281526004016200061c9062002915565b6000888152600460208190526040918290205491517f4a4cd405000000000000000000000000000000000000000000000000000000008152600160a060020a03909216918291634a4cd405916200094c918c918c918c918c918c918c918c910162002a66565b600060405180830381600087803b1580156200096757600080fd5b505af11580156200097c573d6000803e3d6000fd5b5050604080518c8152602081018c9052600160a060020a03851693503392507ffd73297d870e9cb2f853ac5534c549035a865c9694cd022fb8e4dc8cd8bb78ab91015b60405180910390a3505050505050505050565b3360009081526002602052604090205460ff16151560011462000a0c5760405160e560020a62461bcd0281526004016200061c9062002915565b600033868686868660405162000a229062001df8565b62000a3396959493929190620026ba565b604051809103906000f08015801562000a50573d6000803e3d6000fd5b5060055460009081526004602090815260408220805473ffffffffffffffffffffffffffffffffffffffff1916600160a060020a038516179055818052600690527f54cdd369e4e8a8515e52ca72ec816c2101831ad1f18bf44102ed171459c9b4f8805492935083929162000ac58362002bf1565b919050555080600160a060020a031633600160a060020a03167f814c0a58b6d977676546cfd22e430d3fa3e288403ba1eeb335bdd8973eec958460055460405162000b1291815260200190565b60405180910390a36005805490600062000b2c8362002bf1565b90915550506005543360009081526007602052604090205550505050505050565b336000908152600760205260408120546060916200085b9190806001620018bd565b600054600160a060020a0316331462000b8757600080fd5b62000b93600062001d9b565b565b6005548310801562000ba5575060015b62000bf65760405160e560020a62461bcd02815260206004820152600d60248201527f4944206d7573742065786973740000000000000000000000000000000000000060448201526064016200061c565b60005a60008581526004602081815260408084205481517f200d2ed20000000000000000000000000000000000000000000000000000000081529151959650600160a060020a031694859363200d2ed2938382019390929190829003018186803b15801562000c6457600080fd5b505afa15801562000c79573d6000803e3d6000fd5b505050506040513d601f19601f8201168201806040525081019062000c9f9190620020e0565b6003546040517fd6da669e000000000000000000000000000000000000000000000000000000008152919250600091600160a060020a038086169263d6da669e9262000cf692899216908b908b90600401620029a9565b602060405180830381600087803b15801562000d1157600080fd5b505af115801562000d26573d6000803e3d6000fd5b505050506040513d601f19601f8201168201806040525081019062000d4c9190620022dc565b9050600083600160a060020a031663200d2ed26040518163ffffffff1660e060020a02815260040160206040518083038186803b15801562000d8d57600080fd5b505afa15801562000da2573d6000803e3d6000fd5b505050506040513d601f19601f8201168201806040525081019062000dc89190620020e0565b905082600281111562000ddf5762000ddf62002c28565b81600281111562000df45762000df462002c28565b1462000ea1576006600084600281111562000e135762000e1362002c28565b600281111562000e275762000e2762002c28565b8152602001908152602001600020600081548092919062000e489062002b97565b91905055506006600082600281111562000e665762000e6662002c28565b600281111562000e7a5762000e7a62002c28565b8152602001908152602001600020600081548092919062000e9b9062002bf1565b91905055505b604080518981526020810184905233917f6d1baacba6a9e34b8f24ff8b6928204ae3b3b0897a5dcc6c3ee892f23702aa4c910160405180910390a25050505050505050565b60606200085b600554600060016000620018bd565b3360009081526002602052604090205460ff16151560011462000f355760405160e560020a62461bcd0281526004016200061c9062002915565b6000811162000f5b5760405160e560020a62461bcd0281526004016200061c906200294c565b6000828152600460208190526040918290205491517f8e6b582f000000000000000000000000000000000000000000000000000000008152908101839052600160a060020a03909116908190638e6b582f90602401600060405180830381600087803b15801562000fcb57600080fd5b505af115801562000fe0573d6000803e3d6000fd5b505050507fd394af405f853a90ae990fcbd40afd423bf6057c6a694c2ffa9e5a19cf551ba6338484604051620010199392919062002708565b60405180910390a1505050565b3360009081526002602052604090205460ff161515600114620010605760405160e560020a62461bcd0281526004016200061c9062002915565b6000868152600460208190526040918290205491517f1eea56a3000000000000000000000000000000000000000000000000000000008152600160a060020a03909216918291631eea56a391620010c2918a918a918a918a918a9101620028c2565b600060405180830381600087803b158015620010dd57600080fd5b505af1158015620010f2573d6000803e3d6000fd5b5050604051898152600160a060020a03841692503391507f12c056ebad7c44ab7bced3a029dafd20eedf8789050c2030926b61229e2058ca9060200160405180910390a350505050505050565b3360009081526002602052604090205460ff161515600114620011795760405160e560020a62461bcd0281526004016200061c9062002915565b60008781526004602081905260408083205490517f482ff513000000000000000000000000000000000000000000000000000000008152600160a060020a039091169291839163482ff51391620011dd918c918c918c918c918c918c910162002829565b602060405180830381600087803b158015620011f857600080fd5b505af11580156200120d573d6000803e3d6000fd5b505050506040513d601f19601f82011682018060405250810190620012339190620022dc565b604080518b815260208101839052919250600160a060020a0384169133917f5975fc3a6be87625dad6832daa4821eb33c5a675b313a78d11eb8de595ba1f469101620009bf565b3360009081526002602052604090205460ff161515600114620012b45760405160e560020a62461bcd0281526004016200061c9062002915565b60008281526004602081815260408084205481517f200d2ed20000000000000000000000000000000000000000000000000000000081529151600160a060020a039091169493859363200d2ed29380830193919290829003018186803b1580156200131e57600080fd5b505afa15801562001333573d6000803e3d6000fd5b505050506040513d601f19601f82011682018060405250810190620013599190620020e0565b6040517ff93bbb87000000000000000000000000000000000000000000000000000000008152909150600160a060020a0383169063f93bbb8790620013a390869060040162002894565b600060405180830381600087803b158015620013be57600080fd5b505af1158015620013d3573d6000803e3d6000fd5b5050505060066000826002811115620013f057620013f062002c28565b600281111562001404576200140462002c28565b81526020019081526020016000206000815480929190620014259062002b97565b91905055506006600084600281111562001443576200144362002c28565b600281111562001457576200145762002c28565b81526020019081526020016000206000815480929190620014789062002bf1565b91905055507fd2a617db2388e82e6e520aa417ab5d836a7aaa85ce1792b5dab75c4d8860edea8385604051620014b0929190620028a9565b60405180910390a150505050565b600054600160a060020a03163314620014d657600080fd5b600160a060020a038116600081815260026020526040808220805460ff19169055517fc9f999728340f25e1001a7e2414500afb6a11e8f53d5b86c14302417bd50892e9190a250565b3360009081526002602052604090205460ff161515600114620015595760405160e560020a62461bcd0281526004016200061c9062002915565b600081116200157f5760405160e560020a62461bcd0281526004016200061c906200294c565b6000828152600460208190526040918290205460035492517f1275b3bb000000000000000000000000000000000000000000000000000000008152600160a060020a03938416928101929092526024820184905291909116908190631275b3bb90604401600060405180830381600087803b158015620015fe57600080fd5b505af115801562001613573d6000803e3d6000fd5b505050507fadab12bef87c4260212d908fba3f1627ba11a973ea59d67fbc8dfddaa7422787338484604051620010199392919062002708565b3360009081526002602052604090205460ff161515600114620016865760405160e560020a62461bcd0281526004016200061c9062002915565b60008111620016ac5760405160e560020a62461bcd0281526004016200061c906200294c565b60008281526004602081905260408083205481517f06fdde030000000000000000000000000000000000000000000000000000000081529151600160a060020a03909116939284926306fdde0392818301928692829003018186803b1580156200171557600080fd5b505afa1580156200172a573d6000803e3d6000fd5b505050506040513d6000823e601f3d908101601f191682016040526200175491908101906200217b565b5111620017cd5760405160e560020a62461bcd02815260206004820152602e60248201527f4c656e677468206f6620737472696e67206e6565647320746f2062652067726560448201527f61746572207468616e207a65726f00000000000000000000000000000000000060648201526084016200061c565b6003546040517f38745a1c000000000000000000000000000000000000000000000000000000008152600160a060020a03918216600482015260248101849052908216906338745a1c90604401600060405180830381600087803b1580156200183557600080fd5b505af11580156200184a573d6000803e3d6000fd5b505050507f705860a96659ef551cbecddacb064424c42677dbc3af77aade6a651082575341338484604051620010199392919062002708565b600054600160a060020a031633146200189b57600080fd5b600160a060020a038116620018af57600080fd5b620018ba8162001d9b565b50565b606060008567ffffffffffffffff811115620018dd57620018dd62002c5a565b6040519080825280602002602001820160405280156200191a57816020015b6200190662001e06565b815260200190600190039081620018fc5790505b5090506000805b60055481101562001cbb57600081815260046020526040812054600160a060020a03169088158062001a7d5750888015620019e75750600182600160a060020a031663200d2ed26040518163ffffffff1660e060020a02815260040160206040518083038186803b1580156200199657600080fd5b505afa158015620019ab573d6000803e3d6000fd5b505050506040513d601f19601f82011682018060405250810190620019d19190620020e0565b6002811115620019e557620019e562002c28565b145b801562001a7d575033600160a060020a031682600160a060020a03166302d05d3f6040518163ffffffff1660e060020a02815260040160206040518083038186803b15801562001a3657600080fd5b505afa15801562001a4b573d6000803e3d6000fd5b505050506040513d601f19601f8201168201806040525081019062001a71919062002080565b600160a060020a031614155b9050600088158062001b27575088801562001b2757506040517f8beeef2b000000000000000000000000000000000000000000000000000000008152336004820152600160a060020a03841690638beeef2b9060240160206040518083038186803b15801562001aec57600080fd5b505afa15801562001b01573d6000803e3d6000fd5b505050506040513d601f19601f8201168201806040525081019062001b279190620020a0565b9050600088158062001bca575088801562001bca575033600160a060020a031684600160a060020a03166302d05d3f6040518163ffffffff1660e060020a02815260040160206040518083038186803b15801562001b8457600080fd5b505afa15801562001b99573d6000803e3d6000fd5b505050506040513d601f19601f8201168201806040525081019062001bbf919062002080565b600160a060020a0316145b905082801562001bd75750815b801562001be15750805b1562001ca157600084600160a060020a03166320443e8d6040518163ffffffff1660e060020a02815260040160006040518083038186803b15801562001c2657600080fd5b505afa15801562001c3b573d6000803e3d6000fd5b505050506040513d6000823e601f3d908101601f1916820160405262001c659190810190620021b4565b8681528851909150819089908990811062001c845762001c8462002c41565b6020026020010181905250868062001c9c9062002bf1565b975050505b50505050808062001cb29062002bf1565b91505062001921565b50808251111562001d8f5760008167ffffffffffffffff81111562001ce45762001ce462002c5a565b60405190808252806020026020018201604052801562001d2157816020015b62001d0d62001e06565b81526020019060019003908162001d035790505b50905060005b8281101562001d835783818151811062001d455762001d4562002c41565b602002602001015182828151811062001d625762001d6262002c41565b6020026020010181905250808062001d7a9062002bf1565b91505062001d27565b50925062001d93915050565b5090505b949350505050565b60008054600160a060020a0383811673ffffffffffffffffffffffffffffffffffffffff19831681178455604051919092169283917f8be0079c531659141344cd1fd0a4f28419497f9722a3daafe3b4186f6b6457e09190a35050565b6131748062002cc983390190565b604051806101600160405280600081526020016000600160a060020a03168152602001600081526020016000815260200160608152602001606081526020016000600281111562001e5b5762001e5b62002c28565b8152602001600081526020016000815260200160008152602001600081525090565b805162001e8a8162002c95565b919050565b600082601f83011262001ea157600080fd5b8135602067ffffffffffffffff8083111562001ec15762001ec162002c5a565b81830262001ed183820162002b05565b8481528381019087850183890186018a101562001eed57600080fd5b60009350835b8781101562001f2f5781358681111562001f0b578586fd5b62001f1b8c89838e010162001fb1565b855250928601929086019060010162001ef3565b50909998505050505050505050565b803562001e8a8162002cab565b803562001e8a8162002cba565b805162001e8a8162002cba565b60008083601f84011262001f7857600080fd5b50813567ffffffffffffffff81111562001f9157600080fd5b60208301915083602082850101111562001faa57600080fd5b9250929050565b600082601f83011262001fc357600080fd5b813562001fda62001fd48262002b39565b62002b05565b81815284602083860101111562001ff057600080fd5b816020850160208301376000918101602001919091529392505050565b600082601f8301126200201f57600080fd5b81516200203062001fd48262002b39565b8181528460208386010111156200204657600080fd5b62001d9382602083016020870162002b64565b6000602082840312156200206c57600080fd5b8135620020798162002c95565b9392505050565b6000602082840312156200209357600080fd5b8151620020798162002c95565b600060208284031215620020b357600080fd5b8151620020798162002cab565b600060208284031215620020d357600080fd5b8135620020798162002cba565b600060208284031215620020f357600080fd5b8151620020798162002cba565b6000806000806000606086880312156200211957600080fd5b853567ffffffffffffffff808211156200213257600080fd5b6200214089838a0162001f65565b909750955060208801359150808211156200215a57600080fd5b50620021698882890162001f65565b96999598509660400135949350505050565b6000602082840312156200218e57600080fd5b815167ffffffffffffffff811115620021a657600080fd5b62001d93848285016200200d565b600060208284031215620021c757600080fd5b815167ffffffffffffffff80821115620021e057600080fd5b908301906101608286031215620021f657600080fd5b6200220062002ad8565b82518152620022126020840162001e7d565b602082015260408301516040820152606083015160608201526080830151828111156200223e57600080fd5b6200224c878286016200200d565b60808301525060a0830151828111156200226557600080fd5b62002273878286016200200d565b60a0830152506200228760c0840162001f58565b60c082015260e08381015190820152610100808401519082015261012080840151908201526101409283015192810192909252509392505050565b600060208284031215620022d557600080fd5b5035919050565b600060208284031215620022ef57600080fd5b5051919050565b6000806000604084860312156200230c57600080fd5b83359250602084013567ffffffffffffffff808211156200232c57600080fd5b818601915086601f8301126200234157600080fd5b8135818111156200235157600080fd5b87602080830285010111156200236657600080fd5b6020830194508093505050509250925092565b600080600080600080600060e0888a0312156200239557600080fd5b873596506020880135620023a98162002cba565b9550604088013594506060880135620023c28162002cab565b9350608088013567ffffffffffffffff80821115620023e057600080fd5b620023ee8b838c0162001fb1565b945060a08a01359150808211156200240557600080fd5b620024138b838c0162001fb1565b935060c08a01359150808211156200242a57600080fd5b50620024398a828b0162001e8f565b91505092959891949750929550565b600080604083850312156200245c57600080fd5b823591506020830135620024708162002cba565b809150509250929050565b600080600080600080608087890312156200249557600080fd5b86359550602087013567ffffffffffffffff80821115620024b557600080fd5b620024c38a838b0162001f65565b90975095506040890135915080821115620024dd57600080fd5b50620024ec89828a0162001f65565b979a9699509497949695606090950135949350505050565b600080604083850312156200251857600080fd5b50508035926020909101359150565b600080600080600080600080610100898b0312156200254557600080fd5b88359750602089013596506200255e60408a0162001f4b565b9550606089013594506200257560808a0162001f3e565b935060a089013567ffffffffffffffff808211156200259357600080fd5b620025a18c838d0162001fb1565b945060c08b0135915080821115620025b857600080fd5b620025c68c838d0162001fb1565b935060e08b0135915080821115620025dd57600080fd5b50620025ec8b828c0162001e8f565b9150509295985092959890939650565b600081518084526020808501808196508284028101915082860160005b8581101562002647578284038952620026348483516200268c565b9885019893509084019060010162002619565b5091979650505050505050565b6200265f8162002c73565b9052565b81835281816020850137506000828201602090810191909152601f909101601f19169091010190565b60008151808452620026a681602086016020860162002b64565b601f01601f19169290920160200192915050565b600160a060020a0387168152608060208201526000620026df60808301878962002663565b8281036040840152620026f481868862002663565b915050826060830152979650505050505050565b600160a060020a039390931683526020830191909152604082015260600190565b60208082528251828201819052600091906040908185019080840286018301878501865b838110156200281b57603f1989840301855281518051845287810151600160a060020a0316888501528681015187850152606080820151908501526080808201516101608287018190529190620027a7838801826200268c565b9250505060a08083015186830382880152620027c483826200268c565b9250505060c080830151620027dc8288018262002654565b505060e082810151908601526101008083015190860152610120808301519086015261014091820151919094015293860193908601906001016200274d565b509098975050505050505050565b620028348762002c73565b868152856020820152841515604082015260c0606082015260006200285d60c08301866200268c565b82810360808401526200287181866200268c565b905082810360a0840152620028878185620025fc565b9998505050505050505050565b60208101620028a38362002c73565b91905290565b60408101620028b88462002c73565b9281526020015290565b606081526000620028d860608301878962002663565b8281036020840152620028ed81868862002663565b9150508260408301529695505050505050565b6020815260006200207960208301846200268c565b6020808252600f908201527f4d7573742062652063726561746f720000000000000000000000000000000000604082015260600190565b60208082526022908201527f616d6f756e742068617320746f2062652067726561746572207468616e207a6560408201527f726f000000000000000000000000000000000000000000000000000000000000606082015260800190565b6000606082018683526020600160a060020a038716818501526060604085015281858352608085019050608082870286010192508660005b8781101562002a5757868503607f190183528135368a9003601e1901811262002a0957600080fd5b8901803567ffffffffffffffff81111562002a2357600080fd5b8036038b131562002a3357600080fd5b62002a42878288850162002663565b965050509183019190830190600101620029e1565b50929998505050505050505050565b87815262002a748762002c73565b866020820152856040820152841515606082015260e06080820152600062002aa060e08301866200268c565b82810360a084015262002ab481866200268c565b905082810360c084015262002aca8185620025fc565b9a9950505050505050505050565b604051610160810167ffffffffffffffff8111828210171562002aff5762002aff62002c5a565b60405290565b604051601f8201601f1916810167ffffffffffffffff8111828210171562002b315762002b3162002c5a565b604052919050565b600067ffffffffffffffff82111562002b565762002b5662002c5a565b50601f01601f191660200190565b60005b8381101562002b8157818101518382015260200162002b67565b8381111562002b91576000848401525b50505050565b60008162002ba95762002ba962002c0f565b506000190190565b60028104600182168062002bc657607f821691505b6020821081141562002beb5760e060020a634e487b7102600052602260045260246000fd5b50919050565b600060001982141562002c085762002c0862002c0f565b5060010190565b60e060020a634e487b7102600052601160045260246000fd5b60e060020a634e487b7102600052602160045260246000fd5b60e060020a634e487b7102600052603260045260246000fd5b60e060020a634e487b7102600052604160045260246000fd5b60038110620018ba5760e060020a634e487b7102600052602160045260246000fd5b600160a060020a0381168114620018ba57600080fd5b8015158114620018ba57600080fd5b60038110620018ba57600080fdfe608060405260006001553480156200001657600080fd5b5060405162003174380380620031748339810160408190526200003991620001f3565b82516200004e90600490602086019062000096565b5081516200006490600590602085019062000096565b506006555050600c8054600160a060020a039092166101000261010060a860020a03199092169190911790556200030a565b828054620000a49062000285565b90600052602060002090601f016020900481019282620000c8576000855562000113565b82601f10620000e357805160ff191683800117855562000113565b8280016001018555821562000113579182015b8281111562000113578251825591602001919060010190620000f6565b506200012192915062000125565b5090565b5b8082111562000121576000815560010162000126565b600082601f8301126200014e57600080fd5b81516001604060020a03808211156200016b576200016b620002db565b604051601f8301601f19908116603f01168101908282118183101715620001965762000196620002db565b81604052838152602092508683858801011115620001b357600080fd5b600091505b83821015620001d75785820183015181830184015290820190620001b8565b83821115620001e95760008385830101525b9695505050505050565b600080600080608085870312156200020a57600080fd5b8451600160a060020a03811681146200022257600080fd5b60208601519094506001604060020a03808211156200024057600080fd5b6200024e888389016200013c565b945060408701519150808211156200026557600080fd5b5062000274878288016200013c565b606096909601519497939650505050565b6002810460018216806200029a57607f821691505b60208210811415620002d5577f4e487b7100000000000000000000000000000000000000000000000000000000600052602260045260246000fd5b50919050565b7f4e487b7100000000000000000000000000000000000000000000000000000000600052604160045260246000fd5b612e5a806200031a6000396000f3fe608060405260043610610168576000357c010000000000000000000000000000000000000000000000000000000090048063370158ea116100d35780638e6b582f1161008c5780638e6b582f146103fb57806397221ab71461041b578063abadaf9a1461043d578063ad11c13114610452578063d6da669e14610467578063f93bbb871461048757600080fd5b8063370158ea1461032357806338745a1c14610345578063482ff513146103655780634a4cd405146103855780638beeef2b146103a55780638e1a55fc146103d557600080fd5b80631eea56a3116101255780631eea56a314610268578063200d2ed21461028857806320443e8d146102a85780632401519c146102ca57806331767ffd146102ea57806331b1b978146102f257600080fd5b806302d05d3f1461016d57806306fdde03146101a857806312065fe0146101ca5780631275b3bb146101e85780631468aa2c1461020a57806316f0115b14610220575b600080fd5b34801561017957600080fd5b50600c546101009004600160a060020a0316604051600160a060020a0390911681526020015b60405180910390f35b3480156101b457600080fd5b506101bd6104a7565b60405161019f91906129a2565b3480156101d657600080fd5b5030315b60405190815260200161019f565b3480156101f457600080fd5b5061020861020336600461248a565b61053b565b005b34801561021657600080fd5b506101da60015481565b34801561022c57600080fd5b50610235610704565b60405161019f91908151815260208083015190820152604080830151908201526060918201519181019190915260800190565b34801561027457600080fd5b50610208610283366004612589565b61075c565b34801561029457600080fd5b50600c5460ff1660405161019f919061298f565b3480156102b457600080fd5b506102bd6107f6565b60405161019f9190612b89565b3480156102d657600080fd5b506101bd6102e5366004612774565b610997565b610208610a50565b3480156102fe57600080fd5b5061031261030d3660046125f6565b610ac1565b60405161019f959493929190612941565b34801561032f57600080fd5b50610338610c08565b60405161019f9190612b03565b34801561035157600080fd5b5061020861036036600461248a565b610d6b565b34801561037157600080fd5b506101da6103803660046124b6565b610e75565b34801561039157600080fd5b506102086103a03660046126b3565b610f22565b3480156103b157600080fd5b506103c56103c0366004612449565b611081565b604051901515815260200161019f565b3480156103e157600080fd5b506103ea6110b2565b60405161019f959493929190612b16565b34801561040757600080fd5b506102086104163660046125f6565b611248565b34801561042757600080fd5b50610430611306565b60405161019f9190612835565b34801561044957600080fd5b506006546101da565b34801561045e57600080fd5b506101da611637565b34801561047357600080fd5b506101da610482366004612628565b6118cb565b34801561049357600080fd5b506102086104a236600461256c565b61211d565b60048054606091906104b890612cfc565b80601f01602080910402602001604051908101604052809291908181526020018280546104e490612cfc565b80156105315780601f1061050657610100808354040283529160200191610531565b820191906000526020600020905b81548152906001019060200180831161051457829003601f168201915b5050505050905090565b600c546101009004600160a060020a031632146105765760405160e560020a62461bcd02815260040161056d906129ec565b60405180910390fd5b600081116105995760405160e560020a62461bcd02815260040161056d90612aa6565b6040517f70a082310000000000000000000000000000000000000000000000000000000081523060048201528190600160a060020a038416906370a082319060240160206040518083038186803b1580156105f357600080fd5b505afa158015610607573d6000803e3d6000fd5b505050506040513d601f19601f8201168201806040525081019061062b919061260f565b101561064c5760405160e560020a62461bcd02815260040161056d90612a49565b6040517fa9059cbb00000000000000000000000000000000000000000000000000000000815232600482015260248101829052600160a060020a0383169063a9059cbb90604401602060405180830381600087803b1580156106ad57600080fd5b505af11580156106c1573d6000803e3d6000fd5b505050506040513d601f19601f820116820180604052508101906106e5919061246d565b50600780548291906000906106fb908490612ce5565b90915550505050565b61072f6040518060800160405280600081526020016000815260200160008152602001600081525090565b50604080516080810182526007548152600854602082015260095491810191909152600a54606082015290565b600c546101009004600160a060020a0316321461078e5760405160e560020a62461bcd02815260040161056d906129ec565b6000600c5460ff1660028111156107a7576107a7612d88565b146107c75760405160e560020a62461bcd02815260040161056d906129b5565b82516107da906004906020860190612176565b5081516107ee906005906020850190612176565b506006555050565b6107fe6121fa565b60408051610160810182526000815230602082015290810161081e611637565b815260065460208201526004805460409092019161083b90612cfc565b80601f016020809104026020016040519081016040528092919081815260200182805461086790612cfc565b80156108b45780601f10610889576101008083540402835291602001916108b4565b820191906000526020600020905b81548152906001019060200180831161089757829003601f168201915b50505050508152602001600460000160010180546108d190612cfc565b80601f01602080910402602001604051908101604052809291908181526020018280546108fd90612cfc565b801561094a5780601f1061091f5761010080835404028352916020019161094a565b820191906000526020600020905b81548152906001019060200180831161092d57829003601f168201915b5050509183525050600c5460209091019060ff16600281111561096f5761096f612d88565b8152600b54602082015260085460408201526007546060820152600154608090910152919050565b600260205281600052604060002081815481106109b357600080fd5b906000526020600020016000915091505080546109cf90612cfc565b80601f01602080910402602001604051908101604052809291908181526020018280546109fb90612cfc565b8015610a485780601f10610a1d57610100808354040283529160200191610a48565b820191906000526020600020905b815481529060010190602001808311610a2b57829003601f168201915b505050505081565b600c546101009004600160a060020a03163214610a825760405160e560020a62461bcd02815260040161056d906129ec565b60003411610aa55760405160e560020a62461bcd02815260040161056d90612aa6565b60088054349190600090610aba908490612ccd565b9091555050565b600060208190529081526040902080546001820154600283015460038401805460ff9485169593949092169291610af790612cfc565b80601f0160208091040260200160405190810160405280929190818152602001828054610b2390612cfc565b8015610b705780601f10610b4557610100808354040283529160200191610b70565b820191906000526020600020905b815481529060010190602001808311610b5357829003601f168201915b505050505090806004018054610b8590612cfc565b80601f0160208091040260200160405190810160405280929190818152602001828054610bb190612cfc565b8015610bfe5780601f10610bd357610100808354040283529160200191610bfe565b820191906000526020600020905b815481529060010190602001808311610be157829003601f168201915b5050505050905085565b610c2c60405180606001604052806060815260200160608152602001600081525090565b60408051606081019091526004805482908290610c4890612cfc565b80601f0160208091040260200160405190810160405280929190818152602001828054610c7490612cfc565b8015610cc15780601f10610c9657610100808354040283529160200191610cc1565b820191906000526020600020905b815481529060010190602001808311610ca457829003601f168201915b50505050508152602001600182018054610cda90612cfc565b80601f0160208091040260200160405190810160405280929190818152602001828054610d0690612cfc565b8015610d535780601f10610d2857610100808354040283529160200191610d53565b820191906000526020600020905b815481529060010190602001808311610d3657829003601f168201915b50505050508152602001600282015481525050905090565b600c546101009004600160a060020a03163214610d9d5760405160e560020a62461bcd02815260040161056d906129ec565b60008111610dc05760405160e560020a62461bcd02815260040161056d90612aa6565b6040517f23b872dd00000000000000000000000000000000000000000000000000000000815232600482015230602482015260448101829052600160a060020a038316906323b872dd90606401602060405180830381600087803b158015610e2757600080fd5b505af1158015610e3b573d6000803e3d6000fd5b505050506040513d601f19601f82011682018060405250810190610e5f919061246d565b50600780548291906000906106fb908490612ccd565b600c546000906101009004600160a060020a03163214610eaa5760405160e560020a62461bcd02815260040161056d906129ec565b6000600c5460ff166002811115610ec357610ec3612d88565b14610ee35760405160e560020a62461bcd02815260040161056d906129b5565b610ef4600154888888888888610f22565b60018054906000610f0483612d34565b919050555060018054610f179190612ce5565b979650505050505050565b600c546101009004600160a060020a03163214610f545760405160e560020a62461bcd02815260040161056d906129ec565b6000600c5460ff166002811115610f6d57610f6d612d88565b14610f8d5760405160e560020a62461bcd02815260040161056d906129b5565b6040518060c00160405280876002811115610faa57610faa612d88565b81526020808201889052861515604080840191909152606083018790526080830186905260a090920184905260008a8152908190522081518154829060ff19166001836002811115610ffe57610ffe612d88565b02179055506020828101516001830155604083015160028301805460ff19169115159190911790556060830151805161103d9260038501920190612176565b5060808201518051611059916004840191602090910190612176565b5060a0820151805161107591600584019160209091019061226e565b50505050505050505050565b600160a060020a03811660009081526003602052604081205480156110a95750600192915050565b50600092915050565b6004806000016040518060600160405290816000820180546110d390612cfc565b80601f01602080910402602001604051908101604052809291908181526020018280546110ff90612cfc565b801561114c5780601f106111215761010080835404028352916020019161114c565b820191906000526020600020905b81548152906001019060200180831161112f57829003601f168201915b5050505050815260200160018201805461116590612cfc565b80601f016020809104026020016040519081016040528092919081815260200182805461119190612cfc565b80156111de5780601f106111b3576101008083540402835291602001916111de565b820191906000526020600020905b8154815290600101906020018083116111c157829003601f168201915b50505091835250506002919091015460209182015260408051608081018252600385015481526004850154928101929092526005840154908201526006830154606082015260078301546008909301549192909160ff8116906101009004600160a060020a031685565b600c546101009004600160a060020a0316321461127a5760405160e560020a62461bcd02815260040161056d906129ec565b6000811161129d5760405160e560020a62461bcd02815260040161056d90612aa6565b30318111156112c15760405160e560020a62461bcd02815260040161056d90612a49565b6040513290819083156108fc029084906000818181858888f193505050501580156112f0573d6000803e3d6000fd5b50600880548391906000906106fb908490612ce5565b6060600060015467ffffffffffffffff81111561132557611325612dba565b60405190808252806020026020018201604052801561139257816020015b61137f6040805160c081019091528060008152602001600081526020016000151581526020016060815260200160608152602001606081525090565b8152602001906001900390816113435790505b50905060005b6001548110156116315760008181526020819052604090819020815160c081019092528054829060ff1660028111156113d3576113d3612d88565b60028111156113e4576113e4612d88565b815260018201546020820152600282015460ff161515604082015260038201805460609092019161141490612cfc565b80601f016020809104026020016040519081016040528092919081815260200182805461144090612cfc565b801561148d5780601f106114625761010080835404028352916020019161148d565b820191906000526020600020905b81548152906001019060200180831161147057829003601f168201915b505050505081526020016004820180546114a690612cfc565b80601f01602080910402602001604051908101604052809291908181526020018280546114d290612cfc565b801561151f5780601f106114f45761010080835404028352916020019161151f565b820191906000526020600020905b81548152906001019060200180831161150257829003601f168201915b5050505050815260200160058201805480602002602001604051908101604052809291908181526020016000905b828210156115f957838290600052602060002001805461156c90612cfc565b80601f016020809104026020016040519081016040528092919081815260200182805461159890612cfc565b80156115e55780601f106115ba576101008083540402835291602001916115e5565b820191906000526020600020905b8154815290600101906020018083116115c857829003601f168201915b50505050508152602001906001019061154d565b505050508152505082828151811061161357611613612da1565b6020026020010181905250808061162990612d34565b915050611398565b50919050565b600080805b60015481101561163157600081815260208190526040808220815160c081019092528054829060ff16600281111561167657611676612d88565b600281111561168757611687612d88565b815260018201546020820152600282015460ff16151560408201526003820180546060909201916116b790612cfc565b80601f01602080910402602001604051908101604052809291908181526020018280546116e390612cfc565b80156117305780601f1061170557610100808354040283529160200191611730565b820191906000526020600020905b81548152906001019060200180831161171357829003601f168201915b5050505050815260200160048201805461174990612cfc565b80601f016020809104026020016040519081016040528092919081815260200182805461177590612cfc565b80156117c25780601f10611797576101008083540402835291602001916117c2565b820191906000526020600020905b8154815290600101906020018083116117a557829003601f168201915b5050505050815260200160058201805480602002602001604051908101604052809291908181526020016000905b8282101561189c57838290600052602060002001805461180f90612cfc565b80601f016020809104026020016040519081016040528092919081815260200182805461183b90612cfc565b80156118885780601f1061185d57610100808354040283529160200191611888565b820191906000526020600020905b81548152906001019060200180831161186b57829003601f168201915b5050505050815260200190600101906117f0565b5050509152505060208101519091506118b59084612ccd565b92505080806118c390612d34565b91505061163c565b60015460009082146119485760405160e560020a62461bcd02815260206004820152603a60248201527f416e7377657220737472696e6720617272617920646f6573206e6f74206d617460448201527f636820746865206c656e677468206f66207175657374696f6e73000000000000606482015260840161056d565b61195132611081565b156119a15760405160e560020a62461bcd02815260206004820152601760248201527f416c726561647920746f6f6b2074686520737572766579000000000000000000604482015260640161056d565b600c546101009004600160a060020a0316321415611a045760405160e560020a62461bcd02815260206004820152601e60248201527f43726561746f722063616e6e6f742074616b6520746865207375727665790000604482015260640161056d565b6001600c5460ff166002811115611a1d57611a1d612d88565b14611a6d5760405160e560020a62461bcd02815260206004820152601260248201527f537572766579206973206e6f74206f70656e0000000000000000000000000000604482015260640161056d565b60008060005b600154811015611dd057600081815260208190526040808220815160c081019092528054829060ff166002811115611aad57611aad612d88565b6002811115611abe57611abe612d88565b815260018201546020820152600282015460ff1615156040820152600382018054606090920191611aee90612cfc565b80601f0160208091040260200160405190810160405280929190818152602001828054611b1a90612cfc565b8015611b675780601f10611b3c57610100808354040283529160200191611b67565b820191906000526020600020905b815481529060010190602001808311611b4a57829003601f168201915b50505050508152602001600482018054611b8090612cfc565b80601f0160208091040260200160405190810160405280929190818152602001828054611bac90612cfc565b8015611bf95780601f10611bce57610100808354040283529160200191611bf9565b820191906000526020600020905b815481529060010190602001808311611bdc57829003601f168201915b5050505050815260200160058201805480602002602001604051908101604052809291908181526020016000905b82821015611cd3578382906000526020600020018054611c4690612cfc565b80601f0160208091040260200160405190810160405280929190818152602001828054611c7290612cfc565b8015611cbf5780601f10611c9457610100808354040283529160200191611cbf565b820191906000526020600020905b815481529060010190602001808311611ca257829003601f168201915b505050505081526020019060010190611c27565b505050508152505090506000878784818110611cf157611cf1612da1565b9050602002810190611d039190612c4e565b8080601f0160208091040260200160405190810160405280939291908181526020018383808284376000920191909152505082519293505090159050611d66576020820151611d529086612ccd565b945083611d5e81612d4f565b945050611dbb565b816040015115611dbb5760405160e560020a62461bcd02815260206004820181905260248201527f5265717569726564207175657374696f6e206e6f742066696c6c6564206f7574604482015260640161056d565b50508080611dc890612d34565b915050611a73565b506001548160ff161415611dee57600654611deb9083612ccd565b91505b600754821115611e695760405160e560020a62461bcd02815260206004820152603160248201527f4e6f7420656e6f7567682072657761726420746f20676976652c2063616e636560448201527f6c6c696e67207375626d697373696f6e2e000000000000000000000000000000606482015260840161056d565b600b54611e77906001612ccd565b326000908152600360205260408120919091555b84811015611f40576000868683818110611ea757611ea7612da1565b9050602002810190611eb99190612c4e565b8080601f0160208091040260200160405190810160405280939291908181526020018383808284376000920191909152505082519293505090159050611f2d57600082815260026020908152604082208054600181018255908352918190208351611f2b939190910191840190612176565b505b5080611f3881612d34565b915050611e8b565b506040517fa9059cbb00000000000000000000000000000000000000000000000000000000815232600482015260248101839052600160a060020a0387169063a9059cbb90604401602060405180830381600087803b158015611fa257600080fd5b505af1158015611fb6573d6000803e3d6000fd5b505050506040513d601f19601f82011682018060405250810190611fda919061246d565b5060078054839190600090611ff0908490612ce5565b9091555050600a805483919060009061200a908490612ccd565b9091555050600854156120a657600854600090612028908990612ce5565b9050878161203557506008545b303181116120a3576040513290819083156108fc029084906000818181858888f1935050505015801561206c573d6000803e3d6000fd5b5060088054839190600090612082908490612ce5565b90915550506009805483919060009061209c908490612ccd565b9091555050505b50505b600b80549060006120b683612d34565b91905055506120c3611637565b600754101561211357600c805460ff191660029081179091556040517f0162568b2de8418ff706fde39b1c8a9fd0cb82ab9b14fdaa9c2e0860105e1fca9161210a9161298f565b60405180910390a15b5095945050505050565b600c546101009004600160a060020a0316321461214f5760405160e560020a62461bcd02815260040161056d906129ec565b600c805482919060ff1916600183600281111561216e5761216e612d88565b021790555050565b82805461218290612cfc565b90600052602060002090601f0160209004810192826121a457600085556121ea565b82601f106121bd57805160ff19168380011785556121ea565b828001600101855582156121ea579182015b828111156121ea5782518255916020019190600101906121cf565b506121f69291506122c7565b5090565b604051806101600160405280600081526020016000600160a060020a03168152602001600081526020016000815260200160608152602001606081526020016000600281111561224c5761224c612d88565b8152602001600081526020016000815260200160008152602001600081525090565b8280548282559060005260206000209081019282156122bb579160200282015b828111156122bb57825180516122ab918491602090910190612176565b509160200191906001019061228e565b506121f69291506122dc565b5b808211156121f657600081556001016122c8565b808211156121f65760006122f082826122f9565b506001016122dc565b50805461230590612cfc565b6000825580601f10612315575050565b601f01602090049060005260206000209081019061233391906122c7565b50565b600082601f83011261234757600080fd5b8135602067ffffffffffffffff8083111561236457612364612dba565b818302612372838201612c9c565b8481528381019087850183890186018a101561238d57600080fd5b60009350835b878110156123ca578135868111156123a9578586fd5b6123b78c89838e01016123d9565b8552509286019290860190600101612393565b50909998505050505050505050565b600082601f8301126123ea57600080fd5b813567ffffffffffffffff81111561240457612404612dba565b612417601f8201601f1916602001612c9c565b81815284602083860101111561242c57600080fd5b816020850160208301376000918101602001919091529392505050565b60006020828403121561245b57600080fd5b813561246681612df4565b9392505050565b60006020828403121561247f57600080fd5b815161246681612e09565b6000806040838503121561249d57600080fd5b82356124a881612df4565b946020939093013593505050565b60008060008060008060c087890312156124cf57600080fd5b86356124da81612e17565b95506020870135945060408701356124f181612e09565b9350606087013567ffffffffffffffff8082111561250e57600080fd5b61251a8a838b016123d9565b9450608089013591508082111561253057600080fd5b61253c8a838b016123d9565b935060a089013591508082111561255257600080fd5b5061255f89828a01612336565b9150509295509295509295565b60006020828403121561257e57600080fd5b813561246681612e17565b60008060006060848603121561259e57600080fd5b833567ffffffffffffffff808211156125b657600080fd5b6125c2878388016123d9565b945060208601359150808211156125d857600080fd5b506125e5868287016123d9565b925050604084013590509250925092565b60006020828403121561260857600080fd5b5035919050565b60006020828403121561262157600080fd5b5051919050565b6000806000806060858703121561263e57600080fd5b84359350602085013561265081612df4565b9250604085013567ffffffffffffffff8082111561266d57600080fd5b818701915087601f83011261268157600080fd5b81358181111561269057600080fd5b88602080830285010111156126a457600080fd5b95989497505060200194505050565b600080600080600080600060e0888a0312156126ce57600080fd5b8735965060208801356126e081612e17565b95506040880135945060608801356126f781612e09565b9350608088013567ffffffffffffffff8082111561271457600080fd5b6127208b838c016123d9565b945060a08a013591508082111561273657600080fd5b6127428b838c016123d9565b935060c08a013591508082111561275857600080fd5b506127658a828b01612336565b91505092959891949750929550565b6000806040838503121561278757600080fd5b50508035926020909101359150565b61279f81612dd3565b9052565b6000815180845260005b818110156127c9576020818501810151868301820152016127ad565b818111156127db576000602083870101525b50601f01601f19169290920160200192915050565b600081516060845261280560608501826127a3565b90506020830151848203602086015261281e82826127a3565b915050604083015160408501528091505092915050565b6020808252825182820181905260009190604090818501908084028601830187850186805b8481101561293257603f198a8503018652825160c0815161287a81612dd3565b8652818a01518a870152888201511515898701526060808301518188018390526128a6838901826127a3565b92505050608080830151878303828901526128c183826127a3565b60a094850151898203958a01959095528451808252948d01949093508c8401925090508b810283018c01865b8281101561291b57601f198583030184526129098287516127a3565b958e0195938e019391506001016128ed565b50998c01999750505093890193505060010161285a565b50919998505050505050505050565b61294a86612dd3565b858152846020820152831515604082015260a06060820152600061297160a08301856127a3565b828103608084015261298381856127a3565b98975050505050505050565b6020810161299c83612dd3565b91905290565b60208152600061246660208301846127a3565b6020808252601f908201527f537572766579206d75737420626520696e2065646974696e6720737461676500604082015260600190565b6020808252602b908201527f4d757374206265207468652063726561746f7220746f2061636365737320746860408201527f69732066756e6374696f6e000000000000000000000000000000000000000000606082015260800190565b60208082526030908201527f42616c616e63652068617320746f206265203e3d207468616e2074686520616d60408201527f6f756e7420746f20776974686472617700000000000000000000000000000000606082015260800190565b60208082526022908201527f616d6f756e742068617320746f2062652067726561746572207468616e207a6560408201527f726f000000000000000000000000000000000000000000000000000000000000606082015260800190565b60208152600061246660208301846127f0565b6000610100808352612b2a818401896127f0565b915050612b5b6020830187805182526020810151602083015260408101516040830152606081015160608301525050565b8460a0830152612b6a84612dd3565b8360c0830152600160a060020a03831660e08301529695505050505050565b602081528151602082015260006020830151612bb06040840182600160a060020a03169052565b50604083015160608301526060830151608083015260808301516101608060a0850152612be16101808501836127a3565b915060a0850151601f198584030160c0860152612bfe83826127a3565b92505060c0850151612c1360e0860182612796565b5060e0850151610100858101919091528501516101208086019190915285015161014080860191909152909401519390920192909252919050565b6000808335601e19843603018112612c6557600080fd5b83018035915067ffffffffffffffff821115612c8057600080fd5b602001915036819003821315612c9557600080fd5b9250929050565b604051601f8201601f1916810167ffffffffffffffff81118282101715612cc557612cc5612dba565b604052919050565b60008219821115612ce057612ce0612d6f565b500190565b600082821015612cf757612cf7612d6f565b500390565b600281046001821680612d1057607f821691505b602082108114156116315760e060020a634e487b7102600052602260045260246000fd5b6000600019821415612d4857612d48612d6f565b5060010190565b600060ff821660ff811415612d6657612d66612d6f565b60010192915050565b60e060020a634e487b7102600052601160045260246000fd5b60e060020a634e487b7102600052602160045260246000fd5b60e060020a634e487b7102600052603260045260246000fd5b60e060020a634e487b7102600052604160045260246000fd5b600381106123335760e060020a634e487b7102600052602160045260246000fd5b600160a060020a038116811461233357600080fd5b801515811461233357600080fd5b6003811061233357600080fdfea2646970667358221220bac262e970c98254e67415dcf8f3fb90d7cdca42b10b92df635a185dc717a65e64736f6c63430008070033a2646970667358221220aa1b71c0a6b9aa198e5b5489ba22a42c3d8334bef33852c928f6d417e05cabc364736f6c63430008070033",
  "immutableReferences": {},
  "source": "// SPDX-License-Identifier: MIT\r\npragma experimental ABIEncoderV2;\r\npragma solidity >=0.6.0;\r\n\r\n/*\r\nSurvana\r\n----------------------\r\n1. A owner can add a creator to add survies\r\n2. A creator can create a survey that has unlimited questions.\r\n3. A question can be one of the following types of questions\r\n\t- A mulitple choice\r\n\t- Text\r\n\t- Rate\r\n4. Each question will be assigned an amount of tokens that can be earned for completed it\r\n5. They can mark a question as required or optional (defaulted)\r\n6. The creator has to fill the liquidity pool for that survey with tokens to be distrubted to people\r\n7. There can be an extra bonus for completing the whole survey (which the creator can define how much that is)\r\n8. The creator can stop the survey at anytime. (will stop clients who are on it currently).\r\n9. Once the contract determines the survey cannot fulfill another disbrusment of funds, it will auto close it. (will stop clients)\r\n10. A client can only do a survey once\r\n11. When survey has started, the questions cannot be changed.\r\n*/\r\n\r\nimport \"./Survey.sol\";\r\nimport \"./Ownable.sol\";\r\nimport \"./Token.sol\";\r\nimport \"./SurveyInterface.sol\";\r\n\r\ncontract Survana is Ownable, SurveyInterface {\r\n  string public name = \"Survana\";\r\n  mapping (address => bool) public creators;\r\n  Token public token;\r\n  mapping (uint => address) public surveys;\r\n  uint public surveyCount = 0;\r\n  mapping (Status => uint) public statusCounts;\r\n  mapping (address => uint) public creatorSurveyCount;\r\n\r\n  //TODO store totalTokensRewards by address sp we cam show it on the site\r\n  //Refactor contracts\r\n  //add selfdestruct to survey (a way to delete surveys they accidently made)\r\n  //more?\r\n\r\n  constructor(Token _token) {\r\n    token = _token;\r\n  }\r\n\r\n\r\n  modifier isCreator() {\r\n    require(creators[msg.sender] == true, \"Must be creator\");\r\n    _;\r\n  }\r\n\r\n  event AddedCreator(\r\n    address indexed _creator\r\n  );\r\n\r\n  event RemovedCreator(\r\n    address indexed _creator\r\n  );\r\n\r\n  event DepositedTokensToPool(\r\n    address _creator,\r\n    uint _surveyId,\r\n    uint _amount\r\n  );\r\n\r\n  event DepositedGasToPool(\r\n    address _creator,\r\n    uint _surveyId,\r\n    uint _amount\r\n  );\r\n\r\n  event WithdrawFromTokenPool(\r\n    address _creator,\r\n    uint _surveyId,\r\n    uint _amount\r\n  );\r\n\r\n  event WithdrawFromGasPool(\r\n    address _creator,\r\n    uint _surveyId,\r\n    uint _amount\r\n  );\r\n\r\n  event SurveyCreated(\r\n    address indexed _creator,\r\n    address indexed _newContract,\r\n    uint _surveyId\r\n  );\r\n\r\n  event SurveyUpdated(\r\n    address indexed _creator,\r\n    address indexed _contract,\r\n    uint _surveyId\r\n  );\r\n\r\n  event SurveySubmited(\r\n    address indexed _user,\r\n    uint _surveyId,\r\n    uint _tokensAwarded\r\n  );\r\n\r\n  event QuestionAdded(\r\n    address indexed _creator,\r\n    address indexed _contract,\r\n    uint _surveyId,\r\n    uint _questionId\r\n  );\r\n\r\n  event QuestionUpdated(\r\n    address indexed _creator,\r\n    address indexed _contract,\r\n    uint _surveyId,\r\n    uint _questionId\r\n  );\r\n\r\n  event SurveyStatusChanged(\r\n    Status _status,\r\n    uint _id\r\n  );\r\n\r\n  function addCreator(address _addr) external {\r\n    creators[_addr] = true;\r\n    emit AddedCreator(_addr);\r\n  }\r\n\r\n  function removeCreator(address _addr) external onlyOwner {\r\n    creators[_addr] = false;\r\n    emit RemovedCreator(_addr);\r\n  }\r\n\r\n  function depositToSurveyTokenPool(uint _id, uint _amount) external isCreator {\r\n    require(_amount > 0, \"amount has to be greater than zero\");\r\n    Survey s = Survey(surveys[_id]);\r\n    require(bytes(s.name()).length > 0, \"Length of string needs to be greater than zero\");\r\n    s.depositToSurveyTokenPool(token, _amount);\r\n    emit DepositedTokensToPool(msg.sender, _id, _amount);\r\n  }\r\n\r\n  function depositToSurveyGasPool(uint _id) external payable isCreator {\r\n    require(msg.value > 0, \"Value needs to be > 0\");\r\n    Survey s = Survey(surveys[_id]);\r\n    s.depositToSurveyGasPool{value: msg.value}();\r\n    emit DepositedGasToPool(msg.sender, _id, msg.value);\r\n  }\r\n\r\n  function withdrawFromTokenPool(uint _id, uint _amount) external isCreator {\r\n    require(_amount > 0, \"amount has to be greater than zero\");\r\n    Survey s = Survey(surveys[_id]);\r\n    s.withdrawFromTokenPool(token, _amount);\r\n    emit WithdrawFromTokenPool(msg.sender, _id, _amount);\r\n  }\r\n\r\n  function withdrawFromGasPool(uint _id, uint _amount) external isCreator {\r\n    require(_amount > 0, \"amount has to be greater than zero\");\r\n    Survey s = Survey(surveys[_id]);\r\n    s.withdrawFromGasPool(_amount);\r\n    emit WithdrawFromGasPool(msg.sender, _id, _amount);\r\n  }\r\n\r\n  function createSurvey(\r\n    string calldata _name,\r\n    string calldata _description,\r\n    uint _bonusAmount\r\n  ) external isCreator {\r\n    Survey s = new Survey(msg.sender, _name, _description, _bonusAmount);\r\n    address newContract = address(s);\r\n    surveys[surveyCount] = newContract;\r\n    statusCounts[Status.NOT_OPENED]++;\r\n    emit SurveyCreated(msg.sender, newContract, surveyCount);\r\n    surveyCount++;\r\n    creatorSurveyCount[msg.sender] = surveyCount;\r\n  }\r\n\r\n  function updateSurvey(\r\n    uint _id,\r\n    string calldata _name,\r\n    string calldata _description,\r\n    uint _bonusAmount\r\n  ) external isCreator {\r\n    Survey s = Survey(surveys[_id]);\r\n    s.updateSurvey(_name, _description, _bonusAmount);\r\n    emit SurveyUpdated(msg.sender, address(s), _id);\r\n  }\r\n\r\n  function addQuestion(\r\n    uint _id,\r\n    QuestionType _qtypes,\r\n    uint _worth,\r\n    bool _required,\r\n    string memory _title,\r\n    string memory _qdescription,\r\n    string[] memory _choices\r\n  ) public  isCreator {\r\n    Survey s = Survey(surveys[_id]);\r\n    uint qid = s.addQuestion(_qtypes, _worth, _required, _title, _qdescription, _choices);\r\n    emit QuestionAdded(msg.sender, address(s), _id, qid);\r\n  }\r\n\r\n  function updateQuestion(\r\n    uint _id,\r\n    uint _qid,\r\n    QuestionType _qtypes,\r\n    uint _worth,\r\n    bool _required,\r\n    string memory _title,\r\n    string memory _qdescription,\r\n    string[] memory _choices\r\n  ) public isCreator {\r\n    Survey s = Survey(surveys[_id]);\r\n    s.updateQuestion(_qid, _qtypes, _worth, _required, _title, _qdescription, _choices);\r\n    emit QuestionUpdated(msg.sender, address(s), _id, _qid);\r\n  }\r\n\r\n  function setSurveyStatus(uint _id, Status _status) external isCreator {\r\n    Survey s = Survey(surveys[_id]);\r\n    Status old = s.status();\r\n    s.setSurveyStatus(_status);\r\n    statusCounts[old]--;\r\n    statusCounts[_status]++;\r\n    emit SurveyStatusChanged(_status, _id);\r\n  }\r\n\r\n  function submitSurvey(\r\n    uint _id,\r\n    string[] calldata _answers\r\n  ) external {\r\n    require(_id < surveyCount && _id >= 0, \"ID must exist\");\r\n    uint gas = gasleft();\r\n    Survey s = Survey(surveys[_id]);\r\n    Status oldS = s.status();\r\n    uint reward = s.submitSurvey(gas, token, _answers);\r\n    Status newS = s.status();\r\n    if (newS != oldS) {\r\n      statusCounts[oldS]--;\r\n      statusCounts[newS]++;\r\n    }\r\n    emit SurveySubmited(msg.sender, _id, reward);\r\n  }\r\n\r\n  function _getSurveyOverviews(uint arrayCount, bool openAndNotCreator, bool userFinished, bool isCreators) private view returns (SurveyOverview[] memory) {\r\n    SurveyOverview[] memory _tmp = new SurveyOverview[](arrayCount);\r\n    // require(_tmp.length == 0, \"LENGTH IS MORE THAN 0\");\r\n    uint count = 0;\r\n    for (uint256 index = 0; index < surveyCount; index++) {\r\n      Survey s = Survey(surveys[index]);\r\n      bool check1 = !openAndNotCreator || (openAndNotCreator && s.status() == Status.OPEN && s.creator() != msg.sender);\r\n      bool check2 = !userFinished || (userFinished && s.didUserTakeSurvey(msg.sender));\r\n      bool check3 = !isCreators || (isCreators && s.creator() == msg.sender);\r\n      if (check1 && check2 && check3) {\r\n        SurveyOverview memory so = s.getOverview();\r\n        so.id = index;\r\n        _tmp[count] = so;\r\n        count++;\r\n      }\r\n    }\r\n    if (_tmp.length > count) {\r\n      //re-copy over everything to remove blank enties\r\n      SurveyOverview[] memory ret = new SurveyOverview[](count);\r\n      for (uint256 index = 0; index < count; index++) {\r\n        ret[index] = _tmp[index];\r\n      }\r\n      return ret;\r\n    }\r\n    return _tmp;\r\n  }\r\n\r\n  function getCreatorSurveys() external view returns (SurveyOverview[] memory) {\r\n    return _getSurveyOverviews(creatorSurveyCount[msg.sender], false, false, true);\r\n  }\r\n\r\n  function getOpenSurveys() external view returns (SurveyOverview[] memory) {\r\n    return _getSurveyOverviews(statusCounts[Status.OPEN], true, false, false);\r\n  }\r\n\r\n  function getUserFinishedSurveys() external view returns (SurveyOverview[] memory) {\r\n    return _getSurveyOverviews(surveyCount, false, true, false);\r\n  }\r\n\r\n  function setToken(Token _token) external onlyOwner {\r\n    token = _token;\r\n  }\r\n}\r\n",
  "sourcePath": "C:\\Users\\surge\\Desktop\\dapp-projects\\survana\\contracts\\Survana.sol",
  "compiler": {
    "name": "solc",
    "version": "0.8.7+commit.e28d00a7.Emscripten.clang"
  },
  "schemaVersion": "3.4.3",
  "updatedAt": "2021-09-06T06:57:23.968Z",
  "networkType": "ethereum",
  "devdoc": {
    "kind": "dev",
    "methods": {},
    "version": 1
  },
  "userdoc": {
    "kind": "user",
    "methods": {},
    "version": 1
  }
}