{
  "contractName": "Survana",
  "abi": [
    {
      "inputs": [
        {
          "internalType": "contract Token",
          "name": "_token",
          "type": "address"
        }
      ],
      "payable": false,
      "stateMutability": "nonpayable",
      "type": "constructor"
    },
    {
      "anonymous": false,
      "inputs": [
        {
          "indexed": true,
          "internalType": "address",
          "name": "_creator",
          "type": "address"
        }
      ],
      "name": "AddedCreator",
      "type": "event"
    },
    {
      "anonymous": false,
      "inputs": [
        {
          "indexed": false,
          "internalType": "address",
          "name": "_creator",
          "type": "address"
        },
        {
          "indexed": false,
          "internalType": "uint256",
          "name": "_surveyId",
          "type": "uint256"
        },
        {
          "indexed": false,
          "internalType": "uint256",
          "name": "_amount",
          "type": "uint256"
        }
      ],
      "name": "DepositedGasToPool",
      "type": "event"
    },
    {
      "anonymous": false,
      "inputs": [
        {
          "indexed": false,
          "internalType": "address",
          "name": "_creator",
          "type": "address"
        },
        {
          "indexed": false,
          "internalType": "uint256",
          "name": "_surveyId",
          "type": "uint256"
        },
        {
          "indexed": false,
          "internalType": "uint256",
          "name": "_amount",
          "type": "uint256"
        }
      ],
      "name": "DepositedTokensToPool",
      "type": "event"
    },
    {
      "anonymous": false,
      "inputs": [
        {
          "indexed": true,
          "internalType": "address",
          "name": "oldOwner",
          "type": "address"
        },
        {
          "indexed": true,
          "internalType": "address",
          "name": "newOwner",
          "type": "address"
        }
      ],
      "name": "OwnershipTransferred",
      "type": "event"
    },
    {
      "anonymous": false,
      "inputs": [
        {
          "indexed": true,
          "internalType": "address",
          "name": "_creator",
          "type": "address"
        },
        {
          "indexed": true,
          "internalType": "address",
          "name": "_contract",
          "type": "address"
        },
        {
          "indexed": false,
          "internalType": "uint256",
          "name": "_surveyId",
          "type": "uint256"
        },
        {
          "indexed": false,
          "internalType": "uint256",
          "name": "_questionId",
          "type": "uint256"
        }
      ],
      "name": "QuestionAdded",
      "type": "event"
    },
    {
      "anonymous": false,
      "inputs": [
        {
          "indexed": true,
          "internalType": "address",
          "name": "_creator",
          "type": "address"
        },
        {
          "indexed": true,
          "internalType": "address",
          "name": "_contract",
          "type": "address"
        },
        {
          "indexed": false,
          "internalType": "uint256",
          "name": "_surveyId",
          "type": "uint256"
        },
        {
          "indexed": false,
          "internalType": "uint256",
          "name": "_questionId",
          "type": "uint256"
        }
      ],
      "name": "QuestionUpdated",
      "type": "event"
    },
    {
      "anonymous": false,
      "inputs": [
        {
          "indexed": true,
          "internalType": "address",
          "name": "_creator",
          "type": "address"
        }
      ],
      "name": "RemovedCreator",
      "type": "event"
    },
    {
      "anonymous": false,
      "inputs": [
        {
          "indexed": true,
          "internalType": "address",
          "name": "_creator",
          "type": "address"
        },
        {
          "indexed": true,
          "internalType": "address",
          "name": "_newContract",
          "type": "address"
        },
        {
          "indexed": false,
          "internalType": "uint256",
          "name": "_surveyId",
          "type": "uint256"
        }
      ],
      "name": "SurveyCreated",
      "type": "event"
    },
    {
      "anonymous": false,
      "inputs": [
        {
          "indexed": false,
          "internalType": "enum SurveyInterface.Status",
          "name": "_status",
          "type": "uint8"
        },
        {
          "indexed": false,
          "internalType": "uint256",
          "name": "_id",
          "type": "uint256"
        }
      ],
      "name": "SurveyStatusChanged",
      "type": "event"
    },
    {
      "anonymous": false,
      "inputs": [
        {
          "indexed": true,
          "internalType": "address",
          "name": "_user",
          "type": "address"
        },
        {
          "indexed": false,
          "internalType": "uint256",
          "name": "_surveyId",
          "type": "uint256"
        },
        {
          "indexed": false,
          "internalType": "uint256",
          "name": "_tokensAwarded",
          "type": "uint256"
        }
      ],
      "name": "SurveySubmited",
      "type": "event"
    },
    {
      "anonymous": false,
      "inputs": [
        {
          "indexed": true,
          "internalType": "address",
          "name": "_creator",
          "type": "address"
        },
        {
          "indexed": true,
          "internalType": "address",
          "name": "_contract",
          "type": "address"
        },
        {
          "indexed": false,
          "internalType": "uint256",
          "name": "_surveyId",
          "type": "uint256"
        }
      ],
      "name": "SurveyUpdated",
      "type": "event"
    },
    {
      "anonymous": false,
      "inputs": [
        {
          "indexed": false,
          "internalType": "contract Token",
          "name": "_token",
          "type": "address"
        }
      ],
      "name": "TokenChanged",
      "type": "event"
    },
    {
      "anonymous": false,
      "inputs": [
        {
          "indexed": false,
          "internalType": "address",
          "name": "_creator",
          "type": "address"
        },
        {
          "indexed": false,
          "internalType": "uint256",
          "name": "_surveyId",
          "type": "uint256"
        },
        {
          "indexed": false,
          "internalType": "uint256",
          "name": "_amount",
          "type": "uint256"
        }
      ],
      "name": "WithdrawFromGasPool",
      "type": "event"
    },
    {
      "anonymous": false,
      "inputs": [
        {
          "indexed": false,
          "internalType": "address",
          "name": "_creator",
          "type": "address"
        },
        {
          "indexed": false,
          "internalType": "uint256",
          "name": "_surveyId",
          "type": "uint256"
        },
        {
          "indexed": false,
          "internalType": "uint256",
          "name": "_amount",
          "type": "uint256"
        }
      ],
      "name": "WithdrawFromTokenPool",
      "type": "event"
    },
    {
      "constant": true,
      "inputs": [],
      "name": "isOwner",
      "outputs": [
        {
          "internalType": "bool",
          "name": "",
          "type": "bool"
        }
      ],
      "payable": false,
      "stateMutability": "view",
      "type": "function"
    },
    {
      "constant": true,
      "inputs": [],
      "name": "name",
      "outputs": [
        {
          "internalType": "string",
          "name": "",
          "type": "string"
        }
      ],
      "payable": false,
      "stateMutability": "view",
      "type": "function"
    },
    {
      "constant": true,
      "inputs": [],
      "name": "owner",
      "outputs": [
        {
          "internalType": "address",
          "name": "",
          "type": "address"
        }
      ],
      "payable": false,
      "stateMutability": "view",
      "type": "function"
    },
    {
      "constant": false,
      "inputs": [],
      "name": "renounceOwnership",
      "outputs": [],
      "payable": false,
      "stateMutability": "nonpayable",
      "type": "function"
    },
    {
      "constant": true,
      "inputs": [
        {
          "internalType": "uint256",
          "name": "",
          "type": "uint256"
        }
      ],
      "name": "surveys",
      "outputs": [
        {
          "internalType": "address",
          "name": "",
          "type": "address"
        }
      ],
      "payable": false,
      "stateMutability": "view",
      "type": "function"
    },
    {
      "constant": true,
      "inputs": [],
      "name": "token",
      "outputs": [
        {
          "internalType": "contract Token",
          "name": "",
          "type": "address"
        }
      ],
      "payable": false,
      "stateMutability": "view",
      "type": "function"
    },
    {
      "constant": false,
      "inputs": [
        {
          "internalType": "address",
          "name": "_newOwner",
          "type": "address"
        }
      ],
      "name": "transferOwnership",
      "outputs": [],
      "payable": false,
      "stateMutability": "nonpayable",
      "type": "function"
    },
    {
      "constant": false,
      "inputs": [
        {
          "internalType": "address",
          "name": "_addr",
          "type": "address"
        }
      ],
      "name": "addCreator",
      "outputs": [],
      "payable": false,
      "stateMutability": "nonpayable",
      "type": "function"
    },
    {
      "constant": false,
      "inputs": [
        {
          "internalType": "address",
          "name": "_addr",
          "type": "address"
        }
      ],
      "name": "removeCreator",
      "outputs": [],
      "payable": false,
      "stateMutability": "nonpayable",
      "type": "function"
    },
    {
      "constant": false,
      "inputs": [
        {
          "internalType": "uint256",
          "name": "_id",
          "type": "uint256"
        },
        {
          "internalType": "uint256",
          "name": "_amount",
          "type": "uint256"
        }
      ],
      "name": "depositToSurveyTokenPool",
      "outputs": [],
      "payable": false,
      "stateMutability": "nonpayable",
      "type": "function"
    },
    {
      "constant": false,
      "inputs": [
        {
          "internalType": "uint256",
          "name": "_id",
          "type": "uint256"
        }
      ],
      "name": "depositToSurveyGasPool",
      "outputs": [],
      "payable": true,
      "stateMutability": "payable",
      "type": "function"
    },
    {
      "constant": false,
      "inputs": [
        {
          "internalType": "uint256",
          "name": "_id",
          "type": "uint256"
        },
        {
          "internalType": "uint256",
          "name": "_amount",
          "type": "uint256"
        }
      ],
      "name": "withdrawFromTokenPool",
      "outputs": [],
      "payable": false,
      "stateMutability": "nonpayable",
      "type": "function"
    },
    {
      "constant": false,
      "inputs": [
        {
          "internalType": "uint256",
          "name": "_id",
          "type": "uint256"
        },
        {
          "internalType": "uint256",
          "name": "_amount",
          "type": "uint256"
        }
      ],
      "name": "withdrawFromGasPool",
      "outputs": [],
      "payable": false,
      "stateMutability": "nonpayable",
      "type": "function"
    },
    {
      "constant": false,
      "inputs": [
        {
          "internalType": "string",
          "name": "_name",
          "type": "string"
        },
        {
          "internalType": "string",
          "name": "_description",
          "type": "string"
        },
        {
          "internalType": "uint256",
          "name": "_bonusAmount",
          "type": "uint256"
        }
      ],
      "name": "createSurvey",
      "outputs": [],
      "payable": false,
      "stateMutability": "nonpayable",
      "type": "function"
    },
    {
      "constant": false,
      "inputs": [
        {
          "internalType": "uint256",
          "name": "_id",
          "type": "uint256"
        },
        {
          "internalType": "string",
          "name": "_name",
          "type": "string"
        },
        {
          "internalType": "string",
          "name": "_description",
          "type": "string"
        },
        {
          "internalType": "uint256",
          "name": "_bonusAmount",
          "type": "uint256"
        }
      ],
      "name": "updateSurvey",
      "outputs": [],
      "payable": false,
      "stateMutability": "nonpayable",
      "type": "function"
    },
    {
      "constant": false,
      "inputs": [
        {
          "internalType": "uint256",
          "name": "_id",
          "type": "uint256"
        },
        {
          "internalType": "enum SurveyInterface.QuestionType",
          "name": "_qtypes",
          "type": "uint8"
        },
        {
          "internalType": "uint256",
          "name": "_worth",
          "type": "uint256"
        },
        {
          "internalType": "bool",
          "name": "_required",
          "type": "bool"
        },
        {
          "internalType": "string",
          "name": "_title",
          "type": "string"
        },
        {
          "internalType": "string",
          "name": "_qdescription",
          "type": "string"
        },
        {
          "internalType": "string[]",
          "name": "_choices",
          "type": "string[]"
        }
      ],
      "name": "addQuestion",
      "outputs": [],
      "payable": false,
      "stateMutability": "nonpayable",
      "type": "function"
    },
    {
      "constant": false,
      "inputs": [
        {
          "internalType": "uint256",
          "name": "_id",
          "type": "uint256"
        },
        {
          "internalType": "uint256",
          "name": "_qid",
          "type": "uint256"
        },
        {
          "internalType": "enum SurveyInterface.QuestionType",
          "name": "_qtypes",
          "type": "uint8"
        },
        {
          "internalType": "uint256",
          "name": "_worth",
          "type": "uint256"
        },
        {
          "internalType": "bool",
          "name": "_required",
          "type": "bool"
        },
        {
          "internalType": "string",
          "name": "_title",
          "type": "string"
        },
        {
          "internalType": "string",
          "name": "_qdescription",
          "type": "string"
        },
        {
          "internalType": "string[]",
          "name": "_choices",
          "type": "string[]"
        }
      ],
      "name": "updateQuestion",
      "outputs": [],
      "payable": false,
      "stateMutability": "nonpayable",
      "type": "function"
    },
    {
      "constant": false,
      "inputs": [
        {
          "internalType": "uint256",
          "name": "_id",
          "type": "uint256"
        },
        {
          "internalType": "enum SurveyInterface.Status",
          "name": "_status",
          "type": "uint8"
        }
      ],
      "name": "setSurveyStatus",
      "outputs": [],
      "payable": false,
      "stateMutability": "nonpayable",
      "type": "function"
    },
    {
      "constant": false,
      "inputs": [
        {
          "internalType": "uint256",
          "name": "_id",
          "type": "uint256"
        },
        {
          "internalType": "string[]",
          "name": "_answers",
          "type": "string[]"
        }
      ],
      "name": "submitSurvey",
      "outputs": [],
      "payable": false,
      "stateMutability": "nonpayable",
      "type": "function"
    },
    {
      "constant": true,
      "inputs": [],
      "name": "getCreatorSurveys",
      "outputs": [
        {
          "internalType": "contract Survey[]",
          "name": "",
          "type": "address[]"
        }
      ],
      "payable": false,
      "stateMutability": "view",
      "type": "function"
    },
    {
      "constant": true,
      "inputs": [],
      "name": "getOpenSurveys",
      "outputs": [
        {
          "internalType": "contract Survey[]",
          "name": "",
          "type": "address[]"
        }
      ],
      "payable": false,
      "stateMutability": "view",
      "type": "function"
    },
    {
      "constant": true,
      "inputs": [],
      "name": "getUserFinishedSurveys",
      "outputs": [
        {
          "internalType": "contract Survey[]",
          "name": "",
          "type": "address[]"
        }
      ],
      "payable": false,
      "stateMutability": "view",
      "type": "function"
    },
    {
      "constant": false,
      "inputs": [
        {
          "internalType": "contract Token",
          "name": "_token",
          "type": "address"
        }
      ],
      "name": "setToken",
      "outputs": [],
      "payable": false,
      "stateMutability": "nonpayable",
      "type": "function"
    }
  ],
  "bytecode": "0x60806040526040518060400160405280600781526020017f53757276616e6100000000000000000000000000000000000000000000000000815250600190805190602001906200005192919062000112565b5060006005553480156200006457600080fd5b50604051620063753803806200637583398181016040526200008a9190810190620001d8565b336000806101000a81548173ffffffffffffffffffffffffffffffffffffffff021916908373ffffffffffffffffffffffffffffffffffffffff16021790555080600360006101000a81548173ffffffffffffffffffffffffffffffffffffffff021916908373ffffffffffffffffffffffffffffffffffffffff1602179055505062000266565b828054600181600116156101000203166002900490600052602060002090601f016020900481019282601f106200015557805160ff191683800117855562000186565b8280016001018555821562000186579182015b828111156200018557825182559160200191906001019062000168565b5b50905062000195919062000199565b5090565b620001be91905b80821115620001ba576000816000905550600101620001a0565b5090565b90565b600081519050620001d2816200024c565b92915050565b600060208284031215620001eb57600080fd5b6000620001fb84828501620001c1565b91505092915050565b600062000211826200022c565b9050919050565b6000620002258262000204565b9050919050565b600073ffffffffffffffffffffffffffffffffffffffff82169050919050565b620002578162000218565b81146200026357600080fd5b50565b6160ff80620002766000396000f3fe6080604052600436106200015e5760003560e01c80638960e26d11620000c7578063bc4004291162000079578063bc4004291462000471578063bd6018bb146200049f578063cbb1817514620004cd578063d9ff498b14620004fb578063f2fde38b1462000529578063fc0c546a1462000557576200015e565b80638960e26d14620003575780638ba04e3d14620003875780638da5cb5b14620003b55780638e896d4f14620003e55780638f32d59b1462000413578063ae738a311462000443576200015e565b806356463fc7116200012157806356463fc7146200023f5780635b49efdf146200026d5780636fcbd60f146200029b578063715018a614620002cb57806371edf4d614620002e557806386e68b901462000313576200015e565b806302bc7b22146200016357806306fdde031462000183578063144fa6d714620001b35780633577656614620001e15780633b9dce051462000211575b600080fd5b6200018160048036036200017b91908101906200246f565b62000587565b005b3480156200019057600080fd5b506200019b62000772565b604051620001aa919062002e35565b60405180910390f35b348015620001c057600080fd5b50620001df6004803603620001d9919081019062002340565b62000814565b005b348015620001ee57600080fd5b50620001f9620008a5565b60405162000208919062002c8f565b60405180910390f35b3480156200021e57600080fd5b506200023d6004803603620002379190810190620022bc565b62000abc565b005b3480156200024c57600080fd5b506200026b600480360362000265919081019062002745565b62000b6e565b005b3480156200027a57600080fd5b5062000299600480360362000293919081019062002398565b62000cf3565b005b348015620002a857600080fd5b50620002b362000e75565b604051620002c2919062002c8f565b60405180910390f35b348015620002d857600080fd5b50620002e362001044565b005b348015620002f257600080fd5b506200031160048036036200030b9190810190620024c7565b62001066565b005b3480156200032057600080fd5b506200033f60048036036200033991908101906200246f565b620011ba565b6040516200034e919062002bb9565b60405180910390f35b3480156200036457600080fd5b506200036f620011ed565b6040516200037e919062002c8f565b60405180910390f35b3480156200039457600080fd5b50620003b36004803603620003ad919081019062002704565b620013e1565b005b348015620003c257600080fd5b50620003cd62001536565b604051620003dc919062002bb9565b60405180910390f35b348015620003f257600080fd5b506200041160048036036200040b91908101906200265e565b6200155b565b005b3480156200042057600080fd5b506200042b620016d8565b6040516200043a919062002cb3565b60405180910390f35b3480156200045057600080fd5b506200046f600480360362000469919081019062002525565b6200172f565b005b3480156200047e57600080fd5b506200049d60048036036200049791908101906200261d565b620018d8565b005b348015620004ac57600080fd5b50620004cb6004803603620004c59190810190620022bc565b62001a1d565b005b348015620004da57600080fd5b50620004f96004803603620004f3919081019062002704565b62001acf565b005b3480156200050857600080fd5b5062000527600480360362000521919081019062002704565b62001c48565b005b3480156200053657600080fd5b506200055560048036036200054f9190810190620022bc565b62001e56565b005b3480156200056457600080fd5b506200056f62001eb3565b6040516200057e919062002cd0565b60405180910390f35b60011515600260003373ffffffffffffffffffffffffffffffffffffffff1673ffffffffffffffffffffffffffffffffffffffff16815260200190815260200160002060009054906101000a900460ff16151514620005e557600080fd5b60003411620005f357600080fd5b60006004600083815260200190815260200160002060009054906101000a900473ffffffffffffffffffffffffffffffffffffffff16905060006004600084815260200190815260200160002060009054906101000a900473ffffffffffffffffffffffffffffffffffffffff1673ffffffffffffffffffffffffffffffffffffffff1690508073ffffffffffffffffffffffffffffffffffffffff166108fc349081150290604051600060405180830381858888f19350505050158015620006c0573d6000803e3d6000fd5b508173ffffffffffffffffffffffffffffffffffffffff166302bc7b22346040518263ffffffff1660e01b8152600401620006fc919062002e59565b600060405180830381600087803b1580156200071757600080fd5b505af11580156200072c573d6000803e3d6000fd5b505050507f823696ac0f9b333e2316140757e4b02249983e6b5cfa8c752f738c7376a04b1c338434604051620007659392919062002c52565b60405180910390a1505050565b60018054600181600116156101000203166002900480601f0160208091040260200160405190810160405280929190818152602001828054600181600116156101000203166002900480156200080c5780601f10620007e0576101008083540402835291602001916200080c565b820191906000526020600020905b815481529060010190602001808311620007ee57829003601f168201915b505050505081565b6200081e620016d8565b6200082857600080fd5b80600360006101000a81548173ffffffffffffffffffffffffffffffffffffffff021916908373ffffffffffffffffffffffffffffffffffffffff1602179055507f5d108ca248943e98e1886bbc2c38beda701271994a14354258a11692b81b73cf816040516200089a919062002cd0565b60405180910390a150565b606080600080905060008090505b60055481101562000ab35760006004600083815260200190815260200160002060009054906101000a900473ffffffffffffffffffffffffffffffffffffffff169050600160028111156200090457fe5b8173ffffffffffffffffffffffffffffffffffffffff1663200d2ed26040518163ffffffff1660e01b815260040160206040518083038186803b1580156200094b57600080fd5b505afa15801562000960573d6000803e3d6000fd5b505050506040513d601f19601f820116820180604052506200098691908101906200236c565b60028111156200099257fe5b14801562000a4d57503373ffffffffffffffffffffffffffffffffffffffff168173ffffffffffffffffffffffffffffffffffffffff166302d05d3f6040518163ffffffff1660e01b815260040160206040518083038186803b158015620009f957600080fd5b505afa15801562000a0e573d6000803e3d6000fd5b505050506040513d601f19601f8201168201806040525062000a349190810190620022e8565b73ffffffffffffffffffffffffffffffffffffffff1614155b1562000aa4578084848151811062000a6157fe5b602002602001019073ffffffffffffffffffffffffffffffffffffffff16908173ffffffffffffffffffffffffffffffffffffffff168152505082806001019350505b508080600101915050620008b3565b50819250505090565b62000ac6620016d8565b62000ad057600080fd5b6001600260008373ffffffffffffffffffffffffffffffffffffffff1673ffffffffffffffffffffffffffffffffffffffff16815260200190815260200160002060006101000a81548160ff0219169083151502179055508073ffffffffffffffffffffffffffffffffffffffff167fde01ac6896c5b1bb768b9f622140a44faf53b6e47809bee039be206a1f88fce660405160405180910390a250565b60011515600260003373ffffffffffffffffffffffffffffffffffffffff1673ffffffffffffffffffffffffffffffffffffffff16815260200190815260200160002060009054906101000a900460ff1615151462000bcc57600080fd5b6000600460008a815260200190815260200160002060009054906101000a900473ffffffffffffffffffffffffffffffffffffffff1690508073ffffffffffffffffffffffffffffffffffffffff16634a4cd405898989898989896040518863ffffffff1660e01b815260040162000c4b979695949392919062002ebc565b600060405180830381600087803b15801562000c6657600080fd5b505af115801562000c7b573d6000803e3d6000fd5b505050508073ffffffffffffffffffffffffffffffffffffffff163373ffffffffffffffffffffffffffffffffffffffff167ffd73297d870e9cb2f853ac5534c549035a865c9694cd022fb8e4dc8cd8bb78ab8b8b60405162000ce092919062002f4e565b60405180910390a3505050505050505050565b60011515600260003373ffffffffffffffffffffffffffffffffffffffff1673ffffffffffffffffffffffffffffffffffffffff16815260200190815260200160002060009054906101000a900460ff1615151462000d5157600080fd5b600033868686868660405162000d679062001f9d565b62000d789695949392919062002bf3565b604051809103906000f08015801562000d95573d6000803e3d6000fd5b50905060008190508060046000600554815260200190815260200160002060006101000a81548173ffffffffffffffffffffffffffffffffffffffff021916908373ffffffffffffffffffffffffffffffffffffffff1602179055508073ffffffffffffffffffffffffffffffffffffffff163373ffffffffffffffffffffffffffffffffffffffff167f814c0a58b6d977676546cfd22e430d3fa3e288403ba1eeb335bdd8973eec958460055460405162000e52919062002e59565b60405180910390a360056000815480929190600101919050555050505050505050565b606060011515600260003373ffffffffffffffffffffffffffffffffffffffff1673ffffffffffffffffffffffffffffffffffffffff16815260200190815260200160002060009054906101000a900460ff1615151462000ed557600080fd5b6060600080905060008090505b6005548110156200103b5760006004600083815260200190815260200160002060009054906101000a900473ffffffffffffffffffffffffffffffffffffffff1690503373ffffffffffffffffffffffffffffffffffffffff168173ffffffffffffffffffffffffffffffffffffffff166302d05d3f6040518163ffffffff1660e01b815260040160206040518083038186803b15801562000f8357600080fd5b505afa15801562000f98573d6000803e3d6000fd5b505050506040513d601f19601f8201168201806040525062000fbe9190810190620022e8565b73ffffffffffffffffffffffffffffffffffffffff1614156200102c578084848151811062000fe957fe5b602002602001019073ffffffffffffffffffffffffffffffffffffffff16908173ffffffffffffffffffffffffffffffffffffffff168152505082806001019350505b50808060010191505062000ee2565b50819250505090565b6200104e620016d8565b6200105857600080fd5b62001064600062001ed9565b565b60005a905060006004600086815260200190815260200160002060009054906101000a900473ffffffffffffffffffffffffffffffffffffffff16905060008173ffffffffffffffffffffffffffffffffffffffff1663d6da669e84600360009054906101000a900473ffffffffffffffffffffffffffffffffffffffff1688886040518563ffffffff1660e01b815260040162001108949392919062002e76565b602060405180830381600087803b1580156200112357600080fd5b505af115801562001138573d6000803e3d6000fd5b505050506040513d601f19601f820116820180604052506200115e91908101906200249b565b90503373ffffffffffffffffffffffffffffffffffffffff167f6d1baacba6a9e34b8f24ff8b6928204ae3b3b0897a5dcc6c3ee892f23702aa4c8783604051620011aa92919062002f4e565b60405180910390a2505050505050565b60046020528060005260406000206000915054906101000a900473ffffffffffffffffffffffffffffffffffffffff1681565b606080600080905060008090505b600554811015620013d85760006004600083815260200190815260200160002060009054906101000a900473ffffffffffffffffffffffffffffffffffffffff1690506002808111156200124b57fe5b8173ffffffffffffffffffffffffffffffffffffffff1663200d2ed26040518163ffffffff1660e01b815260040160206040518083038186803b1580156200129257600080fd5b505afa158015620012a7573d6000803e3d6000fd5b505050506040513d601f19601f82011682018060405250620012cd91908101906200236c565b6002811115620012d957fe5b1480156200137257508073ffffffffffffffffffffffffffffffffffffffff16638beeef2b336040518263ffffffff1660e01b81526004016200131d919062002bd6565b60206040518083038186803b1580156200133657600080fd5b505afa1580156200134b573d6000803e3d6000fd5b505050506040513d601f19601f8201168201806040525062001371919081019062002314565b5b15620013c957808484815181106200138657fe5b602002602001019073ffffffffffffffffffffffffffffffffffffffff16908173ffffffffffffffffffffffffffffffffffffffff168152505082806001019350505b508080600101915050620011fb565b50819250505090565b60011515600260003373ffffffffffffffffffffffffffffffffffffffff1673ffffffffffffffffffffffffffffffffffffffff16815260200190815260200160002060009054906101000a900460ff161515146200143f57600080fd5b600081116200144d57600080fd5b60006004600084815260200190815260200160002060009054906101000a900473ffffffffffffffffffffffffffffffffffffffff1690508073ffffffffffffffffffffffffffffffffffffffff16638e6b582f836040518263ffffffff1660e01b8152600401620014c0919062002e59565b600060405180830381600087803b158015620014db57600080fd5b505af1158015620014f0573d6000803e3d6000fd5b505050507fd394af405f853a90ae990fcbd40afd423bf6057c6a694c2ffa9e5a19cf551ba6338484604051620015299392919062002c52565b60405180910390a1505050565b6000809054906101000a900473ffffffffffffffffffffffffffffffffffffffff1681565b60011515600260003373ffffffffffffffffffffffffffffffffffffffff1673ffffffffffffffffffffffffffffffffffffffff16815260200190815260200160002060009054906101000a900460ff16151514620015b957600080fd5b60006004600088815260200190815260200160002060009054906101000a900473ffffffffffffffffffffffffffffffffffffffff1690508073ffffffffffffffffffffffffffffffffffffffff16631eea56a387878787876040518663ffffffff1660e01b81526004016200163495949392919062002de6565b600060405180830381600087803b1580156200164f57600080fd5b505af115801562001664573d6000803e3d6000fd5b505050508073ffffffffffffffffffffffffffffffffffffffff163373ffffffffffffffffffffffffffffffffffffffff167f12c056ebad7c44ab7bced3a029dafd20eedf8789050c2030926b61229e2058ca89604051620016c7919062002e59565b60405180910390a350505050505050565b60008060009054906101000a900473ffffffffffffffffffffffffffffffffffffffff1673ffffffffffffffffffffffffffffffffffffffff163373ffffffffffffffffffffffffffffffffffffffff1614905090565b60011515600260003373ffffffffffffffffffffffffffffffffffffffff1673ffffffffffffffffffffffffffffffffffffffff16815260200190815260200160002060009054906101000a900460ff161515146200178d57600080fd5b60006004600089815260200190815260200160002060009054906101000a900473ffffffffffffffffffffffffffffffffffffffff16905060008173ffffffffffffffffffffffffffffffffffffffff1663482ff5138989898989896040518763ffffffff1660e01b81526004016200180c9695949392919062002d1a565b602060405180830381600087803b1580156200182757600080fd5b505af11580156200183c573d6000803e3d6000fd5b505050506040513d601f19601f820116820180604052506200186291908101906200249b565b90508173ffffffffffffffffffffffffffffffffffffffff163373ffffffffffffffffffffffffffffffffffffffff167f5975fc3a6be87625dad6832daa4821eb33c5a675b313a78d11eb8de595ba1f468b84604051620018c592919062002f4e565b60405180910390a3505050505050505050565b60011515600260003373ffffffffffffffffffffffffffffffffffffffff1673ffffffffffffffffffffffffffffffffffffffff16815260200190815260200160002060009054906101000a900460ff161515146200193657600080fd5b60006004600084815260200190815260200160002060009054906101000a900473ffffffffffffffffffffffffffffffffffffffff1690508073ffffffffffffffffffffffffffffffffffffffff1663f93bbb87836040518263ffffffff1660e01b8152600401620019a9919062002d9c565b600060405180830381600087803b158015620019c457600080fd5b505af1158015620019d9573d6000803e3d6000fd5b505050507fd2a617db2388e82e6e520aa417ab5d836a7aaa85ce1792b5dab75c4d8860edea828460405162001a1092919062002db9565b60405180910390a1505050565b62001a27620016d8565b62001a3157600080fd5b6000600260008373ffffffffffffffffffffffffffffffffffffffff1673ffffffffffffffffffffffffffffffffffffffff16815260200190815260200160002060006101000a81548160ff0219169083151502179055508073ffffffffffffffffffffffffffffffffffffffff167fc9f999728340f25e1001a7e2414500afb6a11e8f53d5b86c14302417bd50892e60405160405180910390a250565b60011515600260003373ffffffffffffffffffffffffffffffffffffffff1673ffffffffffffffffffffffffffffffffffffffff16815260200190815260200160002060009054906101000a900460ff1615151462001b2d57600080fd5b6000811162001b3b57600080fd5b60006004600084815260200190815260200160002060009054906101000a900473ffffffffffffffffffffffffffffffffffffffff1690508073ffffffffffffffffffffffffffffffffffffffff16631275b3bb600360009054906101000a900473ffffffffffffffffffffffffffffffffffffffff16846040518363ffffffff1660e01b815260040162001bd292919062002ced565b600060405180830381600087803b15801562001bed57600080fd5b505af115801562001c02573d6000803e3d6000fd5b505050507fadab12bef87c4260212d908fba3f1627ba11a973ea59d67fbc8dfddaa742278733848460405162001c3b9392919062002c52565b60405180910390a1505050565b60011515600260003373ffffffffffffffffffffffffffffffffffffffff1673ffffffffffffffffffffffffffffffffffffffff16815260200190815260200160002060009054906101000a900460ff1615151462001ca657600080fd5b6000811162001cb457600080fd5b60006004600084815260200190815260200160002060009054906101000a900473ffffffffffffffffffffffffffffffffffffffff16905060008173ffffffffffffffffffffffffffffffffffffffff166306fdde036040518163ffffffff1660e01b815260040160006040518083038186803b15801562001d3557600080fd5b505afa15801562001d4a573d6000803e3d6000fd5b505050506040513d6000823e3d601f19601f8201168201806040525062001d7591908101906200242a565b511162001d8157600080fd5b8073ffffffffffffffffffffffffffffffffffffffff166338745a1c600360009054906101000a900473ffffffffffffffffffffffffffffffffffffffff16846040518363ffffffff1660e01b815260040162001de092919062002ced565b600060405180830381600087803b15801562001dfb57600080fd5b505af115801562001e10573d6000803e3d6000fd5b505050507f705860a96659ef551cbecddacb064424c42677dbc3af77aade6a65108257534133848460405162001e499392919062002c52565b60405180910390a1505050565b62001e60620016d8565b62001e6a57600080fd5b600073ffffffffffffffffffffffffffffffffffffffff168173ffffffffffffffffffffffffffffffffffffffff16141562001ea557600080fd5b62001eb08162001ed9565b50565b600360009054906101000a900473ffffffffffffffffffffffffffffffffffffffff1681565b60008060009054906101000a900473ffffffffffffffffffffffffffffffffffffffff169050816000806101000a81548173ffffffffffffffffffffffffffffffffffffffff021916908373ffffffffffffffffffffffffffffffffffffffff1602179055508173ffffffffffffffffffffffffffffffffffffffff168173ffffffffffffffffffffffffffffffffffffffff167f8be0079c531659141344cd1fd0a4f28419497f9722a3daafe3b4186f6b6457e060405160405180910390a35050565b612d3d806200338083390190565b60008135905062001fbc81620032f5565b92915050565b60008151905062001fd381620032f5565b92915050565b60008083601f84011262001fec57600080fd5b8235905067ffffffffffffffff8111156200200657600080fd5b6020830191508360208202830111156200201f57600080fd5b9250929050565b600082601f8301126200203857600080fd5b81356200204f620020498262002fa9565b62002f7b565b9150818183526020840193506020810190508360005b838110156200209957813586016200207e88826200217a565b84526020840193506020830192505060018101905062002065565b5050505092915050565b600081359050620020b4816200330f565b92915050565b600081519050620020cb816200330f565b92915050565b600081359050620020e28162003329565b92915050565b600081359050620020f98162003343565b92915050565b600081359050620021108162003354565b92915050565b600081519050620021278162003354565b92915050565b60008083601f8401126200214057600080fd5b8235905067ffffffffffffffff8111156200215a57600080fd5b6020830191508360018202830111156200217357600080fd5b9250929050565b600082601f8301126200218c57600080fd5b8135620021a36200219d8262002fd2565b62002f7b565b91508082526020830160208301858383011115620021c057600080fd5b620021cd83828462003283565b50505092915050565b600082601f830112620021e857600080fd5b8135620021ff620021f98262002fff565b62002f7b565b915080825260208301602083018583830111156200221c57600080fd5b6200222983828462003283565b50505092915050565b600082601f8301126200224457600080fd5b81516200225b620022558262002fff565b62002f7b565b915080825260208301602083018583830111156200227857600080fd5b6200228583828462003292565b50505092915050565b6000813590506200229f8162003365565b92915050565b600081519050620022b68162003365565b92915050565b600060208284031215620022cf57600080fd5b6000620022df8482850162001fab565b91505092915050565b600060208284031215620022fb57600080fd5b60006200230b8482850162001fc2565b91505092915050565b6000602082840312156200232757600080fd5b60006200233784828501620020ba565b91505092915050565b6000602082840312156200235357600080fd5b60006200236384828501620020d1565b91505092915050565b6000602082840312156200237f57600080fd5b60006200238f8482850162002116565b91505092915050565b600080600080600060608688031215620023b157600080fd5b600086013567ffffffffffffffff811115620023cc57600080fd5b620023da888289016200212d565b9550955050602086013567ffffffffffffffff811115620023fa57600080fd5b62002408888289016200212d565b935093505060406200241d888289016200228e565b9150509295509295909350565b6000602082840312156200243d57600080fd5b600082015167ffffffffffffffff8111156200245857600080fd5b620024668482850162002232565b91505092915050565b6000602082840312156200248257600080fd5b600062002492848285016200228e565b91505092915050565b600060208284031215620024ae57600080fd5b6000620024be84828501620022a5565b91505092915050565b600080600060408486031215620024dd57600080fd5b6000620024ed868287016200228e565b935050602084013567ffffffffffffffff8111156200250b57600080fd5b620025198682870162001fd9565b92509250509250925092565b600080600080600080600060e0888a0312156200254157600080fd5b6000620025518a828b016200228e565b9750506020620025648a828b01620020e8565b9650506040620025778a828b016200228e565b95505060606200258a8a828b01620020a3565b945050608088013567ffffffffffffffff811115620025a857600080fd5b620025b68a828b01620021d6565b93505060a088013567ffffffffffffffff811115620025d457600080fd5b620025e28a828b01620021d6565b92505060c088013567ffffffffffffffff8111156200260057600080fd5b6200260e8a828b0162002026565b91505092959891949750929550565b600080604083850312156200263157600080fd5b600062002641858286016200228e565b92505060206200265485828601620020ff565b9150509250929050565b600080600080600080608087890312156200267857600080fd5b60006200268889828a016200228e565b965050602087013567ffffffffffffffff811115620026a657600080fd5b620026b489828a016200212d565b9550955050604087013567ffffffffffffffff811115620026d457600080fd5b620026e289828a016200212d565b93509350506060620026f789828a016200228e565b9150509295509295509295565b600080604083850312156200271857600080fd5b600062002728858286016200228e565b92505060206200273b858286016200228e565b9150509250929050565b600080600080600080600080610100898b0312156200276357600080fd5b6000620027738b828c016200228e565b9850506020620027868b828c016200228e565b9750506040620027998b828c01620020e8565b9650506060620027ac8b828c016200228e565b9550506080620027bf8b828c01620020a3565b94505060a089013567ffffffffffffffff811115620027dd57600080fd5b620027eb8b828c01620021d6565b93505060c089013567ffffffffffffffff8111156200280957600080fd5b620028178b828c01620021d6565b92505060e089013567ffffffffffffffff8111156200283557600080fd5b620028438b828c0162002026565b9150509295985092959890939650565b600062002861838362002a3b565b60208301905092915050565b60006200287c84848462002ab2565b90509392505050565b600062002893838362002b26565b905092915050565b620028a681620031cf565b82525050565b620028b78162003147565b82525050565b6000620028ca8262003056565b620028d68185620030a9565b9350620028e3836200302c565b8060005b838110156200291a578151620028fe888262002853565b97506200290b8362003082565b925050600181019050620028e7565b5085935050505092915050565b6000620029358385620030ba565b93508360208402850162002949846200303c565b8060005b8781101562002997578484038952620029678284620030ed565b620029748682846200286d565b955062002981846200308f565b935060208b019a5050506001810190506200294d565b50829750879450505050509392505050565b6000620029b68262003061565b620029c28185620030ba565b935083602082028501620029d68562003046565b8060005b8581101562002a185784840389528151620029f6858262002885565b945062002a03836200309c565b925060208a01995050600181019050620029da565b50829750879550505050505092915050565b62002a35816200315b565b82525050565b62002a4681620031e3565b82525050565b62002a57816200320b565b82525050565b62002a688162003233565b82525050565b62002a798162003247565b82525050565b600062002a8d8385620030dc565b935062002a9c83858462003283565b62002aa783620032c8565b840190509392505050565b600062002ac08385620030cb565b935062002acf83858462003283565b62002ada83620032c8565b840190509392505050565b600062002af28262003077565b62002afe8185620030dc565b935062002b1081856020860162003292565b62002b1b81620032c8565b840191505092915050565b600062002b33826200306c565b62002b3f8185620030cb565b935062002b5181856020860162003292565b62002b5c81620032c8565b840191505092915050565b600062002b74826200306c565b62002b808185620030dc565b935062002b9281856020860162003292565b62002b9d81620032c8565b840191505092915050565b62002bb381620031c5565b82525050565b600060208201905062002bd06000830184620028ac565b92915050565b600060208201905062002bed60008301846200289b565b92915050565b600060808201905062002c0a60008301896200289b565b818103602083015262002c1f81878962002a7f565b9050818103604083015262002c3681858762002a7f565b905062002c47606083018462002ba8565b979650505050505050565b600060608201905062002c6960008301866200289b565b62002c78602083018562002ba8565b62002c87604083018462002ba8565b949350505050565b6000602082019050818103600083015262002cab8184620028bd565b905092915050565b600060208201905062002cca600083018462002a2a565b92915050565b600060208201905062002ce7600083018462002a4c565b92915050565b600060408201905062002d04600083018562002a4c565b62002d13602083018462002ba8565b9392505050565b600060c08201905062002d31600083018962002a5d565b62002d40602083018862002ba8565b62002d4f604083018762002a2a565b818103606083015262002d63818662002ae5565b9050818103608083015262002d79818562002ae5565b905081810360a083015262002d8f8184620029a9565b9050979650505050505050565b600060208201905062002db3600083018462002a6e565b92915050565b600060408201905062002dd0600083018562002a6e565b62002ddf602083018462002ba8565b9392505050565b6000606082019050818103600083015262002e0381878962002a7f565b9050818103602083015262002e1a81858762002a7f565b905062002e2b604083018462002ba8565b9695505050505050565b6000602082019050818103600083015262002e51818462002b67565b905092915050565b600060208201905062002e70600083018462002ba8565b92915050565b600060608201905062002e8d600083018762002ba8565b62002e9c602083018662002a4c565b818103604083015262002eb181848662002927565b905095945050505050565b600060e08201905062002ed3600083018a62002ba8565b62002ee2602083018962002a5d565b62002ef1604083018862002ba8565b62002f00606083018762002a2a565b818103608083015262002f14818662002ae5565b905081810360a083015262002f2a818562002ae5565b905081810360c083015262002f408184620029a9565b905098975050505050505050565b600060408201905062002f65600083018562002ba8565b62002f74602083018462002ba8565b9392505050565b6000604051905081810181811067ffffffffffffffff8211171562002f9f57600080fd5b8060405250919050565b600067ffffffffffffffff82111562002fc157600080fd5b602082029050602081019050919050565b600067ffffffffffffffff82111562002fea57600080fd5b601f19601f8301169050602081019050919050565b600067ffffffffffffffff8211156200301757600080fd5b601f19601f8301169050602081019050919050565b6000819050602082019050919050565b6000819050919050565b6000819050602082019050919050565b600081519050919050565b600081519050919050565b600081519050919050565b600081519050919050565b6000602082019050919050565b6000602082019050919050565b6000602082019050919050565b600082825260208201905092915050565b600082825260208201905092915050565b600082825260208201905092915050565b600082825260208201905092915050565b600080833560016020038436030381126200310757600080fd5b83810192508235915060208301925067ffffffffffffffff8211156200312c57600080fd5b6001820236038413156200313f57600080fd5b509250929050565b60006200315482620031a5565b9050919050565b60008115159050919050565b6000620031748262003147565b9050919050565b60008190506200318b82620032d9565b919050565b6000819050620031a082620032e7565b919050565b600073ffffffffffffffffffffffffffffffffffffffff82169050919050565b6000819050919050565b6000620031dc826200325b565b9050919050565b6000620031f082620031f7565b9050919050565b60006200320482620031a5565b9050919050565b600062003218826200321f565b9050919050565b60006200322c82620031a5565b9050919050565b600062003240826200317b565b9050919050565b6000620032548262003190565b9050919050565b600062003268826200326f565b9050919050565b60006200327c82620031a5565b9050919050565b82818337600083830152505050565b60005b83811015620032b257808201518184015260208101905062003295565b83811115620032c2576000848401525b50505050565b6000601f19601f8301169050919050565b60038110620032e457fe5b50565b60038110620032f257fe5b50565b620033008162003147565b81146200330c57600080fd5b50565b6200331a816200315b565b81146200332657600080fd5b50565b620033348162003167565b81146200334057600080fd5b50565b600381106200335157600080fd5b50565b600381106200336257600080fd5b50565b6200337081620031c5565b81146200337c57600080fd5b5056fe608060405260006001553480156200001657600080fd5b5060405162002d3d38038062002d3d83398181016040526200003c919081019062000284565b6200004f8383836200009d60201b60201c565b83600460080160016101000a81548173ffffffffffffffffffffffffffffffffffffffff021916908373ffffffffffffffffffffffffffffffffffffffff1602179055505050505062000425565b3373ffffffffffffffffffffffffffffffffffffffff16600460080160019054906101000a900473ffffffffffffffffffffffffffffffffffffffff1673ffffffffffffffffffffffffffffffffffffffff1614620000fb57600080fd5b8260046000016000019080519060200190620001199291906200014b565b508160046000016001019080519060200190620001389291906200014b565b5080600460000160020181905550505050565b828054600181600116156101000203166002900490600052602060002090601f016020900481019282601f106200018e57805160ff1916838001178555620001bf565b82800160010185558215620001bf579182015b82811115620001be578251825591602001919060010190620001a1565b5b509050620001ce9190620001d2565b5090565b620001f791905b80821115620001f3576000816000905550600101620001d9565b5090565b90565b6000815190506200020b81620003f1565b92915050565b600082601f8301126200022357600080fd5b81516200023a620002348262000350565b62000322565b915080825260208301602083018583830111156200025757600080fd5b62000264838284620003bb565b50505092915050565b6000815190506200027e816200040b565b92915050565b600080600080608085870312156200029b57600080fd5b6000620002ab87828801620001fa565b945050602085015167ffffffffffffffff811115620002c957600080fd5b620002d78782880162000211565b935050604085015167ffffffffffffffff811115620002f557600080fd5b620003038782880162000211565b925050606062000316878288016200026d565b91505092959194509250565b6000604051905081810181811067ffffffffffffffff821117156200034657600080fd5b8060405250919050565b600067ffffffffffffffff8211156200036857600080fd5b601f19601f8301169050602081019050919050565b60006200038a8262000391565b9050919050565b600073ffffffffffffffffffffffffffffffffffffffff82169050919050565b6000819050919050565b60005b83811015620003db578082015181840152602081019050620003be565b83811115620003eb576000848401525b50505050565b620003fc816200037d565b81146200040857600080fd5b50565b6200041681620003b1565b81146200042257600080fd5b50565b61290880620004356000396000f3fe608060405234801561001057600080fd5b50600436106101005760003560e01c8063482ff513116100975780638e6b582f116100665780638e6b582f146102a1578063ad11c131146102bd578063d6da669e146102db578063f93bbb871461030b57610100565b8063482ff513146102035780634a4cd405146102335780638beeef2b1461024f5780638e1a55fc1461027f57610100565b80631eea56a3116100d35780631eea56a314610179578063200d2ed21461019557806331b1b978146101b357806338745a1c146101e757610100565b806302bc7b221461010557806302d05d3f1461012157806306fdde031461013f5780631275b3bb1461015d575b600080fd5b61011f600480360361011a919081019061210f565b610327565b005b6101296103aa565b6040516101369190612473565b60405180910390f35b6101476103d7565b6040516101549190612585565b60405180910390f35b61017760048036036101729190810190611f5a565b61047f565b005b610193600480360361018e9190810190612090565b610626565b005b61019d6106cf565b6040516101aa919061256a565b60405180910390f35b6101cd60048036036101c8919081019061210f565b6106e9565b6040516101de959493929190612509565b60405180910390f35b61020160048036036101fc9190810190611f5a565b610869565b005b61021d60048036036102189190810190611f96565b61097d565b60405161022a9190612602565b60405180910390f35b61024d600480360361024891908101906121cd565b610a10565b005b61026960048036036102649190810190611f08565b610b6f565b60405161027691906124ee565b60405180910390f35b610287610cb9565b6040516102989594939291906125a7565b60405180910390f35b6102bb60048036036102b6919081019061210f565b610e94565b005b6102c5610f6b565b6040516102d29190612602565b60405180910390f35b6102f560048036036102f09190810190612161565b611247565b6040516103029190612602565b60405180910390f35b61032560048036036103209190810190612067565b611a38565b005b3373ffffffffffffffffffffffffffffffffffffffff16600460080160019054906101000a900473ffffffffffffffffffffffffffffffffffffffff1673ffffffffffffffffffffffffffffffffffffffff161461038457600080fd5b6000811161039157600080fd5b8060046003016001016000828254019250508190555050565b6000600460080160019054906101000a900473ffffffffffffffffffffffffffffffffffffffff16905090565b606060046000016000018054600181600116156101000203166002900480601f0160208091040260200160405190810160405280929190818152602001828054600181600116156101000203166002900480156104755780601f1061044a57610100808354040283529160200191610475565b820191906000526020600020905b81548152906001019060200180831161045857829003601f168201915b5050505050905090565b3373ffffffffffffffffffffffffffffffffffffffff16600460080160019054906101000a900473ffffffffffffffffffffffffffffffffffffffff1673ffffffffffffffffffffffffffffffffffffffff16146104dc57600080fd5b600081116104e957600080fd5b808273ffffffffffffffffffffffffffffffffffffffff166370a08231306040518263ffffffff1660e01b81526004016105239190612473565b60206040518083038186803b15801561053b57600080fd5b505afa15801561054f573d6000803e3d6000fd5b505050506040513d601f19601f820116820180604052506105739190810190612138565b101561057e57600080fd5b8173ffffffffffffffffffffffffffffffffffffffff1663a9059cbb33836040518363ffffffff1660e01b81526004016105b99291906124c5565b602060405180830381600087803b1580156105d357600080fd5b505af11580156105e7573d6000803e3d6000fd5b505050506040513d601f19601f8201168201806040525061060b9190810190611f31565b50806004600301600001600082825403925050819055505050565b3373ffffffffffffffffffffffffffffffffffffffff16600460080160019054906101000a900473ffffffffffffffffffffffffffffffffffffffff1673ffffffffffffffffffffffffffffffffffffffff161461068357600080fd5b826004600001600001908051906020019061069f929190611abe565b5081600460000160010190805190602001906106bc929190611abe565b5080600460000160020181905550505050565b6000600460080160009054906101000a900460ff16905090565b60006020528060005260406000206000915090508060000160009054906101000a900460ff16908060010154908060020160009054906101000a900460ff1690806003018054600181600116156101000203166002900480601f0160208091040260200160405190810160405280929190818152602001828054600181600116156101000203166002900480156107c15780601f10610796576101008083540402835291602001916107c1565b820191906000526020600020905b8154815290600101906020018083116107a457829003601f168201915b505050505090806004018054600181600116156101000203166002900480601f01602080910402602001604051908101604052809291908181526020018280546001816001161561010002031660029004801561085f5780601f106108345761010080835404028352916020019161085f565b820191906000526020600020905b81548152906001019060200180831161084257829003601f168201915b5050505050905085565b3373ffffffffffffffffffffffffffffffffffffffff16600460080160019054906101000a900473ffffffffffffffffffffffffffffffffffffffff1673ffffffffffffffffffffffffffffffffffffffff16146108c657600080fd5b600081116108d357600080fd5b8173ffffffffffffffffffffffffffffffffffffffff166323b872dd3330846040518463ffffffff1660e01b81526004016109109392919061248e565b602060405180830381600087803b15801561092a57600080fd5b505af115801561093e573d6000803e3d6000fd5b505050506040513d601f19601f820116820180604052506109629190810190611f31565b50806004600301600001600082825401925050819055505050565b60003373ffffffffffffffffffffffffffffffffffffffff16600460080160019054906101000a900473ffffffffffffffffffffffffffffffffffffffff1673ffffffffffffffffffffffffffffffffffffffff16146109dc57600080fd5b6109ed600154888888888888610a10565b600160008154809291906001019190505550600180540390509695505050505050565b3373ffffffffffffffffffffffffffffffffffffffff16600460080160019054906101000a900473ffffffffffffffffffffffffffffffffffffffff1673ffffffffffffffffffffffffffffffffffffffff1614610a6d57600080fd5b6040518060c00160405280876002811115610a8457fe5b815260200186815260200185151581526020018481526020018381526020018281525060008089815260200190815260200160002060008201518160000160006101000a81548160ff02191690836002811115610add57fe5b02179055506020820151816001015560408201518160020160006101000a81548160ff0219169083151502179055506060820151816003019080519060200190610b28929190611b3e565b506080820151816004019080519060200190610b45929190611b3e565b5060a0820151816005019080519060200190610b62929190611bbe565b5090505050505050505050565b600080600360008473ffffffffffffffffffffffffffffffffffffffff1673ffffffffffffffffffffffffffffffffffffffff16815260200190815260200160002054905060008090505b600154811015610cad576060600260008381526020019081526020016000208381548110610be457fe5b906000526020600020018054600181600116156101000203166002900480601f016020809104026020016040519081016040528092919081815260200182805460018160011615610100020316600290048015610c825780601f10610c5757610100808354040283529160200191610c82565b820191906000526020600020905b815481529060010190602001808311610c6557829003601f168201915b50505050509050600081511115610c9f5760019350505050610cb4565b508080600101915050610bba565b5060009150505b919050565b600480600001604051806060016040529081600082018054600181600116156101000203166002900480601f016020809104026020016040519081016040528092919081815260200182805460018160011615610100020316600290048015610d635780601f10610d3857610100808354040283529160200191610d63565b820191906000526020600020905b815481529060010190602001808311610d4657829003601f168201915b50505050508152602001600182018054600181600116156101000203166002900480601f016020809104026020016040519081016040528092919081815260200182805460018160011615610100020316600290048015610e055780601f10610dda57610100808354040283529160200191610e05565b820191906000526020600020905b815481529060010190602001808311610de857829003601f168201915b505050505081526020016002820154815250509080600301604051806080016040529081600082015481526020016001820154815260200160028201548152602001600382015481525050908060070154908060080160009054906101000a900460ff16908060080160019054906101000a900473ffffffffffffffffffffffffffffffffffffffff16905085565b3373ffffffffffffffffffffffffffffffffffffffff16600460080160019054906101000a900473ffffffffffffffffffffffffffffffffffffffff1673ffffffffffffffffffffffffffffffffffffffff1614610ef157600080fd5b60008111610efe57600080fd5b80471015610f0b57600080fd5b3373ffffffffffffffffffffffffffffffffffffffff166108fc829081150290604051600060405180830381858888f19350505050158015610f51573d6000803e3d6000fd5b508060046003016001016000828254039250508190555050565b6000806000905060008090505b60015481101561123f57610f8a611c1e565b6000808381526020019081526020016000206040518060c00160405290816000820160009054906101000a900460ff166002811115610fc557fe5b6002811115610fd057fe5b8152602001600182015481526020016002820160009054906101000a900460ff16151515158152602001600382018054600181600116156101000203166002900480601f0160208091040260200160405190810160405280929190818152602001828054600181600116156101000203166002900480156110925780601f1061106757610100808354040283529160200191611092565b820191906000526020600020905b81548152906001019060200180831161107557829003601f168201915b50505050508152602001600482018054600181600116156101000203166002900480601f0160208091040260200160405190810160405280929190818152602001828054600181600116156101000203166002900480156111345780601f1061110957610100808354040283529160200191611134565b820191906000526020600020905b81548152906001019060200180831161111757829003601f168201915b5050505050815260200160058201805480602002602001604051908101604052809291908181526020016000905b8282101561121e578382906000526020600020018054600181600116156101000203166002900480601f01602080910402602001604051908101604052809291908181526020018280546001816001161561010002031660029004801561120a5780601f106111df5761010080835404028352916020019161120a565b820191906000526020600020905b8154815290600101906020018083116111ed57829003601f168201915b505050505081526020019060010190611162565b50505050815250509050806020015183019250508080600101915050610f78565b508091505090565b60003373ffffffffffffffffffffffffffffffffffffffff16600460080160019054906101000a900473ffffffffffffffffffffffffffffffffffffffff1673ffffffffffffffffffffffffffffffffffffffff1614156112a757600080fd5b600160028111156112b457fe5b600460080160009054906101000a900460ff1660028111156112d257fe5b146112dc57600080fd5b6000809050600080905060008090505b60015481101561166e576112fe611c1e565b6000808381526020019081526020016000206040518060c00160405290816000820160009054906101000a900460ff16600281111561133957fe5b600281111561134457fe5b8152602001600182015481526020016002820160009054906101000a900460ff16151515158152602001600382018054600181600116156101000203166002900480601f0160208091040260200160405190810160405280929190818152602001828054600181600116156101000203166002900480156114065780601f106113db57610100808354040283529160200191611406565b820191906000526020600020905b8154815290600101906020018083116113e957829003601f168201915b50505050508152602001600482018054600181600116156101000203166002900480601f0160208091040260200160405190810160405280929190818152602001828054600181600116156101000203166002900480156114a85780601f1061147d576101008083540402835291602001916114a8565b820191906000526020600020905b81548152906001019060200180831161148b57829003601f168201915b5050505050815260200160058201805480602002602001604051908101604052809291908181526020016000905b82821015611592578382906000526020600020018054600181600116156101000203166002900480601f01602080910402602001604051908101604052809291908181526020018280546001816001161561010002031660029004801561157e5780601f106115535761010080835404028352916020019161157e565b820191906000526020600020905b81548152906001019060200180831161156157829003601f168201915b5050505050815260200190600101906114d6565b5050505081525050905060608787848181106115aa57fe5b90506020028101803560016020038336030381126115c757600080fd5b8083019250508135905060208201915067ffffffffffffffff8111156115ec57600080fd5b6001810236038213156115fe57600080fd5b8080601f016020809104026020016040519081016040528093929190818152602001838380828437600081840152601f19601f82011690508083019250505050505050905060008151111561165f5781602001518501945083806001019450505b505080806001019150506112ec565b506001548160ff16141561168a57600460000160020154820191505b60046003016000015482111561169f57600080fd5b6116a833610b6f565b156116b257600080fd5b600460070154600360003373ffffffffffffffffffffffffffffffffffffffff1673ffffffffffffffffffffffffffffffffffffffff1681526020019081526020016000208190555060008090505b8585905081101561181c57606086868381811061171a57fe5b905060200281018035600160200383360303811261173757600080fd5b8083019250508135905060208201915067ffffffffffffffff81111561175c57600080fd5b60018102360382131561176e57600080fd5b8080601f016020809104026020016040519081016040528093929190818152602001838380828437600081840152601f19601f82011690508083019250505050505050905060008151111561180e576002600083815260200190815260200160002081908060018154018082558091505090600182039060005260206000200160009091929091909150908051906020019061180b929190611abe565b50505b508080600101915050611701565b508573ffffffffffffffffffffffffffffffffffffffff1663a9059cbb33846040518363ffffffff1660e01b81526004016118589291906124c5565b602060405180830381600087803b15801561187257600080fd5b505af1158015611886573d6000803e3d6000fd5b505050506040513d601f19601f820116820180604052506118aa9190810190611f31565b5081600460030160000160008282540392505081905550816004600301600301600082825401925050819055506000600460030160010154111561198e576000876004600301600101540390506000889050600082116119105760046003016001015490505b80471061198b573373ffffffffffffffffffffffffffffffffffffffff166108fc829081150290604051600060405180830381858888f1935050505015801561195d573d6000803e3d6000fd5b5080600460030160010160008282540392505081905550806004600301600201600082825401925050819055505b50505b6004600701600081548092919060010191905055506119ab610f6b565b6004600301600001541015611a2b576002600460080160006101000a81548160ff021916908360028111156119dc57fe5b02179055507f0162568b2de8418ff706fde39b1c8a9fd0cb82ab9b14fdaa9c2e0860105e1fca600460080160009054906101000a900460ff16604051611a22919061256a565b60405180910390a15b8192505050949350505050565b3373ffffffffffffffffffffffffffffffffffffffff16600460080160019054906101000a900473ffffffffffffffffffffffffffffffffffffffff1673ffffffffffffffffffffffffffffffffffffffff1614611a9557600080fd5b80600460080160006101000a81548160ff02191690836002811115611ab657fe5b021790555050565b828054600181600116156101000203166002900490600052602060002090601f016020900481019282601f10611aff57805160ff1916838001178555611b2d565b82800160010185558215611b2d579182015b82811115611b2c578251825591602001919060010190611b11565b5b509050611b3a9190611c61565b5090565b828054600181600116156101000203166002900490600052602060002090601f016020900481019282601f10611b7f57805160ff1916838001178555611bad565b82800160010185558215611bad579182015b82811115611bac578251825591602001919060010190611b91565b5b509050611bba9190611c61565b5090565b828054828255906000526020600020908101928215611c0d579160200282015b82811115611c0c578251829080519060200190611bfc929190611b3e565b5091602001919060010190611bde565b5b509050611c1a9190611c86565b5090565b6040518060c0016040528060006002811115611c3657fe5b8152602001600081526020016000151581526020016060815260200160608152602001606081525090565b611c8391905b80821115611c7f576000816000905550600101611c67565b5090565b90565b611caf91905b80821115611cab5760008181611ca29190611cb2565b50600101611c8c565b5090565b90565b50805460018160011615610100020316600290046000825580601f10611cd85750611cf7565b601f016020900490600052602060002090810190611cf69190611c61565b5b50565b600081359050611d0981612849565b92915050565b60008083601f840112611d2157600080fd5b8235905067ffffffffffffffff811115611d3a57600080fd5b602083019150836020820283011115611d5257600080fd5b9250929050565b600082601f830112611d6a57600080fd5b8135611d7d611d788261264a565b61261d565b9150818183526020840193506020810190508360005b83811015611dc35781358601611da98882611e36565b845260208401935060208301925050600181019050611d93565b5050505092915050565b600081359050611ddc81612860565b92915050565b600081519050611df181612860565b92915050565b600081359050611e0681612877565b92915050565b600081359050611e1b8161288e565b92915050565b600081359050611e308161289e565b92915050565b600082601f830112611e4757600080fd5b8135611e5a611e5582612672565b61261d565b91508082526020830160208301858383011115611e7657600080fd5b611e818382846127dc565b50505092915050565b600082601f830112611e9b57600080fd5b8135611eae611ea98261269e565b61261d565b91508082526020830160208301858383011115611eca57600080fd5b611ed58382846127dc565b50505092915050565b600081359050611eed816128ae565b92915050565b600081519050611f02816128ae565b92915050565b600060208284031215611f1a57600080fd5b6000611f2884828501611cfa565b91505092915050565b600060208284031215611f4357600080fd5b6000611f5184828501611de2565b91505092915050565b60008060408385031215611f6d57600080fd5b6000611f7b85828601611df7565b9250506020611f8c85828601611ede565b9150509250929050565b60008060008060008060c08789031215611faf57600080fd5b6000611fbd89828a01611e0c565b9650506020611fce89828a01611ede565b9550506040611fdf89828a01611dcd565b945050606087013567ffffffffffffffff811115611ffc57600080fd5b61200889828a01611e8a565b935050608087013567ffffffffffffffff81111561202557600080fd5b61203189828a01611e8a565b92505060a087013567ffffffffffffffff81111561204e57600080fd5b61205a89828a01611d59565b9150509295509295509295565b60006020828403121561207957600080fd5b600061208784828501611e21565b91505092915050565b6000806000606084860312156120a557600080fd5b600084013567ffffffffffffffff8111156120bf57600080fd5b6120cb86828701611e8a565b935050602084013567ffffffffffffffff8111156120e857600080fd5b6120f486828701611e8a565b925050604061210586828701611ede565b9150509250925092565b60006020828403121561212157600080fd5b600061212f84828501611ede565b91505092915050565b60006020828403121561214a57600080fd5b600061215884828501611ef3565b91505092915050565b6000806000806060858703121561217757600080fd5b600061218587828801611ede565b945050602061219687828801611df7565b935050604085013567ffffffffffffffff8111156121b357600080fd5b6121bf87828801611d0f565b925092505092959194509250565b600080600080600080600060e0888a0312156121e857600080fd5b60006121f68a828b01611ede565b97505060206122078a828b01611e0c565b96505060406122188a828b01611ede565b95505060606122298a828b01611dcd565b945050608088013567ffffffffffffffff81111561224657600080fd5b6122528a828b01611e8a565b93505060a088013567ffffffffffffffff81111561226f57600080fd5b61227b8a828b01611e8a565b92505060c088013567ffffffffffffffff81111561229857600080fd5b6122a48a828b01611d59565b91505092959891949750929550565b6122bc81612782565b82525050565b6122cb81612702565b82525050565b6122da81612714565b82525050565b6122e981612794565b82525050565b6122f8816127a6565b82525050565b6000612309826126d5565b61231381856126f1565b93506123238185602086016127eb565b61232c8161281e565b840191505092915050565b6000612342826126ca565b61234c81856126e0565b935061235c8185602086016127eb565b6123658161281e565b840191505092915050565b600061237b826126ca565b61238581856126f1565b93506123958185602086016127eb565b61239e8161281e565b840191505092915050565b6080820160008201516123bf6000850182612455565b5060208201516123d26020850182612455565b5060408201516123e56040850182612455565b5060608201516123f86060850182612455565b50505050565b6000606083016000830151848203600086015261241b8282612337565b915050602083015184820360208601526124358282612337565b915050604083015161244a6040860182612455565b508091505092915050565b61245e81612778565b82525050565b61246d81612778565b82525050565b600060208201905061248860008301846122c2565b92915050565b60006060820190506124a360008301866122b3565b6124b060208301856122c2565b6124bd6040830184612464565b949350505050565b60006040820190506124da60008301856122b3565b6124e76020830184612464565b9392505050565b600060208201905061250360008301846122d1565b92915050565b600060a08201905061251e60008301886122e0565b61252b6020830187612464565b61253860408301866122d1565b818103606083015261254a8185612370565b9050818103608083015261255e8184612370565b90509695505050505050565b600060208201905061257f60008301846122ef565b92915050565b6000602082019050818103600083015261259f81846122fe565b905092915050565b60006101008201905081810360008301526125c281886123fe565b90506125d160208301876123a9565b6125de60a0830186612464565b6125eb60c08301856122ef565b6125f860e08301846122c2565b9695505050505050565b60006020820190506126176000830184612464565b92915050565b6000604051905081810181811067ffffffffffffffff8211171561264057600080fd5b8060405250919050565b600067ffffffffffffffff82111561266157600080fd5b602082029050602081019050919050565b600067ffffffffffffffff82111561268957600080fd5b601f19601f8301169050602081019050919050565b600067ffffffffffffffff8211156126b557600080fd5b601f19601f8301169050602081019050919050565b600081519050919050565b600081519050919050565b600082825260208201905092915050565b600082825260208201905092915050565b600061270d82612758565b9050919050565b60008115159050919050565b600061272b82612702565b9050919050565b60008190506127408261282f565b919050565b60008190506127538261283c565b919050565b600073ffffffffffffffffffffffffffffffffffffffff82169050919050565b6000819050919050565b600061278d826127b8565b9050919050565b600061279f82612732565b9050919050565b60006127b182612745565b9050919050565b60006127c3826127ca565b9050919050565b60006127d582612758565b9050919050565b82818337600083830152505050565b60005b838110156128095780820151818401526020810190506127ee565b83811115612818576000848401525b50505050565b6000601f19601f8301169050919050565b6003811061283957fe5b50565b6003811061284657fe5b50565b61285281612702565b811461285d57600080fd5b50565b61286981612714565b811461287457600080fd5b50565b61288081612720565b811461288b57600080fd5b50565b6003811061289b57600080fd5b50565b600381106128ab57600080fd5b50565b6128b781612778565b81146128c257600080fd5b5056fea365627a7a72315820e7e8f07fbfdf74eb6dc8e1aca03a997e48e343588bc021377a76e0f4152b68ee6c6578706572696d656e74616cf564736f6c63430005100040a365627a7a72315820dfab9fe2134ce06041fe72d244df8da19653b4edf131d599571db22afb32fed26c6578706572696d656e74616cf564736f6c63430005100040",
  "source": "// SPDX-License-Identifier: MIT\npragma experimental ABIEncoderV2;\npragma solidity >=0.4.22 <0.9.0;\n\n/*\nSurvana\n----------------------\n1. A owner can add a creator to add survies\n2. A creator can create a survey that has unlimited questions.\n3. A question can be one of the following types of questions\n\t- A mulitple choice\n\t- Text\n\t- Rate\n4. Each question will be assigned an amount of tokens that can be earned for completed it\n5. They can mark a question as required or optional (defaulted)\n6. The creator has to fill the liquidity pool for that survey with tokens to be distrubted to people\n7. There can be an extra bonus for completing the whole survey (which the creator can define how much that is)\n8. The creator can stop the survey at anytime. (will stop clients who are on it currently).\n9. Once the contract determines the survey cannot fulfill another disbrusment of funds, it will auto close it. (will stop clients)\n10. A client can only do a survey once\n11. When survey has started, the questions cannot be changed.\n*/\n\nimport \"./Survey.sol\";\nimport \"./Ownable.sol\";\nimport \"./Token.sol\";\nimport \"./SurveyInterface.sol\";\n\ncontract Survana is Ownable, SurveyInterface {\n  string public name = \"Survana\";\n  mapping (address => bool) creators;\n  Token public token;\n  mapping (uint => address) public surveys;\n  uint surveyCount = 0;\n\n  //TODO\n  //UNIT TESTS\n\n  constructor(Token _token) public {\n    token = _token;\n  }\n  \n  modifier isCreator() {\n    require(creators[msg.sender] == true);\n    _;\n  }\n\n  event AddedCreator(\n    address indexed _creator\n  );\n\n  event RemovedCreator(\n    address indexed _creator\n  );\n\n  event DepositedTokensToPool(\n    address _creator,\n    uint _surveyId,\n    uint _amount\n  );\n\n  event DepositedGasToPool(\n    address _creator,\n    uint _surveyId,\n    uint _amount\n  );\n\n  event WithdrawFromTokenPool(\n    address _creator,\n    uint _surveyId,\n    uint _amount\n  );\n\n  event WithdrawFromGasPool(\n    address _creator,\n    uint _surveyId,\n    uint _amount\n  );\n\n  event SurveyCreated(\n    address indexed _creator,\n    address indexed _newContract,\n    uint _surveyId\n  );\n\n  event SurveyUpdated(\n    address indexed _creator,\n    address indexed _contract,\n    uint _surveyId\n  );\n\n  event SurveySubmited(\n    address indexed _user,\n    uint _surveyId,\n    uint _tokensAwarded\n  );\n\n  event QuestionAdded(\n    address indexed _creator,\n    address indexed _contract,\n    uint _surveyId,\n    uint _questionId\n  );\n\n  event QuestionUpdated(\n    address indexed _creator,\n    address indexed _contract,\n    uint _surveyId,\n    uint _questionId\n  );\n\n  event SurveyStatusChanged(\n    Status _status,\n    uint _id\n  );\n\n  event TokenChanged(\n    Token _token\n  );\n\n  function addCreator(address _addr) external onlyOwner {\n    creators[_addr] = true;\n    emit AddedCreator(_addr);\n  }\n\n  function removeCreator(address _addr) external onlyOwner {\n    creators[_addr] = false;\n    emit RemovedCreator(_addr);\n  }\n\n  function depositToSurveyTokenPool(uint _id, uint _amount) external isCreator {\n    require(_amount > 0);\n    Survey s = Survey(surveys[_id]);\n    require(bytes(s.name()).length > 0);\n    s.depositToSurveyTokenPool(token, _amount);\n    emit DepositedTokensToPool(msg.sender, _id, _amount);\n  }\n\n  function depositToSurveyGasPool(uint _id) external isCreator payable {\n    require(msg.value > 0);\n    Survey s = Survey(surveys[_id]);\n    address payable _survContract = address(uint256(surveys[_id]));\n    _survContract.transfer(msg.value);\n    s.depositToSurveyGasPool(msg.value);\n    emit DepositedGasToPool(msg.sender, _id, msg.value);\n  }\n\n  function withdrawFromTokenPool(uint _id, uint _amount) external isCreator {\n    require(_amount > 0);\n    Survey s = Survey(surveys[_id]);\n    s.withdrawFromTokenPool(token, _amount);\n    emit WithdrawFromTokenPool(msg.sender, _id, _amount);\n  }\n\n  function withdrawFromGasPool(uint _id, uint _amount) external isCreator {\n    require(_amount > 0);\n    Survey s = Survey(surveys[_id]);\n    s.withdrawFromGasPool(_amount);\n    emit WithdrawFromGasPool(msg.sender, _id, _amount);\n  }\n\n  function createSurvey(\n    string calldata _name,\n    string calldata _description,\n    uint _bonusAmount\n  ) external isCreator {\n    Survey s = new Survey(msg.sender, _name, _description, _bonusAmount);\n    address newContract = address(s);\n    surveys[surveyCount] = newContract;\n    emit SurveyCreated(msg.sender, newContract, surveyCount);\n    surveyCount++;\n  }\n\n  function updateSurvey(\n    uint _id,\n    string calldata _name,\n    string calldata _description,\n    uint _bonusAmount\n  ) external isCreator {\n    Survey s = Survey(surveys[_id]);\n    s.updateSurvey(_name, _description, _bonusAmount);\n    emit SurveyUpdated(msg.sender, address(s), _id);\n  }\n\n  function addQuestion(\n    uint _id,\n    QuestionType _qtypes,\n    uint _worth,\n    bool _required,\n    string memory _title,\n    string memory _qdescription,\n    string[] memory _choices\n  ) public  isCreator {\n    Survey s = Survey(surveys[_id]);\n    uint qid = s.addQuestion(_qtypes, _worth, _required, _title, _qdescription, _choices);\n    emit QuestionAdded(msg.sender, address(s), _id, qid);\n  }\n\n  function updateQuestion(\n    uint _id,\n    uint _qid,\n    QuestionType _qtypes,\n    uint _worth,\n    bool _required,\n    string memory _title,\n    string memory _qdescription,\n    string[] memory _choices\n  ) public isCreator {\n    Survey s = Survey(surveys[_id]);\n    s.updateQuestion(_qid, _qtypes, _worth, _required, _title, _qdescription, _choices);\n    emit QuestionUpdated(msg.sender, address(s), _id, _qid);\n  }\n\n  function setSurveyStatus(uint _id, Status _status) external isCreator {\n    Survey s = Survey(surveys[_id]);\n    s.setSurveyStatus(_status);\n    emit SurveyStatusChanged(_status, _id);\n  }\n\n\n  function submitSurvey(\n    uint _id,\n    string[] calldata _answers\n  ) external {\n    uint gas = gasleft();\n    Survey s = Survey(surveys[_id]);\n    uint reward = s.submitSurvey(gas, token, _answers);\n    emit SurveySubmited(msg.sender, _id, reward);\n  }\n\n  function getCreatorSurveys() external view returns (Survey[] memory) {\n    require(creators[msg.sender] == true);\n    Survey[] memory _tmp;\n    uint count = 0;\n    for (uint256 index = 0; index < surveyCount; index++) {\n      Survey s = Survey(surveys[index]);\n      if (s.creator() == msg.sender) {\n        _tmp[count] = s;\n        count++;\n      }\n    }\n    return _tmp;\n  }\n\n  function getOpenSurveys() external view returns (Survey[] memory) {\n    Survey[] memory _tmp;\n    uint count = 0;\n    for (uint256 index = 0; index < surveyCount; index++) {\n      Survey s = Survey(surveys[index]);\n      if (s.status() == Status.OPEN && s.creator() != msg.sender) {\n        _tmp[count] = s;\n        count++;\n      }\n    }\n    return _tmp;\n  }\n\n  function getUserFinishedSurveys() external view returns (Survey[] memory) {\n    Survey[] memory _tmp;\n    uint count = 0;\n    for (uint256 index = 0; index < surveyCount; index++) {\n      Survey s = Survey(surveys[index]);\n      if (s.status() == Status.FINISHED && s.didUserTakeSurvey(msg.sender)) {\n        _tmp[count] = s;\n        count++;\n      }\n    }\n    return _tmp;\n  }\n\n  function setToken(Token _token) external onlyOwner {\n    token = _token;\n    emit TokenChanged(_token);\n  }\n}\n",
  "sourcePath": "/home/scott/projects/survana/contracts/Survana.sol",
  "compiler": {
    "name": "solc",
    "version": "0.5.16+commit.9c3226ce.Emscripten.clang"
  },
  "schemaVersion": "3.4.3",
  "updatedAt": "2021-09-02T23:35:52.813Z",
  "devdoc": {
    "methods": {}
  },
  "userdoc": {
    "methods": {}
  }
}