{
  "contractName": "Survey",
  "abi": [
    {
      "inputs": [
        {
          "internalType": "address",
          "name": "_creator",
          "type": "address"
        },
        {
          "internalType": "string",
          "name": "_name",
          "type": "string"
        },
        {
          "internalType": "string",
          "name": "_description",
          "type": "string"
        },
        {
          "internalType": "uint256",
          "name": "_bonusAmount",
          "type": "uint256"
        }
      ],
      "stateMutability": "nonpayable",
      "type": "constructor"
    },
    {
      "anonymous": false,
      "inputs": [
        {
          "indexed": false,
          "internalType": "enum SurveyInterface.Status",
          "name": "_status",
          "type": "uint8"
        }
      ],
      "name": "SurveyStatusChanged",
      "type": "event"
    },
    {
      "inputs": [
        {
          "internalType": "uint256",
          "name": "",
          "type": "uint256"
        },
        {
          "internalType": "uint256",
          "name": "",
          "type": "uint256"
        }
      ],
      "name": "answers",
      "outputs": [
        {
          "internalType": "string",
          "name": "",
          "type": "string"
        }
      ],
      "stateMutability": "view",
      "type": "function"
    },
    {
      "inputs": [],
      "name": "build",
      "outputs": [
        {
          "components": [
            {
              "internalType": "string",
              "name": "name",
              "type": "string"
            },
            {
              "internalType": "string",
              "name": "description",
              "type": "string"
            },
            {
              "internalType": "uint256",
              "name": "bonusAmount",
              "type": "uint256"
            }
          ],
          "internalType": "struct SurveyInterface.SurveyBasic",
          "name": "info",
          "type": "tuple"
        },
        {
          "components": [
            {
              "internalType": "uint256",
              "name": "tokenAmount",
              "type": "uint256"
            },
            {
              "internalType": "uint256",
              "name": "gasAmount",
              "type": "uint256"
            },
            {
              "internalType": "uint256",
              "name": "totalGasSent",
              "type": "uint256"
            },
            {
              "internalType": "uint256",
              "name": "totalTokensSent",
              "type": "uint256"
            }
          ],
          "internalType": "struct SurveyInterface.LiquidityPool",
          "name": "pool",
          "type": "tuple"
        },
        {
          "internalType": "uint256",
          "name": "surveysTaken",
          "type": "uint256"
        },
        {
          "internalType": "enum SurveyInterface.Status",
          "name": "status",
          "type": "uint8"
        },
        {
          "internalType": "address",
          "name": "creator",
          "type": "address"
        }
      ],
      "stateMutability": "view",
      "type": "function"
    },
    {
      "inputs": [],
      "name": "questionCount",
      "outputs": [
        {
          "internalType": "uint256",
          "name": "",
          "type": "uint256"
        }
      ],
      "stateMutability": "view",
      "type": "function"
    },
    {
      "inputs": [
        {
          "internalType": "uint256",
          "name": "",
          "type": "uint256"
        }
      ],
      "name": "questions",
      "outputs": [
        {
          "internalType": "enum SurveyInterface.QuestionType",
          "name": "questionType",
          "type": "uint8"
        },
        {
          "internalType": "uint256",
          "name": "worth",
          "type": "uint256"
        },
        {
          "internalType": "bool",
          "name": "required",
          "type": "bool"
        },
        {
          "internalType": "string",
          "name": "title",
          "type": "string"
        },
        {
          "internalType": "string",
          "name": "description",
          "type": "string"
        }
      ],
      "stateMutability": "view",
      "type": "function"
    },
    {
      "inputs": [
        {
          "internalType": "enum SurveyInterface.Status",
          "name": "_status",
          "type": "uint8"
        }
      ],
      "name": "setSurveyStatus",
      "outputs": [],
      "stateMutability": "nonpayable",
      "type": "function"
    },
    {
      "inputs": [
        {
          "internalType": "uint256",
          "name": "_gas",
          "type": "uint256"
        },
        {
          "internalType": "contract Token",
          "name": "_token",
          "type": "address"
        },
        {
          "internalType": "string[]",
          "name": "_answers",
          "type": "string[]"
        }
      ],
      "name": "submitSurvey",
      "outputs": [
        {
          "internalType": "uint256",
          "name": "",
          "type": "uint256"
        }
      ],
      "stateMutability": "nonpayable",
      "type": "function"
    },
    {
      "inputs": [],
      "name": "name",
      "outputs": [
        {
          "internalType": "string",
          "name": "",
          "type": "string"
        }
      ],
      "stateMutability": "view",
      "type": "function"
    },
    {
      "inputs": [],
      "name": "description",
      "outputs": [
        {
          "internalType": "string",
          "name": "",
          "type": "string"
        }
      ],
      "stateMutability": "view",
      "type": "function"
    },
    {
      "inputs": [],
      "name": "bonusAmount",
      "outputs": [
        {
          "internalType": "uint256",
          "name": "",
          "type": "uint256"
        }
      ],
      "stateMutability": "view",
      "type": "function"
    },
    {
      "inputs": [],
      "name": "creator",
      "outputs": [
        {
          "internalType": "address",
          "name": "",
          "type": "address"
        }
      ],
      "stateMutability": "view",
      "type": "function"
    },
    {
      "inputs": [],
      "name": "status",
      "outputs": [
        {
          "internalType": "enum SurveyInterface.Status",
          "name": "",
          "type": "uint8"
        }
      ],
      "stateMutability": "view",
      "type": "function"
    },
    {
      "inputs": [],
      "name": "info",
      "outputs": [
        {
          "components": [
            {
              "internalType": "string",
              "name": "name",
              "type": "string"
            },
            {
              "internalType": "string",
              "name": "description",
              "type": "string"
            },
            {
              "internalType": "uint256",
              "name": "bonusAmount",
              "type": "uint256"
            }
          ],
          "internalType": "struct SurveyInterface.SurveyBasic",
          "name": "",
          "type": "tuple"
        }
      ],
      "stateMutability": "view",
      "type": "function"
    },
    {
      "inputs": [],
      "name": "pool",
      "outputs": [
        {
          "components": [
            {
              "internalType": "uint256",
              "name": "tokenAmount",
              "type": "uint256"
            },
            {
              "internalType": "uint256",
              "name": "gasAmount",
              "type": "uint256"
            },
            {
              "internalType": "uint256",
              "name": "totalGasSent",
              "type": "uint256"
            },
            {
              "internalType": "uint256",
              "name": "totalTokensSent",
              "type": "uint256"
            }
          ],
          "internalType": "struct SurveyInterface.LiquidityPool",
          "name": "",
          "type": "tuple"
        }
      ],
      "stateMutability": "view",
      "type": "function"
    },
    {
      "inputs": [],
      "name": "getBalance",
      "outputs": [
        {
          "internalType": "uint256",
          "name": "",
          "type": "uint256"
        }
      ],
      "stateMutability": "view",
      "type": "function"
    },
    {
      "inputs": [],
      "name": "worth",
      "outputs": [
        {
          "internalType": "uint256",
          "name": "",
          "type": "uint256"
        }
      ],
      "stateMutability": "view",
      "type": "function"
    },
    {
      "inputs": [],
      "name": "getQuestions",
      "outputs": [
        {
          "components": [
            {
              "internalType": "enum SurveyInterface.QuestionType",
              "name": "questionType",
              "type": "uint8"
            },
            {
              "internalType": "uint256",
              "name": "worth",
              "type": "uint256"
            },
            {
              "internalType": "bool",
              "name": "required",
              "type": "bool"
            },
            {
              "internalType": "string",
              "name": "title",
              "type": "string"
            },
            {
              "internalType": "string",
              "name": "description",
              "type": "string"
            },
            {
              "internalType": "string[]",
              "name": "choices",
              "type": "string[]"
            }
          ],
          "internalType": "struct SurveyInterface.Question[]",
          "name": "",
          "type": "tuple[]"
        }
      ],
      "stateMutability": "view",
      "type": "function"
    },
    {
      "inputs": [
        {
          "internalType": "string",
          "name": "_name",
          "type": "string"
        },
        {
          "internalType": "string",
          "name": "_description",
          "type": "string"
        },
        {
          "internalType": "uint256",
          "name": "_bonusAmount",
          "type": "uint256"
        }
      ],
      "name": "updateSurvey",
      "outputs": [],
      "stateMutability": "nonpayable",
      "type": "function"
    },
    {
      "inputs": [
        {
          "internalType": "enum SurveyInterface.QuestionType",
          "name": "_qtypes",
          "type": "uint8"
        },
        {
          "internalType": "uint256",
          "name": "_worth",
          "type": "uint256"
        },
        {
          "internalType": "bool",
          "name": "_required",
          "type": "bool"
        },
        {
          "internalType": "string",
          "name": "_title",
          "type": "string"
        },
        {
          "internalType": "string",
          "name": "_qdescription",
          "type": "string"
        },
        {
          "internalType": "string[]",
          "name": "_choices",
          "type": "string[]"
        }
      ],
      "name": "addQuestion",
      "outputs": [
        {
          "internalType": "uint256",
          "name": "",
          "type": "uint256"
        }
      ],
      "stateMutability": "nonpayable",
      "type": "function"
    },
    {
      "inputs": [
        {
          "internalType": "uint256",
          "name": "_id",
          "type": "uint256"
        },
        {
          "internalType": "enum SurveyInterface.QuestionType",
          "name": "_qtypes",
          "type": "uint8"
        },
        {
          "internalType": "uint256",
          "name": "_worth",
          "type": "uint256"
        },
        {
          "internalType": "bool",
          "name": "_required",
          "type": "bool"
        },
        {
          "internalType": "string",
          "name": "_title",
          "type": "string"
        },
        {
          "internalType": "string",
          "name": "_qdescription",
          "type": "string"
        },
        {
          "internalType": "string[]",
          "name": "_choices",
          "type": "string[]"
        }
      ],
      "name": "updateQuestion",
      "outputs": [],
      "stateMutability": "nonpayable",
      "type": "function"
    },
    {
      "inputs": [
        {
          "internalType": "contract Token",
          "name": "_token",
          "type": "address"
        },
        {
          "internalType": "uint256",
          "name": "_amount",
          "type": "uint256"
        }
      ],
      "name": "depositToSurveyTokenPool",
      "outputs": [],
      "stateMutability": "nonpayable",
      "type": "function"
    },
    {
      "inputs": [],
      "name": "depositToSurveyGasPool",
      "outputs": [],
      "stateMutability": "payable",
      "type": "function"
    },
    {
      "inputs": [
        {
          "internalType": "contract Token",
          "name": "_token",
          "type": "address"
        },
        {
          "internalType": "uint256",
          "name": "_amount",
          "type": "uint256"
        }
      ],
      "name": "withdrawFromTokenPool",
      "outputs": [],
      "stateMutability": "nonpayable",
      "type": "function"
    },
    {
      "inputs": [
        {
          "internalType": "uint256",
          "name": "_amount",
          "type": "uint256"
        }
      ],
      "name": "withdrawFromGasPool",
      "outputs": [],
      "stateMutability": "nonpayable",
      "type": "function"
    },
    {
      "inputs": [
        {
          "internalType": "address",
          "name": "_addr",
          "type": "address"
        }
      ],
      "name": "didUserTakeSurvey",
      "outputs": [
        {
          "internalType": "bool",
          "name": "",
          "type": "bool"
        }
      ],
      "stateMutability": "view",
      "type": "function"
    }
  ],
  "bytecode": "0x608060405260006001553480156200001657600080fd5b5060405162002a1a38038062002a1a8339810160408190526200003991620001f3565b82516200004e90600490602086019062000096565b5081516200006490600590602085019062000096565b506006555050600c8054600160a060020a039092166101000261010060a860020a03199092169190911790556200030a565b828054620000a49062000285565b90600052602060002090601f016020900481019282620000c8576000855562000113565b82601f10620000e357805160ff191683800117855562000113565b8280016001018555821562000113579182015b8281111562000113578251825591602001919060010190620000f6565b506200012192915062000125565b5090565b5b8082111562000121576000815560010162000126565b600082601f8301126200014e57600080fd5b81516001604060020a03808211156200016b576200016b620002db565b604051601f8301601f19908116603f01168101908282118183101715620001965762000196620002db565b81604052838152602092508683858801011115620001b357600080fd5b600091505b83821015620001d75785820183015181830184015290820190620001b8565b83821115620001e95760008385830101525b9695505050505050565b600080600080608085870312156200020a57600080fd5b8451600160a060020a03811681146200022257600080fd5b60208601519094506001604060020a03808211156200024057600080fd5b6200024e888389016200013c565b945060408701519150808211156200026557600080fd5b5062000274878288016200013c565b606096909601519497939650505050565b6002810460018216806200029a57607f821691505b60208210811415620002d5577f4e487b7100000000000000000000000000000000000000000000000000000000600052602260045260246000fd5b50919050565b7f4e487b7100000000000000000000000000000000000000000000000000000000600052604160045260246000fd5b612700806200031a6000396000f3fe608060405260043610610168576000357c01000000000000000000000000000000000000000000000000000000009004806338745a1c116100d35780638e6b582f1161008c5780638e6b582f146103ee57806397221ab71461040e578063abadaf9a14610430578063ad11c13114610445578063d6da669e1461045a578063f93bbb871461047a57600080fd5b806338745a1c14610323578063482ff513146103435780634a4cd405146103635780637284e416146103835780638beeef2b146103985780638e1a55fc146103c857600080fd5b80631eea56a3116101255780631eea56a314610268578063200d2ed2146102885780632401519c146102a857806331767ffd146102c857806331b1b978146102d0578063370158ea1461030157600080fd5b806302d05d3f1461016d57806306fdde03146101a857806312065fe0146101ca5780631275b3bb146101e85780631468aa2c1461020a57806316f0115b14610220575b600080fd5b34801561017957600080fd5b50600c546101009004600160a060020a0316604051600160a060020a0390911681526020015b60405180910390f35b3480156101b457600080fd5b506101bd61049a565b60405161019f919061245b565b3480156101d657600080fd5b5030315b60405190815260200161019f565b3480156101f457600080fd5b50610208610203366004611f50565b61052e565b005b34801561021657600080fd5b506101da60015481565b34801561022c57600080fd5b506102356106ac565b60405161019f91908151815260208083015190820152604080830151908201526060918201519181019190915260800190565b34801561027457600080fd5b5061020861028336600461204f565b610704565b34801561029457600080fd5b50600c5460ff1660405161019f9190612448565b3480156102b457600080fd5b506101bd6102c336600461223a565b61074f565b610208610808565b3480156102dc57600080fd5b506102f06102eb3660046120bc565b61084d565b60405161019f9594939291906123fa565b34801561030d57600080fd5b50610316610994565b60405161019f919061246e565b34801561032f57600080fd5b5061020861033e366004611f50565b610af7565b34801561034f57600080fd5b506101da61035e366004611f7c565b610bd5565b34801561036f57600080fd5b5061020861037e366004612179565b610c33565b34801561038f57600080fd5b506101bd610d43565b3480156103a457600080fd5b506103b86103b3366004611f0f565b610d54565b604051901515815260200161019f565b3480156103d457600080fd5b506103dd610e60565b60405161019f959493929190612481565b3480156103fa57600080fd5b506102086104093660046120bc565b610ff6565b34801561041a57600080fd5b50610423611072565b60405161019f91906122ee565b34801561043c57600080fd5b506006546101da565b34801561045157600080fd5b506101da6113a3565b34801561046657600080fd5b506101da6104753660046120ee565b611637565b34801561048657600080fd5b50610208610495366004612032565b611c6d565b60048054606091906104ab906125a2565b80601f01602080910402602001604051908101604052809291908181526020018280546104d7906125a2565b80156105245780601f106104f957610100808354040283529160200191610524565b820191906000526020600020905b81548152906001019060200180831161050757829003601f168201915b5050505050905090565b600c546101009004600160a060020a0316321461054a57600080fd5b6000811161055757600080fd5b6040517f70a082310000000000000000000000000000000000000000000000000000000081523060048201528190600160a060020a038416906370a082319060240160206040518083038186803b1580156105b157600080fd5b505afa1580156105c5573d6000803e3d6000fd5b505050506040513d601f19601f820116820180604052508101906105e991906120d5565b10156105f457600080fd5b6040517fa9059cbb00000000000000000000000000000000000000000000000000000000815232600482015260248101829052600160a060020a0383169063a9059cbb90604401602060405180830381600087803b15801561065557600080fd5b505af1158015610669573d6000803e3d6000fd5b505050506040513d601f19601f8201168201806040525081019061068d9190611f33565b50600780548291906000906106a390849061258b565b90915550505050565b6106d76040518060800160405280600081526020016000815260200160008152602001600081525090565b50604080516080810182526007548152600854602082015260095491810191909152600a54606082015290565b600c546101009004600160a060020a0316321461072057600080fd5b8251610733906004906020860190611cb0565b508151610747906005906020850190611cb0565b506006555050565b6002602052816000526040600020818154811061076b57600080fd5b90600052602060002001600091509150508054610787906125a2565b80601f01602080910402602001604051908101604052809291908181526020018280546107b3906125a2565b80156108005780601f106107d557610100808354040283529160200191610800565b820191906000526020600020905b8154815290600101906020018083116107e357829003601f168201915b505050505081565b600c546101009004600160a060020a0316321461082457600080fd5b6000341161083157600080fd5b60088054349190600090610846908490612573565b9091555050565b600060208190529081526040902080546001820154600283015460038401805460ff9485169593949092169291610883906125a2565b80601f01602080910402602001604051908101604052809291908181526020018280546108af906125a2565b80156108fc5780601f106108d1576101008083540402835291602001916108fc565b820191906000526020600020905b8154815290600101906020018083116108df57829003601f168201915b505050505090806004018054610911906125a2565b80601f016020809104026020016040519081016040528092919081815260200182805461093d906125a2565b801561098a5780601f1061095f5761010080835404028352916020019161098a565b820191906000526020600020905b81548152906001019060200180831161096d57829003601f168201915b5050505050905085565b6109b860405180606001604052806060815260200160608152602001600081525090565b604080516060810190915260048054829082906109d4906125a2565b80601f0160208091040260200160405190810160405280929190818152602001828054610a00906125a2565b8015610a4d5780601f10610a2257610100808354040283529160200191610a4d565b820191906000526020600020905b815481529060010190602001808311610a3057829003601f168201915b50505050508152602001600182018054610a66906125a2565b80601f0160208091040260200160405190810160405280929190818152602001828054610a92906125a2565b8015610adf5780601f10610ab457610100808354040283529160200191610adf565b820191906000526020600020905b815481529060010190602001808311610ac257829003601f168201915b50505050508152602001600282015481525050905090565b600c546101009004600160a060020a03163214610b1357600080fd5b60008111610b2057600080fd5b6040517f23b872dd00000000000000000000000000000000000000000000000000000000815232600482015230602482015260448101829052600160a060020a038316906323b872dd90606401602060405180830381600087803b158015610b8757600080fd5b505af1158015610b9b573d6000803e3d6000fd5b505050506040513d601f19601f82011682018060405250810190610bbf9190611f33565b50600780548291906000906106a3908490612573565b600c546000906101009004600160a060020a03163214610bf457600080fd5b610c05600154888888888888610c33565b60018054906000610c15836125da565b919050555060018054610c28919061258b565b979650505050505050565b600c546101009004600160a060020a03163214610c4f57600080fd5b6040518060c00160405280876002811115610c6c57610c6c61262e565b81526020808201889052861515604080840191909152606083018790526080830186905260a090920184905260008a8152908190522081518154829060ff19166001836002811115610cc057610cc061262e565b02179055506020828101516001830155604083015160028301805460ff191691151591909117905560608301518051610cff9260038501920190611cb0565b5060808201518051610d1b916004840191602090910190611cb0565b5060a08201518051610d37916005840191602090910190611d34565b50505050505050505050565b60058054606091906104ab906125a2565b600160a060020a038116600090815260036020526040812054815b600154811015610e56576000818152600260205260408120805484908110610d9957610d99612647565b906000526020600020018054610dae906125a2565b80601f0160208091040260200160405190810160405280929190818152602001828054610dda906125a2565b8015610e275780601f10610dfc57610100808354040283529160200191610e27565b820191906000526020600020905b815481529060010190602001808311610e0a57829003601f168201915b50505050509050600081511115610e4357506001949350505050565b5080610e4e816125da565b915050610d6f565b5060009392505050565b600480600001604051806060016040529081600082018054610e81906125a2565b80601f0160208091040260200160405190810160405280929190818152602001828054610ead906125a2565b8015610efa5780601f10610ecf57610100808354040283529160200191610efa565b820191906000526020600020905b815481529060010190602001808311610edd57829003601f168201915b50505050508152602001600182018054610f13906125a2565b80601f0160208091040260200160405190810160405280929190818152602001828054610f3f906125a2565b8015610f8c5780601f10610f6157610100808354040283529160200191610f8c565b820191906000526020600020905b815481529060010190602001808311610f6f57829003601f168201915b50505091835250506002919091015460209182015260408051608081018252600385015481526004850154928101929092526005840154908201526006830154606082015260078301546008909301549192909160ff8116906101009004600160a060020a031685565b600c546101009004600160a060020a0316321461101257600080fd5b6000811161101f57600080fd5b303181111561102d57600080fd5b6040513290819083156108fc029084906000818181858888f1935050505015801561105c573d6000803e3d6000fd5b50600880548391906000906106a390849061258b565b6060600060015467ffffffffffffffff81111561109157611091612660565b6040519080825280602002602001820160405280156110fe57816020015b6110eb6040805160c081019091528060008152602001600081526020016000151581526020016060815260200160608152602001606081525090565b8152602001906001900390816110af5790505b50905060005b60015481101561139d5760008181526020819052604090819020815160c081019092528054829060ff16600281111561113f5761113f61262e565b60028111156111505761115061262e565b815260018201546020820152600282015460ff1615156040820152600382018054606090920191611180906125a2565b80601f01602080910402602001604051908101604052809291908181526020018280546111ac906125a2565b80156111f95780601f106111ce576101008083540402835291602001916111f9565b820191906000526020600020905b8154815290600101906020018083116111dc57829003601f168201915b50505050508152602001600482018054611212906125a2565b80601f016020809104026020016040519081016040528092919081815260200182805461123e906125a2565b801561128b5780601f106112605761010080835404028352916020019161128b565b820191906000526020600020905b81548152906001019060200180831161126e57829003601f168201915b5050505050815260200160058201805480602002602001604051908101604052809291908181526020016000905b828210156113655783829060005260206000200180546112d8906125a2565b80601f0160208091040260200160405190810160405280929190818152602001828054611304906125a2565b80156113515780601f1061132657610100808354040283529160200191611351565b820191906000526020600020905b81548152906001019060200180831161133457829003601f168201915b5050505050815260200190600101906112b9565b505050508152505082828151811061137f5761137f612647565b60200260200101819052508080611395906125da565b915050611104565b50919050565b600080805b60015481101561139d57600081815260208190526040808220815160c081019092528054829060ff1660028111156113e2576113e261262e565b60028111156113f3576113f361262e565b815260018201546020820152600282015460ff1615156040820152600382018054606090920191611423906125a2565b80601f016020809104026020016040519081016040528092919081815260200182805461144f906125a2565b801561149c5780601f106114715761010080835404028352916020019161149c565b820191906000526020600020905b81548152906001019060200180831161147f57829003601f168201915b505050505081526020016004820180546114b5906125a2565b80601f01602080910402602001604051908101604052809291908181526020018280546114e1906125a2565b801561152e5780601f106115035761010080835404028352916020019161152e565b820191906000526020600020905b81548152906001019060200180831161151157829003601f168201915b5050505050815260200160058201805480602002602001604051908101604052809291908181526020016000905b8282101561160857838290600052602060002001805461157b906125a2565b80601f01602080910402602001604051908101604052809291908181526020018280546115a7906125a2565b80156115f45780601f106115c9576101008083540402835291602001916115f4565b820191906000526020600020905b8154815290600101906020018083116115d757829003601f168201915b50505050508152602001906001019061155c565b5050509152505060208101519091506116219084612573565b925050808061162f906125da565b9150506113a8565b600c546000906101009004600160a060020a031632141561165757600080fd5b6001600c5460ff1660028111156116705761167061262e565b1461167a57600080fd5b60008060005b60015481101561198457600081815260208190526040808220815160c081019092528054829060ff1660028111156116ba576116ba61262e565b60028111156116cb576116cb61262e565b815260018201546020820152600282015460ff16151560408201526003820180546060909201916116fb906125a2565b80601f0160208091040260200160405190810160405280929190818152602001828054611727906125a2565b80156117745780601f1061174957610100808354040283529160200191611774565b820191906000526020600020905b81548152906001019060200180831161175757829003601f168201915b5050505050815260200160048201805461178d906125a2565b80601f01602080910402602001604051908101604052809291908181526020018280546117b9906125a2565b80156118065780601f106117db57610100808354040283529160200191611806565b820191906000526020600020905b8154815290600101906020018083116117e957829003601f168201915b5050505050815260200160058201805480602002602001604051908101604052809291908181526020016000905b828210156118e0578382906000526020600020018054611853906125a2565b80601f016020809104026020016040519081016040528092919081815260200182805461187f906125a2565b80156118cc5780601f106118a1576101008083540402835291602001916118cc565b820191906000526020600020905b8154815290600101906020018083116118af57829003601f168201915b505050505081526020019060010190611834565b5050505081525050905060008787848181106118fe576118fe612647565b905060200281019061191091906124f4565b8080601f016020809104026020016040519081016040528093929190818152602001838380828437600092019190915250508251929350509015905061196f57602082015161195f9086612573565b94508361196b816125f5565b9450505b5050808061197c906125da565b915050611680565b506001548160ff1614156119a25760065461199f9083612573565b91505b6007548211156119b157600080fd5b6119ba32610d54565b156119c457600080fd5b600b54326000908152600360205260408120919091555b84811015611a905760008686838181106119f7576119f7612647565b9050602002810190611a0991906124f4565b8080601f0160208091040260200160405190810160405280939291908181526020018383808284376000920191909152505082519293505090159050611a7d57600082815260026020908152604082208054600181018255908352918190208351611a7b939190910191840190611cb0565b505b5080611a88816125da565b9150506119db565b506040517fa9059cbb00000000000000000000000000000000000000000000000000000000815232600482015260248101839052600160a060020a0387169063a9059cbb90604401602060405180830381600087803b158015611af257600080fd5b505af1158015611b06573d6000803e3d6000fd5b505050506040513d601f19601f82011682018060405250810190611b2a9190611f33565b5060078054839190600090611b4090849061258b565b9091555050600a8054839190600090611b5a908490612573565b909155505060085415611bf657600854600090611b7890899061258b565b90508781611b8557506008545b30318111611bf3576040513290819083156108fc029084906000818181858888f19350505050158015611bbc573d6000803e3d6000fd5b5060088054839190600090611bd290849061258b565b909155505060098054839190600090611bec908490612573565b9091555050505b50505b600b8054906000611c06836125da565b9190505550611c136113a3565b6007541015611c6357600c805460ff191660029081179091556040517f0162568b2de8418ff706fde39b1c8a9fd0cb82ab9b14fdaa9c2e0860105e1fca91611c5a91612448565b60405180910390a15b5095945050505050565b600c546101009004600160a060020a03163214611c8957600080fd5b600c805482919060ff19166001836002811115611ca857611ca861262e565b021790555050565b828054611cbc906125a2565b90600052602060002090601f016020900481019282611cde5760008555611d24565b82601f10611cf757805160ff1916838001178555611d24565b82800160010185558215611d24579182015b82811115611d24578251825591602001919060010190611d09565b50611d30929150611d8d565b5090565b828054828255906000526020600020908101928215611d81579160200282015b82811115611d815782518051611d71918491602090910190611cb0565b5091602001919060010190611d54565b50611d30929150611da2565b5b80821115611d305760008155600101611d8e565b80821115611d30576000611db68282611dbf565b50600101611da2565b508054611dcb906125a2565b6000825580601f10611ddb575050565b601f016020900490600052602060002090810190611df99190611d8d565b50565b600082601f830112611e0d57600080fd5b8135602067ffffffffffffffff80831115611e2a57611e2a612660565b818302611e38838201612542565b8481528381019087850183890186018a1015611e5357600080fd5b60009350835b87811015611e9057813586811115611e6f578586fd5b611e7d8c89838e0101611e9f565b8552509286019290860190600101611e59565b50909998505050505050505050565b600082601f830112611eb057600080fd5b813567ffffffffffffffff811115611eca57611eca612660565b611edd601f8201601f1916602001612542565b818152846020838601011115611ef257600080fd5b816020850160208301376000918101602001919091529392505050565b600060208284031215611f2157600080fd5b8135611f2c8161269a565b9392505050565b600060208284031215611f4557600080fd5b8151611f2c816126af565b60008060408385031215611f6357600080fd5b8235611f6e8161269a565b946020939093013593505050565b60008060008060008060c08789031215611f9557600080fd5b8635611fa0816126bd565b9550602087013594506040870135611fb7816126af565b9350606087013567ffffffffffffffff80821115611fd457600080fd5b611fe08a838b01611e9f565b94506080890135915080821115611ff657600080fd5b6120028a838b01611e9f565b935060a089013591508082111561201857600080fd5b5061202589828a01611dfc565b9150509295509295509295565b60006020828403121561204457600080fd5b8135611f2c816126bd565b60008060006060848603121561206457600080fd5b833567ffffffffffffffff8082111561207c57600080fd5b61208887838801611e9f565b9450602086013591508082111561209e57600080fd5b506120ab86828701611e9f565b925050604084013590509250925092565b6000602082840312156120ce57600080fd5b5035919050565b6000602082840312156120e757600080fd5b5051919050565b6000806000806060858703121561210457600080fd5b8435935060208501356121168161269a565b9250604085013567ffffffffffffffff8082111561213357600080fd5b818701915087601f83011261214757600080fd5b81358181111561215657600080fd5b886020808302850101111561216a57600080fd5b95989497505060200194505050565b600080600080600080600060e0888a03121561219457600080fd5b8735965060208801356121a6816126bd565b95506040880135945060608801356121bd816126af565b9350608088013567ffffffffffffffff808211156121da57600080fd5b6121e68b838c01611e9f565b945060a08a01359150808211156121fc57600080fd5b6122088b838c01611e9f565b935060c08a013591508082111561221e57600080fd5b5061222b8a828b01611dfc565b91505092959891949750929550565b6000806040838503121561224d57600080fd5b50508035926020909101359150565b6000815180845260005b8181101561228257602081850181015186830182015201612266565b81811115612294576000602083870101525b50601f01601f19169290920160200192915050565b60008151606084526122be606085018261225c565b9050602083015184820360208601526122d7828261225c565b915050604083015160408501528091505092915050565b6020808252825182820181905260009190604090818501908084028601830187850186805b848110156123eb57603f198a8503018652825160c0815161233381612679565b8652818a01518a8701528882015115158987015260608083015181880183905261235f8389018261225c565b925050506080808301518783038289015261237a838261225c565b60a094850151898203958a01959095528451808252948d01949093508c8401925090508b810283018c01865b828110156123d457601f198583030184526123c282875161225c565b958e0195938e019391506001016123a6565b50998c019997505050938901935050600101612313565b50919998505050505050505050565b61240386612679565b858152846020820152831515604082015260a06060820152600061242a60a083018561225c565b828103608084015261243c818561225c565b98975050505050505050565b6020810161245583612679565b91905290565b602081526000611f2c602083018461225c565b602081526000611f2c60208301846122a9565b6000610100808352612495818401896122a9565b9150506124c66020830187805182526020810151602083015260408101516040830152606081015160608301525050565b8460a08301526124d584612679565b8360c0830152600160a060020a03831660e08301529695505050505050565b6000808335601e1984360301811261250b57600080fd5b83018035915067ffffffffffffffff82111561252657600080fd5b60200191503681900382131561253b57600080fd5b9250929050565b604051601f8201601f1916810167ffffffffffffffff8111828210171561256b5761256b612660565b604052919050565b6000821982111561258657612586612615565b500190565b60008282101561259d5761259d612615565b500390565b6002810460018216806125b657607f821691505b6020821081141561139d5760e060020a634e487b7102600052602260045260246000fd5b60006000198214156125ee576125ee612615565b5060010190565b600060ff821660ff81141561260c5761260c612615565b60010192915050565b60e060020a634e487b7102600052601160045260246000fd5b60e060020a634e487b7102600052602160045260246000fd5b60e060020a634e487b7102600052603260045260246000fd5b60e060020a634e487b7102600052604160045260246000fd5b60038110611df95760e060020a634e487b7102600052602160045260246000fd5b600160a060020a0381168114611df957600080fd5b8015158114611df957600080fd5b60038110611df957600080fdfea2646970667358221220411eed53254dc0444fa20d497378ed2095b24e6b4b720a504f2800aacb58d1e164736f6c63430008070033",
  "immutableReferences": {},
  "source": "// SPDX-License-Identifier: MIT\r\npragma experimental ABIEncoderV2;\r\npragma solidity >=0.6.0;\r\n\r\nimport \"./SurveyInterface.sol\";\r\nimport \"./Token.sol\";\r\n\r\ncontract Survey is SurveyInterface {\r\n\r\n  //multichoice would store index, rating would be a number, and text is text\r\n  // Question[] public questions;\r\n  mapping(uint => Question) public questions;\r\n  uint public questionCount = 0;\r\n\r\n  mapping (uint => string[]) public answers;\r\n  mapping (address => uint) private userAnswers;\r\n\r\n  SurveyBuild public build;\r\n\r\n  event SurveyStatusChanged(\r\n    Status _status\r\n  );\r\n\r\n  // constructor(SurveyBuild memory _b, Question[] memory _q) public {\r\n  //   build = _b;\r\n  //   for (uint i = 0; i < _q.length; i++) {\r\n  //     questions[i] = _q[i];\r\n  //   }\r\n  // }\r\n  \r\n  constructor(address _creator, string memory _name, string memory _description, uint _bonusAmount) {\r\n    // build = _b;\r\n    // for (uint i = 0; i < _q.length; i++) {\r\n    //   questions[i] = _q[i];\r\n    // }\r\n    build.info.name = _name;\r\n    build.info.description = _description;\r\n    build.info.bonusAmount = _bonusAmount;\r\n    build.creator = _creator;\r\n  }\r\n\r\n  modifier isCreator {\r\n    // require(build.creator == msg.sender);\r\n    //if either one is the creator continue on\r\n    require(build.creator == tx.origin); \r\n    _;\r\n  }\r\n\r\n  function setSurveyStatus(Status _status) external isCreator {\r\n    build.status = _status;\r\n  }\r\n\r\n  function submitSurvey(\r\n    uint _gas,\r\n    Token _token,\r\n    string[] calldata _answers\r\n  ) external returns (uint) {\r\n    //make sure the creator didn't submit their own survey\r\n    //require(build.creator != msg.sender);\r\n    require(build.creator != tx.origin);\r\n    //make sure it is still open\r\n    require(build.status == Status.OPEN);\r\n    //this calulates how much rewards they get\r\n    uint reward = 0;\r\n    uint8 filled = 0;\r\n    for (uint i = 0; i < questionCount; i++) {\r\n      Question memory q = questions[i];\r\n      string memory a = _answers[i];\r\n      if (bytes(a).length > 0) {\r\n        reward += q.worth;\r\n        filled++;\r\n      }\r\n    }\r\n    if (filled == questionCount) {\r\n      reward += build.info.bonusAmount;\r\n    }\r\n    //liquidity pool must have enough funds to continue this function\r\n    require(reward <= build.pool.tokenAmount);\r\n\r\n    //make sure we haven't done this survey before\r\n    // require(userAnswers[msg.sender][_id].answers.length == 0);\r\n    require(!didUserTakeSurvey(tx.origin));\r\n    //user submits their answers\r\n    // userAnswers[msg.sender][_id] = SurveyAnswers(_answers);\r\n    // string[] memory copyAnswers;\r\n    // for (uint i = 0; i < _answers.length; i++) {\r\n    //   copyAnswers[i] = _answers[i];\r\n    // }\r\n    userAnswers[tx.origin] = build.surveysTaken; //tells you which id you are in the string[] of questions\r\n    //push answers to mapping\r\n    for(uint i = 0; i < _answers.length; i++) {\r\n      string memory a = _answers[i];\r\n      if (bytes(a).length > 0) {\r\n        answers[i].push(a); \r\n      }\r\n    }\r\n    //this takes the money from the liquidity pool and sends them tokens\r\n    _token.transfer(tx.origin, reward);\r\n    build.pool.tokenAmount -= reward;\r\n    build.pool.totalTokensSent += reward;\r\n\r\n    //try to send them back the gas money\r\n    if (build.pool.gasAmount > 0) {\r\n      uint diff = build.pool.gasAmount - _gas;\r\n      uint send = _gas;\r\n      if (diff <= 0) {\r\n        send = build.pool.gasAmount;\r\n      }\r\n      if (address(this).balance >= send) {\r\n        address payable pa = payable(tx.origin);\r\n        pa.transfer(send);\r\n        build.pool.gasAmount -= send;\r\n        build.pool.totalGasSent += send;\r\n      }\r\n    }\r\n\r\n    //increment taken surveys\r\n    build.surveysTaken++;\r\n\r\n    //this checks to see if the survey needs to close\r\n    //to check this we see if they can fund another survey\r\n    if (build.pool.tokenAmount < worth()) {\r\n      build.status = Status.FINISHED;\r\n      emit SurveyStatusChanged(build.status);\r\n    }\r\n\r\n    return reward;\r\n  }\r\n\r\n  function name() view external returns (string memory) {\r\n    return build.info.name;\r\n  }\r\n\r\n  function description() view external returns (string memory) {\r\n    return build.info.description;\r\n  }\r\n\r\n  function bonusAmount() view external returns (uint) {\r\n    return build.info.bonusAmount;\r\n  }\r\n\r\n  function creator() view external returns (address) {\r\n    return build.creator;\r\n  }\r\n\r\n  function status() view external returns (Status) {\r\n    return build.status;\r\n  }\r\n\r\n  function info() view external returns (SurveyBasic memory) {\r\n    return build.info;\r\n  }\r\n\r\n  function pool() view external returns (LiquidityPool memory) {\r\n    return build.pool;\r\n  }\r\n\r\n  function getBalance() view external returns (uint) {\r\n    return address(this).balance;\r\n  }\r\n\r\n  function worth() view public returns (uint) {\r\n    uint w = 0;\r\n    for (uint i = 0; i < questionCount; i++) {\r\n      Question memory q = questions[i];\r\n      w += q.worth;\r\n    }\r\n    return w;\r\n  }\r\n\r\n  function getQuestions() external view returns (Question[] memory) {\r\n    Question[] memory q = new Question[](questionCount);\r\n    for (uint256 index = 0; index < questionCount; index++) {\r\n      q[index] = questions[index];\r\n    }\r\n    return q;\r\n  }\r\n\r\n  function updateSurvey(\r\n    string memory _name,\r\n    string memory _description,\r\n    uint _bonusAmount\r\n  ) public isCreator {\r\n    build.info.name = _name;\r\n    build.info.description = _description;\r\n    build.info.bonusAmount = _bonusAmount;\r\n  }\r\n\r\n  function addQuestion(\r\n    QuestionType _qtypes,\r\n    uint _worth,\r\n    bool _required,\r\n    string memory _title,\r\n    string memory _qdescription,\r\n    string[] memory _choices\r\n  ) public  isCreator returns (uint) {\r\n    updateQuestion(\r\n      questionCount,\r\n      _qtypes,\r\n      _worth,\r\n      _required,\r\n      _title,\r\n      _qdescription,\r\n      _choices\r\n    );\r\n    questionCount++;\r\n\r\n    return questionCount - 1;\r\n  }\r\n\r\n  function updateQuestion(\r\n    uint _id,\r\n    QuestionType _qtypes,\r\n    uint _worth,\r\n    bool _required,\r\n    string memory _title,\r\n    string memory _qdescription,\r\n    string[] memory _choices\r\n  ) public isCreator {\r\n    questions[_id] = Question(\r\n      _qtypes,\r\n      _worth,\r\n      _required,\r\n      _title,\r\n      _qdescription,\r\n      _choices\r\n    );\r\n  }\r\n\r\n  function depositToSurveyTokenPool(Token _token, uint _amount) external isCreator {\r\n    require(_amount > 0);\r\n    _token.transferFrom(tx.origin, address(this), _amount);\r\n    build.pool.tokenAmount += _amount;\r\n  }\r\n\r\n  // function depositToSurveyGasPool(uint _value) external isCreator {\r\n  function depositToSurveyGasPool() external payable isCreator {\r\n  // receive() external payable {\r\n    // require(tx.origin == build.creator);\r\n    require(msg.value > 0);\r\n    build.pool.gasAmount += msg.value;\r\n  }\r\n\r\n  function withdrawFromTokenPool(Token _token, uint _amount) external isCreator {\r\n    require(_amount > 0);\r\n    require(_token.balanceOf(address(this)) >= _amount);\r\n    _token.transfer(tx.origin, _amount);\r\n    build.pool.tokenAmount -= _amount;\r\n  }\r\n\r\n  function withdrawFromGasPool(uint _amount) external isCreator {\r\n    require(_amount > 0);\r\n    require(address(this).balance >= _amount);\r\n    address payable _addr = payable(tx.origin);\r\n    _addr.transfer(_amount);\r\n    build.pool.gasAmount -= _amount;\r\n  }\r\n\r\n  function didUserTakeSurvey(address _addr) view public returns (bool) {\r\n    uint index = userAnswers[_addr];\r\n    for (uint i = 0; i < questionCount; i++) {\r\n      string memory a = answers[i][index];\r\n      if (bytes(a).length > 0) {\r\n        return true;\r\n      }\r\n    }\r\n    return false;\r\n  }\r\n}\r\n",
  "sourcePath": "C:\\Users\\surge\\Desktop\\dapp-projects\\survana\\contracts\\Survey.sol",
  "compiler": {
    "name": "solc",
    "version": "0.8.7+commit.e28d00a7.Emscripten.clang"
  },
  "schemaVersion": "3.4.3",
  "updatedAt": "2021-09-04T07:26:41.472Z",
  "devdoc": {
    "kind": "dev",
    "methods": {},
    "version": 1
  },
  "userdoc": {
    "kind": "user",
    "methods": {},
    "version": 1
  }
}