{
  "contractName": "Survey",
  "abi": [
    {
      "inputs": [
        {
          "internalType": "address",
          "name": "_creator",
          "type": "address"
        },
        {
          "internalType": "string",
          "name": "_name",
          "type": "string"
        },
        {
          "internalType": "string",
          "name": "_description",
          "type": "string"
        },
        {
          "internalType": "uint256",
          "name": "_bonusAmount",
          "type": "uint256"
        }
      ],
      "stateMutability": "nonpayable",
      "type": "constructor"
    },
    {
      "anonymous": false,
      "inputs": [
        {
          "indexed": false,
          "internalType": "string",
          "name": "s",
          "type": "string"
        }
      ],
      "name": "Log",
      "type": "event"
    },
    {
      "anonymous": false,
      "inputs": [
        {
          "indexed": false,
          "internalType": "enum SurveyInterface.Status",
          "name": "_status",
          "type": "uint8"
        }
      ],
      "name": "SurveyStatusChanged",
      "type": "event"
    },
    {
      "inputs": [
        {
          "internalType": "uint256",
          "name": "",
          "type": "uint256"
        },
        {
          "internalType": "uint256",
          "name": "",
          "type": "uint256"
        }
      ],
      "name": "answers",
      "outputs": [
        {
          "internalType": "string",
          "name": "",
          "type": "string"
        }
      ],
      "stateMutability": "view",
      "type": "function"
    },
    {
      "inputs": [],
      "name": "build",
      "outputs": [
        {
          "components": [
            {
              "internalType": "string",
              "name": "name",
              "type": "string"
            },
            {
              "internalType": "string",
              "name": "description",
              "type": "string"
            },
            {
              "internalType": "uint256",
              "name": "bonusAmount",
              "type": "uint256"
            }
          ],
          "internalType": "struct SurveyInterface.SurveyBasic",
          "name": "info",
          "type": "tuple"
        },
        {
          "components": [
            {
              "internalType": "uint256",
              "name": "tokenAmount",
              "type": "uint256"
            },
            {
              "internalType": "uint256",
              "name": "gasAmount",
              "type": "uint256"
            },
            {
              "internalType": "uint256",
              "name": "totalGasSent",
              "type": "uint256"
            },
            {
              "internalType": "uint256",
              "name": "totalTokensSent",
              "type": "uint256"
            }
          ],
          "internalType": "struct SurveyInterface.LiquidityPool",
          "name": "pool",
          "type": "tuple"
        },
        {
          "internalType": "uint256",
          "name": "surveysTaken",
          "type": "uint256"
        },
        {
          "internalType": "enum SurveyInterface.Status",
          "name": "status",
          "type": "uint8"
        },
        {
          "internalType": "address",
          "name": "creator",
          "type": "address"
        }
      ],
      "stateMutability": "view",
      "type": "function"
    },
    {
      "inputs": [],
      "name": "questionCount",
      "outputs": [
        {
          "internalType": "uint256",
          "name": "",
          "type": "uint256"
        }
      ],
      "stateMutability": "view",
      "type": "function"
    },
    {
      "inputs": [
        {
          "internalType": "uint256",
          "name": "",
          "type": "uint256"
        }
      ],
      "name": "questions",
      "outputs": [
        {
          "internalType": "enum SurveyInterface.QuestionType",
          "name": "questionType",
          "type": "uint8"
        },
        {
          "internalType": "uint256",
          "name": "worth",
          "type": "uint256"
        },
        {
          "internalType": "bool",
          "name": "required",
          "type": "bool"
        },
        {
          "internalType": "string",
          "name": "title",
          "type": "string"
        },
        {
          "internalType": "string",
          "name": "description",
          "type": "string"
        }
      ],
      "stateMutability": "view",
      "type": "function"
    },
    {
      "inputs": [
        {
          "internalType": "enum SurveyInterface.Status",
          "name": "_status",
          "type": "uint8"
        }
      ],
      "name": "setSurveyStatus",
      "outputs": [],
      "stateMutability": "nonpayable",
      "type": "function"
    },
    {
      "inputs": [
        {
          "internalType": "uint256",
          "name": "_gas",
          "type": "uint256"
        },
        {
          "internalType": "contract Token",
          "name": "_token",
          "type": "address"
        },
        {
          "internalType": "string[]",
          "name": "_answers",
          "type": "string[]"
        }
      ],
      "name": "submitSurvey",
      "outputs": [
        {
          "internalType": "uint256",
          "name": "",
          "type": "uint256"
        }
      ],
      "stateMutability": "nonpayable",
      "type": "function"
    },
    {
      "inputs": [],
      "name": "name",
      "outputs": [
        {
          "internalType": "string",
          "name": "",
          "type": "string"
        }
      ],
      "stateMutability": "view",
      "type": "function"
    },
    {
      "inputs": [],
      "name": "bonusAmount",
      "outputs": [
        {
          "internalType": "uint256",
          "name": "",
          "type": "uint256"
        }
      ],
      "stateMutability": "view",
      "type": "function"
    },
    {
      "inputs": [],
      "name": "creator",
      "outputs": [
        {
          "internalType": "address",
          "name": "",
          "type": "address"
        }
      ],
      "stateMutability": "view",
      "type": "function"
    },
    {
      "inputs": [],
      "name": "status",
      "outputs": [
        {
          "internalType": "enum SurveyInterface.Status",
          "name": "",
          "type": "uint8"
        }
      ],
      "stateMutability": "view",
      "type": "function"
    },
    {
      "inputs": [],
      "name": "info",
      "outputs": [
        {
          "components": [
            {
              "internalType": "string",
              "name": "name",
              "type": "string"
            },
            {
              "internalType": "string",
              "name": "description",
              "type": "string"
            },
            {
              "internalType": "uint256",
              "name": "bonusAmount",
              "type": "uint256"
            }
          ],
          "internalType": "struct SurveyInterface.SurveyBasic",
          "name": "",
          "type": "tuple"
        }
      ],
      "stateMutability": "view",
      "type": "function"
    },
    {
      "inputs": [],
      "name": "pool",
      "outputs": [
        {
          "components": [
            {
              "internalType": "uint256",
              "name": "tokenAmount",
              "type": "uint256"
            },
            {
              "internalType": "uint256",
              "name": "gasAmount",
              "type": "uint256"
            },
            {
              "internalType": "uint256",
              "name": "totalGasSent",
              "type": "uint256"
            },
            {
              "internalType": "uint256",
              "name": "totalTokensSent",
              "type": "uint256"
            }
          ],
          "internalType": "struct SurveyInterface.LiquidityPool",
          "name": "",
          "type": "tuple"
        }
      ],
      "stateMutability": "view",
      "type": "function"
    },
    {
      "inputs": [],
      "name": "getBalance",
      "outputs": [
        {
          "internalType": "uint256",
          "name": "",
          "type": "uint256"
        }
      ],
      "stateMutability": "view",
      "type": "function"
    },
    {
      "inputs": [],
      "name": "getOverview",
      "outputs": [
        {
          "components": [
            {
              "internalType": "uint256",
              "name": "id",
              "type": "uint256"
            },
            {
              "internalType": "address",
              "name": "addr",
              "type": "address"
            },
            {
              "internalType": "uint256",
              "name": "worth",
              "type": "uint256"
            },
            {
              "internalType": "uint256",
              "name": "bonusAmount",
              "type": "uint256"
            },
            {
              "internalType": "string",
              "name": "name",
              "type": "string"
            },
            {
              "internalType": "string",
              "name": "description",
              "type": "string"
            },
            {
              "internalType": "enum SurveyInterface.Status",
              "name": "status",
              "type": "uint8"
            },
            {
              "internalType": "uint256",
              "name": "taken",
              "type": "uint256"
            },
            {
              "internalType": "uint256",
              "name": "gasLeft",
              "type": "uint256"
            },
            {
              "internalType": "uint256",
              "name": "tokensLeft",
              "type": "uint256"
            },
            {
              "internalType": "uint256",
              "name": "questionCount",
              "type": "uint256"
            }
          ],
          "internalType": "struct SurveyInterface.SurveyOverview",
          "name": "",
          "type": "tuple"
        }
      ],
      "stateMutability": "view",
      "type": "function"
    },
    {
      "inputs": [],
      "name": "worth",
      "outputs": [
        {
          "internalType": "uint256",
          "name": "",
          "type": "uint256"
        }
      ],
      "stateMutability": "view",
      "type": "function"
    },
    {
      "inputs": [],
      "name": "getQuestions",
      "outputs": [
        {
          "components": [
            {
              "internalType": "enum SurveyInterface.QuestionType",
              "name": "questionType",
              "type": "uint8"
            },
            {
              "internalType": "uint256",
              "name": "worth",
              "type": "uint256"
            },
            {
              "internalType": "bool",
              "name": "required",
              "type": "bool"
            },
            {
              "internalType": "string",
              "name": "title",
              "type": "string"
            },
            {
              "internalType": "string",
              "name": "description",
              "type": "string"
            },
            {
              "internalType": "string[]",
              "name": "choices",
              "type": "string[]"
            }
          ],
          "internalType": "struct SurveyInterface.Question[]",
          "name": "",
          "type": "tuple[]"
        }
      ],
      "stateMutability": "view",
      "type": "function"
    },
    {
      "inputs": [
        {
          "internalType": "string",
          "name": "_name",
          "type": "string"
        },
        {
          "internalType": "string",
          "name": "_description",
          "type": "string"
        },
        {
          "internalType": "uint256",
          "name": "_bonusAmount",
          "type": "uint256"
        }
      ],
      "name": "updateSurvey",
      "outputs": [],
      "stateMutability": "nonpayable",
      "type": "function"
    },
    {
      "inputs": [
        {
          "internalType": "enum SurveyInterface.QuestionType",
          "name": "_qtypes",
          "type": "uint8"
        },
        {
          "internalType": "uint256",
          "name": "_worth",
          "type": "uint256"
        },
        {
          "internalType": "bool",
          "name": "_required",
          "type": "bool"
        },
        {
          "internalType": "string",
          "name": "_title",
          "type": "string"
        },
        {
          "internalType": "string",
          "name": "_qdescription",
          "type": "string"
        },
        {
          "internalType": "string[]",
          "name": "_choices",
          "type": "string[]"
        }
      ],
      "name": "addQuestion",
      "outputs": [
        {
          "internalType": "uint256",
          "name": "",
          "type": "uint256"
        }
      ],
      "stateMutability": "nonpayable",
      "type": "function"
    },
    {
      "inputs": [
        {
          "internalType": "uint256",
          "name": "_id",
          "type": "uint256"
        },
        {
          "internalType": "enum SurveyInterface.QuestionType",
          "name": "_qtypes",
          "type": "uint8"
        },
        {
          "internalType": "uint256",
          "name": "_worth",
          "type": "uint256"
        },
        {
          "internalType": "bool",
          "name": "_required",
          "type": "bool"
        },
        {
          "internalType": "string",
          "name": "_title",
          "type": "string"
        },
        {
          "internalType": "string",
          "name": "_qdescription",
          "type": "string"
        },
        {
          "internalType": "string[]",
          "name": "_choices",
          "type": "string[]"
        }
      ],
      "name": "updateQuestion",
      "outputs": [],
      "stateMutability": "nonpayable",
      "type": "function"
    },
    {
      "inputs": [
        {
          "internalType": "contract Token",
          "name": "_token",
          "type": "address"
        },
        {
          "internalType": "uint256",
          "name": "_amount",
          "type": "uint256"
        }
      ],
      "name": "depositToSurveyTokenPool",
      "outputs": [],
      "stateMutability": "nonpayable",
      "type": "function"
    },
    {
      "inputs": [],
      "name": "depositToSurveyGasPool",
      "outputs": [],
      "stateMutability": "payable",
      "type": "function"
    },
    {
      "inputs": [
        {
          "internalType": "contract Token",
          "name": "_token",
          "type": "address"
        },
        {
          "internalType": "uint256",
          "name": "_amount",
          "type": "uint256"
        }
      ],
      "name": "withdrawFromTokenPool",
      "outputs": [],
      "stateMutability": "nonpayable",
      "type": "function"
    },
    {
      "inputs": [
        {
          "internalType": "uint256",
          "name": "_amount",
          "type": "uint256"
        }
      ],
      "name": "withdrawFromGasPool",
      "outputs": [],
      "stateMutability": "nonpayable",
      "type": "function"
    },
    {
      "inputs": [
        {
          "internalType": "address",
          "name": "_addr",
          "type": "address"
        }
      ],
      "name": "didUserTakeSurvey",
      "outputs": [
        {
          "internalType": "bool",
          "name": "",
          "type": "bool"
        }
      ],
      "stateMutability": "view",
      "type": "function"
    }
  ],
  "bytecode": "0x608060405260006001553480156200001657600080fd5b5060405162003174380380620031748339810160408190526200003991620001f3565b82516200004e90600490602086019062000096565b5081516200006490600590602085019062000096565b506006555050600c8054600160a060020a039092166101000261010060a860020a03199092169190911790556200030a565b828054620000a49062000285565b90600052602060002090601f016020900481019282620000c8576000855562000113565b82601f10620000e357805160ff191683800117855562000113565b8280016001018555821562000113579182015b8281111562000113578251825591602001919060010190620000f6565b506200012192915062000125565b5090565b5b8082111562000121576000815560010162000126565b600082601f8301126200014e57600080fd5b81516001604060020a03808211156200016b576200016b620002db565b604051601f8301601f19908116603f01168101908282118183101715620001965762000196620002db565b81604052838152602092508683858801011115620001b357600080fd5b600091505b83821015620001d75785820183015181830184015290820190620001b8565b83821115620001e95760008385830101525b9695505050505050565b600080600080608085870312156200020a57600080fd5b8451600160a060020a03811681146200022257600080fd5b60208601519094506001604060020a03808211156200024057600080fd5b6200024e888389016200013c565b945060408701519150808211156200026557600080fd5b5062000274878288016200013c565b606096909601519497939650505050565b6002810460018216806200029a57607f821691505b60208210811415620002d5577f4e487b7100000000000000000000000000000000000000000000000000000000600052602260045260246000fd5b50919050565b7f4e487b7100000000000000000000000000000000000000000000000000000000600052604160045260246000fd5b612e5a806200031a6000396000f3fe608060405260043610610168576000357c010000000000000000000000000000000000000000000000000000000090048063370158ea116100d35780638e6b582f1161008c5780638e6b582f146103fb57806397221ab71461041b578063abadaf9a1461043d578063ad11c13114610452578063d6da669e14610467578063f93bbb871461048757600080fd5b8063370158ea1461032357806338745a1c14610345578063482ff513146103655780634a4cd405146103855780638beeef2b146103a55780638e1a55fc146103d557600080fd5b80631eea56a3116101255780631eea56a314610268578063200d2ed21461028857806320443e8d146102a85780632401519c146102ca57806331767ffd146102ea57806331b1b978146102f257600080fd5b806302d05d3f1461016d57806306fdde03146101a857806312065fe0146101ca5780631275b3bb146101e85780631468aa2c1461020a57806316f0115b14610220575b600080fd5b34801561017957600080fd5b50600c546101009004600160a060020a0316604051600160a060020a0390911681526020015b60405180910390f35b3480156101b457600080fd5b506101bd6104a7565b60405161019f91906129a2565b3480156101d657600080fd5b5030315b60405190815260200161019f565b3480156101f457600080fd5b5061020861020336600461248a565b61053b565b005b34801561021657600080fd5b506101da60015481565b34801561022c57600080fd5b50610235610704565b60405161019f91908151815260208083015190820152604080830151908201526060918201519181019190915260800190565b34801561027457600080fd5b50610208610283366004612589565b61075c565b34801561029457600080fd5b50600c5460ff1660405161019f919061298f565b3480156102b457600080fd5b506102bd6107f6565b60405161019f9190612b89565b3480156102d657600080fd5b506101bd6102e5366004612774565b610997565b610208610a50565b3480156102fe57600080fd5b5061031261030d3660046125f6565b610ac1565b60405161019f959493929190612941565b34801561032f57600080fd5b50610338610c08565b60405161019f9190612b03565b34801561035157600080fd5b5061020861036036600461248a565b610d6b565b34801561037157600080fd5b506101da6103803660046124b6565b610e75565b34801561039157600080fd5b506102086103a03660046126b3565b610f22565b3480156103b157600080fd5b506103c56103c0366004612449565b611081565b604051901515815260200161019f565b3480156103e157600080fd5b506103ea6110b2565b60405161019f959493929190612b16565b34801561040757600080fd5b506102086104163660046125f6565b611248565b34801561042757600080fd5b50610430611306565b60405161019f9190612835565b34801561044957600080fd5b506006546101da565b34801561045e57600080fd5b506101da611637565b34801561047357600080fd5b506101da610482366004612628565b6118cb565b34801561049357600080fd5b506102086104a236600461256c565b61211d565b60048054606091906104b890612cfc565b80601f01602080910402602001604051908101604052809291908181526020018280546104e490612cfc565b80156105315780601f1061050657610100808354040283529160200191610531565b820191906000526020600020905b81548152906001019060200180831161051457829003601f168201915b5050505050905090565b600c546101009004600160a060020a031632146105765760405160e560020a62461bcd02815260040161056d906129ec565b60405180910390fd5b600081116105995760405160e560020a62461bcd02815260040161056d90612aa6565b6040517f70a082310000000000000000000000000000000000000000000000000000000081523060048201528190600160a060020a038416906370a082319060240160206040518083038186803b1580156105f357600080fd5b505afa158015610607573d6000803e3d6000fd5b505050506040513d601f19601f8201168201806040525081019061062b919061260f565b101561064c5760405160e560020a62461bcd02815260040161056d90612a49565b6040517fa9059cbb00000000000000000000000000000000000000000000000000000000815232600482015260248101829052600160a060020a0383169063a9059cbb90604401602060405180830381600087803b1580156106ad57600080fd5b505af11580156106c1573d6000803e3d6000fd5b505050506040513d601f19601f820116820180604052508101906106e5919061246d565b50600780548291906000906106fb908490612ce5565b90915550505050565b61072f6040518060800160405280600081526020016000815260200160008152602001600081525090565b50604080516080810182526007548152600854602082015260095491810191909152600a54606082015290565b600c546101009004600160a060020a0316321461078e5760405160e560020a62461bcd02815260040161056d906129ec565b6000600c5460ff1660028111156107a7576107a7612d88565b146107c75760405160e560020a62461bcd02815260040161056d906129b5565b82516107da906004906020860190612176565b5081516107ee906005906020850190612176565b506006555050565b6107fe6121fa565b60408051610160810182526000815230602082015290810161081e611637565b815260065460208201526004805460409092019161083b90612cfc565b80601f016020809104026020016040519081016040528092919081815260200182805461086790612cfc565b80156108b45780601f10610889576101008083540402835291602001916108b4565b820191906000526020600020905b81548152906001019060200180831161089757829003601f168201915b50505050508152602001600460000160010180546108d190612cfc565b80601f01602080910402602001604051908101604052809291908181526020018280546108fd90612cfc565b801561094a5780601f1061091f5761010080835404028352916020019161094a565b820191906000526020600020905b81548152906001019060200180831161092d57829003601f168201915b5050509183525050600c5460209091019060ff16600281111561096f5761096f612d88565b8152600b54602082015260085460408201526007546060820152600154608090910152919050565b600260205281600052604060002081815481106109b357600080fd5b906000526020600020016000915091505080546109cf90612cfc565b80601f01602080910402602001604051908101604052809291908181526020018280546109fb90612cfc565b8015610a485780601f10610a1d57610100808354040283529160200191610a48565b820191906000526020600020905b815481529060010190602001808311610a2b57829003601f168201915b505050505081565b600c546101009004600160a060020a03163214610a825760405160e560020a62461bcd02815260040161056d906129ec565b60003411610aa55760405160e560020a62461bcd02815260040161056d90612aa6565b60088054349190600090610aba908490612ccd565b9091555050565b600060208190529081526040902080546001820154600283015460038401805460ff9485169593949092169291610af790612cfc565b80601f0160208091040260200160405190810160405280929190818152602001828054610b2390612cfc565b8015610b705780601f10610b4557610100808354040283529160200191610b70565b820191906000526020600020905b815481529060010190602001808311610b5357829003601f168201915b505050505090806004018054610b8590612cfc565b80601f0160208091040260200160405190810160405280929190818152602001828054610bb190612cfc565b8015610bfe5780601f10610bd357610100808354040283529160200191610bfe565b820191906000526020600020905b815481529060010190602001808311610be157829003601f168201915b5050505050905085565b610c2c60405180606001604052806060815260200160608152602001600081525090565b60408051606081019091526004805482908290610c4890612cfc565b80601f0160208091040260200160405190810160405280929190818152602001828054610c7490612cfc565b8015610cc15780601f10610c9657610100808354040283529160200191610cc1565b820191906000526020600020905b815481529060010190602001808311610ca457829003601f168201915b50505050508152602001600182018054610cda90612cfc565b80601f0160208091040260200160405190810160405280929190818152602001828054610d0690612cfc565b8015610d535780601f10610d2857610100808354040283529160200191610d53565b820191906000526020600020905b815481529060010190602001808311610d3657829003601f168201915b50505050508152602001600282015481525050905090565b600c546101009004600160a060020a03163214610d9d5760405160e560020a62461bcd02815260040161056d906129ec565b60008111610dc05760405160e560020a62461bcd02815260040161056d90612aa6565b6040517f23b872dd00000000000000000000000000000000000000000000000000000000815232600482015230602482015260448101829052600160a060020a038316906323b872dd90606401602060405180830381600087803b158015610e2757600080fd5b505af1158015610e3b573d6000803e3d6000fd5b505050506040513d601f19601f82011682018060405250810190610e5f919061246d565b50600780548291906000906106fb908490612ccd565b600c546000906101009004600160a060020a03163214610eaa5760405160e560020a62461bcd02815260040161056d906129ec565b6000600c5460ff166002811115610ec357610ec3612d88565b14610ee35760405160e560020a62461bcd02815260040161056d906129b5565b610ef4600154888888888888610f22565b60018054906000610f0483612d34565b919050555060018054610f179190612ce5565b979650505050505050565b600c546101009004600160a060020a03163214610f545760405160e560020a62461bcd02815260040161056d906129ec565b6000600c5460ff166002811115610f6d57610f6d612d88565b14610f8d5760405160e560020a62461bcd02815260040161056d906129b5565b6040518060c00160405280876002811115610faa57610faa612d88565b81526020808201889052861515604080840191909152606083018790526080830186905260a090920184905260008a8152908190522081518154829060ff19166001836002811115610ffe57610ffe612d88565b02179055506020828101516001830155604083015160028301805460ff19169115159190911790556060830151805161103d9260038501920190612176565b5060808201518051611059916004840191602090910190612176565b5060a0820151805161107591600584019160209091019061226e565b50505050505050505050565b600160a060020a03811660009081526003602052604081205480156110a95750600192915050565b50600092915050565b6004806000016040518060600160405290816000820180546110d390612cfc565b80601f01602080910402602001604051908101604052809291908181526020018280546110ff90612cfc565b801561114c5780601f106111215761010080835404028352916020019161114c565b820191906000526020600020905b81548152906001019060200180831161112f57829003601f168201915b5050505050815260200160018201805461116590612cfc565b80601f016020809104026020016040519081016040528092919081815260200182805461119190612cfc565b80156111de5780601f106111b3576101008083540402835291602001916111de565b820191906000526020600020905b8154815290600101906020018083116111c157829003601f168201915b50505091835250506002919091015460209182015260408051608081018252600385015481526004850154928101929092526005840154908201526006830154606082015260078301546008909301549192909160ff8116906101009004600160a060020a031685565b600c546101009004600160a060020a0316321461127a5760405160e560020a62461bcd02815260040161056d906129ec565b6000811161129d5760405160e560020a62461bcd02815260040161056d90612aa6565b30318111156112c15760405160e560020a62461bcd02815260040161056d90612a49565b6040513290819083156108fc029084906000818181858888f193505050501580156112f0573d6000803e3d6000fd5b50600880548391906000906106fb908490612ce5565b6060600060015467ffffffffffffffff81111561132557611325612dba565b60405190808252806020026020018201604052801561139257816020015b61137f6040805160c081019091528060008152602001600081526020016000151581526020016060815260200160608152602001606081525090565b8152602001906001900390816113435790505b50905060005b6001548110156116315760008181526020819052604090819020815160c081019092528054829060ff1660028111156113d3576113d3612d88565b60028111156113e4576113e4612d88565b815260018201546020820152600282015460ff161515604082015260038201805460609092019161141490612cfc565b80601f016020809104026020016040519081016040528092919081815260200182805461144090612cfc565b801561148d5780601f106114625761010080835404028352916020019161148d565b820191906000526020600020905b81548152906001019060200180831161147057829003601f168201915b505050505081526020016004820180546114a690612cfc565b80601f01602080910402602001604051908101604052809291908181526020018280546114d290612cfc565b801561151f5780601f106114f45761010080835404028352916020019161151f565b820191906000526020600020905b81548152906001019060200180831161150257829003601f168201915b5050505050815260200160058201805480602002602001604051908101604052809291908181526020016000905b828210156115f957838290600052602060002001805461156c90612cfc565b80601f016020809104026020016040519081016040528092919081815260200182805461159890612cfc565b80156115e55780601f106115ba576101008083540402835291602001916115e5565b820191906000526020600020905b8154815290600101906020018083116115c857829003601f168201915b50505050508152602001906001019061154d565b505050508152505082828151811061161357611613612da1565b6020026020010181905250808061162990612d34565b915050611398565b50919050565b600080805b60015481101561163157600081815260208190526040808220815160c081019092528054829060ff16600281111561167657611676612d88565b600281111561168757611687612d88565b815260018201546020820152600282015460ff16151560408201526003820180546060909201916116b790612cfc565b80601f01602080910402602001604051908101604052809291908181526020018280546116e390612cfc565b80156117305780601f1061170557610100808354040283529160200191611730565b820191906000526020600020905b81548152906001019060200180831161171357829003601f168201915b5050505050815260200160048201805461174990612cfc565b80601f016020809104026020016040519081016040528092919081815260200182805461177590612cfc565b80156117c25780601f10611797576101008083540402835291602001916117c2565b820191906000526020600020905b8154815290600101906020018083116117a557829003601f168201915b5050505050815260200160058201805480602002602001604051908101604052809291908181526020016000905b8282101561189c57838290600052602060002001805461180f90612cfc565b80601f016020809104026020016040519081016040528092919081815260200182805461183b90612cfc565b80156118885780601f1061185d57610100808354040283529160200191611888565b820191906000526020600020905b81548152906001019060200180831161186b57829003601f168201915b5050505050815260200190600101906117f0565b5050509152505060208101519091506118b59084612ccd565b92505080806118c390612d34565b91505061163c565b60015460009082146119485760405160e560020a62461bcd02815260206004820152603a60248201527f416e7377657220737472696e6720617272617920646f6573206e6f74206d617460448201527f636820746865206c656e677468206f66207175657374696f6e73000000000000606482015260840161056d565b61195132611081565b156119a15760405160e560020a62461bcd02815260206004820152601760248201527f416c726561647920746f6f6b2074686520737572766579000000000000000000604482015260640161056d565b600c546101009004600160a060020a0316321415611a045760405160e560020a62461bcd02815260206004820152601e60248201527f43726561746f722063616e6e6f742074616b6520746865207375727665790000604482015260640161056d565b6001600c5460ff166002811115611a1d57611a1d612d88565b14611a6d5760405160e560020a62461bcd02815260206004820152601260248201527f537572766579206973206e6f74206f70656e0000000000000000000000000000604482015260640161056d565b60008060005b600154811015611dd057600081815260208190526040808220815160c081019092528054829060ff166002811115611aad57611aad612d88565b6002811115611abe57611abe612d88565b815260018201546020820152600282015460ff1615156040820152600382018054606090920191611aee90612cfc565b80601f0160208091040260200160405190810160405280929190818152602001828054611b1a90612cfc565b8015611b675780601f10611b3c57610100808354040283529160200191611b67565b820191906000526020600020905b815481529060010190602001808311611b4a57829003601f168201915b50505050508152602001600482018054611b8090612cfc565b80601f0160208091040260200160405190810160405280929190818152602001828054611bac90612cfc565b8015611bf95780601f10611bce57610100808354040283529160200191611bf9565b820191906000526020600020905b815481529060010190602001808311611bdc57829003601f168201915b5050505050815260200160058201805480602002602001604051908101604052809291908181526020016000905b82821015611cd3578382906000526020600020018054611c4690612cfc565b80601f0160208091040260200160405190810160405280929190818152602001828054611c7290612cfc565b8015611cbf5780601f10611c9457610100808354040283529160200191611cbf565b820191906000526020600020905b815481529060010190602001808311611ca257829003601f168201915b505050505081526020019060010190611c27565b505050508152505090506000878784818110611cf157611cf1612da1565b9050602002810190611d039190612c4e565b8080601f0160208091040260200160405190810160405280939291908181526020018383808284376000920191909152505082519293505090159050611d66576020820151611d529086612ccd565b945083611d5e81612d4f565b945050611dbb565b816040015115611dbb5760405160e560020a62461bcd02815260206004820181905260248201527f5265717569726564207175657374696f6e206e6f742066696c6c6564206f7574604482015260640161056d565b50508080611dc890612d34565b915050611a73565b506001548160ff161415611dee57600654611deb9083612ccd565b91505b600754821115611e695760405160e560020a62461bcd02815260206004820152603160248201527f4e6f7420656e6f7567682072657761726420746f20676976652c2063616e636560448201527f6c6c696e67207375626d697373696f6e2e000000000000000000000000000000606482015260840161056d565b600b54611e77906001612ccd565b326000908152600360205260408120919091555b84811015611f40576000868683818110611ea757611ea7612da1565b9050602002810190611eb99190612c4e565b8080601f0160208091040260200160405190810160405280939291908181526020018383808284376000920191909152505082519293505090159050611f2d57600082815260026020908152604082208054600181018255908352918190208351611f2b939190910191840190612176565b505b5080611f3881612d34565b915050611e8b565b506040517fa9059cbb00000000000000000000000000000000000000000000000000000000815232600482015260248101839052600160a060020a0387169063a9059cbb90604401602060405180830381600087803b158015611fa257600080fd5b505af1158015611fb6573d6000803e3d6000fd5b505050506040513d601f19601f82011682018060405250810190611fda919061246d565b5060078054839190600090611ff0908490612ce5565b9091555050600a805483919060009061200a908490612ccd565b9091555050600854156120a657600854600090612028908990612ce5565b9050878161203557506008545b303181116120a3576040513290819083156108fc029084906000818181858888f1935050505015801561206c573d6000803e3d6000fd5b5060088054839190600090612082908490612ce5565b90915550506009805483919060009061209c908490612ccd565b9091555050505b50505b600b80549060006120b683612d34565b91905055506120c3611637565b600754101561211357600c805460ff191660029081179091556040517f0162568b2de8418ff706fde39b1c8a9fd0cb82ab9b14fdaa9c2e0860105e1fca9161210a9161298f565b60405180910390a15b5095945050505050565b600c546101009004600160a060020a0316321461214f5760405160e560020a62461bcd02815260040161056d906129ec565b600c805482919060ff1916600183600281111561216e5761216e612d88565b021790555050565b82805461218290612cfc565b90600052602060002090601f0160209004810192826121a457600085556121ea565b82601f106121bd57805160ff19168380011785556121ea565b828001600101855582156121ea579182015b828111156121ea5782518255916020019190600101906121cf565b506121f69291506122c7565b5090565b604051806101600160405280600081526020016000600160a060020a03168152602001600081526020016000815260200160608152602001606081526020016000600281111561224c5761224c612d88565b8152602001600081526020016000815260200160008152602001600081525090565b8280548282559060005260206000209081019282156122bb579160200282015b828111156122bb57825180516122ab918491602090910190612176565b509160200191906001019061228e565b506121f69291506122dc565b5b808211156121f657600081556001016122c8565b808211156121f65760006122f082826122f9565b506001016122dc565b50805461230590612cfc565b6000825580601f10612315575050565b601f01602090049060005260206000209081019061233391906122c7565b50565b600082601f83011261234757600080fd5b8135602067ffffffffffffffff8083111561236457612364612dba565b818302612372838201612c9c565b8481528381019087850183890186018a101561238d57600080fd5b60009350835b878110156123ca578135868111156123a9578586fd5b6123b78c89838e01016123d9565b8552509286019290860190600101612393565b50909998505050505050505050565b600082601f8301126123ea57600080fd5b813567ffffffffffffffff81111561240457612404612dba565b612417601f8201601f1916602001612c9c565b81815284602083860101111561242c57600080fd5b816020850160208301376000918101602001919091529392505050565b60006020828403121561245b57600080fd5b813561246681612df4565b9392505050565b60006020828403121561247f57600080fd5b815161246681612e09565b6000806040838503121561249d57600080fd5b82356124a881612df4565b946020939093013593505050565b60008060008060008060c087890312156124cf57600080fd5b86356124da81612e17565b95506020870135945060408701356124f181612e09565b9350606087013567ffffffffffffffff8082111561250e57600080fd5b61251a8a838b016123d9565b9450608089013591508082111561253057600080fd5b61253c8a838b016123d9565b935060a089013591508082111561255257600080fd5b5061255f89828a01612336565b9150509295509295509295565b60006020828403121561257e57600080fd5b813561246681612e17565b60008060006060848603121561259e57600080fd5b833567ffffffffffffffff808211156125b657600080fd5b6125c2878388016123d9565b945060208601359150808211156125d857600080fd5b506125e5868287016123d9565b925050604084013590509250925092565b60006020828403121561260857600080fd5b5035919050565b60006020828403121561262157600080fd5b5051919050565b6000806000806060858703121561263e57600080fd5b84359350602085013561265081612df4565b9250604085013567ffffffffffffffff8082111561266d57600080fd5b818701915087601f83011261268157600080fd5b81358181111561269057600080fd5b88602080830285010111156126a457600080fd5b95989497505060200194505050565b600080600080600080600060e0888a0312156126ce57600080fd5b8735965060208801356126e081612e17565b95506040880135945060608801356126f781612e09565b9350608088013567ffffffffffffffff8082111561271457600080fd5b6127208b838c016123d9565b945060a08a013591508082111561273657600080fd5b6127428b838c016123d9565b935060c08a013591508082111561275857600080fd5b506127658a828b01612336565b91505092959891949750929550565b6000806040838503121561278757600080fd5b50508035926020909101359150565b61279f81612dd3565b9052565b6000815180845260005b818110156127c9576020818501810151868301820152016127ad565b818111156127db576000602083870101525b50601f01601f19169290920160200192915050565b600081516060845261280560608501826127a3565b90506020830151848203602086015261281e82826127a3565b915050604083015160408501528091505092915050565b6020808252825182820181905260009190604090818501908084028601830187850186805b8481101561293257603f198a8503018652825160c0815161287a81612dd3565b8652818a01518a870152888201511515898701526060808301518188018390526128a6838901826127a3565b92505050608080830151878303828901526128c183826127a3565b60a094850151898203958a01959095528451808252948d01949093508c8401925090508b810283018c01865b8281101561291b57601f198583030184526129098287516127a3565b958e0195938e019391506001016128ed565b50998c01999750505093890193505060010161285a565b50919998505050505050505050565b61294a86612dd3565b858152846020820152831515604082015260a06060820152600061297160a08301856127a3565b828103608084015261298381856127a3565b98975050505050505050565b6020810161299c83612dd3565b91905290565b60208152600061246660208301846127a3565b6020808252601f908201527f537572766579206d75737420626520696e2065646974696e6720737461676500604082015260600190565b6020808252602b908201527f4d757374206265207468652063726561746f7220746f2061636365737320746860408201527f69732066756e6374696f6e000000000000000000000000000000000000000000606082015260800190565b60208082526030908201527f42616c616e63652068617320746f206265203e3d207468616e2074686520616d60408201527f6f756e7420746f20776974686472617700000000000000000000000000000000606082015260800190565b60208082526022908201527f616d6f756e742068617320746f2062652067726561746572207468616e207a6560408201527f726f000000000000000000000000000000000000000000000000000000000000606082015260800190565b60208152600061246660208301846127f0565b6000610100808352612b2a818401896127f0565b915050612b5b6020830187805182526020810151602083015260408101516040830152606081015160608301525050565b8460a0830152612b6a84612dd3565b8360c0830152600160a060020a03831660e08301529695505050505050565b602081528151602082015260006020830151612bb06040840182600160a060020a03169052565b50604083015160608301526060830151608083015260808301516101608060a0850152612be16101808501836127a3565b915060a0850151601f198584030160c0860152612bfe83826127a3565b92505060c0850151612c1360e0860182612796565b5060e0850151610100858101919091528501516101208086019190915285015161014080860191909152909401519390920192909252919050565b6000808335601e19843603018112612c6557600080fd5b83018035915067ffffffffffffffff821115612c8057600080fd5b602001915036819003821315612c9557600080fd5b9250929050565b604051601f8201601f1916810167ffffffffffffffff81118282101715612cc557612cc5612dba565b604052919050565b60008219821115612ce057612ce0612d6f565b500190565b600082821015612cf757612cf7612d6f565b500390565b600281046001821680612d1057607f821691505b602082108114156116315760e060020a634e487b7102600052602260045260246000fd5b6000600019821415612d4857612d48612d6f565b5060010190565b600060ff821660ff811415612d6657612d66612d6f565b60010192915050565b60e060020a634e487b7102600052601160045260246000fd5b60e060020a634e487b7102600052602160045260246000fd5b60e060020a634e487b7102600052603260045260246000fd5b60e060020a634e487b7102600052604160045260246000fd5b600381106123335760e060020a634e487b7102600052602160045260246000fd5b600160a060020a038116811461233357600080fd5b801515811461233357600080fd5b6003811061233357600080fdfea2646970667358221220bac262e970c98254e67415dcf8f3fb90d7cdca42b10b92df635a185dc717a65e64736f6c63430008070033",
  "immutableReferences": {},
  "source": "// SPDX-License-Identifier: MIT\r\npragma experimental ABIEncoderV2;\r\npragma solidity >=0.6.0;\r\n\r\nimport \"./SurveyInterface.sol\";\r\nimport \"./Token.sol\";\r\n\r\ncontract Survey is SurveyInterface {\r\n\r\n  //multichoice would store index, rating would be a number, and text is text\r\n  // Question[] public questions;\r\n  mapping(uint => Question) public questions;\r\n  uint public questionCount = 0;\r\n\r\n  mapping (uint => string[]) public answers;\r\n  mapping (address => uint) private userAnswers;\r\n\r\n  SurveyBuild public build;\r\n\r\n  event SurveyStatusChanged(\r\n    Status _status\r\n  );\r\n  \r\n  constructor(address _creator, string memory _name, string memory _description, uint _bonusAmount) {\r\n\r\n    build.info.name = _name;\r\n    build.info.description = _description;\r\n    build.info.bonusAmount = _bonusAmount;\r\n    build.creator = _creator;\r\n  }\r\n\r\n  modifier isCreator {\r\n    // require(build.creator == msg.sender);\r\n    //if either one is the creator continue on\r\n    require(build.creator == tx.origin, \"Must be the creator to access this function\"); \r\n    _;\r\n  }\r\n\r\n  function setSurveyStatus(Status _status) external isCreator {\r\n    build.status = _status;\r\n  }\r\n\r\n  event Log(string s);\r\n\r\n  function submitSurvey(\r\n    uint _gas,\r\n    Token _token,\r\n    string[] calldata _answers\r\n  ) external returns (uint) {\r\n    require(_answers.length == questionCount, \"Answer string array does not match the length of questions\");\r\n    //make sure we haven't done this survey before\r\n    require(!didUserTakeSurvey(tx.origin), \"Already took the survey\");\r\n\r\n    //make sure the creator didn't submit their own survey\r\n    require(build.creator != tx.origin, \"Creator cannot take the survey\");\r\n    //make sure it is still open\r\n    require(build.status == Status.OPEN, \"Survey is not open\");\r\n    //this calulates how much rewards they get\r\n    uint reward = 0;\r\n    uint8 filled = 0;\r\n    for (uint i = 0; i < questionCount; i++) {\r\n      Question memory q = questions[i];\r\n      string memory a = _answers[i];\r\n      if (bytes(a).length > 0) {\r\n        reward += q.worth;\r\n        filled++;\r\n      } else if (q.required) {\r\n        revert(\"Required question not filled out\");\r\n      }\r\n    }\r\n    if (filled == questionCount) {\r\n      reward += build.info.bonusAmount;\r\n    }\r\n    //liquidity pool must have enough funds to continue this function\r\n    require(reward <= build.pool.tokenAmount, \"Not enough reward to give, cancelling submission.\");\r\n\r\n    userAnswers[tx.origin] = build.surveysTaken + 1; //tells you which id you are in the string[] of questions\r\n    //push answers to mapping\r\n    for(uint i = 0; i < _answers.length; i++) {\r\n      string memory a = _answers[i];\r\n      if (bytes(a).length > 0) {\r\n        answers[i].push(a); \r\n      }\r\n    }\r\n\r\n    //this takes the money from the liquidity pool and sends them tokens\r\n    _token.transfer(tx.origin, reward);\r\n    build.pool.tokenAmount -= reward;\r\n    build.pool.totalTokensSent += reward;\r\n\r\n    //try to send them back the gas money\r\n    if (build.pool.gasAmount > 0) {\r\n      uint diff = build.pool.gasAmount - _gas;\r\n      uint send = _gas;\r\n      if (diff <= 0) {\r\n        send = build.pool.gasAmount;\r\n      }\r\n      if (address(this).balance >= send) {\r\n        address payable pa = payable(tx.origin);\r\n        pa.transfer(send);\r\n        build.pool.gasAmount -= send;\r\n        build.pool.totalGasSent += send;\r\n      }\r\n    }\r\n\r\n    //increment taken surveys\r\n    build.surveysTaken++;\r\n\r\n    //this checks to see if the survey needs to close\r\n    //to check this we see if they can fund another survey\r\n    if (build.pool.tokenAmount < worth()) {\r\n      build.status = Status.FINISHED;\r\n      emit SurveyStatusChanged(build.status);\r\n    }\r\n    return reward;\r\n  }\r\n\r\n  //find a way to eliminate these functions\r\n  ////////////////////////////////////////////////////////////////\r\n  function name() view external returns (string memory) {\r\n    return build.info.name;\r\n  }\r\n\r\n  // function description() view external returns (string memory) {\r\n  //   return build.info.description;\r\n  // }\r\n\r\n  function bonusAmount() view external returns (uint) {\r\n    return build.info.bonusAmount;\r\n  }\r\n\r\n  function creator() view external returns (address) {\r\n    return build.creator;\r\n  }\r\n\r\n  function status() view external returns (Status) {\r\n    return build.status;\r\n  }\r\n\r\n  function info() view external returns (SurveyBasic memory) {\r\n    return build.info;\r\n  }\r\n\r\n  function pool() view external returns (LiquidityPool memory) {\r\n    return build.pool;\r\n  }\r\n  ////////////////////////////////////////////////////////////////\r\n\r\n  function getBalance() view external returns (uint) {\r\n    return address(this).balance;\r\n  }\r\n\r\n  function getOverview() view external returns (SurveyOverview memory) {\r\n    return SurveyOverview({\r\n      id: 0,\r\n      addr: address(this),\r\n      worth: worth(),\r\n      bonusAmount: build.info.bonusAmount,\r\n      name: build.info.name,\r\n      description: build.info.description,\r\n      status: build.status,\r\n      taken: build.surveysTaken,\r\n      gasLeft: build.pool.gasAmount,\r\n      tokensLeft: build.pool.tokenAmount,\r\n      questionCount: questionCount\r\n    });\r\n  }\r\n\r\n  function worth() view public returns (uint) {\r\n    uint w = 0;\r\n    for (uint i = 0; i < questionCount; i++) {\r\n      Question memory q = questions[i];\r\n      w += q.worth;\r\n    }\r\n    return w;\r\n  }\r\n\r\n  function getQuestions() external view returns (Question[] memory) {\r\n    Question[] memory q = new Question[](questionCount);\r\n    for (uint256 index = 0; index < questionCount; index++) {\r\n      q[index] = questions[index];\r\n    }\r\n    return q;\r\n  }\r\n\r\n  // function getUserAnswers() external view returns (string[] memory) {\r\n  //   uint index = userAnswers[tx.origin] - 1;\r\n  //   require(index >= 0, \"No answers found\");\r\n  //   string[] memory ret = new string[](questionCount);\r\n  //   for (uint256 i = 0; i < questionCount; i++) {\r\n  //     ret[i] = answers[i][index];\r\n  //   }\r\n  //   return ret;\r\n  // }\r\n\r\n  function updateSurvey(\r\n    string memory _name,\r\n    string memory _description,\r\n    uint _bonusAmount\r\n  ) public isCreator {\r\n    require(build.status == Status.NOT_OPENED, \"Survey must be in editing stage\");\r\n    build.info.name = _name;\r\n    build.info.description = _description;\r\n    build.info.bonusAmount = _bonusAmount;\r\n  }\r\n\r\n  function addQuestion(\r\n    QuestionType _qtypes,\r\n    uint _worth,\r\n    bool _required,\r\n    string memory _title,\r\n    string memory _qdescription,\r\n    string[] memory _choices\r\n  ) public  isCreator returns (uint) {\r\n    require(build.status == Status.NOT_OPENED, \"Survey must be in editing stage\");\r\n    updateQuestion(\r\n      questionCount,\r\n      _qtypes,\r\n      _worth,\r\n      _required,\r\n      _title,\r\n      _qdescription,\r\n      _choices\r\n    );\r\n    questionCount++;\r\n\r\n    return questionCount - 1;\r\n  }\r\n\r\n  function updateQuestion(\r\n    uint _id,\r\n    QuestionType _qtypes,\r\n    uint _worth,\r\n    bool _required,\r\n    string memory _title,\r\n    string memory _qdescription,\r\n    string[] memory _choices\r\n  ) public isCreator {\r\n    require(build.status == Status.NOT_OPENED, \"Survey must be in editing stage\");\r\n    questions[_id] = Question(\r\n      _qtypes,\r\n      _worth,\r\n      _required,\r\n      _title,\r\n      _qdescription,\r\n      _choices\r\n    );\r\n  }\r\n\r\n  function depositToSurveyTokenPool(Token _token, uint _amount) external isCreator {\r\n    require(_amount > 0, \"amount has to be greater than zero\");\r\n    _token.transferFrom(tx.origin, address(this), _amount);\r\n    build.pool.tokenAmount += _amount;\r\n  }\r\n\r\n  function depositToSurveyGasPool() external payable isCreator {\r\n    require(msg.value > 0, \"amount has to be greater than zero\");\r\n    build.pool.gasAmount += msg.value;\r\n  }\r\n\r\n  function withdrawFromTokenPool(Token _token, uint _amount) external isCreator {\r\n    require(_amount > 0, \"amount has to be greater than zero\");\r\n    require(_token.balanceOf(address(this)) >= _amount, \"Balance has to be >= than the amount to withdraw\");\r\n    _token.transfer(tx.origin, _amount);\r\n    build.pool.tokenAmount -= _amount;\r\n  }\r\n\r\n  function withdrawFromGasPool(uint _amount) external isCreator {\r\n    require(_amount > 0, \"amount has to be greater than zero\");\r\n    require(address(this).balance >= _amount, \"Balance has to be >= than the amount to withdraw\");\r\n    address payable _addr = payable(tx.origin);\r\n    _addr.transfer(_amount);\r\n    build.pool.gasAmount -= _amount;\r\n  }\r\n\r\n  function didUserTakeSurvey(address _addr) view public returns (bool) {\r\n    uint index = userAnswers[_addr];\r\n    if (index > 0) {\r\n      return true;\r\n    }\r\n    return false;\r\n  }\r\n}\r\n",
  "sourcePath": "C:\\Users\\surge\\Desktop\\dapp-projects\\survana\\contracts\\Survey.sol",
  "compiler": {
    "name": "solc",
    "version": "0.8.7+commit.e28d00a7.Emscripten.clang"
  },
  "schemaVersion": "3.4.3",
  "updatedAt": "2021-09-06T06:57:16.659Z",
  "devdoc": {
    "kind": "dev",
    "methods": {},
    "version": 1
  },
  "userdoc": {
    "kind": "user",
    "methods": {},
    "version": 1
  }
}