{
  "contractName": "Token",
  "abi": [
    {
      "inputs": [],
      "payable": false,
      "stateMutability": "nonpayable",
      "type": "constructor"
    },
    {
      "anonymous": false,
      "inputs": [
        {
          "indexed": true,
          "internalType": "address",
          "name": "_owner",
          "type": "address"
        },
        {
          "indexed": true,
          "internalType": "address",
          "name": "_spender",
          "type": "address"
        },
        {
          "indexed": false,
          "internalType": "uint256",
          "name": "_value",
          "type": "uint256"
        }
      ],
      "name": "Approval",
      "type": "event"
    },
    {
      "anonymous": false,
      "inputs": [
        {
          "indexed": true,
          "internalType": "address",
          "name": "_from",
          "type": "address"
        },
        {
          "indexed": true,
          "internalType": "address",
          "name": "_to",
          "type": "address"
        },
        {
          "indexed": false,
          "internalType": "uint256",
          "name": "_value",
          "type": "uint256"
        }
      ],
      "name": "Transfer",
      "type": "event"
    },
    {
      "constant": true,
      "inputs": [],
      "name": "decimals",
      "outputs": [
        {
          "internalType": "uint8",
          "name": "",
          "type": "uint8"
        }
      ],
      "payable": false,
      "stateMutability": "view",
      "type": "function"
    },
    {
      "constant": true,
      "inputs": [],
      "name": "name",
      "outputs": [
        {
          "internalType": "string",
          "name": "",
          "type": "string"
        }
      ],
      "payable": false,
      "stateMutability": "view",
      "type": "function"
    },
    {
      "constant": true,
      "inputs": [],
      "name": "symbol",
      "outputs": [
        {
          "internalType": "string",
          "name": "",
          "type": "string"
        }
      ],
      "payable": false,
      "stateMutability": "view",
      "type": "function"
    },
    {
      "constant": true,
      "inputs": [],
      "name": "totalSupply",
      "outputs": [
        {
          "internalType": "uint256",
          "name": "",
          "type": "uint256"
        }
      ],
      "payable": false,
      "stateMutability": "view",
      "type": "function"
    },
    {
      "constant": true,
      "inputs": [
        {
          "internalType": "address",
          "name": "_addr",
          "type": "address"
        }
      ],
      "name": "balanceOf",
      "outputs": [
        {
          "internalType": "uint256",
          "name": "",
          "type": "uint256"
        }
      ],
      "payable": false,
      "stateMutability": "view",
      "type": "function"
    },
    {
      "constant": true,
      "inputs": [
        {
          "internalType": "address",
          "name": "_from",
          "type": "address"
        },
        {
          "internalType": "address",
          "name": "_addr",
          "type": "address"
        }
      ],
      "name": "allowanceOf",
      "outputs": [
        {
          "internalType": "uint256",
          "name": "",
          "type": "uint256"
        }
      ],
      "payable": false,
      "stateMutability": "view",
      "type": "function"
    },
    {
      "constant": false,
      "inputs": [
        {
          "internalType": "address",
          "name": "_to",
          "type": "address"
        },
        {
          "internalType": "uint256",
          "name": "_value",
          "type": "uint256"
        }
      ],
      "name": "transfer",
      "outputs": [
        {
          "internalType": "bool",
          "name": "success",
          "type": "bool"
        }
      ],
      "payable": false,
      "stateMutability": "nonpayable",
      "type": "function"
    },
    {
      "constant": false,
      "inputs": [
        {
          "internalType": "address",
          "name": "_from",
          "type": "address"
        },
        {
          "internalType": "address",
          "name": "_to",
          "type": "address"
        },
        {
          "internalType": "uint256",
          "name": "_value",
          "type": "uint256"
        }
      ],
      "name": "transferFrom",
      "outputs": [
        {
          "internalType": "bool",
          "name": "success",
          "type": "bool"
        }
      ],
      "payable": false,
      "stateMutability": "nonpayable",
      "type": "function"
    },
    {
      "constant": false,
      "inputs": [
        {
          "internalType": "address",
          "name": "_spender",
          "type": "address"
        },
        {
          "internalType": "uint256",
          "name": "_value",
          "type": "uint256"
        }
      ],
      "name": "approve",
      "outputs": [
        {
          "internalType": "bool",
          "name": "success",
          "type": "bool"
        }
      ],
      "payable": false,
      "stateMutability": "nonpayable",
      "type": "function"
    }
  ],
  "bytecode": "0x60806040526040518060400160405280600b81526020017f50616e676f20546f6b656e0000000000000000000000000000000000000000008152506000908051906020019061004f929190610120565b506040518060400160405280600581526020017f50414e474f0000000000000000000000000000000000000000000000000000008152506001908051906020019061009b929190610120565b506b033b2e3c9fd0803ce80000006002556012600360006101000a81548160ff021916908360ff1602179055503480156100d457600080fd5b50600254600460003373ffffffffffffffffffffffffffffffffffffffff1673ffffffffffffffffffffffffffffffffffffffff168152602001908152602001600020819055506101c5565b828054600181600116156101000203166002900490600052602060002090601f016020900481019282601f1061016157805160ff191683800117855561018f565b8280016001018555821561018f579182015b8281111561018e578251825591602001919060010190610173565b5b50905061019c91906101a0565b5090565b6101c291905b808211156101be5760008160009055506001016101a6565b5090565b90565b610dfc806101d46000396000f3fe608060405234801561001057600080fd5b50600436106100935760003560e01c806323b872dd1161006657806323b872dd14610134578063313ce5671461016457806370a082311461018257806395d89b41146101b2578063a9059cbb146101d057610093565b806306fdde0314610098578063095ea7b3146100b657806318160ddd146100e65780631a46ec8214610104575b600080fd5b6100a0610200565b6040516100ad9190610c3e565b60405180910390f35b6100d060048036036100cb9190810190610adb565b61029e565b6040516100dd9190610c23565b60405180910390f35b6100ee610412565b6040516100fb9190610ca0565b60405180910390f35b61011e60048036036101199190810190610a50565b610418565b60405161012b9190610ca0565b60405180910390f35b61014e60048036036101499190810190610a8c565b61049f565b60405161015b9190610c23565b60405180910390f35b61016c610776565b6040516101799190610cbb565b60405180910390f35b61019c60048036036101979190810190610a27565b610789565b6040516101a99190610ca0565b60405180910390f35b6101ba6107d2565b6040516101c79190610c3e565b60405180910390f35b6101ea60048036036101e59190810190610adb565b610870565b6040516101f79190610c23565b60405180910390f35b60008054600181600116156101000203166002900480601f0160208091040260200160405190810160405280929190818152602001828054600181600116156101000203166002900480156102965780601f1061026b57610100808354040283529160200191610296565b820191906000526020600020905b81548152906001019060200180831161027957829003601f168201915b505050505081565b600081600460003373ffffffffffffffffffffffffffffffffffffffff1673ffffffffffffffffffffffffffffffffffffffff168152602001908152602001600020541015610322576040517f08c379a000000000000000000000000000000000000000000000000000000000815260040161031990610c80565b60405180910390fd5b81600560003373ffffffffffffffffffffffffffffffffffffffff1673ffffffffffffffffffffffffffffffffffffffff16815260200190815260200160002060008573ffffffffffffffffffffffffffffffffffffffff1673ffffffffffffffffffffffffffffffffffffffff168152602001908152602001600020819055508273ffffffffffffffffffffffffffffffffffffffff163373ffffffffffffffffffffffffffffffffffffffff167f8c5be1e5ebec7d5bd14f71427d1e84f3dd0314c0f7b2291e5b200ac8c7c3b925846040516104009190610ca0565b60405180910390a36001905092915050565b60025481565b6000600560008473ffffffffffffffffffffffffffffffffffffffff1673ffffffffffffffffffffffffffffffffffffffff16815260200190815260200160002060008373ffffffffffffffffffffffffffffffffffffffff1673ffffffffffffffffffffffffffffffffffffffff16815260200190815260200160002054905092915050565b600081600460008673ffffffffffffffffffffffffffffffffffffffff1673ffffffffffffffffffffffffffffffffffffffff168152602001908152602001600020541015610523576040517f08c379a000000000000000000000000000000000000000000000000000000000815260040161051a90610c80565b60405180910390fd5b81600560008673ffffffffffffffffffffffffffffffffffffffff1673ffffffffffffffffffffffffffffffffffffffff16815260200190815260200160002060003373ffffffffffffffffffffffffffffffffffffffff1673ffffffffffffffffffffffffffffffffffffffff1681526020019081526020016000205410156105e2576040517f08c379a00000000000000000000000000000000000000000000000000000000081526004016105d990610c60565b60405180910390fd5b81600460008673ffffffffffffffffffffffffffffffffffffffff1673ffffffffffffffffffffffffffffffffffffffff1681526020019081526020016000206000828254039250508190555081600460008573ffffffffffffffffffffffffffffffffffffffff1673ffffffffffffffffffffffffffffffffffffffff1681526020019081526020016000206000828254019250508190555081600560008673ffffffffffffffffffffffffffffffffffffffff1673ffffffffffffffffffffffffffffffffffffffff16815260200190815260200160002060003373ffffffffffffffffffffffffffffffffffffffff1673ffffffffffffffffffffffffffffffffffffffff168152602001908152602001600020600082825403925050819055508273ffffffffffffffffffffffffffffffffffffffff168473ffffffffffffffffffffffffffffffffffffffff167fddf252ad1be2c89b69c2b068fc378daa952ba7f163c4a11628f55a4df523b3ef846040516107639190610ca0565b60405180910390a3600190509392505050565b600360009054906101000a900460ff1681565b6000600460008373ffffffffffffffffffffffffffffffffffffffff1673ffffffffffffffffffffffffffffffffffffffff168152602001908152602001600020549050919050565b60018054600181600116156101000203166002900480601f0160208091040260200160405190810160405280929190818152602001828054600181600116156101000203166002900480156108685780601f1061083d57610100808354040283529160200191610868565b820191906000526020600020905b81548152906001019060200180831161084b57829003601f168201915b505050505081565b600081600460003373ffffffffffffffffffffffffffffffffffffffff1673ffffffffffffffffffffffffffffffffffffffff1681526020019081526020016000205410156108f4576040517f08c379a00000000000000000000000000000000000000000000000000000000081526004016108eb90610c80565b60405180910390fd5b81600460003373ffffffffffffffffffffffffffffffffffffffff1673ffffffffffffffffffffffffffffffffffffffff1681526020019081526020016000206000828254039250508190555081600460008573ffffffffffffffffffffffffffffffffffffffff1673ffffffffffffffffffffffffffffffffffffffff168152602001908152602001600020600082825401925050819055508273ffffffffffffffffffffffffffffffffffffffff163373ffffffffffffffffffffffffffffffffffffffff167fddf252ad1be2c89b69c2b068fc378daa952ba7f163c4a11628f55a4df523b3ef846040516109eb9190610ca0565b60405180910390a36001905092915050565b600081359050610a0c81610d8b565b92915050565b600081359050610a2181610da2565b92915050565b600060208284031215610a3957600080fd5b6000610a47848285016109fd565b91505092915050565b60008060408385031215610a6357600080fd5b6000610a71858286016109fd565b9250506020610a82858286016109fd565b9150509250929050565b600080600060608486031215610aa157600080fd5b6000610aaf868287016109fd565b9350506020610ac0868287016109fd565b9250506040610ad186828701610a12565b9150509250925092565b60008060408385031215610aee57600080fd5b6000610afc858286016109fd565b9250506020610b0d85828601610a12565b9150509250929050565b610b2081610d04565b82525050565b6000610b3182610cd6565b610b3b8185610ce1565b9350610b4b818560208601610d47565b610b5481610d7a565b840191505092915050565b6000610b6c602483610ce1565b91507f53656e646572206973206e6f7420616c6c6f77656420746f206d6f766520667560008301527f6e64732e000000000000000000000000000000000000000000000000000000006020830152604082019050919050565b6000610bd2601183610ce1565b91507f4e6f7420656e6f75676820746f6b656e730000000000000000000000000000006000830152602082019050919050565b610c0e81610d30565b82525050565b610c1d81610d3a565b82525050565b6000602082019050610c386000830184610b17565b92915050565b60006020820190508181036000830152610c588184610b26565b905092915050565b60006020820190508181036000830152610c7981610b5f565b9050919050565b60006020820190508181036000830152610c9981610bc5565b9050919050565b6000602082019050610cb56000830184610c05565b92915050565b6000602082019050610cd06000830184610c14565b92915050565b600081519050919050565b600082825260208201905092915050565b6000610cfd82610d10565b9050919050565b60008115159050919050565b600073ffffffffffffffffffffffffffffffffffffffff82169050919050565b6000819050919050565b600060ff82169050919050565b60005b83811015610d65578082015181840152602081019050610d4a565b83811115610d74576000848401525b50505050565b6000601f19601f8301169050919050565b610d9481610cf2565b8114610d9f57600080fd5b50565b610dab81610d30565b8114610db657600080fd5b5056fea365627a7a72315820eaab2d35c0aebd890cedcb9b63b7fc18c8eca696e282f5e6290a071c106ad3186c6578706572696d656e74616cf564736f6c63430005100040",
  "source": "// SPDX-License-Identifier: MIT\npragma experimental ABIEncoderV2;\npragma solidity >=0.4.22 <0.9.0;\n\ncontract Token {\n    string public name = \"Pango Token\";\n    string public symbol = \"PANGO\";\n    uint256 public totalSupply =  1 * (10**9) * (10**18); //1 Billion\n    uint8 public decimals = 18;\n\n    constructor() public {\n        balance[msg.sender] = totalSupply;\n    }\n\n    mapping (address => uint256) balance;\n    mapping (address => mapping(address => uint256)) allowance;\n\n    //events\n    event Transfer(address indexed _from, address indexed _to, uint256 _value);\n    event Approval(address indexed _owner, address indexed _spender, uint256 _value);\n\n    //functions\n    function balanceOf(address _addr) public view returns (uint256) {\n        return balance[_addr];\n    }\n\n    function allowanceOf(address _from, address _addr) external view returns (uint256) {\n        return allowance[_from][_addr];\n    }\n\n    function transfer(address _to, uint256 _value) external returns (bool success) {\n        //move your funds to another account\n        require(balance[msg.sender] >= _value, \"Not enough tokens\");\n        balance[msg.sender] -= _value;\n        balance[_to] += _value;\n        emit Transfer(msg.sender, _to, _value);\n        return true;\n    }\n\n    function transferFrom(address _from, address _to, uint256 _value) external returns (bool success) {\n        //sender must be allowed to take funds from account A\n        //first of all from address must be allowed to move it to account B\n        require(balance[_from] >= _value, \"Not enough tokens\");\n        require(allowance[_from][msg.sender] >= _value, \"Sender is not allowed to move funds.\");\n        //change balances\n        balance[_from] -= _value;\n        balance[_to] += _value;\n        //remove it from the allowance\n        allowance[_from][msg.sender] -= _value;\n        emit Transfer(_from, _to, _value);\n        return true;\n    }\n\n    function approve(address _spender, uint256 _value) external returns (bool success) {\n        require(balance[msg.sender] >= _value, \"Not enough tokens\");\n        //attach spender address to sender\n        allowance[msg.sender][_spender] = _value;\n        emit Approval(msg.sender, _spender, _value);\n        return true;\n    }\n}",
  "sourcePath": "/home/scott/projects/survana/contracts/Token.sol",
  "compiler": {
    "name": "solc",
    "version": "0.5.16+commit.9c3226ce.Emscripten.clang"
  },
  "schemaVersion": "3.4.3",
  "updatedAt": "2021-09-02T23:35:52.836Z",
  "devdoc": {
    "methods": {}
  },
  "userdoc": {
    "methods": {}
  }
}